{
	"contracts/crowdsale-contracts/validation/CappedCrowdsale.sol": {
		"CappedCrowdsale": {
			"abi": [
				{
					"inputs": [
						{
							"internalType": "uint256",
							"name": "rate_",
							"type": "uint256"
						},
						{
							"internalType": "address payable",
							"name": "wallet_",
							"type": "address"
						},
						{
							"internalType": "contract IERC20",
							"name": "token_",
							"type": "address"
						},
						{
							"internalType": "uint256",
							"name": "cap_",
							"type": "uint256"
						}
					],
					"stateMutability": "nonpayable",
					"type": "constructor"
				},
				{
					"anonymous": false,
					"inputs": [
						{
							"indexed": true,
							"internalType": "address",
							"name": "purchaser",
							"type": "address"
						},
						{
							"indexed": true,
							"internalType": "address",
							"name": "beneficiary",
							"type": "address"
						},
						{
							"indexed": false,
							"internalType": "uint256",
							"name": "value",
							"type": "uint256"
						},
						{
							"indexed": false,
							"internalType": "uint256",
							"name": "amount",
							"type": "uint256"
						}
					],
					"name": "TokensPurchased",
					"type": "event"
				},
				{
					"inputs": [
						{
							"internalType": "address",
							"name": "beneficiary",
							"type": "address"
						}
					],
					"name": "buyTokens",
					"outputs": [],
					"stateMutability": "payable",
					"type": "function"
				},
				{
					"inputs": [],
					"name": "cap",
					"outputs": [
						{
							"internalType": "uint256",
							"name": "",
							"type": "uint256"
						}
					],
					"stateMutability": "view",
					"type": "function"
				},
				{
					"inputs": [],
					"name": "capReached",
					"outputs": [
						{
							"internalType": "bool",
							"name": "",
							"type": "bool"
						}
					],
					"stateMutability": "view",
					"type": "function"
				},
				{
					"inputs": [],
					"name": "rate",
					"outputs": [
						{
							"internalType": "uint256",
							"name": "",
							"type": "uint256"
						}
					],
					"stateMutability": "view",
					"type": "function"
				},
				{
					"inputs": [],
					"name": "token",
					"outputs": [
						{
							"internalType": "contract IERC20",
							"name": "",
							"type": "address"
						}
					],
					"stateMutability": "view",
					"type": "function"
				},
				{
					"inputs": [],
					"name": "wallet",
					"outputs": [
						{
							"internalType": "address payable",
							"name": "",
							"type": "address"
						}
					],
					"stateMutability": "view",
					"type": "function"
				},
				{
					"inputs": [],
					"name": "weiRaised",
					"outputs": [
						{
							"internalType": "uint256",
							"name": "",
							"type": "uint256"
						}
					],
					"stateMutability": "view",
					"type": "function"
				},
				{
					"stateMutability": "payable",
					"type": "receive"
				}
			],
			"devdoc": {
				"details": "Crowdsale with a limit for total contributions.",
				"kind": "dev",
				"methods": {
					"buyTokens(address)": {
						"details": "low level token purchase ***DO NOT OVERRIDE*** This function has a non-reentrancy guard, so it shouldn't be called by another `nonReentrant` function.",
						"params": {
							"beneficiary": "Recipient of the token purchase"
						}
					},
					"cap()": {
						"returns": {
							"_0": "the cap of the crowdsale."
						}
					},
					"capReached()": {
						"details": "Checks whether the cap has been reached.",
						"returns": {
							"_0": "Whether the cap was reached"
						}
					},
					"constructor": {
						"details": "Constructor, takes maximum amount of wei accepted in the crowdsale.",
						"params": {
							"cap_": "Max amount of wei to be contributed"
						}
					},
					"rate()": {
						"returns": {
							"_0": "the number of token units a buyer gets per wei."
						}
					},
					"token()": {
						"returns": {
							"_0": "the token being sold."
						}
					},
					"wallet()": {
						"returns": {
							"_0": "the address where funds are collected."
						}
					},
					"weiRaised()": {
						"returns": {
							"_0": "the amount of wei raised."
						}
					}
				},
				"title": "CappedCrowdsale",
				"version": 1
			},
			"evm": {
				"assembly": "    /* \"contracts/crowdsale-contracts/validation/CappedCrowdsale.sol\":247:1530  contract CappedCrowdsale is Crowdsale {\r... */\n  mstore(0x40, 0x80)\n    /* \"contracts/crowdsale-contracts/validation/CappedCrowdsale.sol\":511:714  constructor (uint256 rate_, address payable wallet_, IERC20 token_, uint256 cap_) Crowdsale(rate_, wallet_, token_) {\r... */\n  callvalue\n  dup1\n  iszero\n  tag_1\n  jumpi\n  0x00\n  dup1\n  revert\ntag_1:\n  pop\n  mload(0x40)\n  sub(codesize, bytecodeSize)\n  dup1\n  bytecodeSize\n  dup4\n  codecopy\n  dup2\n  dup2\n  add\n  0x40\n  mstore\n  dup2\n  add\n  swap1\n  tag_2\n  swap2\n  swap1\n  tag_3\n  jump\t// in\ntag_2:\n    /* \"contracts/crowdsale-contracts/validation/CappedCrowdsale.sol\":603:608  rate_ */\n  dup4\n    /* \"contracts/crowdsale-contracts/validation/CappedCrowdsale.sol\":610:617  wallet_ */\n  dup4\n    /* \"contracts/crowdsale-contracts/validation/CappedCrowdsale.sol\":619:625  token_ */\n  dup4\n    /* \"@openzeppelin/contracts/security/ReentrancyGuard.sol\":1701:1702  1 */\n  0x01\n    /* \"@openzeppelin/contracts/security/ReentrancyGuard.sol\":1806:1813  _status */\n  0x00\n    /* \"@openzeppelin/contracts/security/ReentrancyGuard.sol\":1806:1828  _status = _NOT_ENTERED */\n  dup2\n  swap1\n  sstore\n  pop\n    /* \"contracts/crowdsale-contracts/Crowdsale.sol\":2628:2629  0 */\n  0x00\n    /* \"contracts/crowdsale-contracts/Crowdsale.sol\":2620:2625  rate_ */\n  dup4\n    /* \"contracts/crowdsale-contracts/Crowdsale.sol\":2620:2629  rate_ > 0 */\n  gt\n    /* \"contracts/crowdsale-contracts/Crowdsale.sol\":2612:2654  require(rate_ > 0, \"Crowdsale: rate is 0\") */\n  tag_9\n  jumpi\n  mload(0x40)\n  0x08c379a000000000000000000000000000000000000000000000000000000000\n  dup2\n  mstore\n  0x04\n  add\n  tag_10\n  swap1\n  tag_11\n  jump\t// in\ntag_10:\n  mload(0x40)\n  dup1\n  swap2\n  sub\n  swap1\n  revert\ntag_9:\n    /* \"contracts/crowdsale-contracts/Crowdsale.sol\":2692:2693  0 */\n  0x00\n    /* \"contracts/crowdsale-contracts/Crowdsale.sol\":2673:2694  wallet_ != address(0) */\n  0xffffffffffffffffffffffffffffffffffffffff\n  and\n    /* \"contracts/crowdsale-contracts/Crowdsale.sol\":2673:2680  wallet_ */\n  dup3\n    /* \"contracts/crowdsale-contracts/Crowdsale.sol\":2673:2694  wallet_ != address(0) */\n  0xffffffffffffffffffffffffffffffffffffffff\n  and\n  eq\n  iszero\n    /* \"contracts/crowdsale-contracts/Crowdsale.sol\":2665:2736  require(wallet_ != address(0), \"Crowdsale: wallet is the zero address\") */\n  tag_12\n  jumpi\n  mload(0x40)\n  0x08c379a000000000000000000000000000000000000000000000000000000000\n  dup2\n  mstore\n  0x04\n  add\n  tag_13\n  swap1\n  tag_14\n  jump\t// in\ntag_13:\n  mload(0x40)\n  dup1\n  swap2\n  sub\n  swap1\n  revert\ntag_12:\n    /* \"contracts/crowdsale-contracts/Crowdsale.sol\":2782:2783  0 */\n  0x00\n    /* \"contracts/crowdsale-contracts/Crowdsale.sol\":2755:2784  address(token_) != address(0) */\n  0xffffffffffffffffffffffffffffffffffffffff\n  and\n    /* \"contracts/crowdsale-contracts/Crowdsale.sol\":2763:2769  token_ */\n  dup2\n    /* \"contracts/crowdsale-contracts/Crowdsale.sol\":2755:2784  address(token_) != address(0) */\n  0xffffffffffffffffffffffffffffffffffffffff\n  and\n  eq\n  iszero\n    /* \"contracts/crowdsale-contracts/Crowdsale.sol\":2747:2825  require(address(token_) != address(0), \"Crowdsale: token is the zero address\") */\n  tag_15\n  jumpi\n  mload(0x40)\n  0x08c379a000000000000000000000000000000000000000000000000000000000\n  dup2\n  mstore\n  0x04\n  add\n  tag_16\n  swap1\n  tag_17\n  jump\t// in\ntag_16:\n  mload(0x40)\n  dup1\n  swap2\n  sub\n  swap1\n  revert\ntag_15:\n    /* \"contracts/crowdsale-contracts/Crowdsale.sol\":2846:2851  rate_ */\n  dup3\n    /* \"contracts/crowdsale-contracts/Crowdsale.sol\":2838:2843  _rate */\n  0x03\n    /* \"contracts/crowdsale-contracts/Crowdsale.sol\":2838:2851  _rate = rate_ */\n  dup2\n  swap1\n  sstore\n  pop\n    /* \"contracts/crowdsale-contracts/Crowdsale.sol\":2872:2879  wallet_ */\n  dup2\n    /* \"contracts/crowdsale-contracts/Crowdsale.sol\":2862:2869  _wallet */\n  0x02\n  0x00\n    /* \"contracts/crowdsale-contracts/Crowdsale.sol\":2862:2879  _wallet = wallet_ */\n  0x0100\n  exp\n  dup2\n  sload\n  dup2\n  0xffffffffffffffffffffffffffffffffffffffff\n  mul\n  not\n  and\n  swap1\n  dup4\n  0xffffffffffffffffffffffffffffffffffffffff\n  and\n  mul\n  or\n  swap1\n  sstore\n  pop\n    /* \"contracts/crowdsale-contracts/Crowdsale.sol\":2899:2905  token_ */\n  dup1\n    /* \"contracts/crowdsale-contracts/Crowdsale.sol\":2890:2896  _token */\n  0x01\n  0x00\n    /* \"contracts/crowdsale-contracts/Crowdsale.sol\":2890:2905  _token = token_ */\n  0x0100\n  exp\n  dup2\n  sload\n  dup2\n  0xffffffffffffffffffffffffffffffffffffffff\n  mul\n  not\n  and\n  swap1\n  dup4\n  0xffffffffffffffffffffffffffffffffffffffff\n  and\n  mul\n  or\n  swap1\n  sstore\n  pop\n    /* \"contracts/crowdsale-contracts/Crowdsale.sol\":2533:2913  constructor (uint256 rate_, address payable wallet_, IERC20 token_) {\r... */\n  pop\n  pop\n  pop\n    /* \"contracts/crowdsale-contracts/validation/CappedCrowdsale.sol\":653:654  0 */\n  0x00\n    /* \"contracts/crowdsale-contracts/validation/CappedCrowdsale.sol\":646:650  cap_ */\n  dup2\n    /* \"contracts/crowdsale-contracts/validation/CappedCrowdsale.sol\":646:654  cap_ > 0 */\n  gt\n    /* \"contracts/crowdsale-contracts/validation/CappedCrowdsale.sol\":638:684  require(cap_ > 0, \"CappedCrowdsale: cap is 0\") */\n  tag_19\n  jumpi\n  mload(0x40)\n  0x08c379a000000000000000000000000000000000000000000000000000000000\n  dup2\n  mstore\n  0x04\n  add\n  tag_20\n  swap1\n  tag_21\n  jump\t// in\ntag_20:\n  mload(0x40)\n  dup1\n  swap2\n  sub\n  swap1\n  revert\ntag_19:\n    /* \"contracts/crowdsale-contracts/validation/CappedCrowdsale.sol\":702:706  cap_ */\n  dup1\n    /* \"contracts/crowdsale-contracts/validation/CappedCrowdsale.sol\":695:699  _cap */\n  0x05\n    /* \"contracts/crowdsale-contracts/validation/CappedCrowdsale.sol\":695:706  _cap = cap_ */\n  dup2\n  swap1\n  sstore\n  pop\n    /* \"contracts/crowdsale-contracts/validation/CappedCrowdsale.sol\":511:714  constructor (uint256 rate_, address payable wallet_, IERC20 token_, uint256 cap_) Crowdsale(rate_, wallet_, token_) {\r... */\n  pop\n  pop\n  pop\n  pop\n    /* \"contracts/crowdsale-contracts/validation/CappedCrowdsale.sol\":247:1530  contract CappedCrowdsale is Crowdsale {\r... */\n  jump(tag_22)\n    /* \"#utility.yul\":7:166   */\ntag_24:\n    /* \"#utility.yul\":72:77   */\n  0x00\n    /* \"#utility.yul\":103:109   */\n  dup2\n    /* \"#utility.yul\":97:110   */\n  mload\n    /* \"#utility.yul\":88:110   */\n  swap1\n  pop\n    /* \"#utility.yul\":119:160   */\n  tag_26\n    /* \"#utility.yul\":154:159   */\n  dup2\n    /* \"#utility.yul\":119:160   */\n  tag_27\n  jump\t// in\ntag_26:\n    /* \"#utility.yul\":7:166   */\n  swap3\n  swap2\n  pop\n  pop\n  jump\t// out\n    /* \"#utility.yul\":172:343   */\ntag_28:\n    /* \"#utility.yul\":243:248   */\n  0x00\n    /* \"#utility.yul\":274:280   */\n  dup2\n    /* \"#utility.yul\":268:281   */\n  mload\n    /* \"#utility.yul\":259:281   */\n  swap1\n  pop\n    /* \"#utility.yul\":290:337   */\n  tag_30\n    /* \"#utility.yul\":331:336   */\n  dup2\n    /* \"#utility.yul\":290:337   */\n  tag_31\n  jump\t// in\ntag_30:\n    /* \"#utility.yul\":172:343   */\n  swap3\n  swap2\n  pop\n  pop\n  jump\t// out\n    /* \"#utility.yul\":349:492   */\ntag_32:\n    /* \"#utility.yul\":406:411   */\n  0x00\n    /* \"#utility.yul\":437:443   */\n  dup2\n    /* \"#utility.yul\":431:444   */\n  mload\n    /* \"#utility.yul\":422:444   */\n  swap1\n  pop\n    /* \"#utility.yul\":453:486   */\n  tag_34\n    /* \"#utility.yul\":480:485   */\n  dup2\n    /* \"#utility.yul\":453:486   */\n  tag_35\n  jump\t// in\ntag_34:\n    /* \"#utility.yul\":349:492   */\n  swap3\n  swap2\n  pop\n  pop\n  jump\t// out\n    /* \"#utility.yul\":498:1362   */\ntag_3:\n    /* \"#utility.yul\":617:623   */\n  0x00\n    /* \"#utility.yul\":625:631   */\n  dup1\n    /* \"#utility.yul\":633:639   */\n  0x00\n    /* \"#utility.yul\":641:647   */\n  dup1\n    /* \"#utility.yul\":690:693   */\n  0x80\n    /* \"#utility.yul\":678:687   */\n  dup6\n    /* \"#utility.yul\":669:676   */\n  dup8\n    /* \"#utility.yul\":665:688   */\n  sub\n    /* \"#utility.yul\":661:694   */\n  slt\n    /* \"#utility.yul\":658:778   */\n  iszero\n  tag_37\n  jumpi\n    /* \"#utility.yul\":697:776   */\n  tag_38\n  tag_39\n  jump\t// in\ntag_38:\n    /* \"#utility.yul\":658:778   */\ntag_37:\n    /* \"#utility.yul\":817:818   */\n  0x00\n    /* \"#utility.yul\":842:906   */\n  tag_40\n    /* \"#utility.yul\":898:905   */\n  dup8\n    /* \"#utility.yul\":889:895   */\n  dup3\n    /* \"#utility.yul\":878:887   */\n  dup9\n    /* \"#utility.yul\":874:896   */\n  add\n    /* \"#utility.yul\":842:906   */\n  tag_32\n  jump\t// in\ntag_40:\n    /* \"#utility.yul\":832:906   */\n  swap5\n  pop\n    /* \"#utility.yul\":788:916   */\n  pop\n    /* \"#utility.yul\":955:957   */\n  0x20\n    /* \"#utility.yul\":981:1053   */\n  tag_41\n    /* \"#utility.yul\":1045:1052   */\n  dup8\n    /* \"#utility.yul\":1036:1042   */\n  dup3\n    /* \"#utility.yul\":1025:1034   */\n  dup9\n    /* \"#utility.yul\":1021:1043   */\n  add\n    /* \"#utility.yul\":981:1053   */\n  tag_24\n  jump\t// in\ntag_41:\n    /* \"#utility.yul\":971:1053   */\n  swap4\n  pop\n    /* \"#utility.yul\":926:1063   */\n  pop\n    /* \"#utility.yul\":1102:1104   */\n  0x40\n    /* \"#utility.yul\":1128:1206   */\n  tag_42\n    /* \"#utility.yul\":1198:1205   */\n  dup8\n    /* \"#utility.yul\":1189:1195   */\n  dup3\n    /* \"#utility.yul\":1178:1187   */\n  dup9\n    /* \"#utility.yul\":1174:1196   */\n  add\n    /* \"#utility.yul\":1128:1206   */\n  tag_28\n  jump\t// in\ntag_42:\n    /* \"#utility.yul\":1118:1206   */\n  swap3\n  pop\n    /* \"#utility.yul\":1073:1216   */\n  pop\n    /* \"#utility.yul\":1255:1257   */\n  0x60\n    /* \"#utility.yul\":1281:1345   */\n  tag_43\n    /* \"#utility.yul\":1337:1344   */\n  dup8\n    /* \"#utility.yul\":1328:1334   */\n  dup3\n    /* \"#utility.yul\":1317:1326   */\n  dup9\n    /* \"#utility.yul\":1313:1335   */\n  add\n    /* \"#utility.yul\":1281:1345   */\n  tag_32\n  jump\t// in\ntag_43:\n    /* \"#utility.yul\":1271:1345   */\n  swap2\n  pop\n    /* \"#utility.yul\":1226:1355   */\n  pop\n    /* \"#utility.yul\":498:1362   */\n  swap3\n  swap6\n  swap2\n  swap5\n  pop\n  swap3\n  pop\n  jump\t// out\n    /* \"#utility.yul\":1368:1734   */\ntag_44:\n    /* \"#utility.yul\":1510:1513   */\n  0x00\n    /* \"#utility.yul\":1531:1598   */\n  tag_46\n    /* \"#utility.yul\":1595:1597   */\n  0x24\n    /* \"#utility.yul\":1590:1593   */\n  dup4\n    /* \"#utility.yul\":1531:1598   */\n  tag_47\n  jump\t// in\ntag_46:\n    /* \"#utility.yul\":1524:1598   */\n  swap2\n  pop\n    /* \"#utility.yul\":1607:1700   */\n  tag_48\n    /* \"#utility.yul\":1696:1699   */\n  dup3\n    /* \"#utility.yul\":1607:1700   */\n  tag_49\n  jump\t// in\ntag_48:\n    /* \"#utility.yul\":1725:1727   */\n  0x40\n    /* \"#utility.yul\":1720:1723   */\n  dup3\n    /* \"#utility.yul\":1716:1728   */\n  add\n    /* \"#utility.yul\":1709:1728   */\n  swap1\n  pop\n    /* \"#utility.yul\":1368:1734   */\n  swap2\n  swap1\n  pop\n  jump\t// out\n    /* \"#utility.yul\":1740:2106   */\ntag_50:\n    /* \"#utility.yul\":1882:1885   */\n  0x00\n    /* \"#utility.yul\":1903:1970   */\n  tag_52\n    /* \"#utility.yul\":1967:1969   */\n  0x19\n    /* \"#utility.yul\":1962:1965   */\n  dup4\n    /* \"#utility.yul\":1903:1970   */\n  tag_47\n  jump\t// in\ntag_52:\n    /* \"#utility.yul\":1896:1970   */\n  swap2\n  pop\n    /* \"#utility.yul\":1979:2072   */\n  tag_53\n    /* \"#utility.yul\":2068:2071   */\n  dup3\n    /* \"#utility.yul\":1979:2072   */\n  tag_54\n  jump\t// in\ntag_53:\n    /* \"#utility.yul\":2097:2099   */\n  0x20\n    /* \"#utility.yul\":2092:2095   */\n  dup3\n    /* \"#utility.yul\":2088:2100   */\n  add\n    /* \"#utility.yul\":2081:2100   */\n  swap1\n  pop\n    /* \"#utility.yul\":1740:2106   */\n  swap2\n  swap1\n  pop\n  jump\t// out\n    /* \"#utility.yul\":2112:2478   */\ntag_55:\n    /* \"#utility.yul\":2254:2257   */\n  0x00\n    /* \"#utility.yul\":2275:2342   */\n  tag_57\n    /* \"#utility.yul\":2339:2341   */\n  0x14\n    /* \"#utility.yul\":2334:2337   */\n  dup4\n    /* \"#utility.yul\":2275:2342   */\n  tag_47\n  jump\t// in\ntag_57:\n    /* \"#utility.yul\":2268:2342   */\n  swap2\n  pop\n    /* \"#utility.yul\":2351:2444   */\n  tag_58\n    /* \"#utility.yul\":2440:2443   */\n  dup3\n    /* \"#utility.yul\":2351:2444   */\n  tag_59\n  jump\t// in\ntag_58:\n    /* \"#utility.yul\":2469:2471   */\n  0x20\n    /* \"#utility.yul\":2464:2467   */\n  dup3\n    /* \"#utility.yul\":2460:2472   */\n  add\n    /* \"#utility.yul\":2453:2472   */\n  swap1\n  pop\n    /* \"#utility.yul\":2112:2478   */\n  swap2\n  swap1\n  pop\n  jump\t// out\n    /* \"#utility.yul\":2484:2850   */\ntag_60:\n    /* \"#utility.yul\":2626:2629   */\n  0x00\n    /* \"#utility.yul\":2647:2714   */\n  tag_62\n    /* \"#utility.yul\":2711:2713   */\n  0x25\n    /* \"#utility.yul\":2706:2709   */\n  dup4\n    /* \"#utility.yul\":2647:2714   */\n  tag_47\n  jump\t// in\ntag_62:\n    /* \"#utility.yul\":2640:2714   */\n  swap2\n  pop\n    /* \"#utility.yul\":2723:2816   */\n  tag_63\n    /* \"#utility.yul\":2812:2815   */\n  dup3\n    /* \"#utility.yul\":2723:2816   */\n  tag_64\n  jump\t// in\ntag_63:\n    /* \"#utility.yul\":2841:2843   */\n  0x40\n    /* \"#utility.yul\":2836:2839   */\n  dup3\n    /* \"#utility.yul\":2832:2844   */\n  add\n    /* \"#utility.yul\":2825:2844   */\n  swap1\n  pop\n    /* \"#utility.yul\":2484:2850   */\n  swap2\n  swap1\n  pop\n  jump\t// out\n    /* \"#utility.yul\":2856:3275   */\ntag_17:\n    /* \"#utility.yul\":3022:3026   */\n  0x00\n    /* \"#utility.yul\":3060:3062   */\n  0x20\n    /* \"#utility.yul\":3049:3058   */\n  dup3\n    /* \"#utility.yul\":3045:3063   */\n  add\n    /* \"#utility.yul\":3037:3063   */\n  swap1\n  pop\n    /* \"#utility.yul\":3109:3118   */\n  dup2\n    /* \"#utility.yul\":3103:3107   */\n  dup2\n    /* \"#utility.yul\":3099:3119   */\n  sub\n    /* \"#utility.yul\":3095:3096   */\n  0x00\n    /* \"#utility.yul\":3084:3093   */\n  dup4\n    /* \"#utility.yul\":3080:3097   */\n  add\n    /* \"#utility.yul\":3073:3120   */\n  mstore\n    /* \"#utility.yul\":3137:3268   */\n  tag_66\n    /* \"#utility.yul\":3263:3267   */\n  dup2\n    /* \"#utility.yul\":3137:3268   */\n  tag_44\n  jump\t// in\ntag_66:\n    /* \"#utility.yul\":3129:3268   */\n  swap1\n  pop\n    /* \"#utility.yul\":2856:3275   */\n  swap2\n  swap1\n  pop\n  jump\t// out\n    /* \"#utility.yul\":3281:3700   */\ntag_21:\n    /* \"#utility.yul\":3447:3451   */\n  0x00\n    /* \"#utility.yul\":3485:3487   */\n  0x20\n    /* \"#utility.yul\":3474:3483   */\n  dup3\n    /* \"#utility.yul\":3470:3488   */\n  add\n    /* \"#utility.yul\":3462:3488   */\n  swap1\n  pop\n    /* \"#utility.yul\":3534:3543   */\n  dup2\n    /* \"#utility.yul\":3528:3532   */\n  dup2\n    /* \"#utility.yul\":3524:3544   */\n  sub\n    /* \"#utility.yul\":3520:3521   */\n  0x00\n    /* \"#utility.yul\":3509:3518   */\n  dup4\n    /* \"#utility.yul\":3505:3522   */\n  add\n    /* \"#utility.yul\":3498:3545   */\n  mstore\n    /* \"#utility.yul\":3562:3693   */\n  tag_68\n    /* \"#utility.yul\":3688:3692   */\n  dup2\n    /* \"#utility.yul\":3562:3693   */\n  tag_50\n  jump\t// in\ntag_68:\n    /* \"#utility.yul\":3554:3693   */\n  swap1\n  pop\n    /* \"#utility.yul\":3281:3700   */\n  swap2\n  swap1\n  pop\n  jump\t// out\n    /* \"#utility.yul\":3706:4125   */\ntag_11:\n    /* \"#utility.yul\":3872:3876   */\n  0x00\n    /* \"#utility.yul\":3910:3912   */\n  0x20\n    /* \"#utility.yul\":3899:3908   */\n  dup3\n    /* \"#utility.yul\":3895:3913   */\n  add\n    /* \"#utility.yul\":3887:3913   */\n  swap1\n  pop\n    /* \"#utility.yul\":3959:3968   */\n  dup2\n    /* \"#utility.yul\":3953:3957   */\n  dup2\n    /* \"#utility.yul\":3949:3969   */\n  sub\n    /* \"#utility.yul\":3945:3946   */\n  0x00\n    /* \"#utility.yul\":3934:3943   */\n  dup4\n    /* \"#utility.yul\":3930:3947   */\n  add\n    /* \"#utility.yul\":3923:3970   */\n  mstore\n    /* \"#utility.yul\":3987:4118   */\n  tag_70\n    /* \"#utility.yul\":4113:4117   */\n  dup2\n    /* \"#utility.yul\":3987:4118   */\n  tag_55\n  jump\t// in\ntag_70:\n    /* \"#utility.yul\":3979:4118   */\n  swap1\n  pop\n    /* \"#utility.yul\":3706:4125   */\n  swap2\n  swap1\n  pop\n  jump\t// out\n    /* \"#utility.yul\":4131:4550   */\ntag_14:\n    /* \"#utility.yul\":4297:4301   */\n  0x00\n    /* \"#utility.yul\":4335:4337   */\n  0x20\n    /* \"#utility.yul\":4324:4333   */\n  dup3\n    /* \"#utility.yul\":4320:4338   */\n  add\n    /* \"#utility.yul\":4312:4338   */\n  swap1\n  pop\n    /* \"#utility.yul\":4384:4393   */\n  dup2\n    /* \"#utility.yul\":4378:4382   */\n  dup2\n    /* \"#utility.yul\":4374:4394   */\n  sub\n    /* \"#utility.yul\":4370:4371   */\n  0x00\n    /* \"#utility.yul\":4359:4368   */\n  dup4\n    /* \"#utility.yul\":4355:4372   */\n  add\n    /* \"#utility.yul\":4348:4395   */\n  mstore\n    /* \"#utility.yul\":4412:4543   */\n  tag_72\n    /* \"#utility.yul\":4538:4542   */\n  dup2\n    /* \"#utility.yul\":4412:4543   */\n  tag_60\n  jump\t// in\ntag_72:\n    /* \"#utility.yul\":4404:4543   */\n  swap1\n  pop\n    /* \"#utility.yul\":4131:4550   */\n  swap2\n  swap1\n  pop\n  jump\t// out\n    /* \"#utility.yul\":4637:4806   */\ntag_47:\n    /* \"#utility.yul\":4721:4732   */\n  0x00\n    /* \"#utility.yul\":4755:4761   */\n  dup3\n    /* \"#utility.yul\":4750:4753   */\n  dup3\n    /* \"#utility.yul\":4743:4762   */\n  mstore\n    /* \"#utility.yul\":4795:4799   */\n  0x20\n    /* \"#utility.yul\":4790:4793   */\n  dup3\n    /* \"#utility.yul\":4786:4800   */\n  add\n    /* \"#utility.yul\":4771:4800   */\n  swap1\n  pop\n    /* \"#utility.yul\":4637:4806   */\n  swap3\n  swap2\n  pop\n  pop\n  jump\t// out\n    /* \"#utility.yul\":4812:4908   */\ntag_76:\n    /* \"#utility.yul\":4849:4856   */\n  0x00\n    /* \"#utility.yul\":4878:4902   */\n  tag_78\n    /* \"#utility.yul\":4896:4901   */\n  dup3\n    /* \"#utility.yul\":4878:4902   */\n  tag_79\n  jump\t// in\ntag_78:\n    /* \"#utility.yul\":4867:4902   */\n  swap1\n  pop\n    /* \"#utility.yul\":4812:4908   */\n  swap2\n  swap1\n  pop\n  jump\t// out\n    /* \"#utility.yul\":4914:5018   */\ntag_80:\n    /* \"#utility.yul\":4959:4966   */\n  0x00\n    /* \"#utility.yul\":4988:5012   */\n  tag_82\n    /* \"#utility.yul\":5006:5011   */\n  dup3\n    /* \"#utility.yul\":4988:5012   */\n  tag_79\n  jump\t// in\ntag_82:\n    /* \"#utility.yul\":4977:5012   */\n  swap1\n  pop\n    /* \"#utility.yul\":4914:5018   */\n  swap2\n  swap1\n  pop\n  jump\t// out\n    /* \"#utility.yul\":5024:5134   */\ntag_83:\n    /* \"#utility.yul\":5075:5082   */\n  0x00\n    /* \"#utility.yul\":5104:5128   */\n  tag_85\n    /* \"#utility.yul\":5122:5127   */\n  dup3\n    /* \"#utility.yul\":5104:5128   */\n  tag_76\n  jump\t// in\ntag_85:\n    /* \"#utility.yul\":5093:5128   */\n  swap1\n  pop\n    /* \"#utility.yul\":5024:5134   */\n  swap2\n  swap1\n  pop\n  jump\t// out\n    /* \"#utility.yul\":5140:5266   */\ntag_79:\n    /* \"#utility.yul\":5177:5184   */\n  0x00\n    /* \"#utility.yul\":5217:5259   */\n  0xffffffffffffffffffffffffffffffffffffffff\n    /* \"#utility.yul\":5210:5215   */\n  dup3\n    /* \"#utility.yul\":5206:5260   */\n  and\n    /* \"#utility.yul\":5195:5260   */\n  swap1\n  pop\n    /* \"#utility.yul\":5140:5266   */\n  swap2\n  swap1\n  pop\n  jump\t// out\n    /* \"#utility.yul\":5272:5349   */\ntag_87:\n    /* \"#utility.yul\":5309:5316   */\n  0x00\n    /* \"#utility.yul\":5338:5343   */\n  dup2\n    /* \"#utility.yul\":5327:5343   */\n  swap1\n  pop\n    /* \"#utility.yul\":5272:5349   */\n  swap2\n  swap1\n  pop\n  jump\t// out\n    /* \"#utility.yul\":5478:5595   */\ntag_39:\n    /* \"#utility.yul\":5587:5588   */\n  0x00\n    /* \"#utility.yul\":5584:5585   */\n  dup1\n    /* \"#utility.yul\":5577:5589   */\n  revert\n    /* \"#utility.yul\":5601:5824   */\ntag_49:\n    /* \"#utility.yul\":5741:5775   */\n  0x43726f776473616c653a20746f6b656e20697320746865207a65726f20616464\n    /* \"#utility.yul\":5737:5738   */\n  0x00\n    /* \"#utility.yul\":5729:5735   */\n  dup3\n    /* \"#utility.yul\":5725:5739   */\n  add\n    /* \"#utility.yul\":5718:5776   */\n  mstore\n    /* \"#utility.yul\":5810:5816   */\n  0x7265737300000000000000000000000000000000000000000000000000000000\n    /* \"#utility.yul\":5805:5807   */\n  0x20\n    /* \"#utility.yul\":5797:5803   */\n  dup3\n    /* \"#utility.yul\":5793:5808   */\n  add\n    /* \"#utility.yul\":5786:5817   */\n  mstore\n    /* \"#utility.yul\":5601:5824   */\n  pop\n  jump\t// out\n    /* \"#utility.yul\":5830:6005   */\ntag_54:\n    /* \"#utility.yul\":5970:5997   */\n  0x43617070656443726f776473616c653a20636170206973203000000000000000\n    /* \"#utility.yul\":5966:5967   */\n  0x00\n    /* \"#utility.yul\":5958:5964   */\n  dup3\n    /* \"#utility.yul\":5954:5968   */\n  add\n    /* \"#utility.yul\":5947:5998   */\n  mstore\n    /* \"#utility.yul\":5830:6005   */\n  pop\n  jump\t// out\n    /* \"#utility.yul\":6011:6181   */\ntag_59:\n    /* \"#utility.yul\":6151:6173   */\n  0x43726f776473616c653a20726174652069732030000000000000000000000000\n    /* \"#utility.yul\":6147:6148   */\n  0x00\n    /* \"#utility.yul\":6139:6145   */\n  dup3\n    /* \"#utility.yul\":6135:6149   */\n  add\n    /* \"#utility.yul\":6128:6174   */\n  mstore\n    /* \"#utility.yul\":6011:6181   */\n  pop\n  jump\t// out\n    /* \"#utility.yul\":6187:6411   */\ntag_64:\n    /* \"#utility.yul\":6327:6361   */\n  0x43726f776473616c653a2077616c6c657420697320746865207a65726f206164\n    /* \"#utility.yul\":6323:6324   */\n  0x00\n    /* \"#utility.yul\":6315:6321   */\n  dup3\n    /* \"#utility.yul\":6311:6325   */\n  add\n    /* \"#utility.yul\":6304:6362   */\n  mstore\n    /* \"#utility.yul\":6396:6403   */\n  0x6472657373000000000000000000000000000000000000000000000000000000\n    /* \"#utility.yul\":6391:6393   */\n  0x20\n    /* \"#utility.yul\":6383:6389   */\n  dup3\n    /* \"#utility.yul\":6379:6394   */\n  add\n    /* \"#utility.yul\":6372:6404   */\n  mstore\n    /* \"#utility.yul\":6187:6411   */\n  pop\n  jump\t// out\n    /* \"#utility.yul\":6417:6555   */\ntag_27:\n    /* \"#utility.yul\":6498:6530   */\n  tag_97\n    /* \"#utility.yul\":6524:6529   */\n  dup2\n    /* \"#utility.yul\":6498:6530   */\n  tag_80\n  jump\t// in\ntag_97:\n    /* \"#utility.yul\":6491:6496   */\n  dup2\n    /* \"#utility.yul\":6488:6531   */\n  eq\n    /* \"#utility.yul\":6478:6549   */\n  tag_98\n  jumpi\n    /* \"#utility.yul\":6545:6546   */\n  0x00\n    /* \"#utility.yul\":6542:6543   */\n  dup1\n    /* \"#utility.yul\":6535:6547   */\n  revert\n    /* \"#utility.yul\":6478:6549   */\ntag_98:\n    /* \"#utility.yul\":6417:6555   */\n  pop\n  jump\t// out\n    /* \"#utility.yul\":6561:6711   */\ntag_31:\n    /* \"#utility.yul\":6648:6686   */\n  tag_100\n    /* \"#utility.yul\":6680:6685   */\n  dup2\n    /* \"#utility.yul\":6648:6686   */\n  tag_83\n  jump\t// in\ntag_100:\n    /* \"#utility.yul\":6641:6646   */\n  dup2\n    /* \"#utility.yul\":6638:6687   */\n  eq\n    /* \"#utility.yul\":6628:6705   */\n  tag_101\n  jumpi\n    /* \"#utility.yul\":6701:6702   */\n  0x00\n    /* \"#utility.yul\":6698:6699   */\n  dup1\n    /* \"#utility.yul\":6691:6703   */\n  revert\n    /* \"#utility.yul\":6628:6705   */\ntag_101:\n    /* \"#utility.yul\":6561:6711   */\n  pop\n  jump\t// out\n    /* \"#utility.yul\":6717:6839   */\ntag_35:\n    /* \"#utility.yul\":6790:6814   */\n  tag_103\n    /* \"#utility.yul\":6808:6813   */\n  dup2\n    /* \"#utility.yul\":6790:6814   */\n  tag_87\n  jump\t// in\ntag_103:\n    /* \"#utility.yul\":6783:6788   */\n  dup2\n    /* \"#utility.yul\":6780:6815   */\n  eq\n    /* \"#utility.yul\":6770:6833   */\n  tag_104\n  jumpi\n    /* \"#utility.yul\":6829:6830   */\n  0x00\n    /* \"#utility.yul\":6826:6827   */\n  dup1\n    /* \"#utility.yul\":6819:6831   */\n  revert\n    /* \"#utility.yul\":6770:6833   */\ntag_104:\n    /* \"#utility.yul\":6717:6839   */\n  pop\n  jump\t// out\n    /* \"contracts/crowdsale-contracts/validation/CappedCrowdsale.sol\":247:1530  contract CappedCrowdsale is Crowdsale {\r... */\ntag_22:\n  dataSize(sub_0)\n  dup1\n  dataOffset(sub_0)\n  0x00\n  codecopy\n  0x00\n  return\nstop\n\nsub_0: assembly {\n        /* \"contracts/crowdsale-contracts/validation/CappedCrowdsale.sol\":247:1530  contract CappedCrowdsale is Crowdsale {\r... */\n      mstore(0x40, 0x80)\n      jumpi(tag_1, lt(calldatasize, 0x04))\n      shr(0xe0, calldataload(0x00))\n      dup1\n      0x4f935945\n      gt\n      tag_10\n      jumpi\n      dup1\n      0x4f935945\n      eq\n      tag_6\n      jumpi\n      dup1\n      0x521eb273\n      eq\n      tag_7\n      jumpi\n      dup1\n      0xec8ac4d8\n      eq\n      tag_8\n      jumpi\n      dup1\n      0xfc0c546a\n      eq\n      tag_9\n      jumpi\n      jump(tag_2)\n    tag_10:\n      dup1\n      0x2c4e722e\n      eq\n      tag_3\n      jumpi\n      dup1\n      0x355274ea\n      eq\n      tag_4\n      jumpi\n      dup1\n      0x4042b66f\n      eq\n      tag_5\n      jumpi\n      jump(tag_2)\n    tag_1:\n      jumpi(tag_2, calldatasize)\n        /* \"contracts/crowdsale-contracts/Crowdsale.sol\":3249:3272  buyTokens(_msgSender()) */\n      tag_13\n        /* \"contracts/crowdsale-contracts/Crowdsale.sol\":3259:3271  _msgSender() */\n      tag_14\n        /* \"contracts/crowdsale-contracts/Crowdsale.sol\":3259:3269  _msgSender */\n      tag_15\n        /* \"contracts/crowdsale-contracts/Crowdsale.sol\":3259:3271  _msgSender() */\n      jump\t// in\n    tag_14:\n        /* \"contracts/crowdsale-contracts/Crowdsale.sol\":3249:3258  buyTokens */\n      tag_16\n        /* \"contracts/crowdsale-contracts/Crowdsale.sol\":3249:3272  buyTokens(_msgSender()) */\n      jump\t// in\n    tag_13:\n        /* \"contracts/crowdsale-contracts/validation/CappedCrowdsale.sol\":247:1530  contract CappedCrowdsale is Crowdsale {\r... */\n      stop\n    tag_2:\n      0x00\n      dup1\n      revert\n        /* \"contracts/crowdsale-contracts/Crowdsale.sol\":3682:3759  function rate() public view returns (uint256) {\r... */\n    tag_3:\n      callvalue\n      dup1\n      iszero\n      tag_17\n      jumpi\n      0x00\n      dup1\n      revert\n    tag_17:\n      pop\n      tag_18\n      tag_19\n      jump\t// in\n    tag_18:\n      mload(0x40)\n      tag_20\n      swap2\n      swap1\n      tag_21\n      jump\t// in\n    tag_20:\n      mload(0x40)\n      dup1\n      swap2\n      sub\n      swap1\n      return\n        /* \"contracts/crowdsale-contracts/validation/CappedCrowdsale.sol\":782:857  function cap() public view returns (uint256) {\r... */\n    tag_4:\n      callvalue\n      dup1\n      iszero\n      tag_22\n      jumpi\n      0x00\n      dup1\n      revert\n    tag_22:\n      pop\n      tag_23\n      tag_24\n      jump\t// in\n    tag_23:\n      mload(0x40)\n      tag_25\n      swap2\n      swap1\n      tag_21\n      jump\t// in\n    tag_25:\n      mload(0x40)\n      dup1\n      swap2\n      sub\n      swap1\n      return\n        /* \"contracts/crowdsale-contracts/Crowdsale.sol\":3827:3914  function weiRaised() public view returns (uint256) {\r... */\n    tag_5:\n      callvalue\n      dup1\n      iszero\n      tag_26\n      jumpi\n      0x00\n      dup1\n      revert\n    tag_26:\n      pop\n      tag_27\n      tag_28\n      jump\t// in\n    tag_27:\n      mload(0x40)\n      tag_29\n      swap2\n      swap1\n      tag_21\n      jump\t// in\n    tag_29:\n      mload(0x40)\n      dup1\n      swap2\n      sub\n      swap1\n      return\n        /* \"contracts/crowdsale-contracts/validation/CappedCrowdsale.sol\":981:1075  function capReached() public view returns (bool) {\r... */\n    tag_6:\n      callvalue\n      dup1\n      iszero\n      tag_30\n      jumpi\n      0x00\n      dup1\n      revert\n    tag_30:\n      pop\n      tag_31\n      tag_32\n      jump\t// in\n    tag_31:\n      mload(0x40)\n      tag_33\n      swap2\n      swap1\n      tag_34\n      jump\t// in\n    tag_33:\n      mload(0x40)\n      dup1\n      swap2\n      sub\n      swap1\n      return\n        /* \"contracts/crowdsale-contracts/Crowdsale.sol\":3503:3592  function wallet() public view returns (address payable) {\r... */\n    tag_7:\n      callvalue\n      dup1\n      iszero\n      tag_35\n      jumpi\n      0x00\n      dup1\n      revert\n    tag_35:\n      pop\n      tag_36\n      tag_37\n      jump\t// in\n    tag_36:\n      mload(0x40)\n      tag_38\n      swap2\n      swap1\n      tag_39\n      jump\t// in\n    tag_38:\n      mload(0x40)\n      dup1\n      swap2\n      sub\n      swap1\n      return\n        /* \"contracts/crowdsale-contracts/Crowdsale.sol\":4179:4801  function buyTokens(address beneficiary) public nonReentrant payable {\r... */\n    tag_8:\n      tag_40\n      0x04\n      dup1\n      calldatasize\n      sub\n      dup2\n      add\n      swap1\n      tag_41\n      swap2\n      swap1\n      tag_42\n      jump\t// in\n    tag_41:\n      tag_16\n      jump\t// in\n    tag_40:\n      stop\n        /* \"contracts/crowdsale-contracts/Crowdsale.sol\":3344:3422  function token() public view returns (IERC20) {\r... */\n    tag_9:\n      callvalue\n      dup1\n      iszero\n      tag_43\n      jumpi\n      0x00\n      dup1\n      revert\n    tag_43:\n      pop\n      tag_44\n      tag_45\n      jump\t// in\n    tag_44:\n      mload(0x40)\n      tag_46\n      swap2\n      swap1\n      tag_47\n      jump\t// in\n    tag_46:\n      mload(0x40)\n      dup1\n      swap2\n      sub\n      swap1\n      return\n        /* \"@openzeppelin/contracts/utils/Context.sol\":640:736  function _msgSender() internal view virtual returns (address) {... */\n    tag_15:\n        /* \"@openzeppelin/contracts/utils/Context.sol\":693:700  address */\n      0x00\n        /* \"@openzeppelin/contracts/utils/Context.sol\":719:729  msg.sender */\n      caller\n        /* \"@openzeppelin/contracts/utils/Context.sol\":712:729  return msg.sender */\n      swap1\n      pop\n        /* \"@openzeppelin/contracts/utils/Context.sol\":640:736  function _msgSender() internal view virtual returns (address) {... */\n      swap1\n      jump\t// out\n        /* \"contracts/crowdsale-contracts/Crowdsale.sol\":4179:4801  function buyTokens(address beneficiary) public nonReentrant payable {\r... */\n    tag_16:\n        /* \"@openzeppelin/contracts/security/ReentrancyGuard.sol\":1744:1745  2 */\n      0x02\n        /* \"@openzeppelin/contracts/security/ReentrancyGuard.sol\":2325:2332  _status */\n      sload(0x00)\n        /* \"@openzeppelin/contracts/security/ReentrancyGuard.sol\":2325:2344  _status != _ENTERED */\n      eq\n      iszero\n        /* \"@openzeppelin/contracts/security/ReentrancyGuard.sol\":2317:2380  require(_status != _ENTERED, \"ReentrancyGuard: reentrant call\") */\n      tag_50\n      jumpi\n      mload(0x40)\n      0x08c379a000000000000000000000000000000000000000000000000000000000\n      dup2\n      mstore\n      0x04\n      add\n      tag_51\n      swap1\n      tag_52\n      jump\t// in\n    tag_51:\n      mload(0x40)\n      dup1\n      swap2\n      sub\n      swap1\n      revert\n    tag_50:\n        /* \"@openzeppelin/contracts/security/ReentrancyGuard.sol\":1744:1745  2 */\n      0x02\n        /* \"@openzeppelin/contracts/security/ReentrancyGuard.sol\":2455:2462  _status */\n      0x00\n        /* \"@openzeppelin/contracts/security/ReentrancyGuard.sol\":2455:2473  _status = _ENTERED */\n      dup2\n      swap1\n      sstore\n      pop\n        /* \"contracts/crowdsale-contracts/Crowdsale.sol\":4258:4275  uint256 weiAmount */\n      0x00\n        /* \"contracts/crowdsale-contracts/Crowdsale.sol\":4278:4287  msg.value */\n      callvalue\n        /* \"contracts/crowdsale-contracts/Crowdsale.sol\":4258:4287  uint256 weiAmount = msg.value */\n      swap1\n      pop\n        /* \"contracts/crowdsale-contracts/Crowdsale.sol\":4298:4342  _preValidatePurchase(beneficiary, weiAmount) */\n      tag_54\n        /* \"contracts/crowdsale-contracts/Crowdsale.sol\":4319:4330  beneficiary */\n      dup3\n        /* \"contracts/crowdsale-contracts/Crowdsale.sol\":4332:4341  weiAmount */\n      dup3\n        /* \"contracts/crowdsale-contracts/Crowdsale.sol\":4298:4318  _preValidatePurchase */\n      tag_55\n        /* \"contracts/crowdsale-contracts/Crowdsale.sol\":4298:4342  _preValidatePurchase(beneficiary, weiAmount) */\n      jump\t// in\n    tag_54:\n        /* \"contracts/crowdsale-contracts/Crowdsale.sol\":4404:4418  uint256 tokens */\n      0x00\n        /* \"contracts/crowdsale-contracts/Crowdsale.sol\":4421:4447  _getTokenAmount(weiAmount) */\n      tag_56\n        /* \"contracts/crowdsale-contracts/Crowdsale.sol\":4437:4446  weiAmount */\n      dup3\n        /* \"contracts/crowdsale-contracts/Crowdsale.sol\":4421:4436  _getTokenAmount */\n      tag_57\n        /* \"contracts/crowdsale-contracts/Crowdsale.sol\":4421:4447  _getTokenAmount(weiAmount) */\n      jump\t// in\n    tag_56:\n        /* \"contracts/crowdsale-contracts/Crowdsale.sol\":4404:4447  uint256 tokens = _getTokenAmount(weiAmount) */\n      swap1\n      pop\n        /* \"contracts/crowdsale-contracts/Crowdsale.sol\":4498:4523  _weiRaised.add(weiAmount) */\n      tag_58\n        /* \"contracts/crowdsale-contracts/Crowdsale.sol\":4513:4522  weiAmount */\n      dup3\n        /* \"contracts/crowdsale-contracts/Crowdsale.sol\":4498:4508  _weiRaised */\n      sload(0x04)\n        /* \"contracts/crowdsale-contracts/Crowdsale.sol\":4498:4512  _weiRaised.add */\n      tag_59\n      swap1\n        /* \"contracts/crowdsale-contracts/Crowdsale.sol\":4498:4523  _weiRaised.add(weiAmount) */\n      swap2\n      swap1\n      0xffffffff\n      and\n      jump\t// in\n    tag_58:\n        /* \"contracts/crowdsale-contracts/Crowdsale.sol\":4485:4495  _weiRaised */\n      0x04\n        /* \"contracts/crowdsale-contracts/Crowdsale.sol\":4485:4523  _weiRaised = _weiRaised.add(weiAmount) */\n      dup2\n      swap1\n      sstore\n      pop\n        /* \"contracts/crowdsale-contracts/Crowdsale.sol\":4536:4573  _processPurchase(beneficiary, tokens) */\n      tag_60\n        /* \"contracts/crowdsale-contracts/Crowdsale.sol\":4553:4564  beneficiary */\n      dup4\n        /* \"contracts/crowdsale-contracts/Crowdsale.sol\":4566:4572  tokens */\n      dup3\n        /* \"contracts/crowdsale-contracts/Crowdsale.sol\":4536:4552  _processPurchase */\n      tag_61\n        /* \"contracts/crowdsale-contracts/Crowdsale.sol\":4536:4573  _processPurchase(beneficiary, tokens) */\n      jump\t// in\n    tag_60:\n        /* \"contracts/crowdsale-contracts/Crowdsale.sol\":4619:4630  beneficiary */\n      dup3\n        /* \"contracts/crowdsale-contracts/Crowdsale.sol\":4589:4650  TokensPurchased(_msgSender(), beneficiary, weiAmount, tokens) */\n      0xffffffffffffffffffffffffffffffffffffffff\n      and\n        /* \"contracts/crowdsale-contracts/Crowdsale.sol\":4605:4617  _msgSender() */\n      tag_62\n        /* \"contracts/crowdsale-contracts/Crowdsale.sol\":4605:4615  _msgSender */\n      tag_15\n        /* \"contracts/crowdsale-contracts/Crowdsale.sol\":4605:4617  _msgSender() */\n      jump\t// in\n    tag_62:\n        /* \"contracts/crowdsale-contracts/Crowdsale.sol\":4589:4650  TokensPurchased(_msgSender(), beneficiary, weiAmount, tokens) */\n      0xffffffffffffffffffffffffffffffffffffffff\n      and\n      0x6faf93231a456e552dbc9961f58d9713ee4f2e69d15f1975b050ef0911053a7b\n        /* \"contracts/crowdsale-contracts/Crowdsale.sol\":4632:4641  weiAmount */\n      dup5\n        /* \"contracts/crowdsale-contracts/Crowdsale.sol\":4643:4649  tokens */\n      dup5\n        /* \"contracts/crowdsale-contracts/Crowdsale.sol\":4589:4650  TokensPurchased(_msgSender(), beneficiary, weiAmount, tokens) */\n      mload(0x40)\n      tag_63\n      swap3\n      swap2\n      swap1\n      tag_64\n      jump\t// in\n    tag_63:\n      mload(0x40)\n      dup1\n      swap2\n      sub\n      swap1\n      log3\n        /* \"contracts/crowdsale-contracts/Crowdsale.sol\":4663:4709  _updatePurchasingState(beneficiary, weiAmount) */\n      tag_65\n        /* \"contracts/crowdsale-contracts/Crowdsale.sol\":4686:4697  beneficiary */\n      dup4\n        /* \"contracts/crowdsale-contracts/Crowdsale.sol\":4699:4708  weiAmount */\n      dup4\n        /* \"contracts/crowdsale-contracts/Crowdsale.sol\":4663:4685  _updatePurchasingState */\n      tag_66\n        /* \"contracts/crowdsale-contracts/Crowdsale.sol\":4663:4709  _updatePurchasingState(beneficiary, weiAmount) */\n      jump\t// in\n    tag_65:\n        /* \"contracts/crowdsale-contracts/Crowdsale.sol\":4722:4737  _forwardFunds() */\n      tag_67\n        /* \"contracts/crowdsale-contracts/Crowdsale.sol\":4722:4735  _forwardFunds */\n      tag_68\n        /* \"contracts/crowdsale-contracts/Crowdsale.sol\":4722:4737  _forwardFunds() */\n      jump\t// in\n    tag_67:\n        /* \"contracts/crowdsale-contracts/Crowdsale.sol\":4748:4793  _postValidatePurchase(beneficiary, weiAmount) */\n      tag_69\n        /* \"contracts/crowdsale-contracts/Crowdsale.sol\":4770:4781  beneficiary */\n      dup4\n        /* \"contracts/crowdsale-contracts/Crowdsale.sol\":4783:4792  weiAmount */\n      dup4\n        /* \"contracts/crowdsale-contracts/Crowdsale.sol\":4748:4769  _postValidatePurchase */\n      tag_70\n        /* \"contracts/crowdsale-contracts/Crowdsale.sol\":4748:4793  _postValidatePurchase(beneficiary, weiAmount) */\n      jump\t// in\n    tag_69:\n        /* \"contracts/crowdsale-contracts/Crowdsale.sol\":4247:4801  {\r... */\n      pop\n      pop\n        /* \"@openzeppelin/contracts/security/ReentrancyGuard.sol\":1701:1702  1 */\n      0x01\n        /* \"@openzeppelin/contracts/security/ReentrancyGuard.sol\":2628:2635  _status */\n      0x00\n        /* \"@openzeppelin/contracts/security/ReentrancyGuard.sol\":2628:2650  _status = _NOT_ENTERED */\n      dup2\n      swap1\n      sstore\n      pop\n        /* \"contracts/crowdsale-contracts/Crowdsale.sol\":4179:4801  function buyTokens(address beneficiary) public nonReentrant payable {\r... */\n      pop\n      jump\t// out\n        /* \"contracts/crowdsale-contracts/Crowdsale.sol\":3682:3759  function rate() public view returns (uint256) {\r... */\n    tag_19:\n        /* \"contracts/crowdsale-contracts/Crowdsale.sol\":3719:3726  uint256 */\n      0x00\n        /* \"contracts/crowdsale-contracts/Crowdsale.sol\":3746:3751  _rate */\n      sload(0x03)\n        /* \"contracts/crowdsale-contracts/Crowdsale.sol\":3739:3751  return _rate */\n      swap1\n      pop\n        /* \"contracts/crowdsale-contracts/Crowdsale.sol\":3682:3759  function rate() public view returns (uint256) {\r... */\n      swap1\n      jump\t// out\n        /* \"contracts/crowdsale-contracts/validation/CappedCrowdsale.sol\":782:857  function cap() public view returns (uint256) {\r... */\n    tag_24:\n        /* \"contracts/crowdsale-contracts/validation/CappedCrowdsale.sol\":818:825  uint256 */\n      0x00\n        /* \"contracts/crowdsale-contracts/validation/CappedCrowdsale.sol\":845:849  _cap */\n      sload(0x05)\n        /* \"contracts/crowdsale-contracts/validation/CappedCrowdsale.sol\":838:849  return _cap */\n      swap1\n      pop\n        /* \"contracts/crowdsale-contracts/validation/CappedCrowdsale.sol\":782:857  function cap() public view returns (uint256) {\r... */\n      swap1\n      jump\t// out\n        /* \"contracts/crowdsale-contracts/Crowdsale.sol\":3827:3914  function weiRaised() public view returns (uint256) {\r... */\n    tag_28:\n        /* \"contracts/crowdsale-contracts/Crowdsale.sol\":3869:3876  uint256 */\n      0x00\n        /* \"contracts/crowdsale-contracts/Crowdsale.sol\":3896:3906  _weiRaised */\n      sload(0x04)\n        /* \"contracts/crowdsale-contracts/Crowdsale.sol\":3889:3906  return _weiRaised */\n      swap1\n      pop\n        /* \"contracts/crowdsale-contracts/Crowdsale.sol\":3827:3914  function weiRaised() public view returns (uint256) {\r... */\n      swap1\n      jump\t// out\n        /* \"contracts/crowdsale-contracts/validation/CappedCrowdsale.sol\":981:1075  function capReached() public view returns (bool) {\r... */\n    tag_32:\n        /* \"contracts/crowdsale-contracts/validation/CappedCrowdsale.sol\":1024:1028  bool */\n      0x00\n        /* \"contracts/crowdsale-contracts/validation/CappedCrowdsale.sol\":1063:1067  _cap */\n      sload(0x05)\n        /* \"contracts/crowdsale-contracts/validation/CappedCrowdsale.sol\":1048:1059  weiRaised() */\n      tag_75\n        /* \"contracts/crowdsale-contracts/validation/CappedCrowdsale.sol\":1048:1057  weiRaised */\n      tag_28\n        /* \"contracts/crowdsale-contracts/validation/CappedCrowdsale.sol\":1048:1059  weiRaised() */\n      jump\t// in\n    tag_75:\n        /* \"contracts/crowdsale-contracts/validation/CappedCrowdsale.sol\":1048:1067  weiRaised() >= _cap */\n      lt\n      iszero\n        /* \"contracts/crowdsale-contracts/validation/CappedCrowdsale.sol\":1041:1067  return weiRaised() >= _cap */\n      swap1\n      pop\n        /* \"contracts/crowdsale-contracts/validation/CappedCrowdsale.sol\":981:1075  function capReached() public view returns (bool) {\r... */\n      swap1\n      jump\t// out\n        /* \"contracts/crowdsale-contracts/Crowdsale.sol\":3503:3592  function wallet() public view returns (address payable) {\r... */\n    tag_37:\n        /* \"contracts/crowdsale-contracts/Crowdsale.sol\":3542:3557  address payable */\n      0x00\n        /* \"contracts/crowdsale-contracts/Crowdsale.sol\":3577:3584  _wallet */\n      0x02\n      0x00\n      swap1\n      sload\n      swap1\n      0x0100\n      exp\n      swap1\n      div\n      0xffffffffffffffffffffffffffffffffffffffff\n      and\n        /* \"contracts/crowdsale-contracts/Crowdsale.sol\":3570:3584  return _wallet */\n      swap1\n      pop\n        /* \"contracts/crowdsale-contracts/Crowdsale.sol\":3503:3592  function wallet() public view returns (address payable) {\r... */\n      swap1\n      jump\t// out\n        /* \"contracts/crowdsale-contracts/Crowdsale.sol\":3344:3422  function token() public view returns (IERC20) {\r... */\n    tag_45:\n        /* \"contracts/crowdsale-contracts/Crowdsale.sol\":3382:3388  IERC20 */\n      0x00\n        /* \"contracts/crowdsale-contracts/Crowdsale.sol\":3408:3414  _token */\n      0x01\n      0x00\n      swap1\n      sload\n      swap1\n      0x0100\n      exp\n      swap1\n      div\n      0xffffffffffffffffffffffffffffffffffffffff\n      and\n        /* \"contracts/crowdsale-contracts/Crowdsale.sol\":3401:3414  return _token */\n      swap1\n      pop\n        /* \"contracts/crowdsale-contracts/Crowdsale.sol\":3344:3422  function token() public view returns (IERC20) {\r... */\n      swap1\n      jump\t// out\n        /* \"contracts/crowdsale-contracts/validation/CappedCrowdsale.sol\":1278:1527  function _preValidatePurchase(address beneficiary, uint256 weiAmount) internal override view {\r... */\n    tag_55:\n        /* \"contracts/crowdsale-contracts/validation/CappedCrowdsale.sol\":1382:1432  super._preValidatePurchase(beneficiary, weiAmount) */\n      tag_79\n        /* \"contracts/crowdsale-contracts/validation/CappedCrowdsale.sol\":1409:1420  beneficiary */\n      dup3\n        /* \"contracts/crowdsale-contracts/validation/CappedCrowdsale.sol\":1422:1431  weiAmount */\n      dup3\n        /* \"contracts/crowdsale-contracts/validation/CappedCrowdsale.sol\":1382:1408  super._preValidatePurchase */\n      tag_80\n        /* \"contracts/crowdsale-contracts/validation/CappedCrowdsale.sol\":1382:1432  super._preValidatePurchase(beneficiary, weiAmount) */\n      jump\t// in\n    tag_79:\n        /* \"contracts/crowdsale-contracts/validation/CappedCrowdsale.sol\":1481:1485  _cap */\n      sload(0x05)\n        /* \"contracts/crowdsale-contracts/validation/CappedCrowdsale.sol\":1451:1477  weiRaised().add(weiAmount) */\n      tag_81\n        /* \"contracts/crowdsale-contracts/validation/CappedCrowdsale.sol\":1467:1476  weiAmount */\n      dup3\n        /* \"contracts/crowdsale-contracts/validation/CappedCrowdsale.sol\":1451:1462  weiRaised() */\n      tag_82\n        /* \"contracts/crowdsale-contracts/validation/CappedCrowdsale.sol\":1451:1460  weiRaised */\n      tag_28\n        /* \"contracts/crowdsale-contracts/validation/CappedCrowdsale.sol\":1451:1462  weiRaised() */\n      jump\t// in\n    tag_82:\n        /* \"contracts/crowdsale-contracts/validation/CappedCrowdsale.sol\":1451:1466  weiRaised().add */\n      tag_59\n      swap1\n        /* \"contracts/crowdsale-contracts/validation/CappedCrowdsale.sol\":1451:1477  weiRaised().add(weiAmount) */\n      swap2\n      swap1\n      0xffffffff\n      and\n      jump\t// in\n    tag_81:\n        /* \"contracts/crowdsale-contracts/validation/CappedCrowdsale.sol\":1451:1485  weiRaised().add(weiAmount) <= _cap */\n      gt\n      iszero\n        /* \"contracts/crowdsale-contracts/validation/CappedCrowdsale.sol\":1443:1519  require(weiRaised().add(weiAmount) <= _cap, \"CappedCrowdsale: cap exceeded\") */\n      tag_83\n      jumpi\n      mload(0x40)\n      0x08c379a000000000000000000000000000000000000000000000000000000000\n      dup2\n      mstore\n      0x04\n      add\n      tag_84\n      swap1\n      tag_85\n      jump\t// in\n    tag_84:\n      mload(0x40)\n      dup1\n      swap2\n      sub\n      swap1\n      revert\n    tag_83:\n        /* \"contracts/crowdsale-contracts/validation/CappedCrowdsale.sol\":1278:1527  function _preValidatePurchase(address beneficiary, uint256 weiAmount) internal override view {\r... */\n      pop\n      pop\n      jump\t// out\n        /* \"contracts/crowdsale-contracts/Crowdsale.sol\":7729:7851  function _getTokenAmount(uint256 weiAmount) internal view returns (uint256) {\r... */\n    tag_57:\n        /* \"contracts/crowdsale-contracts/Crowdsale.sol\":7796:7803  uint256 */\n      0x00\n        /* \"contracts/crowdsale-contracts/Crowdsale.sol\":7823:7843  weiAmount.mul(_rate) */\n      tag_87\n        /* \"contracts/crowdsale-contracts/Crowdsale.sol\":7837:7842  _rate */\n      sload(0x03)\n        /* \"contracts/crowdsale-contracts/Crowdsale.sol\":7823:7832  weiAmount */\n      dup4\n        /* \"contracts/crowdsale-contracts/Crowdsale.sol\":7823:7836  weiAmount.mul */\n      tag_88\n      swap1\n        /* \"contracts/crowdsale-contracts/Crowdsale.sol\":7823:7843  weiAmount.mul(_rate) */\n      swap2\n      swap1\n      0xffffffff\n      and\n      jump\t// in\n    tag_87:\n        /* \"contracts/crowdsale-contracts/Crowdsale.sol\":7816:7843  return weiAmount.mul(_rate) */\n      swap1\n      pop\n        /* \"contracts/crowdsale-contracts/Crowdsale.sol\":7729:7851  function _getTokenAmount(uint256 weiAmount) internal view returns (uint256) {\r... */\n      swap2\n      swap1\n      pop\n      jump\t// out\n        /* \"@openzeppelin/contracts/utils/math/SafeMath.sol\":2755:2851  function add(uint256 a, uint256 b) internal pure returns (uint256) {... */\n    tag_59:\n        /* \"@openzeppelin/contracts/utils/math/SafeMath.sol\":2813:2820  uint256 */\n      0x00\n        /* \"@openzeppelin/contracts/utils/math/SafeMath.sol\":2843:2844  b */\n      dup2\n        /* \"@openzeppelin/contracts/utils/math/SafeMath.sol\":2839:2840  a */\n      dup4\n        /* \"@openzeppelin/contracts/utils/math/SafeMath.sol\":2839:2844  a + b */\n      tag_90\n      swap2\n      swap1\n      tag_91\n      jump\t// in\n    tag_90:\n        /* \"@openzeppelin/contracts/utils/math/SafeMath.sol\":2832:2844  return a + b */\n      swap1\n      pop\n        /* \"@openzeppelin/contracts/utils/math/SafeMath.sol\":2755:2851  function add(uint256 a, uint256 b) internal pure returns (uint256) {... */\n      swap3\n      swap2\n      pop\n      pop\n      jump\t// out\n        /* \"contracts/crowdsale-contracts/Crowdsale.sol\":6912:7048  function _processPurchase(address beneficiary, uint256 tokenAmount) internal {\r... */\n    tag_61:\n        /* \"contracts/crowdsale-contracts/Crowdsale.sol\":7000:7040  _deliverTokens(beneficiary, tokenAmount) */\n      tag_93\n        /* \"contracts/crowdsale-contracts/Crowdsale.sol\":7015:7026  beneficiary */\n      dup3\n        /* \"contracts/crowdsale-contracts/Crowdsale.sol\":7028:7039  tokenAmount */\n      dup3\n        /* \"contracts/crowdsale-contracts/Crowdsale.sol\":7000:7014  _deliverTokens */\n      tag_94\n        /* \"contracts/crowdsale-contracts/Crowdsale.sol\":7000:7040  _deliverTokens(beneficiary, tokenAmount) */\n      jump\t// in\n    tag_93:\n        /* \"contracts/crowdsale-contracts/Crowdsale.sol\":6912:7048  function _processPurchase(address beneficiary, uint256 tokenAmount) internal {\r... */\n      pop\n      pop\n      jump\t// out\n        /* \"contracts/crowdsale-contracts/Crowdsale.sol\":7326:7473  function _updatePurchasingState(address beneficiary, uint256 weiAmount) internal {\r... */\n    tag_66:\n      pop\n      pop\n      jump\t// out\n        /* \"contracts/crowdsale-contracts/Crowdsale.sol\":7943:8023  function _forwardFunds() internal {\r... */\n    tag_68:\n        /* \"contracts/crowdsale-contracts/Crowdsale.sol\":7988:7995  _wallet */\n      0x02\n      0x00\n      swap1\n      sload\n      swap1\n      0x0100\n      exp\n      swap1\n      div\n      0xffffffffffffffffffffffffffffffffffffffff\n      and\n        /* \"contracts/crowdsale-contracts/Crowdsale.sol\":7988:8004  _wallet.transfer */\n      0xffffffffffffffffffffffffffffffffffffffff\n      and\n        /* \"contracts/crowdsale-contracts/Crowdsale.sol\":7988:8015  _wallet.transfer(msg.value) */\n      0x08fc\n        /* \"contracts/crowdsale-contracts/Crowdsale.sol\":8005:8014  msg.value */\n      callvalue\n        /* \"contracts/crowdsale-contracts/Crowdsale.sol\":7988:8015  _wallet.transfer(msg.value) */\n      swap1\n      dup2\n      iszero\n      mul\n      swap1\n      mload(0x40)\n      0x00\n      mload(0x40)\n      dup1\n      dup4\n      sub\n      dup2\n      dup6\n      dup9\n      dup9\n      call\n      swap4\n      pop\n      pop\n      pop\n      pop\n      iszero\n      dup1\n      iszero\n      tag_98\n      jumpi\n      returndatasize\n      0x00\n      dup1\n      returndatacopy\n      revert(0x00, returndatasize)\n    tag_98:\n      pop\n        /* \"contracts/crowdsale-contracts/Crowdsale.sol\":7943:8023  function _forwardFunds() internal {\r... */\n      jump\t// out\n        /* \"contracts/crowdsale-contracts/Crowdsale.sol\":6045:6211  function _postValidatePurchase(address beneficiary, uint256 weiAmount) internal view {\r... */\n    tag_70:\n      pop\n      pop\n      jump\t// out\n        /* \"contracts/crowdsale-contracts/Crowdsale.sol\":5354:5742  function _preValidatePurchase(address beneficiary, uint256 weiAmount) internal virtual view {\r... */\n    tag_80:\n        /* \"contracts/crowdsale-contracts/Crowdsale.sol\":5488:5489  0 */\n      0x00\n        /* \"contracts/crowdsale-contracts/Crowdsale.sol\":5465:5490  beneficiary != address(0) */\n      0xffffffffffffffffffffffffffffffffffffffff\n      and\n        /* \"contracts/crowdsale-contracts/Crowdsale.sol\":5465:5476  beneficiary */\n      dup3\n        /* \"contracts/crowdsale-contracts/Crowdsale.sol\":5465:5490  beneficiary != address(0) */\n      0xffffffffffffffffffffffffffffffffffffffff\n      and\n      eq\n      iszero\n        /* \"contracts/crowdsale-contracts/Crowdsale.sol\":5457:5537  require(beneficiary != address(0), \"Crowdsale: beneficiary is the zero address\") */\n      tag_101\n      jumpi\n      mload(0x40)\n      0x08c379a000000000000000000000000000000000000000000000000000000000\n      dup2\n      mstore\n      0x04\n      add\n      tag_102\n      swap1\n      tag_103\n      jump\t// in\n    tag_102:\n      mload(0x40)\n      dup1\n      swap2\n      sub\n      swap1\n      revert\n    tag_101:\n        /* \"contracts/crowdsale-contracts/Crowdsale.sol\":5569:5570  0 */\n      0x00\n        /* \"contracts/crowdsale-contracts/Crowdsale.sol\":5556:5565  weiAmount */\n      dup2\n        /* \"contracts/crowdsale-contracts/Crowdsale.sol\":5556:5570  weiAmount != 0 */\n      eq\n      iszero\n        /* \"contracts/crowdsale-contracts/Crowdsale.sol\":5548:5600  require(weiAmount != 0, \"Crowdsale: weiAmount is 0\") */\n      tag_104\n      jumpi\n      mload(0x40)\n      0x08c379a000000000000000000000000000000000000000000000000000000000\n      dup2\n      mstore\n      0x04\n      add\n      tag_105\n      swap1\n      tag_106\n      jump\t// in\n    tag_105:\n      mload(0x40)\n      dup1\n      swap2\n      sub\n      swap1\n      revert\n    tag_104:\n        /* \"contracts/crowdsale-contracts/Crowdsale.sol\":5354:5742  function _preValidatePurchase(address beneficiary, uint256 weiAmount) internal virtual view {\r... */\n      pop\n      pop\n      jump\t// out\n        /* \"@openzeppelin/contracts/utils/math/SafeMath.sol\":3465:3561  function mul(uint256 a, uint256 b) internal pure returns (uint256) {... */\n    tag_88:\n        /* \"@openzeppelin/contracts/utils/math/SafeMath.sol\":3523:3530  uint256 */\n      0x00\n        /* \"@openzeppelin/contracts/utils/math/SafeMath.sol\":3553:3554  b */\n      dup2\n        /* \"@openzeppelin/contracts/utils/math/SafeMath.sol\":3549:3550  a */\n      dup4\n        /* \"@openzeppelin/contracts/utils/math/SafeMath.sol\":3549:3554  a * b */\n      tag_108\n      swap2\n      swap1\n      tag_109\n      jump\t// in\n    tag_108:\n        /* \"@openzeppelin/contracts/utils/math/SafeMath.sol\":3542:3554  return a * b */\n      swap1\n      pop\n        /* \"@openzeppelin/contracts/utils/math/SafeMath.sol\":3465:3561  function mul(uint256 a, uint256 b) internal pure returns (uint256) {... */\n      swap3\n      swap2\n      pop\n      pop\n      jump\t// out\n        /* \"contracts/crowdsale-contracts/Crowdsale.sol\":6499:6638  function _deliverTokens(address beneficiary, uint256 tokenAmount) internal {\r... */\n    tag_94:\n        /* \"contracts/crowdsale-contracts/Crowdsale.sol\":6585:6630  _token.safeTransfer(beneficiary, tokenAmount) */\n      tag_111\n        /* \"contracts/crowdsale-contracts/Crowdsale.sol\":6605:6616  beneficiary */\n      dup3\n        /* \"contracts/crowdsale-contracts/Crowdsale.sol\":6618:6629  tokenAmount */\n      dup3\n        /* \"contracts/crowdsale-contracts/Crowdsale.sol\":6585:6591  _token */\n      0x01\n      0x00\n      swap1\n      sload\n      swap1\n      0x0100\n      exp\n      swap1\n      div\n      0xffffffffffffffffffffffffffffffffffffffff\n      and\n        /* \"contracts/crowdsale-contracts/Crowdsale.sol\":6585:6604  _token.safeTransfer */\n      0xffffffffffffffffffffffffffffffffffffffff\n      and\n      tag_112\n      swap1\n        /* \"contracts/crowdsale-contracts/Crowdsale.sol\":6585:6630  _token.safeTransfer(beneficiary, tokenAmount) */\n      swap3\n      swap2\n      swap1\n      0xffffffff\n      and\n      jump\t// in\n    tag_111:\n        /* \"contracts/crowdsale-contracts/Crowdsale.sol\":6499:6638  function _deliverTokens(address beneficiary, uint256 tokenAmount) internal {\r... */\n      pop\n      pop\n      jump\t// out\n        /* \"@openzeppelin/contracts/token/ERC20/utils/SafeERC20.sol\":701:906  function safeTransfer(... */\n    tag_112:\n        /* \"@openzeppelin/contracts/token/ERC20/utils/SafeERC20.sol\":813:899  _callOptionalReturn(token, abi.encodeWithSelector(token.transfer.selector, to, value)) */\n      tag_114\n        /* \"@openzeppelin/contracts/token/ERC20/utils/SafeERC20.sol\":833:838  token */\n      dup4\n        /* \"@openzeppelin/contracts/token/ERC20/utils/SafeERC20.sol\":863:886  token.transfer.selector */\n      shl(0xe0, 0xa9059cbb)\n        /* \"@openzeppelin/contracts/token/ERC20/utils/SafeERC20.sol\":888:890  to */\n      dup5\n        /* \"@openzeppelin/contracts/token/ERC20/utils/SafeERC20.sol\":892:897  value */\n      dup5\n        /* \"@openzeppelin/contracts/token/ERC20/utils/SafeERC20.sol\":840:898  abi.encodeWithSelector(token.transfer.selector, to, value) */\n      add(0x24, mload(0x40))\n      tag_115\n      swap3\n      swap2\n      swap1\n      tag_116\n      jump\t// in\n    tag_115:\n      mload(0x40)\n      0x20\n      dup2\n      dup4\n      sub\n      sub\n      dup2\n      mstore\n      swap1\n      0x40\n      mstore\n      swap1\n      not(0xffffffffffffffffffffffffffffffffffffffffffffffffffffffff)\n      and\n      0x20\n      dup3\n      add\n      dup1\n      mload\n      0xffffffffffffffffffffffffffffffffffffffffffffffffffffffff\n      dup4\n      dup2\n      dup4\n      and\n      or\n      dup4\n      mstore\n      pop\n      pop\n      pop\n      pop\n        /* \"@openzeppelin/contracts/token/ERC20/utils/SafeERC20.sol\":813:832  _callOptionalReturn */\n      tag_117\n        /* \"@openzeppelin/contracts/token/ERC20/utils/SafeERC20.sol\":813:899  _callOptionalReturn(token, abi.encodeWithSelector(token.transfer.selector, to, value)) */\n      jump\t// in\n    tag_114:\n        /* \"@openzeppelin/contracts/token/ERC20/utils/SafeERC20.sol\":701:906  function safeTransfer(... */\n      pop\n      pop\n      pop\n      jump\t// out\n        /* \"@openzeppelin/contracts/token/ERC20/utils/SafeERC20.sol\":3207:3913  function _callOptionalReturn(IERC20 token, bytes memory data) private {... */\n    tag_117:\n        /* \"@openzeppelin/contracts/token/ERC20/utils/SafeERC20.sol\":3626:3649  bytes memory returndata */\n      0x00\n        /* \"@openzeppelin/contracts/token/ERC20/utils/SafeERC20.sol\":3652:3721  address(token).functionCall(data, \"SafeERC20: low-level call failed\") */\n      tag_119\n        /* \"@openzeppelin/contracts/token/ERC20/utils/SafeERC20.sol\":3680:3684  data */\n      dup3\n        /* \"@openzeppelin/contracts/token/ERC20/utils/SafeERC20.sol\":3652:3721  address(token).functionCall(data, \"SafeERC20: low-level call failed\") */\n      mload(0x40)\n      dup1\n      0x40\n      add\n      0x40\n      mstore\n      dup1\n      0x20\n      dup2\n      mstore\n      0x20\n      add\n      0x5361666545524332303a206c6f772d6c6576656c2063616c6c206661696c6564\n      dup2\n      mstore\n      pop\n        /* \"@openzeppelin/contracts/token/ERC20/utils/SafeERC20.sol\":3660:3665  token */\n      dup6\n        /* \"@openzeppelin/contracts/token/ERC20/utils/SafeERC20.sol\":3652:3679  address(token).functionCall */\n      0xffffffffffffffffffffffffffffffffffffffff\n      and\n      tag_120\n      swap1\n        /* \"@openzeppelin/contracts/token/ERC20/utils/SafeERC20.sol\":3652:3721  address(token).functionCall(data, \"SafeERC20: low-level call failed\") */\n      swap3\n      swap2\n      swap1\n      0xffffffff\n      and\n      jump\t// in\n    tag_119:\n        /* \"@openzeppelin/contracts/token/ERC20/utils/SafeERC20.sol\":3626:3721  bytes memory returndata = address(token).functionCall(data, \"SafeERC20: low-level call failed\") */\n      swap1\n      pop\n        /* \"@openzeppelin/contracts/token/ERC20/utils/SafeERC20.sol\":3755:3756  0 */\n      0x00\n        /* \"@openzeppelin/contracts/token/ERC20/utils/SafeERC20.sol\":3735:3745  returndata */\n      dup2\n        /* \"@openzeppelin/contracts/token/ERC20/utils/SafeERC20.sol\":3735:3752  returndata.length */\n      mload\n        /* \"@openzeppelin/contracts/token/ERC20/utils/SafeERC20.sol\":3735:3756  returndata.length > 0 */\n      gt\n        /* \"@openzeppelin/contracts/token/ERC20/utils/SafeERC20.sol\":3731:3907  if (returndata.length > 0) {... */\n      iszero\n      tag_121\n      jumpi\n        /* \"@openzeppelin/contracts/token/ERC20/utils/SafeERC20.sol\":3830:3840  returndata */\n      dup1\n        /* \"@openzeppelin/contracts/token/ERC20/utils/SafeERC20.sol\":3819:3849  abi.decode(returndata, (bool)) */\n      dup1\n      0x20\n      add\n      swap1\n      mload\n      dup2\n      add\n      swap1\n      tag_122\n      swap2\n      swap1\n      tag_123\n      jump\t// in\n    tag_122:\n        /* \"@openzeppelin/contracts/token/ERC20/utils/SafeERC20.sol\":3811:3896  require(abi.decode(returndata, (bool)), \"SafeERC20: ERC20 operation did not succeed\") */\n      tag_124\n      jumpi\n      mload(0x40)\n      0x08c379a000000000000000000000000000000000000000000000000000000000\n      dup2\n      mstore\n      0x04\n      add\n      tag_125\n      swap1\n      tag_126\n      jump\t// in\n    tag_125:\n      mload(0x40)\n      dup1\n      swap2\n      sub\n      swap1\n      revert\n    tag_124:\n        /* \"@openzeppelin/contracts/token/ERC20/utils/SafeERC20.sol\":3731:3907  if (returndata.length > 0) {... */\n    tag_121:\n        /* \"@openzeppelin/contracts/token/ERC20/utils/SafeERC20.sol\":3277:3913  {... */\n      pop\n        /* \"@openzeppelin/contracts/token/ERC20/utils/SafeERC20.sol\":3207:3913  function _callOptionalReturn(IERC20 token, bytes memory data) private {... */\n      pop\n      pop\n      jump\t// out\n        /* \"@openzeppelin/contracts/utils/Address.sol\":3861:4084  function functionCall(... */\n    tag_120:\n        /* \"@openzeppelin/contracts/utils/Address.sol\":3994:4006  bytes memory */\n      0x60\n        /* \"@openzeppelin/contracts/utils/Address.sol\":4025:4077  functionCallWithValue(target, data, 0, errorMessage) */\n      tag_128\n        /* \"@openzeppelin/contracts/utils/Address.sol\":4047:4053  target */\n      dup5\n        /* \"@openzeppelin/contracts/utils/Address.sol\":4055:4059  data */\n      dup5\n        /* \"@openzeppelin/contracts/utils/Address.sol\":4061:4062  0 */\n      0x00\n        /* \"@openzeppelin/contracts/utils/Address.sol\":4064:4076  errorMessage */\n      dup6\n        /* \"@openzeppelin/contracts/utils/Address.sol\":4025:4046  functionCallWithValue */\n      tag_129\n        /* \"@openzeppelin/contracts/utils/Address.sol\":4025:4077  functionCallWithValue(target, data, 0, errorMessage) */\n      jump\t// in\n    tag_128:\n        /* \"@openzeppelin/contracts/utils/Address.sol\":4018:4077  return functionCallWithValue(target, data, 0, errorMessage) */\n      swap1\n      pop\n        /* \"@openzeppelin/contracts/utils/Address.sol\":3861:4084  function functionCall(... */\n      swap4\n      swap3\n      pop\n      pop\n      pop\n      jump\t// out\n        /* \"@openzeppelin/contracts/utils/Address.sol\":4948:5447  function functionCallWithValue(... */\n    tag_129:\n        /* \"@openzeppelin/contracts/utils/Address.sol\":5113:5125  bytes memory */\n      0x60\n        /* \"@openzeppelin/contracts/utils/Address.sol\":5170:5175  value */\n      dup3\n        /* \"@openzeppelin/contracts/utils/Address.sol\":5145:5166  address(this).balance */\n      selfbalance\n        /* \"@openzeppelin/contracts/utils/Address.sol\":5145:5175  address(this).balance >= value */\n      lt\n      iszero\n        /* \"@openzeppelin/contracts/utils/Address.sol\":5137:5218  require(address(this).balance >= value, \"Address: insufficient balance for call\") */\n      tag_131\n      jumpi\n      mload(0x40)\n      0x08c379a000000000000000000000000000000000000000000000000000000000\n      dup2\n      mstore\n      0x04\n      add\n      tag_132\n      swap1\n      tag_133\n      jump\t// in\n    tag_132:\n      mload(0x40)\n      dup1\n      swap2\n      sub\n      swap1\n      revert\n    tag_131:\n        /* \"@openzeppelin/contracts/utils/Address.sol\":5236:5254  isContract(target) */\n      tag_134\n        /* \"@openzeppelin/contracts/utils/Address.sol\":5247:5253  target */\n      dup6\n        /* \"@openzeppelin/contracts/utils/Address.sol\":5236:5246  isContract */\n      tag_135\n        /* \"@openzeppelin/contracts/utils/Address.sol\":5236:5254  isContract(target) */\n      jump\t// in\n    tag_134:\n        /* \"@openzeppelin/contracts/utils/Address.sol\":5228:5288  require(isContract(target), \"Address: call to non-contract\") */\n      tag_136\n      jumpi\n      mload(0x40)\n      0x08c379a000000000000000000000000000000000000000000000000000000000\n      dup2\n      mstore\n      0x04\n      add\n      tag_137\n      swap1\n      tag_138\n      jump\t// in\n    tag_137:\n      mload(0x40)\n      dup1\n      swap2\n      sub\n      swap1\n      revert\n    tag_136:\n        /* \"@openzeppelin/contracts/utils/Address.sol\":5300:5312  bool success */\n      0x00\n        /* \"@openzeppelin/contracts/utils/Address.sol\":5314:5337  bytes memory returndata */\n      dup1\n        /* \"@openzeppelin/contracts/utils/Address.sol\":5341:5347  target */\n      dup7\n        /* \"@openzeppelin/contracts/utils/Address.sol\":5341:5352  target.call */\n      0xffffffffffffffffffffffffffffffffffffffff\n      and\n        /* \"@openzeppelin/contracts/utils/Address.sol\":5360:5365  value */\n      dup6\n        /* \"@openzeppelin/contracts/utils/Address.sol\":5367:5371  data */\n      dup8\n        /* \"@openzeppelin/contracts/utils/Address.sol\":5341:5372  target.call{value: value}(data) */\n      mload(0x40)\n      tag_139\n      swap2\n      swap1\n      tag_140\n      jump\t// in\n    tag_139:\n      0x00\n      mload(0x40)\n      dup1\n      dup4\n      sub\n      dup2\n      dup6\n      dup8\n      gas\n      call\n      swap3\n      pop\n      pop\n      pop\n      returndatasize\n      dup1\n      0x00\n      dup2\n      eq\n      tag_143\n      jumpi\n      mload(0x40)\n      swap2\n      pop\n      and(add(returndatasize, 0x3f), not(0x1f))\n      dup3\n      add\n      0x40\n      mstore\n      returndatasize\n      dup3\n      mstore\n      returndatasize\n      0x00\n      0x20\n      dup5\n      add\n      returndatacopy\n      jump(tag_142)\n    tag_143:\n      0x60\n      swap2\n      pop\n    tag_142:\n      pop\n        /* \"@openzeppelin/contracts/utils/Address.sol\":5299:5372  (bool success, bytes memory returndata) = target.call{value: value}(data) */\n      swap2\n      pop\n      swap2\n      pop\n        /* \"@openzeppelin/contracts/utils/Address.sol\":5389:5440  verifyCallResult(success, returndata, errorMessage) */\n      tag_144\n        /* \"@openzeppelin/contracts/utils/Address.sol\":5406:5413  success */\n      dup3\n        /* \"@openzeppelin/contracts/utils/Address.sol\":5415:5425  returndata */\n      dup3\n        /* \"@openzeppelin/contracts/utils/Address.sol\":5427:5439  errorMessage */\n      dup7\n        /* \"@openzeppelin/contracts/utils/Address.sol\":5389:5405  verifyCallResult */\n      tag_145\n        /* \"@openzeppelin/contracts/utils/Address.sol\":5389:5440  verifyCallResult(success, returndata, errorMessage) */\n      jump\t// in\n    tag_144:\n        /* \"@openzeppelin/contracts/utils/Address.sol\":5382:5440  return verifyCallResult(success, returndata, errorMessage) */\n      swap3\n      pop\n      pop\n      pop\n        /* \"@openzeppelin/contracts/utils/Address.sol\":4948:5447  function functionCallWithValue(... */\n      swap5\n      swap4\n      pop\n      pop\n      pop\n      pop\n      jump\t// out\n        /* \"@openzeppelin/contracts/utils/Address.sol\":1175:1495  function isContract(address account) internal view returns (bool) {... */\n    tag_135:\n        /* \"@openzeppelin/contracts/utils/Address.sol\":1235:1239  bool */\n      0x00\n        /* \"@openzeppelin/contracts/utils/Address.sol\":1487:1488  0 */\n      dup1\n        /* \"@openzeppelin/contracts/utils/Address.sol\":1465:1472  account */\n      dup3\n        /* \"@openzeppelin/contracts/utils/Address.sol\":1465:1484  account.code.length */\n      0xffffffffffffffffffffffffffffffffffffffff\n      and\n      extcodesize\n        /* \"@openzeppelin/contracts/utils/Address.sol\":1465:1488  account.code.length > 0 */\n      gt\n        /* \"@openzeppelin/contracts/utils/Address.sol\":1458:1488  return account.code.length > 0 */\n      swap1\n      pop\n        /* \"@openzeppelin/contracts/utils/Address.sol\":1175:1495  function isContract(address account) internal view returns (bool) {... */\n      swap2\n      swap1\n      pop\n      jump\t// out\n        /* \"@openzeppelin/contracts/utils/Address.sol\":7561:8253  function verifyCallResult(... */\n    tag_145:\n        /* \"@openzeppelin/contracts/utils/Address.sol\":7707:7719  bytes memory */\n      0x60\n        /* \"@openzeppelin/contracts/utils/Address.sol\":7735:7742  success */\n      dup4\n        /* \"@openzeppelin/contracts/utils/Address.sol\":7731:8247  if (success) {... */\n      iszero\n      tag_148\n      jumpi\n        /* \"@openzeppelin/contracts/utils/Address.sol\":7765:7775  returndata */\n      dup3\n        /* \"@openzeppelin/contracts/utils/Address.sol\":7758:7775  return returndata */\n      swap1\n      pop\n      jump(tag_147)\n        /* \"@openzeppelin/contracts/utils/Address.sol\":7731:8247  if (success) {... */\n    tag_148:\n        /* \"@openzeppelin/contracts/utils/Address.sol\":7896:7897  0 */\n      0x00\n        /* \"@openzeppelin/contracts/utils/Address.sol\":7876:7886  returndata */\n      dup4\n        /* \"@openzeppelin/contracts/utils/Address.sol\":7876:7893  returndata.length */\n      mload\n        /* \"@openzeppelin/contracts/utils/Address.sol\":7876:7897  returndata.length > 0 */\n      gt\n        /* \"@openzeppelin/contracts/utils/Address.sol\":7872:8237  if (returndata.length > 0) {... */\n      iszero\n      tag_150\n      jumpi\n        /* \"@openzeppelin/contracts/utils/Address.sol\":8070:8080  returndata */\n      dup3\n        /* \"@openzeppelin/contracts/utils/Address.sol\":8064:8081  mload(returndata) */\n      mload\n        /* \"@openzeppelin/contracts/utils/Address.sol\":8130:8145  returndata_size */\n      dup1\n        /* \"@openzeppelin/contracts/utils/Address.sol\":8117:8127  returndata */\n      dup5\n        /* \"@openzeppelin/contracts/utils/Address.sol\":8113:8115  32 */\n      0x20\n        /* \"@openzeppelin/contracts/utils/Address.sol\":8109:8128  add(32, returndata) */\n      add\n        /* \"@openzeppelin/contracts/utils/Address.sol\":8102:8146  revert(add(32, returndata), returndata_size) */\n      revert\n        /* \"@openzeppelin/contracts/utils/Address.sol\":7872:8237  if (returndata.length > 0) {... */\n    tag_150:\n        /* \"@openzeppelin/contracts/utils/Address.sol\":8209:8221  errorMessage */\n      dup2\n        /* \"@openzeppelin/contracts/utils/Address.sol\":8202:8222  revert(errorMessage) */\n      mload(0x40)\n      0x08c379a000000000000000000000000000000000000000000000000000000000\n      dup2\n      mstore\n      0x04\n      add\n      tag_152\n      swap2\n      swap1\n      tag_153\n      jump\t// in\n    tag_152:\n      mload(0x40)\n      dup1\n      swap2\n      sub\n      swap1\n      revert\n        /* \"@openzeppelin/contracts/utils/Address.sol\":7561:8253  function verifyCallResult(... */\n    tag_147:\n      swap4\n      swap3\n      pop\n      pop\n      pop\n      jump\t// out\n        /* \"#utility.yul\":7:146   */\n    tag_155:\n        /* \"#utility.yul\":53:58   */\n      0x00\n        /* \"#utility.yul\":91:97   */\n      dup2\n        /* \"#utility.yul\":78:98   */\n      calldataload\n        /* \"#utility.yul\":69:98   */\n      swap1\n      pop\n        /* \"#utility.yul\":107:140   */\n      tag_157\n        /* \"#utility.yul\":134:139   */\n      dup2\n        /* \"#utility.yul\":107:140   */\n      tag_158\n      jump\t// in\n    tag_157:\n        /* \"#utility.yul\":7:146   */\n      swap3\n      swap2\n      pop\n      pop\n      jump\t// out\n        /* \"#utility.yul\":152:289   */\n    tag_159:\n        /* \"#utility.yul\":206:211   */\n      0x00\n        /* \"#utility.yul\":237:243   */\n      dup2\n        /* \"#utility.yul\":231:244   */\n      mload\n        /* \"#utility.yul\":222:244   */\n      swap1\n      pop\n        /* \"#utility.yul\":253:283   */\n      tag_161\n        /* \"#utility.yul\":277:282   */\n      dup2\n        /* \"#utility.yul\":253:283   */\n      tag_162\n      jump\t// in\n    tag_161:\n        /* \"#utility.yul\":152:289   */\n      swap3\n      swap2\n      pop\n      pop\n      jump\t// out\n        /* \"#utility.yul\":295:624   */\n    tag_42:\n        /* \"#utility.yul\":354:360   */\n      0x00\n        /* \"#utility.yul\":403:405   */\n      0x20\n        /* \"#utility.yul\":391:400   */\n      dup3\n        /* \"#utility.yul\":382:389   */\n      dup5\n        /* \"#utility.yul\":378:401   */\n      sub\n        /* \"#utility.yul\":374:406   */\n      slt\n        /* \"#utility.yul\":371:490   */\n      iszero\n      tag_164\n      jumpi\n        /* \"#utility.yul\":409:488   */\n      tag_165\n      tag_166\n      jump\t// in\n    tag_165:\n        /* \"#utility.yul\":371:490   */\n    tag_164:\n        /* \"#utility.yul\":529:530   */\n      0x00\n        /* \"#utility.yul\":554:607   */\n      tag_167\n        /* \"#utility.yul\":599:606   */\n      dup5\n        /* \"#utility.yul\":590:596   */\n      dup3\n        /* \"#utility.yul\":579:588   */\n      dup6\n        /* \"#utility.yul\":575:597   */\n      add\n        /* \"#utility.yul\":554:607   */\n      tag_155\n      jump\t// in\n    tag_167:\n        /* \"#utility.yul\":544:607   */\n      swap2\n      pop\n        /* \"#utility.yul\":500:617   */\n      pop\n        /* \"#utility.yul\":295:624   */\n      swap3\n      swap2\n      pop\n      pop\n      jump\t// out\n        /* \"#utility.yul\":630:975   */\n    tag_123:\n        /* \"#utility.yul\":697:703   */\n      0x00\n        /* \"#utility.yul\":746:748   */\n      0x20\n        /* \"#utility.yul\":734:743   */\n      dup3\n        /* \"#utility.yul\":725:732   */\n      dup5\n        /* \"#utility.yul\":721:744   */\n      sub\n        /* \"#utility.yul\":717:749   */\n      slt\n        /* \"#utility.yul\":714:833   */\n      iszero\n      tag_169\n      jumpi\n        /* \"#utility.yul\":752:831   */\n      tag_170\n      tag_166\n      jump\t// in\n    tag_170:\n        /* \"#utility.yul\":714:833   */\n    tag_169:\n        /* \"#utility.yul\":872:873   */\n      0x00\n        /* \"#utility.yul\":897:958   */\n      tag_171\n        /* \"#utility.yul\":950:957   */\n      dup5\n        /* \"#utility.yul\":941:947   */\n      dup3\n        /* \"#utility.yul\":930:939   */\n      dup6\n        /* \"#utility.yul\":926:948   */\n      add\n        /* \"#utility.yul\":897:958   */\n      tag_159\n      jump\t// in\n    tag_171:\n        /* \"#utility.yul\":887:958   */\n      swap2\n      pop\n        /* \"#utility.yul\":843:968   */\n      pop\n        /* \"#utility.yul\":630:975   */\n      swap3\n      swap2\n      pop\n      pop\n      jump\t// out\n        /* \"#utility.yul\":981:1123   */\n    tag_172:\n        /* \"#utility.yul\":1084:1116   */\n      tag_174\n        /* \"#utility.yul\":1110:1115   */\n      dup2\n        /* \"#utility.yul\":1084:1116   */\n      tag_175\n      jump\t// in\n    tag_174:\n        /* \"#utility.yul\":1079:1082   */\n      dup3\n        /* \"#utility.yul\":1072:1117   */\n      mstore\n        /* \"#utility.yul\":981:1123   */\n      pop\n      pop\n      jump\t// out\n        /* \"#utility.yul\":1129:1247   */\n    tag_176:\n        /* \"#utility.yul\":1216:1240   */\n      tag_178\n        /* \"#utility.yul\":1234:1239   */\n      dup2\n        /* \"#utility.yul\":1216:1240   */\n      tag_179\n      jump\t// in\n    tag_178:\n        /* \"#utility.yul\":1211:1214   */\n      dup3\n        /* \"#utility.yul\":1204:1241   */\n      mstore\n        /* \"#utility.yul\":1129:1247   */\n      pop\n      pop\n      jump\t// out\n        /* \"#utility.yul\":1253:1362   */\n    tag_180:\n        /* \"#utility.yul\":1334:1355   */\n      tag_182\n        /* \"#utility.yul\":1349:1354   */\n      dup2\n        /* \"#utility.yul\":1334:1355   */\n      tag_183\n      jump\t// in\n    tag_182:\n        /* \"#utility.yul\":1329:1332   */\n      dup3\n        /* \"#utility.yul\":1322:1356   */\n      mstore\n        /* \"#utility.yul\":1253:1362   */\n      pop\n      pop\n      jump\t// out\n        /* \"#utility.yul\":1368:1741   */\n    tag_184:\n        /* \"#utility.yul\":1472:1475   */\n      0x00\n        /* \"#utility.yul\":1500:1538   */\n      tag_186\n        /* \"#utility.yul\":1532:1537   */\n      dup3\n        /* \"#utility.yul\":1500:1538   */\n      tag_187\n      jump\t// in\n    tag_186:\n        /* \"#utility.yul\":1554:1642   */\n      tag_188\n        /* \"#utility.yul\":1635:1641   */\n      dup2\n        /* \"#utility.yul\":1630:1633   */\n      dup6\n        /* \"#utility.yul\":1554:1642   */\n      tag_189\n      jump\t// in\n    tag_188:\n        /* \"#utility.yul\":1547:1642   */\n      swap4\n      pop\n        /* \"#utility.yul\":1651:1703   */\n      tag_190\n        /* \"#utility.yul\":1696:1702   */\n      dup2\n        /* \"#utility.yul\":1691:1694   */\n      dup6\n        /* \"#utility.yul\":1684:1688   */\n      0x20\n        /* \"#utility.yul\":1677:1682   */\n      dup7\n        /* \"#utility.yul\":1673:1689   */\n      add\n        /* \"#utility.yul\":1651:1703   */\n      tag_191\n      jump\t// in\n    tag_190:\n        /* \"#utility.yul\":1728:1734   */\n      dup1\n        /* \"#utility.yul\":1723:1726   */\n      dup5\n        /* \"#utility.yul\":1719:1735   */\n      add\n        /* \"#utility.yul\":1712:1735   */\n      swap2\n      pop\n        /* \"#utility.yul\":1476:1741   */\n      pop\n        /* \"#utility.yul\":1368:1741   */\n      swap3\n      swap2\n      pop\n      pop\n      jump\t// out\n        /* \"#utility.yul\":1747:1906   */\n    tag_192:\n        /* \"#utility.yul\":1848:1899   */\n      tag_194\n        /* \"#utility.yul\":1893:1898   */\n      dup2\n        /* \"#utility.yul\":1848:1899   */\n      tag_195\n      jump\t// in\n    tag_194:\n        /* \"#utility.yul\":1843:1846   */\n      dup3\n        /* \"#utility.yul\":1836:1900   */\n      mstore\n        /* \"#utility.yul\":1747:1906   */\n      pop\n      pop\n      jump\t// out\n        /* \"#utility.yul\":1912:2276   */\n    tag_196:\n        /* \"#utility.yul\":2000:2003   */\n      0x00\n        /* \"#utility.yul\":2028:2067   */\n      tag_198\n        /* \"#utility.yul\":2061:2066   */\n      dup3\n        /* \"#utility.yul\":2028:2067   */\n      tag_199\n      jump\t// in\n    tag_198:\n        /* \"#utility.yul\":2083:2154   */\n      tag_200\n        /* \"#utility.yul\":2147:2153   */\n      dup2\n        /* \"#utility.yul\":2142:2145   */\n      dup6\n        /* \"#utility.yul\":2083:2154   */\n      tag_201\n      jump\t// in\n    tag_200:\n        /* \"#utility.yul\":2076:2154   */\n      swap4\n      pop\n        /* \"#utility.yul\":2163:2215   */\n      tag_202\n        /* \"#utility.yul\":2208:2214   */\n      dup2\n        /* \"#utility.yul\":2203:2206   */\n      dup6\n        /* \"#utility.yul\":2196:2200   */\n      0x20\n        /* \"#utility.yul\":2189:2194   */\n      dup7\n        /* \"#utility.yul\":2185:2201   */\n      add\n        /* \"#utility.yul\":2163:2215   */\n      tag_191\n      jump\t// in\n    tag_202:\n        /* \"#utility.yul\":2240:2269   */\n      tag_203\n        /* \"#utility.yul\":2262:2268   */\n      dup2\n        /* \"#utility.yul\":2240:2269   */\n      tag_204\n      jump\t// in\n    tag_203:\n        /* \"#utility.yul\":2235:2238   */\n      dup5\n        /* \"#utility.yul\":2231:2270   */\n      add\n        /* \"#utility.yul\":2224:2270   */\n      swap2\n      pop\n        /* \"#utility.yul\":2004:2276   */\n      pop\n        /* \"#utility.yul\":1912:2276   */\n      swap3\n      swap2\n      pop\n      pop\n      jump\t// out\n        /* \"#utility.yul\":2282:2648   */\n    tag_205:\n        /* \"#utility.yul\":2424:2427   */\n      0x00\n        /* \"#utility.yul\":2445:2512   */\n      tag_207\n        /* \"#utility.yul\":2509:2511   */\n      0x1d\n        /* \"#utility.yul\":2504:2507   */\n      dup4\n        /* \"#utility.yul\":2445:2512   */\n      tag_201\n      jump\t// in\n    tag_207:\n        /* \"#utility.yul\":2438:2512   */\n      swap2\n      pop\n        /* \"#utility.yul\":2521:2614   */\n      tag_208\n        /* \"#utility.yul\":2610:2613   */\n      dup3\n        /* \"#utility.yul\":2521:2614   */\n      tag_209\n      jump\t// in\n    tag_208:\n        /* \"#utility.yul\":2639:2641   */\n      0x20\n        /* \"#utility.yul\":2634:2637   */\n      dup3\n        /* \"#utility.yul\":2630:2642   */\n      add\n        /* \"#utility.yul\":2623:2642   */\n      swap1\n      pop\n        /* \"#utility.yul\":2282:2648   */\n      swap2\n      swap1\n      pop\n      jump\t// out\n        /* \"#utility.yul\":2654:3020   */\n    tag_210:\n        /* \"#utility.yul\":2796:2799   */\n      0x00\n        /* \"#utility.yul\":2817:2884   */\n      tag_212\n        /* \"#utility.yul\":2881:2883   */\n      0x26\n        /* \"#utility.yul\":2876:2879   */\n      dup4\n        /* \"#utility.yul\":2817:2884   */\n      tag_201\n      jump\t// in\n    tag_212:\n        /* \"#utility.yul\":2810:2884   */\n      swap2\n      pop\n        /* \"#utility.yul\":2893:2986   */\n      tag_213\n        /* \"#utility.yul\":2982:2985   */\n      dup3\n        /* \"#utility.yul\":2893:2986   */\n      tag_214\n      jump\t// in\n    tag_213:\n        /* \"#utility.yul\":3011:3013   */\n      0x40\n        /* \"#utility.yul\":3006:3009   */\n      dup3\n        /* \"#utility.yul\":3002:3014   */\n      add\n        /* \"#utility.yul\":2995:3014   */\n      swap1\n      pop\n        /* \"#utility.yul\":2654:3020   */\n      swap2\n      swap1\n      pop\n      jump\t// out\n        /* \"#utility.yul\":3026:3392   */\n    tag_215:\n        /* \"#utility.yul\":3168:3171   */\n      0x00\n        /* \"#utility.yul\":3189:3256   */\n      tag_217\n        /* \"#utility.yul\":3253:3255   */\n      0x2a\n        /* \"#utility.yul\":3248:3251   */\n      dup4\n        /* \"#utility.yul\":3189:3256   */\n      tag_201\n      jump\t// in\n    tag_217:\n        /* \"#utility.yul\":3182:3256   */\n      swap2\n      pop\n        /* \"#utility.yul\":3265:3358   */\n      tag_218\n        /* \"#utility.yul\":3354:3357   */\n      dup3\n        /* \"#utility.yul\":3265:3358   */\n      tag_219\n      jump\t// in\n    tag_218:\n        /* \"#utility.yul\":3383:3385   */\n      0x40\n        /* \"#utility.yul\":3378:3381   */\n      dup3\n        /* \"#utility.yul\":3374:3386   */\n      add\n        /* \"#utility.yul\":3367:3386   */\n      swap1\n      pop\n        /* \"#utility.yul\":3026:3392   */\n      swap2\n      swap1\n      pop\n      jump\t// out\n        /* \"#utility.yul\":3398:3764   */\n    tag_220:\n        /* \"#utility.yul\":3540:3543   */\n      0x00\n        /* \"#utility.yul\":3561:3628   */\n      tag_222\n        /* \"#utility.yul\":3625:3627   */\n      0x1d\n        /* \"#utility.yul\":3620:3623   */\n      dup4\n        /* \"#utility.yul\":3561:3628   */\n      tag_201\n      jump\t// in\n    tag_222:\n        /* \"#utility.yul\":3554:3628   */\n      swap2\n      pop\n        /* \"#utility.yul\":3637:3730   */\n      tag_223\n        /* \"#utility.yul\":3726:3729   */\n      dup3\n        /* \"#utility.yul\":3637:3730   */\n      tag_224\n      jump\t// in\n    tag_223:\n        /* \"#utility.yul\":3755:3757   */\n      0x20\n        /* \"#utility.yul\":3750:3753   */\n      dup3\n        /* \"#utility.yul\":3746:3758   */\n      add\n        /* \"#utility.yul\":3739:3758   */\n      swap1\n      pop\n        /* \"#utility.yul\":3398:3764   */\n      swap2\n      swap1\n      pop\n      jump\t// out\n        /* \"#utility.yul\":3770:4136   */\n    tag_225:\n        /* \"#utility.yul\":3912:3915   */\n      0x00\n        /* \"#utility.yul\":3933:4000   */\n      tag_227\n        /* \"#utility.yul\":3997:3999   */\n      0x2a\n        /* \"#utility.yul\":3992:3995   */\n      dup4\n        /* \"#utility.yul\":3933:4000   */\n      tag_201\n      jump\t// in\n    tag_227:\n        /* \"#utility.yul\":3926:4000   */\n      swap2\n      pop\n        /* \"#utility.yul\":4009:4102   */\n      tag_228\n        /* \"#utility.yul\":4098:4101   */\n      dup3\n        /* \"#utility.yul\":4009:4102   */\n      tag_229\n      jump\t// in\n    tag_228:\n        /* \"#utility.yul\":4127:4129   */\n      0x40\n        /* \"#utility.yul\":4122:4125   */\n      dup3\n        /* \"#utility.yul\":4118:4130   */\n      add\n        /* \"#utility.yul\":4111:4130   */\n      swap1\n      pop\n        /* \"#utility.yul\":3770:4136   */\n      swap2\n      swap1\n      pop\n      jump\t// out\n        /* \"#utility.yul\":4142:4508   */\n    tag_230:\n        /* \"#utility.yul\":4284:4287   */\n      0x00\n        /* \"#utility.yul\":4305:4372   */\n      tag_232\n        /* \"#utility.yul\":4369:4371   */\n      0x1f\n        /* \"#utility.yul\":4364:4367   */\n      dup4\n        /* \"#utility.yul\":4305:4372   */\n      tag_201\n      jump\t// in\n    tag_232:\n        /* \"#utility.yul\":4298:4372   */\n      swap2\n      pop\n        /* \"#utility.yul\":4381:4474   */\n      tag_233\n        /* \"#utility.yul\":4470:4473   */\n      dup3\n        /* \"#utility.yul\":4381:4474   */\n      tag_234\n      jump\t// in\n    tag_233:\n        /* \"#utility.yul\":4499:4501   */\n      0x20\n        /* \"#utility.yul\":4494:4497   */\n      dup3\n        /* \"#utility.yul\":4490:4502   */\n      add\n        /* \"#utility.yul\":4483:4502   */\n      swap1\n      pop\n        /* \"#utility.yul\":4142:4508   */\n      swap2\n      swap1\n      pop\n      jump\t// out\n        /* \"#utility.yul\":4514:4880   */\n    tag_235:\n        /* \"#utility.yul\":4656:4659   */\n      0x00\n        /* \"#utility.yul\":4677:4744   */\n      tag_237\n        /* \"#utility.yul\":4741:4743   */\n      0x19\n        /* \"#utility.yul\":4736:4739   */\n      dup4\n        /* \"#utility.yul\":4677:4744   */\n      tag_201\n      jump\t// in\n    tag_237:\n        /* \"#utility.yul\":4670:4744   */\n      swap2\n      pop\n        /* \"#utility.yul\":4753:4846   */\n      tag_238\n        /* \"#utility.yul\":4842:4845   */\n      dup3\n        /* \"#utility.yul\":4753:4846   */\n      tag_239\n      jump\t// in\n    tag_238:\n        /* \"#utility.yul\":4871:4873   */\n      0x20\n        /* \"#utility.yul\":4866:4869   */\n      dup3\n        /* \"#utility.yul\":4862:4874   */\n      add\n        /* \"#utility.yul\":4855:4874   */\n      swap1\n      pop\n        /* \"#utility.yul\":4514:4880   */\n      swap2\n      swap1\n      pop\n      jump\t// out\n        /* \"#utility.yul\":4886:5004   */\n    tag_240:\n        /* \"#utility.yul\":4973:4997   */\n      tag_242\n        /* \"#utility.yul\":4991:4996   */\n      dup2\n        /* \"#utility.yul\":4973:4997   */\n      tag_243\n      jump\t// in\n    tag_242:\n        /* \"#utility.yul\":4968:4971   */\n      dup3\n        /* \"#utility.yul\":4961:4998   */\n      mstore\n        /* \"#utility.yul\":4886:5004   */\n      pop\n      pop\n      jump\t// out\n        /* \"#utility.yul\":5010:5281   */\n    tag_140:\n        /* \"#utility.yul\":5140:5143   */\n      0x00\n        /* \"#utility.yul\":5162:5255   */\n      tag_245\n        /* \"#utility.yul\":5251:5254   */\n      dup3\n        /* \"#utility.yul\":5242:5248   */\n      dup5\n        /* \"#utility.yul\":5162:5255   */\n      tag_184\n      jump\t// in\n    tag_245:\n        /* \"#utility.yul\":5155:5255   */\n      swap2\n      pop\n        /* \"#utility.yul\":5272:5275   */\n      dup2\n        /* \"#utility.yul\":5265:5275   */\n      swap1\n      pop\n        /* \"#utility.yul\":5010:5281   */\n      swap3\n      swap2\n      pop\n      pop\n      jump\t// out\n        /* \"#utility.yul\":5287:5541   */\n    tag_39:\n        /* \"#utility.yul\":5396:5400   */\n      0x00\n        /* \"#utility.yul\":5434:5436   */\n      0x20\n        /* \"#utility.yul\":5423:5432   */\n      dup3\n        /* \"#utility.yul\":5419:5437   */\n      add\n        /* \"#utility.yul\":5411:5437   */\n      swap1\n      pop\n        /* \"#utility.yul\":5447:5534   */\n      tag_247\n        /* \"#utility.yul\":5531:5532   */\n      0x00\n        /* \"#utility.yul\":5520:5529   */\n      dup4\n        /* \"#utility.yul\":5516:5533   */\n      add\n        /* \"#utility.yul\":5507:5513   */\n      dup5\n        /* \"#utility.yul\":5447:5534   */\n      tag_172\n      jump\t// in\n    tag_247:\n        /* \"#utility.yul\":5287:5541   */\n      swap3\n      swap2\n      pop\n      pop\n      jump\t// out\n        /* \"#utility.yul\":5547:5879   */\n    tag_116:\n        /* \"#utility.yul\":5668:5672   */\n      0x00\n        /* \"#utility.yul\":5706:5708   */\n      0x40\n        /* \"#utility.yul\":5695:5704   */\n      dup3\n        /* \"#utility.yul\":5691:5709   */\n      add\n        /* \"#utility.yul\":5683:5709   */\n      swap1\n      pop\n        /* \"#utility.yul\":5719:5790   */\n      tag_249\n        /* \"#utility.yul\":5787:5788   */\n      0x00\n        /* \"#utility.yul\":5776:5785   */\n      dup4\n        /* \"#utility.yul\":5772:5789   */\n      add\n        /* \"#utility.yul\":5763:5769   */\n      dup6\n        /* \"#utility.yul\":5719:5790   */\n      tag_176\n      jump\t// in\n    tag_249:\n        /* \"#utility.yul\":5800:5872   */\n      tag_250\n        /* \"#utility.yul\":5868:5870   */\n      0x20\n        /* \"#utility.yul\":5857:5866   */\n      dup4\n        /* \"#utility.yul\":5853:5871   */\n      add\n        /* \"#utility.yul\":5844:5850   */\n      dup5\n        /* \"#utility.yul\":5800:5872   */\n      tag_240\n      jump\t// in\n    tag_250:\n        /* \"#utility.yul\":5547:5879   */\n      swap4\n      swap3\n      pop\n      pop\n      pop\n      jump\t// out\n        /* \"#utility.yul\":5885:6095   */\n    tag_34:\n        /* \"#utility.yul\":5972:5976   */\n      0x00\n        /* \"#utility.yul\":6010:6012   */\n      0x20\n        /* \"#utility.yul\":5999:6008   */\n      dup3\n        /* \"#utility.yul\":5995:6013   */\n      add\n        /* \"#utility.yul\":5987:6013   */\n      swap1\n      pop\n        /* \"#utility.yul\":6023:6088   */\n      tag_252\n        /* \"#utility.yul\":6085:6086   */\n      0x00\n        /* \"#utility.yul\":6074:6083   */\n      dup4\n        /* \"#utility.yul\":6070:6087   */\n      add\n        /* \"#utility.yul\":6061:6067   */\n      dup5\n        /* \"#utility.yul\":6023:6088   */\n      tag_180\n      jump\t// in\n    tag_252:\n        /* \"#utility.yul\":5885:6095   */\n      swap3\n      swap2\n      pop\n      pop\n      jump\t// out\n        /* \"#utility.yul\":6101:6351   */\n    tag_47:\n        /* \"#utility.yul\":6208:6212   */\n      0x00\n        /* \"#utility.yul\":6246:6248   */\n      0x20\n        /* \"#utility.yul\":6235:6244   */\n      dup3\n        /* \"#utility.yul\":6231:6249   */\n      add\n        /* \"#utility.yul\":6223:6249   */\n      swap1\n      pop\n        /* \"#utility.yul\":6259:6344   */\n      tag_254\n        /* \"#utility.yul\":6341:6342   */\n      0x00\n        /* \"#utility.yul\":6330:6339   */\n      dup4\n        /* \"#utility.yul\":6326:6343   */\n      add\n        /* \"#utility.yul\":6317:6323   */\n      dup5\n        /* \"#utility.yul\":6259:6344   */\n      tag_192\n      jump\t// in\n    tag_254:\n        /* \"#utility.yul\":6101:6351   */\n      swap3\n      swap2\n      pop\n      pop\n      jump\t// out\n        /* \"#utility.yul\":6357:6670   */\n    tag_153:\n        /* \"#utility.yul\":6470:6474   */\n      0x00\n        /* \"#utility.yul\":6508:6510   */\n      0x20\n        /* \"#utility.yul\":6497:6506   */\n      dup3\n        /* \"#utility.yul\":6493:6511   */\n      add\n        /* \"#utility.yul\":6485:6511   */\n      swap1\n      pop\n        /* \"#utility.yul\":6557:6566   */\n      dup2\n        /* \"#utility.yul\":6551:6555   */\n      dup2\n        /* \"#utility.yul\":6547:6567   */\n      sub\n        /* \"#utility.yul\":6543:6544   */\n      0x00\n        /* \"#utility.yul\":6532:6541   */\n      dup4\n        /* \"#utility.yul\":6528:6545   */\n      add\n        /* \"#utility.yul\":6521:6568   */\n      mstore\n        /* \"#utility.yul\":6585:6663   */\n      tag_256\n        /* \"#utility.yul\":6658:6662   */\n      dup2\n        /* \"#utility.yul\":6649:6655   */\n      dup5\n        /* \"#utility.yul\":6585:6663   */\n      tag_196\n      jump\t// in\n    tag_256:\n        /* \"#utility.yul\":6577:6663   */\n      swap1\n      pop\n        /* \"#utility.yul\":6357:6670   */\n      swap3\n      swap2\n      pop\n      pop\n      jump\t// out\n        /* \"#utility.yul\":6676:7095   */\n    tag_85:\n        /* \"#utility.yul\":6842:6846   */\n      0x00\n        /* \"#utility.yul\":6880:6882   */\n      0x20\n        /* \"#utility.yul\":6869:6878   */\n      dup3\n        /* \"#utility.yul\":6865:6883   */\n      add\n        /* \"#utility.yul\":6857:6883   */\n      swap1\n      pop\n        /* \"#utility.yul\":6929:6938   */\n      dup2\n        /* \"#utility.yul\":6923:6927   */\n      dup2\n        /* \"#utility.yul\":6919:6939   */\n      sub\n        /* \"#utility.yul\":6915:6916   */\n      0x00\n        /* \"#utility.yul\":6904:6913   */\n      dup4\n        /* \"#utility.yul\":6900:6917   */\n      add\n        /* \"#utility.yul\":6893:6940   */\n      mstore\n        /* \"#utility.yul\":6957:7088   */\n      tag_258\n        /* \"#utility.yul\":7083:7087   */\n      dup2\n        /* \"#utility.yul\":6957:7088   */\n      tag_205\n      jump\t// in\n    tag_258:\n        /* \"#utility.yul\":6949:7088   */\n      swap1\n      pop\n        /* \"#utility.yul\":6676:7095   */\n      swap2\n      swap1\n      pop\n      jump\t// out\n        /* \"#utility.yul\":7101:7520   */\n    tag_133:\n        /* \"#utility.yul\":7267:7271   */\n      0x00\n        /* \"#utility.yul\":7305:7307   */\n      0x20\n        /* \"#utility.yul\":7294:7303   */\n      dup3\n        /* \"#utility.yul\":7290:7308   */\n      add\n        /* \"#utility.yul\":7282:7308   */\n      swap1\n      pop\n        /* \"#utility.yul\":7354:7363   */\n      dup2\n        /* \"#utility.yul\":7348:7352   */\n      dup2\n        /* \"#utility.yul\":7344:7364   */\n      sub\n        /* \"#utility.yul\":7340:7341   */\n      0x00\n        /* \"#utility.yul\":7329:7338   */\n      dup4\n        /* \"#utility.yul\":7325:7342   */\n      add\n        /* \"#utility.yul\":7318:7365   */\n      mstore\n        /* \"#utility.yul\":7382:7513   */\n      tag_260\n        /* \"#utility.yul\":7508:7512   */\n      dup2\n        /* \"#utility.yul\":7382:7513   */\n      tag_210\n      jump\t// in\n    tag_260:\n        /* \"#utility.yul\":7374:7513   */\n      swap1\n      pop\n        /* \"#utility.yul\":7101:7520   */\n      swap2\n      swap1\n      pop\n      jump\t// out\n        /* \"#utility.yul\":7526:7945   */\n    tag_103:\n        /* \"#utility.yul\":7692:7696   */\n      0x00\n        /* \"#utility.yul\":7730:7732   */\n      0x20\n        /* \"#utility.yul\":7719:7728   */\n      dup3\n        /* \"#utility.yul\":7715:7733   */\n      add\n        /* \"#utility.yul\":7707:7733   */\n      swap1\n      pop\n        /* \"#utility.yul\":7779:7788   */\n      dup2\n        /* \"#utility.yul\":7773:7777   */\n      dup2\n        /* \"#utility.yul\":7769:7789   */\n      sub\n        /* \"#utility.yul\":7765:7766   */\n      0x00\n        /* \"#utility.yul\":7754:7763   */\n      dup4\n        /* \"#utility.yul\":7750:7767   */\n      add\n        /* \"#utility.yul\":7743:7790   */\n      mstore\n        /* \"#utility.yul\":7807:7938   */\n      tag_262\n        /* \"#utility.yul\":7933:7937   */\n      dup2\n        /* \"#utility.yul\":7807:7938   */\n      tag_215\n      jump\t// in\n    tag_262:\n        /* \"#utility.yul\":7799:7938   */\n      swap1\n      pop\n        /* \"#utility.yul\":7526:7945   */\n      swap2\n      swap1\n      pop\n      jump\t// out\n        /* \"#utility.yul\":7951:8370   */\n    tag_138:\n        /* \"#utility.yul\":8117:8121   */\n      0x00\n        /* \"#utility.yul\":8155:8157   */\n      0x20\n        /* \"#utility.yul\":8144:8153   */\n      dup3\n        /* \"#utility.yul\":8140:8158   */\n      add\n        /* \"#utility.yul\":8132:8158   */\n      swap1\n      pop\n        /* \"#utility.yul\":8204:8213   */\n      dup2\n        /* \"#utility.yul\":8198:8202   */\n      dup2\n        /* \"#utility.yul\":8194:8214   */\n      sub\n        /* \"#utility.yul\":8190:8191   */\n      0x00\n        /* \"#utility.yul\":8179:8188   */\n      dup4\n        /* \"#utility.yul\":8175:8192   */\n      add\n        /* \"#utility.yul\":8168:8215   */\n      mstore\n        /* \"#utility.yul\":8232:8363   */\n      tag_264\n        /* \"#utility.yul\":8358:8362   */\n      dup2\n        /* \"#utility.yul\":8232:8363   */\n      tag_220\n      jump\t// in\n    tag_264:\n        /* \"#utility.yul\":8224:8363   */\n      swap1\n      pop\n        /* \"#utility.yul\":7951:8370   */\n      swap2\n      swap1\n      pop\n      jump\t// out\n        /* \"#utility.yul\":8376:8795   */\n    tag_126:\n        /* \"#utility.yul\":8542:8546   */\n      0x00\n        /* \"#utility.yul\":8580:8582   */\n      0x20\n        /* \"#utility.yul\":8569:8578   */\n      dup3\n        /* \"#utility.yul\":8565:8583   */\n      add\n        /* \"#utility.yul\":8557:8583   */\n      swap1\n      pop\n        /* \"#utility.yul\":8629:8638   */\n      dup2\n        /* \"#utility.yul\":8623:8627   */\n      dup2\n        /* \"#utility.yul\":8619:8639   */\n      sub\n        /* \"#utility.yul\":8615:8616   */\n      0x00\n        /* \"#utility.yul\":8604:8613   */\n      dup4\n        /* \"#utility.yul\":8600:8617   */\n      add\n        /* \"#utility.yul\":8593:8640   */\n      mstore\n        /* \"#utility.yul\":8657:8788   */\n      tag_266\n        /* \"#utility.yul\":8783:8787   */\n      dup2\n        /* \"#utility.yul\":8657:8788   */\n      tag_225\n      jump\t// in\n    tag_266:\n        /* \"#utility.yul\":8649:8788   */\n      swap1\n      pop\n        /* \"#utility.yul\":8376:8795   */\n      swap2\n      swap1\n      pop\n      jump\t// out\n        /* \"#utility.yul\":8801:9220   */\n    tag_52:\n        /* \"#utility.yul\":8967:8971   */\n      0x00\n        /* \"#utility.yul\":9005:9007   */\n      0x20\n        /* \"#utility.yul\":8994:9003   */\n      dup3\n        /* \"#utility.yul\":8990:9008   */\n      add\n        /* \"#utility.yul\":8982:9008   */\n      swap1\n      pop\n        /* \"#utility.yul\":9054:9063   */\n      dup2\n        /* \"#utility.yul\":9048:9052   */\n      dup2\n        /* \"#utility.yul\":9044:9064   */\n      sub\n        /* \"#utility.yul\":9040:9041   */\n      0x00\n        /* \"#utility.yul\":9029:9038   */\n      dup4\n        /* \"#utility.yul\":9025:9042   */\n      add\n        /* \"#utility.yul\":9018:9065   */\n      mstore\n        /* \"#utility.yul\":9082:9213   */\n      tag_268\n        /* \"#utility.yul\":9208:9212   */\n      dup2\n        /* \"#utility.yul\":9082:9213   */\n      tag_230\n      jump\t// in\n    tag_268:\n        /* \"#utility.yul\":9074:9213   */\n      swap1\n      pop\n        /* \"#utility.yul\":8801:9220   */\n      swap2\n      swap1\n      pop\n      jump\t// out\n        /* \"#utility.yul\":9226:9645   */\n    tag_106:\n        /* \"#utility.yul\":9392:9396   */\n      0x00\n        /* \"#utility.yul\":9430:9432   */\n      0x20\n        /* \"#utility.yul\":9419:9428   */\n      dup3\n        /* \"#utility.yul\":9415:9433   */\n      add\n        /* \"#utility.yul\":9407:9433   */\n      swap1\n      pop\n        /* \"#utility.yul\":9479:9488   */\n      dup2\n        /* \"#utility.yul\":9473:9477   */\n      dup2\n        /* \"#utility.yul\":9469:9489   */\n      sub\n        /* \"#utility.yul\":9465:9466   */\n      0x00\n        /* \"#utility.yul\":9454:9463   */\n      dup4\n        /* \"#utility.yul\":9450:9467   */\n      add\n        /* \"#utility.yul\":9443:9490   */\n      mstore\n        /* \"#utility.yul\":9507:9638   */\n      tag_270\n        /* \"#utility.yul\":9633:9637   */\n      dup2\n        /* \"#utility.yul\":9507:9638   */\n      tag_235\n      jump\t// in\n    tag_270:\n        /* \"#utility.yul\":9499:9638   */\n      swap1\n      pop\n        /* \"#utility.yul\":9226:9645   */\n      swap2\n      swap1\n      pop\n      jump\t// out\n        /* \"#utility.yul\":9651:9873   */\n    tag_21:\n        /* \"#utility.yul\":9744:9748   */\n      0x00\n        /* \"#utility.yul\":9782:9784   */\n      0x20\n        /* \"#utility.yul\":9771:9780   */\n      dup3\n        /* \"#utility.yul\":9767:9785   */\n      add\n        /* \"#utility.yul\":9759:9785   */\n      swap1\n      pop\n        /* \"#utility.yul\":9795:9866   */\n      tag_272\n        /* \"#utility.yul\":9863:9864   */\n      0x00\n        /* \"#utility.yul\":9852:9861   */\n      dup4\n        /* \"#utility.yul\":9848:9865   */\n      add\n        /* \"#utility.yul\":9839:9845   */\n      dup5\n        /* \"#utility.yul\":9795:9866   */\n      tag_240\n      jump\t// in\n    tag_272:\n        /* \"#utility.yul\":9651:9873   */\n      swap3\n      swap2\n      pop\n      pop\n      jump\t// out\n        /* \"#utility.yul\":9879:10211   */\n    tag_64:\n        /* \"#utility.yul\":10000:10004   */\n      0x00\n        /* \"#utility.yul\":10038:10040   */\n      0x40\n        /* \"#utility.yul\":10027:10036   */\n      dup3\n        /* \"#utility.yul\":10023:10041   */\n      add\n        /* \"#utility.yul\":10015:10041   */\n      swap1\n      pop\n        /* \"#utility.yul\":10051:10122   */\n      tag_274\n        /* \"#utility.yul\":10119:10120   */\n      0x00\n        /* \"#utility.yul\":10108:10117   */\n      dup4\n        /* \"#utility.yul\":10104:10121   */\n      add\n        /* \"#utility.yul\":10095:10101   */\n      dup6\n        /* \"#utility.yul\":10051:10122   */\n      tag_240\n      jump\t// in\n    tag_274:\n        /* \"#utility.yul\":10132:10204   */\n      tag_275\n        /* \"#utility.yul\":10200:10202   */\n      0x20\n        /* \"#utility.yul\":10189:10198   */\n      dup4\n        /* \"#utility.yul\":10185:10203   */\n      add\n        /* \"#utility.yul\":10176:10182   */\n      dup5\n        /* \"#utility.yul\":10132:10204   */\n      tag_240\n      jump\t// in\n    tag_275:\n        /* \"#utility.yul\":9879:10211   */\n      swap4\n      swap3\n      pop\n      pop\n      pop\n      jump\t// out\n        /* \"#utility.yul\":10298:10396   */\n    tag_187:\n        /* \"#utility.yul\":10349:10355   */\n      0x00\n        /* \"#utility.yul\":10383:10388   */\n      dup2\n        /* \"#utility.yul\":10377:10389   */\n      mload\n        /* \"#utility.yul\":10367:10389   */\n      swap1\n      pop\n        /* \"#utility.yul\":10298:10396   */\n      swap2\n      swap1\n      pop\n      jump\t// out\n        /* \"#utility.yul\":10402:10501   */\n    tag_199:\n        /* \"#utility.yul\":10454:10460   */\n      0x00\n        /* \"#utility.yul\":10488:10493   */\n      dup2\n        /* \"#utility.yul\":10482:10494   */\n      mload\n        /* \"#utility.yul\":10472:10494   */\n      swap1\n      pop\n        /* \"#utility.yul\":10402:10501   */\n      swap2\n      swap1\n      pop\n      jump\t// out\n        /* \"#utility.yul\":10507:10654   */\n    tag_189:\n        /* \"#utility.yul\":10608:10619   */\n      0x00\n        /* \"#utility.yul\":10645:10648   */\n      dup2\n        /* \"#utility.yul\":10630:10648   */\n      swap1\n      pop\n        /* \"#utility.yul\":10507:10654   */\n      swap3\n      swap2\n      pop\n      pop\n      jump\t// out\n        /* \"#utility.yul\":10660:10829   */\n    tag_201:\n        /* \"#utility.yul\":10744:10755   */\n      0x00\n        /* \"#utility.yul\":10778:10784   */\n      dup3\n        /* \"#utility.yul\":10773:10776   */\n      dup3\n        /* \"#utility.yul\":10766:10785   */\n      mstore\n        /* \"#utility.yul\":10818:10822   */\n      0x20\n        /* \"#utility.yul\":10813:10816   */\n      dup3\n        /* \"#utility.yul\":10809:10823   */\n      add\n        /* \"#utility.yul\":10794:10823   */\n      swap1\n      pop\n        /* \"#utility.yul\":10660:10829   */\n      swap3\n      swap2\n      pop\n      pop\n      jump\t// out\n        /* \"#utility.yul\":10835:11140   */\n    tag_91:\n        /* \"#utility.yul\":10875:10878   */\n      0x00\n        /* \"#utility.yul\":10894:10914   */\n      tag_283\n        /* \"#utility.yul\":10912:10913   */\n      dup3\n        /* \"#utility.yul\":10894:10914   */\n      tag_243\n      jump\t// in\n    tag_283:\n        /* \"#utility.yul\":10889:10914   */\n      swap2\n      pop\n        /* \"#utility.yul\":10928:10948   */\n      tag_284\n        /* \"#utility.yul\":10946:10947   */\n      dup4\n        /* \"#utility.yul\":10928:10948   */\n      tag_243\n      jump\t// in\n    tag_284:\n        /* \"#utility.yul\":10923:10948   */\n      swap3\n      pop\n        /* \"#utility.yul\":11082:11083   */\n      dup3\n        /* \"#utility.yul\":11014:11080   */\n      0xffffffffffffffffffffffffffffffffffffffffffffffffffffffffffffffff\n        /* \"#utility.yul\":11010:11084   */\n      sub\n        /* \"#utility.yul\":11007:11008   */\n      dup3\n        /* \"#utility.yul\":11004:11085   */\n      gt\n        /* \"#utility.yul\":11001:11108   */\n      iszero\n      tag_285\n      jumpi\n        /* \"#utility.yul\":11088:11106   */\n      tag_286\n      tag_287\n      jump\t// in\n    tag_286:\n        /* \"#utility.yul\":11001:11108   */\n    tag_285:\n        /* \"#utility.yul\":11132:11133   */\n      dup3\n        /* \"#utility.yul\":11129:11130   */\n      dup3\n        /* \"#utility.yul\":11125:11134   */\n      add\n        /* \"#utility.yul\":11118:11134   */\n      swap1\n      pop\n        /* \"#utility.yul\":10835:11140   */\n      swap3\n      swap2\n      pop\n      pop\n      jump\t// out\n        /* \"#utility.yul\":11146:11494   */\n    tag_109:\n        /* \"#utility.yul\":11186:11193   */\n      0x00\n        /* \"#utility.yul\":11209:11229   */\n      tag_289\n        /* \"#utility.yul\":11227:11228   */\n      dup3\n        /* \"#utility.yul\":11209:11229   */\n      tag_243\n      jump\t// in\n    tag_289:\n        /* \"#utility.yul\":11204:11229   */\n      swap2\n      pop\n        /* \"#utility.yul\":11243:11263   */\n      tag_290\n        /* \"#utility.yul\":11261:11262   */\n      dup4\n        /* \"#utility.yul\":11243:11263   */\n      tag_243\n      jump\t// in\n    tag_290:\n        /* \"#utility.yul\":11238:11263   */\n      swap3\n      pop\n        /* \"#utility.yul\":11431:11432   */\n      dup2\n        /* \"#utility.yul\":11363:11429   */\n      0xffffffffffffffffffffffffffffffffffffffffffffffffffffffffffffffff\n        /* \"#utility.yul\":11359:11433   */\n      div\n        /* \"#utility.yul\":11356:11357   */\n      dup4\n        /* \"#utility.yul\":11353:11434   */\n      gt\n        /* \"#utility.yul\":11348:11349   */\n      dup3\n        /* \"#utility.yul\":11341:11350   */\n      iszero\n        /* \"#utility.yul\":11334:11351   */\n      iszero\n        /* \"#utility.yul\":11330:11435   */\n      and\n        /* \"#utility.yul\":11327:11458   */\n      iszero\n      tag_291\n      jumpi\n        /* \"#utility.yul\":11438:11456   */\n      tag_292\n      tag_287\n      jump\t// in\n    tag_292:\n        /* \"#utility.yul\":11327:11458   */\n    tag_291:\n        /* \"#utility.yul\":11486:11487   */\n      dup3\n        /* \"#utility.yul\":11483:11484   */\n      dup3\n        /* \"#utility.yul\":11479:11488   */\n      mul\n        /* \"#utility.yul\":11468:11488   */\n      swap1\n      pop\n        /* \"#utility.yul\":11146:11494   */\n      swap3\n      swap2\n      pop\n      pop\n      jump\t// out\n        /* \"#utility.yul\":11500:11596   */\n    tag_179:\n        /* \"#utility.yul\":11537:11544   */\n      0x00\n        /* \"#utility.yul\":11566:11590   */\n      tag_294\n        /* \"#utility.yul\":11584:11589   */\n      dup3\n        /* \"#utility.yul\":11566:11590   */\n      tag_295\n      jump\t// in\n    tag_294:\n        /* \"#utility.yul\":11555:11590   */\n      swap1\n      pop\n        /* \"#utility.yul\":11500:11596   */\n      swap2\n      swap1\n      pop\n      jump\t// out\n        /* \"#utility.yul\":11602:11706   */\n    tag_175:\n        /* \"#utility.yul\":11647:11654   */\n      0x00\n        /* \"#utility.yul\":11676:11700   */\n      tag_297\n        /* \"#utility.yul\":11694:11699   */\n      dup3\n        /* \"#utility.yul\":11676:11700   */\n      tag_295\n      jump\t// in\n    tag_297:\n        /* \"#utility.yul\":11665:11700   */\n      swap1\n      pop\n        /* \"#utility.yul\":11602:11706   */\n      swap2\n      swap1\n      pop\n      jump\t// out\n        /* \"#utility.yul\":11712:11802   */\n    tag_183:\n        /* \"#utility.yul\":11746:11753   */\n      0x00\n        /* \"#utility.yul\":11789:11794   */\n      dup2\n        /* \"#utility.yul\":11782:11795   */\n      iszero\n        /* \"#utility.yul\":11775:11796   */\n      iszero\n        /* \"#utility.yul\":11764:11796   */\n      swap1\n      pop\n        /* \"#utility.yul\":11712:11802   */\n      swap2\n      swap1\n      pop\n      jump\t// out\n        /* \"#utility.yul\":11808:11934   */\n    tag_295:\n        /* \"#utility.yul\":11845:11852   */\n      0x00\n        /* \"#utility.yul\":11885:11927   */\n      0xffffffffffffffffffffffffffffffffffffffff\n        /* \"#utility.yul\":11878:11883   */\n      dup3\n        /* \"#utility.yul\":11874:11928   */\n      and\n        /* \"#utility.yul\":11863:11928   */\n      swap1\n      pop\n        /* \"#utility.yul\":11808:11934   */\n      swap2\n      swap1\n      pop\n      jump\t// out\n        /* \"#utility.yul\":11940:12017   */\n    tag_243:\n        /* \"#utility.yul\":11977:11984   */\n      0x00\n        /* \"#utility.yul\":12006:12011   */\n      dup2\n        /* \"#utility.yul\":11995:12011   */\n      swap1\n      pop\n        /* \"#utility.yul\":11940:12017   */\n      swap2\n      swap1\n      pop\n      jump\t// out\n        /* \"#utility.yul\":12023:12163   */\n    tag_195:\n        /* \"#utility.yul\":12087:12096   */\n      0x00\n        /* \"#utility.yul\":12120:12157   */\n      tag_302\n        /* \"#utility.yul\":12151:12156   */\n      dup3\n        /* \"#utility.yul\":12120:12157   */\n      tag_303\n      jump\t// in\n    tag_302:\n        /* \"#utility.yul\":12107:12157   */\n      swap1\n      pop\n        /* \"#utility.yul\":12023:12163   */\n      swap2\n      swap1\n      pop\n      jump\t// out\n        /* \"#utility.yul\":12169:12295   */\n    tag_303:\n        /* \"#utility.yul\":12219:12228   */\n      0x00\n        /* \"#utility.yul\":12252:12289   */\n      tag_305\n        /* \"#utility.yul\":12283:12288   */\n      dup3\n        /* \"#utility.yul\":12252:12289   */\n      tag_306\n      jump\t// in\n    tag_305:\n        /* \"#utility.yul\":12239:12289   */\n      swap1\n      pop\n        /* \"#utility.yul\":12169:12295   */\n      swap2\n      swap1\n      pop\n      jump\t// out\n        /* \"#utility.yul\":12301:12414   */\n    tag_306:\n        /* \"#utility.yul\":12351:12360   */\n      0x00\n        /* \"#utility.yul\":12384:12408   */\n      tag_308\n        /* \"#utility.yul\":12402:12407   */\n      dup3\n        /* \"#utility.yul\":12384:12408   */\n      tag_295\n      jump\t// in\n    tag_308:\n        /* \"#utility.yul\":12371:12408   */\n      swap1\n      pop\n        /* \"#utility.yul\":12301:12414   */\n      swap2\n      swap1\n      pop\n      jump\t// out\n        /* \"#utility.yul\":12420:12727   */\n    tag_191:\n        /* \"#utility.yul\":12488:12489   */\n      0x00\n        /* \"#utility.yul\":12498:12611   */\n    tag_310:\n        /* \"#utility.yul\":12512:12518   */\n      dup4\n        /* \"#utility.yul\":12509:12510   */\n      dup2\n        /* \"#utility.yul\":12506:12519   */\n      lt\n        /* \"#utility.yul\":12498:12611   */\n      iszero\n      tag_312\n      jumpi\n        /* \"#utility.yul\":12597:12598   */\n      dup1\n        /* \"#utility.yul\":12592:12595   */\n      dup3\n        /* \"#utility.yul\":12588:12599   */\n      add\n        /* \"#utility.yul\":12582:12600   */\n      mload\n        /* \"#utility.yul\":12578:12579   */\n      dup2\n        /* \"#utility.yul\":12573:12576   */\n      dup5\n        /* \"#utility.yul\":12569:12580   */\n      add\n        /* \"#utility.yul\":12562:12601   */\n      mstore\n        /* \"#utility.yul\":12534:12536   */\n      0x20\n        /* \"#utility.yul\":12531:12532   */\n      dup2\n        /* \"#utility.yul\":12527:12537   */\n      add\n        /* \"#utility.yul\":12522:12537   */\n      swap1\n      pop\n        /* \"#utility.yul\":12498:12611   */\n      jump(tag_310)\n    tag_312:\n        /* \"#utility.yul\":12629:12635   */\n      dup4\n        /* \"#utility.yul\":12626:12627   */\n      dup2\n        /* \"#utility.yul\":12623:12636   */\n      gt\n        /* \"#utility.yul\":12620:12721   */\n      iszero\n      tag_313\n      jumpi\n        /* \"#utility.yul\":12709:12710   */\n      0x00\n        /* \"#utility.yul\":12700:12706   */\n      dup5\n        /* \"#utility.yul\":12695:12698   */\n      dup5\n        /* \"#utility.yul\":12691:12707   */\n      add\n        /* \"#utility.yul\":12684:12711   */\n      mstore\n        /* \"#utility.yul\":12620:12721   */\n    tag_313:\n        /* \"#utility.yul\":12469:12727   */\n      pop\n        /* \"#utility.yul\":12420:12727   */\n      pop\n      pop\n      pop\n      jump\t// out\n        /* \"#utility.yul\":12733:12913   */\n    tag_287:\n        /* \"#utility.yul\":12781:12858   */\n      0x4e487b7100000000000000000000000000000000000000000000000000000000\n        /* \"#utility.yul\":12778:12779   */\n      0x00\n        /* \"#utility.yul\":12771:12859   */\n      mstore\n        /* \"#utility.yul\":12878:12882   */\n      0x11\n        /* \"#utility.yul\":12875:12876   */\n      0x04\n        /* \"#utility.yul\":12868:12883   */\n      mstore\n        /* \"#utility.yul\":12902:12906   */\n      0x24\n        /* \"#utility.yul\":12899:12900   */\n      0x00\n        /* \"#utility.yul\":12892:12907   */\n      revert\n        /* \"#utility.yul\":13042:13159   */\n    tag_166:\n        /* \"#utility.yul\":13151:13152   */\n      0x00\n        /* \"#utility.yul\":13148:13149   */\n      dup1\n        /* \"#utility.yul\":13141:13153   */\n      revert\n        /* \"#utility.yul\":13165:13267   */\n    tag_204:\n        /* \"#utility.yul\":13206:13212   */\n      0x00\n        /* \"#utility.yul\":13257:13259   */\n      0x1f\n        /* \"#utility.yul\":13253:13260   */\n      not\n        /* \"#utility.yul\":13248:13250   */\n      0x1f\n        /* \"#utility.yul\":13241:13246   */\n      dup4\n        /* \"#utility.yul\":13237:13251   */\n      add\n        /* \"#utility.yul\":13233:13261   */\n      and\n        /* \"#utility.yul\":13223:13261   */\n      swap1\n      pop\n        /* \"#utility.yul\":13165:13267   */\n      swap2\n      swap1\n      pop\n      jump\t// out\n        /* \"#utility.yul\":13273:13452   */\n    tag_209:\n        /* \"#utility.yul\":13413:13444   */\n      0x43617070656443726f776473616c653a20636170206578636565646564000000\n        /* \"#utility.yul\":13409:13410   */\n      0x00\n        /* \"#utility.yul\":13401:13407   */\n      dup3\n        /* \"#utility.yul\":13397:13411   */\n      add\n        /* \"#utility.yul\":13390:13445   */\n      mstore\n        /* \"#utility.yul\":13273:13452   */\n      pop\n      jump\t// out\n        /* \"#utility.yul\":13458:13683   */\n    tag_214:\n        /* \"#utility.yul\":13598:13632   */\n      0x416464726573733a20696e73756666696369656e742062616c616e636520666f\n        /* \"#utility.yul\":13594:13595   */\n      0x00\n        /* \"#utility.yul\":13586:13592   */\n      dup3\n        /* \"#utility.yul\":13582:13596   */\n      add\n        /* \"#utility.yul\":13575:13633   */\n      mstore\n        /* \"#utility.yul\":13667:13675   */\n      0x722063616c6c0000000000000000000000000000000000000000000000000000\n        /* \"#utility.yul\":13662:13664   */\n      0x20\n        /* \"#utility.yul\":13654:13660   */\n      dup3\n        /* \"#utility.yul\":13650:13665   */\n      add\n        /* \"#utility.yul\":13643:13676   */\n      mstore\n        /* \"#utility.yul\":13458:13683   */\n      pop\n      jump\t// out\n        /* \"#utility.yul\":13689:13918   */\n    tag_219:\n        /* \"#utility.yul\":13829:13863   */\n      0x43726f776473616c653a2062656e656669636961727920697320746865207a65\n        /* \"#utility.yul\":13825:13826   */\n      0x00\n        /* \"#utility.yul\":13817:13823   */\n      dup3\n        /* \"#utility.yul\":13813:13827   */\n      add\n        /* \"#utility.yul\":13806:13864   */\n      mstore\n        /* \"#utility.yul\":13898:13910   */\n      0x726f206164647265737300000000000000000000000000000000000000000000\n        /* \"#utility.yul\":13893:13895   */\n      0x20\n        /* \"#utility.yul\":13885:13891   */\n      dup3\n        /* \"#utility.yul\":13881:13896   */\n      add\n        /* \"#utility.yul\":13874:13911   */\n      mstore\n        /* \"#utility.yul\":13689:13918   */\n      pop\n      jump\t// out\n        /* \"#utility.yul\":13924:14103   */\n    tag_224:\n        /* \"#utility.yul\":14064:14095   */\n      0x416464726573733a2063616c6c20746f206e6f6e2d636f6e7472616374000000\n        /* \"#utility.yul\":14060:14061   */\n      0x00\n        /* \"#utility.yul\":14052:14058   */\n      dup3\n        /* \"#utility.yul\":14048:14062   */\n      add\n        /* \"#utility.yul\":14041:14096   */\n      mstore\n        /* \"#utility.yul\":13924:14103   */\n      pop\n      jump\t// out\n        /* \"#utility.yul\":14109:14338   */\n    tag_229:\n        /* \"#utility.yul\":14249:14283   */\n      0x5361666545524332303a204552433230206f7065726174696f6e20646964206e\n        /* \"#utility.yul\":14245:14246   */\n      0x00\n        /* \"#utility.yul\":14237:14243   */\n      dup3\n        /* \"#utility.yul\":14233:14247   */\n      add\n        /* \"#utility.yul\":14226:14284   */\n      mstore\n        /* \"#utility.yul\":14318:14330   */\n      0x6f74207375636365656400000000000000000000000000000000000000000000\n        /* \"#utility.yul\":14313:14315   */\n      0x20\n        /* \"#utility.yul\":14305:14311   */\n      dup3\n        /* \"#utility.yul\":14301:14316   */\n      add\n        /* \"#utility.yul\":14294:14331   */\n      mstore\n        /* \"#utility.yul\":14109:14338   */\n      pop\n      jump\t// out\n        /* \"#utility.yul\":14344:14525   */\n    tag_234:\n        /* \"#utility.yul\":14484:14517   */\n      0x5265656e7472616e637947756172643a207265656e7472616e742063616c6c00\n        /* \"#utility.yul\":14480:14481   */\n      0x00\n        /* \"#utility.yul\":14472:14478   */\n      dup3\n        /* \"#utility.yul\":14468:14482   */\n      add\n        /* \"#utility.yul\":14461:14518   */\n      mstore\n        /* \"#utility.yul\":14344:14525   */\n      pop\n      jump\t// out\n        /* \"#utility.yul\":14531:14706   */\n    tag_239:\n        /* \"#utility.yul\":14671:14698   */\n      0x43726f776473616c653a20776569416d6f756e74206973203000000000000000\n        /* \"#utility.yul\":14667:14668   */\n      0x00\n        /* \"#utility.yul\":14659:14665   */\n      dup3\n        /* \"#utility.yul\":14655:14669   */\n      add\n        /* \"#utility.yul\":14648:14699   */\n      mstore\n        /* \"#utility.yul\":14531:14706   */\n      pop\n      jump\t// out\n        /* \"#utility.yul\":14712:14834   */\n    tag_158:\n        /* \"#utility.yul\":14785:14809   */\n      tag_327\n        /* \"#utility.yul\":14803:14808   */\n      dup2\n        /* \"#utility.yul\":14785:14809   */\n      tag_179\n      jump\t// in\n    tag_327:\n        /* \"#utility.yul\":14778:14783   */\n      dup2\n        /* \"#utility.yul\":14775:14810   */\n      eq\n        /* \"#utility.yul\":14765:14828   */\n      tag_328\n      jumpi\n        /* \"#utility.yul\":14824:14825   */\n      0x00\n        /* \"#utility.yul\":14821:14822   */\n      dup1\n        /* \"#utility.yul\":14814:14826   */\n      revert\n        /* \"#utility.yul\":14765:14828   */\n    tag_328:\n        /* \"#utility.yul\":14712:14834   */\n      pop\n      jump\t// out\n        /* \"#utility.yul\":14840:14956   */\n    tag_162:\n        /* \"#utility.yul\":14910:14931   */\n      tag_330\n        /* \"#utility.yul\":14925:14930   */\n      dup2\n        /* \"#utility.yul\":14910:14931   */\n      tag_183\n      jump\t// in\n    tag_330:\n        /* \"#utility.yul\":14903:14908   */\n      dup2\n        /* \"#utility.yul\":14900:14932   */\n      eq\n        /* \"#utility.yul\":14890:14950   */\n      tag_331\n      jumpi\n        /* \"#utility.yul\":14946:14947   */\n      0x00\n        /* \"#utility.yul\":14943:14944   */\n      dup1\n        /* \"#utility.yul\":14936:14948   */\n      revert\n        /* \"#utility.yul\":14890:14950   */\n    tag_331:\n        /* \"#utility.yul\":14840:14956   */\n      pop\n      jump\t// out\n\n    auxdata: 0xa26469706673582212208a21c513fc3885422ca2a4e135d9b11419ad467a2c2b8322fa4cf1e4917b9c1264736f6c63430008070033\n}\n",
				"bytecode": {
					"linkReferences": {},
					"object": "60806040523480156200001157600080fd5b506040516200167f3803806200167f833981810160405281019062000037919062000296565b83838360016000819055506000831162000088576040517f08c379a00000000000000000000000000000000000000000000000000000000081526004016200007f90620003e8565b60405180910390fd5b600073ffffffffffffffffffffffffffffffffffffffff168273ffffffffffffffffffffffffffffffffffffffff161415620000fb576040517f08c379a0000000000000000000000000000000000000000000000000000000008152600401620000f2906200040a565b60405180910390fd5b600073ffffffffffffffffffffffffffffffffffffffff168173ffffffffffffffffffffffffffffffffffffffff1614156200016e576040517f08c379a00000000000000000000000000000000000000000000000000000000081526004016200016590620003a4565b60405180910390fd5b8260038190555081600260006101000a81548173ffffffffffffffffffffffffffffffffffffffff021916908373ffffffffffffffffffffffffffffffffffffffff16021790555080600160006101000a81548173ffffffffffffffffffffffffffffffffffffffff021916908373ffffffffffffffffffffffffffffffffffffffff1602179055505050506000811162000240576040517f08c379a00000000000000000000000000000000000000000000000000000000081526004016200023790620003c6565b60405180910390fd5b8060058190555050505050620005e6565b600081519050620002628162000598565b92915050565b6000815190506200027981620005b2565b92915050565b6000815190506200029081620005cc565b92915050565b60008060008060808587031215620002b357620002b2620004a3565b5b6000620002c3878288016200027f565b9450506020620002d68782880162000251565b9350506040620002e98782880162000268565b9250506060620002fc878288016200027f565b91505092959194509250565b6000620003176024836200042c565b91506200032482620004a8565b604082019050919050565b60006200033e6019836200042c565b91506200034b82620004f7565b602082019050919050565b6000620003656014836200042c565b9150620003728262000520565b602082019050919050565b60006200038c6025836200042c565b9150620003998262000549565b604082019050919050565b60006020820190508181036000830152620003bf8162000308565b9050919050565b60006020820190508181036000830152620003e1816200032f565b9050919050565b60006020820190508181036000830152620004038162000356565b9050919050565b6000602082019050818103600083015262000425816200037d565b9050919050565b600082825260208201905092915050565b60006200044a8262000479565b9050919050565b60006200045e8262000479565b9050919050565b600062000472826200043d565b9050919050565b600073ffffffffffffffffffffffffffffffffffffffff82169050919050565b6000819050919050565b600080fd5b7f43726f776473616c653a20746f6b656e20697320746865207a65726f2061646460008201527f7265737300000000000000000000000000000000000000000000000000000000602082015250565b7f43617070656443726f776473616c653a20636170206973203000000000000000600082015250565b7f43726f776473616c653a20726174652069732030000000000000000000000000600082015250565b7f43726f776473616c653a2077616c6c657420697320746865207a65726f20616460008201527f6472657373000000000000000000000000000000000000000000000000000000602082015250565b620005a38162000451565b8114620005af57600080fd5b50565b620005bd8162000465565b8114620005c957600080fd5b50565b620005d78162000499565b8114620005e357600080fd5b50565b61108980620005f66000396000f3fe6080604052600436106100745760003560e01c80634f9359451161004e5780634f93594514610111578063521eb2731461013c578063ec8ac4d814610167578063fc0c546a146101835761008b565b80632c4e722e14610090578063355274ea146100bb5780634042b66f146100e65761008b565b3661008b576100896100846101ae565b6101b6565b005b600080fd5b34801561009c57600080fd5b506100a56102dc565b6040516100b29190610c66565b60405180910390f35b3480156100c757600080fd5b506100d06102e6565b6040516100dd9190610c66565b60405180910390f35b3480156100f257600080fd5b506100fb6102f0565b6040516101089190610c66565b60405180910390f35b34801561011d57600080fd5b506101266102fa565b6040516101339190610b2e565b60405180910390f35b34801561014857600080fd5b5061015161030e565b60405161015e9190610aea565b60405180910390f35b610181600480360381019061017c91906108cf565b6101b6565b005b34801561018f57600080fd5b50610198610338565b6040516101a59190610b49565b60405180910390f35b600033905090565b600260005414156101fc576040517f08c379a00000000000000000000000000000000000000000000000000000000081526004016101f390610c26565b60405180910390fd5b600260008190555060003490506102138282610362565b600061021e826103ce565b9050610235826004546103ec90919063ffffffff16565b6004819055506102458382610402565b8273ffffffffffffffffffffffffffffffffffffffff166102646101ae565b73ffffffffffffffffffffffffffffffffffffffff167f6faf93231a456e552dbc9961f58d9713ee4f2e69d15f1975b050ef0911053a7b84846040516102ab929190610c81565b60405180910390a36102bd8383610410565b6102c5610414565b6102cf838361047f565b5050600160008190555050565b6000600354905090565b6000600554905090565b6000600454905090565b60006005546103076102f0565b1015905090565b6000600260009054906101000a900473ffffffffffffffffffffffffffffffffffffffff16905090565b6000600160009054906101000a900473ffffffffffffffffffffffffffffffffffffffff16905090565b61036c8282610483565b6005546103898261037b6102f0565b6103ec90919063ffffffff16565b11156103ca576040517f08c379a00000000000000000000000000000000000000000000000000000000081526004016103c190610b86565b60405180910390fd5b5050565b60006103e56003548361053b90919063ffffffff16565b9050919050565b600081836103fa9190610cdc565b905092915050565b61040c8282610551565b5050565b5050565b600260009054906101000a900473ffffffffffffffffffffffffffffffffffffffff1673ffffffffffffffffffffffffffffffffffffffff166108fc349081150290604051600060405180830381858888f1935050505015801561047c573d6000803e3d6000fd5b50565b5050565b600073ffffffffffffffffffffffffffffffffffffffff168273ffffffffffffffffffffffffffffffffffffffff1614156104f3576040517f08c379a00000000000000000000000000000000000000000000000000000000081526004016104ea90610bc6565b60405180910390fd5b6000811415610537576040517f08c379a000000000000000000000000000000000000000000000000000000000815260040161052e90610c46565b60405180910390fd5b5050565b600081836105499190610d32565b905092915050565b61059e8282600160009054906101000a900473ffffffffffffffffffffffffffffffffffffffff1673ffffffffffffffffffffffffffffffffffffffff166105a29092919063ffffffff16565b5050565b6106238363a9059cbb60e01b84846040516024016105c1929190610b05565b604051602081830303815290604052907bffffffffffffffffffffffffffffffffffffffffffffffffffffffff19166020820180517bffffffffffffffffffffffffffffffffffffffffffffffffffffffff8381831617835250505050610628565b505050565b600061068a826040518060400160405280602081526020017f5361666545524332303a206c6f772d6c6576656c2063616c6c206661696c65648152508573ffffffffffffffffffffffffffffffffffffffff166106ef9092919063ffffffff16565b90506000815111156106ea57808060200190518101906106aa91906108fc565b6106e9576040517f08c379a00000000000000000000000000000000000000000000000000000000081526004016106e090610c06565b60405180910390fd5b5b505050565b60606106fe8484600085610707565b90509392505050565b60608247101561074c576040517f08c379a000000000000000000000000000000000000000000000000000000000815260040161074390610ba6565b60405180910390fd5b6107558561081b565b610794576040517f08c379a000000000000000000000000000000000000000000000000000000000815260040161078b90610be6565b60405180910390fd5b6000808673ffffffffffffffffffffffffffffffffffffffff1685876040516107bd9190610ad3565b60006040518083038185875af1925050503d80600081146107fa576040519150601f19603f3d011682016040523d82523d6000602084013e6107ff565b606091505b509150915061080f82828661083e565b92505050949350505050565b6000808273ffffffffffffffffffffffffffffffffffffffff163b119050919050565b6060831561084e5782905061089e565b6000835111156108615782518084602001fd5b816040517f08c379a00000000000000000000000000000000000000000000000000000000081526004016108959190610b64565b60405180910390fd5b9392505050565b6000813590506108b481611025565b92915050565b6000815190506108c98161103c565b92915050565b6000602082840312156108e5576108e4610e7e565b5b60006108f3848285016108a5565b91505092915050565b60006020828403121561091257610911610e7e565b5b6000610920848285016108ba565b91505092915050565b61093281610d9e565b82525050565b61094181610d8c565b82525050565b61095081610db0565b82525050565b600061096182610caa565b61096b8185610cc0565b935061097b818560208601610e1c565b80840191505092915050565b61099081610de6565b82525050565b60006109a182610cb5565b6109ab8185610ccb565b93506109bb818560208601610e1c565b6109c481610e83565b840191505092915050565b60006109dc601d83610ccb565b91506109e782610e94565b602082019050919050565b60006109ff602683610ccb565b9150610a0a82610ebd565b604082019050919050565b6000610a22602a83610ccb565b9150610a2d82610f0c565b604082019050919050565b6000610a45601d83610ccb565b9150610a5082610f5b565b602082019050919050565b6000610a68602a83610ccb565b9150610a7382610f84565b604082019050919050565b6000610a8b601f83610ccb565b9150610a9682610fd3565b602082019050919050565b6000610aae601983610ccb565b9150610ab982610ffc565b602082019050919050565b610acd81610ddc565b82525050565b6000610adf8284610956565b915081905092915050565b6000602082019050610aff6000830184610929565b92915050565b6000604082019050610b1a6000830185610938565b610b276020830184610ac4565b9392505050565b6000602082019050610b436000830184610947565b92915050565b6000602082019050610b5e6000830184610987565b92915050565b60006020820190508181036000830152610b7e8184610996565b905092915050565b60006020820190508181036000830152610b9f816109cf565b9050919050565b60006020820190508181036000830152610bbf816109f2565b9050919050565b60006020820190508181036000830152610bdf81610a15565b9050919050565b60006020820190508181036000830152610bff81610a38565b9050919050565b60006020820190508181036000830152610c1f81610a5b565b9050919050565b60006020820190508181036000830152610c3f81610a7e565b9050919050565b60006020820190508181036000830152610c5f81610aa1565b9050919050565b6000602082019050610c7b6000830184610ac4565b92915050565b6000604082019050610c966000830185610ac4565b610ca36020830184610ac4565b9392505050565b600081519050919050565b600081519050919050565b600081905092915050565b600082825260208201905092915050565b6000610ce782610ddc565b9150610cf283610ddc565b9250827fffffffffffffffffffffffffffffffffffffffffffffffffffffffffffffffff03821115610d2757610d26610e4f565b5b828201905092915050565b6000610d3d82610ddc565b9150610d4883610ddc565b9250817fffffffffffffffffffffffffffffffffffffffffffffffffffffffffffffffff0483118215151615610d8157610d80610e4f565b5b828202905092915050565b6000610d9782610dbc565b9050919050565b6000610da982610dbc565b9050919050565b60008115159050919050565b600073ffffffffffffffffffffffffffffffffffffffff82169050919050565b6000819050919050565b6000610df182610df8565b9050919050565b6000610e0382610e0a565b9050919050565b6000610e1582610dbc565b9050919050565b60005b83811015610e3a578082015181840152602081019050610e1f565b83811115610e49576000848401525b50505050565b7f4e487b7100000000000000000000000000000000000000000000000000000000600052601160045260246000fd5b600080fd5b6000601f19601f8301169050919050565b7f43617070656443726f776473616c653a20636170206578636565646564000000600082015250565b7f416464726573733a20696e73756666696369656e742062616c616e636520666f60008201527f722063616c6c0000000000000000000000000000000000000000000000000000602082015250565b7f43726f776473616c653a2062656e656669636961727920697320746865207a6560008201527f726f206164647265737300000000000000000000000000000000000000000000602082015250565b7f416464726573733a2063616c6c20746f206e6f6e2d636f6e7472616374000000600082015250565b7f5361666545524332303a204552433230206f7065726174696f6e20646964206e60008201527f6f74207375636365656400000000000000000000000000000000000000000000602082015250565b7f5265656e7472616e637947756172643a207265656e7472616e742063616c6c00600082015250565b7f43726f776473616c653a20776569416d6f756e74206973203000000000000000600082015250565b61102e81610d8c565b811461103957600080fd5b50565b61104581610db0565b811461105057600080fd5b5056fea26469706673582212208a21c513fc3885422ca2a4e135d9b11419ad467a2c2b8322fa4cf1e4917b9c1264736f6c63430008070033",
					"opcodes": "PUSH1 0x80 PUSH1 0x40 MSTORE CALLVALUE DUP1 ISZERO PUSH3 0x11 JUMPI PUSH1 0x0 DUP1 REVERT JUMPDEST POP PUSH1 0x40 MLOAD PUSH3 0x167F CODESIZE SUB DUP1 PUSH3 0x167F DUP4 CODECOPY DUP2 DUP2 ADD PUSH1 0x40 MSTORE DUP2 ADD SWAP1 PUSH3 0x37 SWAP2 SWAP1 PUSH3 0x296 JUMP JUMPDEST DUP4 DUP4 DUP4 PUSH1 0x1 PUSH1 0x0 DUP2 SWAP1 SSTORE POP PUSH1 0x0 DUP4 GT PUSH3 0x88 JUMPI PUSH1 0x40 MLOAD PUSH32 0x8C379A000000000000000000000000000000000000000000000000000000000 DUP2 MSTORE PUSH1 0x4 ADD PUSH3 0x7F SWAP1 PUSH3 0x3E8 JUMP JUMPDEST PUSH1 0x40 MLOAD DUP1 SWAP2 SUB SWAP1 REVERT JUMPDEST PUSH1 0x0 PUSH20 0xFFFFFFFFFFFFFFFFFFFFFFFFFFFFFFFFFFFFFFFF AND DUP3 PUSH20 0xFFFFFFFFFFFFFFFFFFFFFFFFFFFFFFFFFFFFFFFF AND EQ ISZERO PUSH3 0xFB JUMPI PUSH1 0x40 MLOAD PUSH32 0x8C379A000000000000000000000000000000000000000000000000000000000 DUP2 MSTORE PUSH1 0x4 ADD PUSH3 0xF2 SWAP1 PUSH3 0x40A JUMP JUMPDEST PUSH1 0x40 MLOAD DUP1 SWAP2 SUB SWAP1 REVERT JUMPDEST PUSH1 0x0 PUSH20 0xFFFFFFFFFFFFFFFFFFFFFFFFFFFFFFFFFFFFFFFF AND DUP2 PUSH20 0xFFFFFFFFFFFFFFFFFFFFFFFFFFFFFFFFFFFFFFFF AND EQ ISZERO PUSH3 0x16E JUMPI PUSH1 0x40 MLOAD PUSH32 0x8C379A000000000000000000000000000000000000000000000000000000000 DUP2 MSTORE PUSH1 0x4 ADD PUSH3 0x165 SWAP1 PUSH3 0x3A4 JUMP JUMPDEST PUSH1 0x40 MLOAD DUP1 SWAP2 SUB SWAP1 REVERT JUMPDEST DUP3 PUSH1 0x3 DUP2 SWAP1 SSTORE POP DUP2 PUSH1 0x2 PUSH1 0x0 PUSH2 0x100 EXP DUP2 SLOAD DUP2 PUSH20 0xFFFFFFFFFFFFFFFFFFFFFFFFFFFFFFFFFFFFFFFF MUL NOT AND SWAP1 DUP4 PUSH20 0xFFFFFFFFFFFFFFFFFFFFFFFFFFFFFFFFFFFFFFFF AND MUL OR SWAP1 SSTORE POP DUP1 PUSH1 0x1 PUSH1 0x0 PUSH2 0x100 EXP DUP2 SLOAD DUP2 PUSH20 0xFFFFFFFFFFFFFFFFFFFFFFFFFFFFFFFFFFFFFFFF MUL NOT AND SWAP1 DUP4 PUSH20 0xFFFFFFFFFFFFFFFFFFFFFFFFFFFFFFFFFFFFFFFF AND MUL OR SWAP1 SSTORE POP POP POP POP PUSH1 0x0 DUP2 GT PUSH3 0x240 JUMPI PUSH1 0x40 MLOAD PUSH32 0x8C379A000000000000000000000000000000000000000000000000000000000 DUP2 MSTORE PUSH1 0x4 ADD PUSH3 0x237 SWAP1 PUSH3 0x3C6 JUMP JUMPDEST PUSH1 0x40 MLOAD DUP1 SWAP2 SUB SWAP1 REVERT JUMPDEST DUP1 PUSH1 0x5 DUP2 SWAP1 SSTORE POP POP POP POP POP PUSH3 0x5E6 JUMP JUMPDEST PUSH1 0x0 DUP2 MLOAD SWAP1 POP PUSH3 0x262 DUP2 PUSH3 0x598 JUMP JUMPDEST SWAP3 SWAP2 POP POP JUMP JUMPDEST PUSH1 0x0 DUP2 MLOAD SWAP1 POP PUSH3 0x279 DUP2 PUSH3 0x5B2 JUMP JUMPDEST SWAP3 SWAP2 POP POP JUMP JUMPDEST PUSH1 0x0 DUP2 MLOAD SWAP1 POP PUSH3 0x290 DUP2 PUSH3 0x5CC JUMP JUMPDEST SWAP3 SWAP2 POP POP JUMP JUMPDEST PUSH1 0x0 DUP1 PUSH1 0x0 DUP1 PUSH1 0x80 DUP6 DUP8 SUB SLT ISZERO PUSH3 0x2B3 JUMPI PUSH3 0x2B2 PUSH3 0x4A3 JUMP JUMPDEST JUMPDEST PUSH1 0x0 PUSH3 0x2C3 DUP8 DUP3 DUP9 ADD PUSH3 0x27F JUMP JUMPDEST SWAP5 POP POP PUSH1 0x20 PUSH3 0x2D6 DUP8 DUP3 DUP9 ADD PUSH3 0x251 JUMP JUMPDEST SWAP4 POP POP PUSH1 0x40 PUSH3 0x2E9 DUP8 DUP3 DUP9 ADD PUSH3 0x268 JUMP JUMPDEST SWAP3 POP POP PUSH1 0x60 PUSH3 0x2FC DUP8 DUP3 DUP9 ADD PUSH3 0x27F JUMP JUMPDEST SWAP2 POP POP SWAP3 SWAP6 SWAP2 SWAP5 POP SWAP3 POP JUMP JUMPDEST PUSH1 0x0 PUSH3 0x317 PUSH1 0x24 DUP4 PUSH3 0x42C JUMP JUMPDEST SWAP2 POP PUSH3 0x324 DUP3 PUSH3 0x4A8 JUMP JUMPDEST PUSH1 0x40 DUP3 ADD SWAP1 POP SWAP2 SWAP1 POP JUMP JUMPDEST PUSH1 0x0 PUSH3 0x33E PUSH1 0x19 DUP4 PUSH3 0x42C JUMP JUMPDEST SWAP2 POP PUSH3 0x34B DUP3 PUSH3 0x4F7 JUMP JUMPDEST PUSH1 0x20 DUP3 ADD SWAP1 POP SWAP2 SWAP1 POP JUMP JUMPDEST PUSH1 0x0 PUSH3 0x365 PUSH1 0x14 DUP4 PUSH3 0x42C JUMP JUMPDEST SWAP2 POP PUSH3 0x372 DUP3 PUSH3 0x520 JUMP JUMPDEST PUSH1 0x20 DUP3 ADD SWAP1 POP SWAP2 SWAP1 POP JUMP JUMPDEST PUSH1 0x0 PUSH3 0x38C PUSH1 0x25 DUP4 PUSH3 0x42C JUMP JUMPDEST SWAP2 POP PUSH3 0x399 DUP3 PUSH3 0x549 JUMP JUMPDEST PUSH1 0x40 DUP3 ADD SWAP1 POP SWAP2 SWAP1 POP JUMP JUMPDEST PUSH1 0x0 PUSH1 0x20 DUP3 ADD SWAP1 POP DUP2 DUP2 SUB PUSH1 0x0 DUP4 ADD MSTORE PUSH3 0x3BF DUP2 PUSH3 0x308 JUMP JUMPDEST SWAP1 POP SWAP2 SWAP1 POP JUMP JUMPDEST PUSH1 0x0 PUSH1 0x20 DUP3 ADD SWAP1 POP DUP2 DUP2 SUB PUSH1 0x0 DUP4 ADD MSTORE PUSH3 0x3E1 DUP2 PUSH3 0x32F JUMP JUMPDEST SWAP1 POP SWAP2 SWAP1 POP JUMP JUMPDEST PUSH1 0x0 PUSH1 0x20 DUP3 ADD SWAP1 POP DUP2 DUP2 SUB PUSH1 0x0 DUP4 ADD MSTORE PUSH3 0x403 DUP2 PUSH3 0x356 JUMP JUMPDEST SWAP1 POP SWAP2 SWAP1 POP JUMP JUMPDEST PUSH1 0x0 PUSH1 0x20 DUP3 ADD SWAP1 POP DUP2 DUP2 SUB PUSH1 0x0 DUP4 ADD MSTORE PUSH3 0x425 DUP2 PUSH3 0x37D JUMP JUMPDEST SWAP1 POP SWAP2 SWAP1 POP JUMP JUMPDEST PUSH1 0x0 DUP3 DUP3 MSTORE PUSH1 0x20 DUP3 ADD SWAP1 POP SWAP3 SWAP2 POP POP JUMP JUMPDEST PUSH1 0x0 PUSH3 0x44A DUP3 PUSH3 0x479 JUMP JUMPDEST SWAP1 POP SWAP2 SWAP1 POP JUMP JUMPDEST PUSH1 0x0 PUSH3 0x45E DUP3 PUSH3 0x479 JUMP JUMPDEST SWAP1 POP SWAP2 SWAP1 POP JUMP JUMPDEST PUSH1 0x0 PUSH3 0x472 DUP3 PUSH3 0x43D JUMP JUMPDEST SWAP1 POP SWAP2 SWAP1 POP JUMP JUMPDEST PUSH1 0x0 PUSH20 0xFFFFFFFFFFFFFFFFFFFFFFFFFFFFFFFFFFFFFFFF DUP3 AND SWAP1 POP SWAP2 SWAP1 POP JUMP JUMPDEST PUSH1 0x0 DUP2 SWAP1 POP SWAP2 SWAP1 POP JUMP JUMPDEST PUSH1 0x0 DUP1 REVERT JUMPDEST PUSH32 0x43726F776473616C653A20746F6B656E20697320746865207A65726F20616464 PUSH1 0x0 DUP3 ADD MSTORE PUSH32 0x7265737300000000000000000000000000000000000000000000000000000000 PUSH1 0x20 DUP3 ADD MSTORE POP JUMP JUMPDEST PUSH32 0x43617070656443726F776473616C653A20636170206973203000000000000000 PUSH1 0x0 DUP3 ADD MSTORE POP JUMP JUMPDEST PUSH32 0x43726F776473616C653A20726174652069732030000000000000000000000000 PUSH1 0x0 DUP3 ADD MSTORE POP JUMP JUMPDEST PUSH32 0x43726F776473616C653A2077616C6C657420697320746865207A65726F206164 PUSH1 0x0 DUP3 ADD MSTORE PUSH32 0x6472657373000000000000000000000000000000000000000000000000000000 PUSH1 0x20 DUP3 ADD MSTORE POP JUMP JUMPDEST PUSH3 0x5A3 DUP2 PUSH3 0x451 JUMP JUMPDEST DUP2 EQ PUSH3 0x5AF JUMPI PUSH1 0x0 DUP1 REVERT JUMPDEST POP JUMP JUMPDEST PUSH3 0x5BD DUP2 PUSH3 0x465 JUMP JUMPDEST DUP2 EQ PUSH3 0x5C9 JUMPI PUSH1 0x0 DUP1 REVERT JUMPDEST POP JUMP JUMPDEST PUSH3 0x5D7 DUP2 PUSH3 0x499 JUMP JUMPDEST DUP2 EQ PUSH3 0x5E3 JUMPI PUSH1 0x0 DUP1 REVERT JUMPDEST POP JUMP JUMPDEST PUSH2 0x1089 DUP1 PUSH3 0x5F6 PUSH1 0x0 CODECOPY PUSH1 0x0 RETURN INVALID PUSH1 0x80 PUSH1 0x40 MSTORE PUSH1 0x4 CALLDATASIZE LT PUSH2 0x74 JUMPI PUSH1 0x0 CALLDATALOAD PUSH1 0xE0 SHR DUP1 PUSH4 0x4F935945 GT PUSH2 0x4E JUMPI DUP1 PUSH4 0x4F935945 EQ PUSH2 0x111 JUMPI DUP1 PUSH4 0x521EB273 EQ PUSH2 0x13C JUMPI DUP1 PUSH4 0xEC8AC4D8 EQ PUSH2 0x167 JUMPI DUP1 PUSH4 0xFC0C546A EQ PUSH2 0x183 JUMPI PUSH2 0x8B JUMP JUMPDEST DUP1 PUSH4 0x2C4E722E EQ PUSH2 0x90 JUMPI DUP1 PUSH4 0x355274EA EQ PUSH2 0xBB JUMPI DUP1 PUSH4 0x4042B66F EQ PUSH2 0xE6 JUMPI PUSH2 0x8B JUMP JUMPDEST CALLDATASIZE PUSH2 0x8B JUMPI PUSH2 0x89 PUSH2 0x84 PUSH2 0x1AE JUMP JUMPDEST PUSH2 0x1B6 JUMP JUMPDEST STOP JUMPDEST PUSH1 0x0 DUP1 REVERT JUMPDEST CALLVALUE DUP1 ISZERO PUSH2 0x9C JUMPI PUSH1 0x0 DUP1 REVERT JUMPDEST POP PUSH2 0xA5 PUSH2 0x2DC JUMP JUMPDEST PUSH1 0x40 MLOAD PUSH2 0xB2 SWAP2 SWAP1 PUSH2 0xC66 JUMP JUMPDEST PUSH1 0x40 MLOAD DUP1 SWAP2 SUB SWAP1 RETURN JUMPDEST CALLVALUE DUP1 ISZERO PUSH2 0xC7 JUMPI PUSH1 0x0 DUP1 REVERT JUMPDEST POP PUSH2 0xD0 PUSH2 0x2E6 JUMP JUMPDEST PUSH1 0x40 MLOAD PUSH2 0xDD SWAP2 SWAP1 PUSH2 0xC66 JUMP JUMPDEST PUSH1 0x40 MLOAD DUP1 SWAP2 SUB SWAP1 RETURN JUMPDEST CALLVALUE DUP1 ISZERO PUSH2 0xF2 JUMPI PUSH1 0x0 DUP1 REVERT JUMPDEST POP PUSH2 0xFB PUSH2 0x2F0 JUMP JUMPDEST PUSH1 0x40 MLOAD PUSH2 0x108 SWAP2 SWAP1 PUSH2 0xC66 JUMP JUMPDEST PUSH1 0x40 MLOAD DUP1 SWAP2 SUB SWAP1 RETURN JUMPDEST CALLVALUE DUP1 ISZERO PUSH2 0x11D JUMPI PUSH1 0x0 DUP1 REVERT JUMPDEST POP PUSH2 0x126 PUSH2 0x2FA JUMP JUMPDEST PUSH1 0x40 MLOAD PUSH2 0x133 SWAP2 SWAP1 PUSH2 0xB2E JUMP JUMPDEST PUSH1 0x40 MLOAD DUP1 SWAP2 SUB SWAP1 RETURN JUMPDEST CALLVALUE DUP1 ISZERO PUSH2 0x148 JUMPI PUSH1 0x0 DUP1 REVERT JUMPDEST POP PUSH2 0x151 PUSH2 0x30E JUMP JUMPDEST PUSH1 0x40 MLOAD PUSH2 0x15E SWAP2 SWAP1 PUSH2 0xAEA JUMP JUMPDEST PUSH1 0x40 MLOAD DUP1 SWAP2 SUB SWAP1 RETURN JUMPDEST PUSH2 0x181 PUSH1 0x4 DUP1 CALLDATASIZE SUB DUP2 ADD SWAP1 PUSH2 0x17C SWAP2 SWAP1 PUSH2 0x8CF JUMP JUMPDEST PUSH2 0x1B6 JUMP JUMPDEST STOP JUMPDEST CALLVALUE DUP1 ISZERO PUSH2 0x18F JUMPI PUSH1 0x0 DUP1 REVERT JUMPDEST POP PUSH2 0x198 PUSH2 0x338 JUMP JUMPDEST PUSH1 0x40 MLOAD PUSH2 0x1A5 SWAP2 SWAP1 PUSH2 0xB49 JUMP JUMPDEST PUSH1 0x40 MLOAD DUP1 SWAP2 SUB SWAP1 RETURN JUMPDEST PUSH1 0x0 CALLER SWAP1 POP SWAP1 JUMP JUMPDEST PUSH1 0x2 PUSH1 0x0 SLOAD EQ ISZERO PUSH2 0x1FC JUMPI PUSH1 0x40 MLOAD PUSH32 0x8C379A000000000000000000000000000000000000000000000000000000000 DUP2 MSTORE PUSH1 0x4 ADD PUSH2 0x1F3 SWAP1 PUSH2 0xC26 JUMP JUMPDEST PUSH1 0x40 MLOAD DUP1 SWAP2 SUB SWAP1 REVERT JUMPDEST PUSH1 0x2 PUSH1 0x0 DUP2 SWAP1 SSTORE POP PUSH1 0x0 CALLVALUE SWAP1 POP PUSH2 0x213 DUP3 DUP3 PUSH2 0x362 JUMP JUMPDEST PUSH1 0x0 PUSH2 0x21E DUP3 PUSH2 0x3CE JUMP JUMPDEST SWAP1 POP PUSH2 0x235 DUP3 PUSH1 0x4 SLOAD PUSH2 0x3EC SWAP1 SWAP2 SWAP1 PUSH4 0xFFFFFFFF AND JUMP JUMPDEST PUSH1 0x4 DUP2 SWAP1 SSTORE POP PUSH2 0x245 DUP4 DUP3 PUSH2 0x402 JUMP JUMPDEST DUP3 PUSH20 0xFFFFFFFFFFFFFFFFFFFFFFFFFFFFFFFFFFFFFFFF AND PUSH2 0x264 PUSH2 0x1AE JUMP JUMPDEST PUSH20 0xFFFFFFFFFFFFFFFFFFFFFFFFFFFFFFFFFFFFFFFF AND PUSH32 0x6FAF93231A456E552DBC9961F58D9713EE4F2E69D15F1975B050EF0911053A7B DUP5 DUP5 PUSH1 0x40 MLOAD PUSH2 0x2AB SWAP3 SWAP2 SWAP1 PUSH2 0xC81 JUMP JUMPDEST PUSH1 0x40 MLOAD DUP1 SWAP2 SUB SWAP1 LOG3 PUSH2 0x2BD DUP4 DUP4 PUSH2 0x410 JUMP JUMPDEST PUSH2 0x2C5 PUSH2 0x414 JUMP JUMPDEST PUSH2 0x2CF DUP4 DUP4 PUSH2 0x47F JUMP JUMPDEST POP POP PUSH1 0x1 PUSH1 0x0 DUP2 SWAP1 SSTORE POP POP JUMP JUMPDEST PUSH1 0x0 PUSH1 0x3 SLOAD SWAP1 POP SWAP1 JUMP JUMPDEST PUSH1 0x0 PUSH1 0x5 SLOAD SWAP1 POP SWAP1 JUMP JUMPDEST PUSH1 0x0 PUSH1 0x4 SLOAD SWAP1 POP SWAP1 JUMP JUMPDEST PUSH1 0x0 PUSH1 0x5 SLOAD PUSH2 0x307 PUSH2 0x2F0 JUMP JUMPDEST LT ISZERO SWAP1 POP SWAP1 JUMP JUMPDEST PUSH1 0x0 PUSH1 0x2 PUSH1 0x0 SWAP1 SLOAD SWAP1 PUSH2 0x100 EXP SWAP1 DIV PUSH20 0xFFFFFFFFFFFFFFFFFFFFFFFFFFFFFFFFFFFFFFFF AND SWAP1 POP SWAP1 JUMP JUMPDEST PUSH1 0x0 PUSH1 0x1 PUSH1 0x0 SWAP1 SLOAD SWAP1 PUSH2 0x100 EXP SWAP1 DIV PUSH20 0xFFFFFFFFFFFFFFFFFFFFFFFFFFFFFFFFFFFFFFFF AND SWAP1 POP SWAP1 JUMP JUMPDEST PUSH2 0x36C DUP3 DUP3 PUSH2 0x483 JUMP JUMPDEST PUSH1 0x5 SLOAD PUSH2 0x389 DUP3 PUSH2 0x37B PUSH2 0x2F0 JUMP JUMPDEST PUSH2 0x3EC SWAP1 SWAP2 SWAP1 PUSH4 0xFFFFFFFF AND JUMP JUMPDEST GT ISZERO PUSH2 0x3CA JUMPI PUSH1 0x40 MLOAD PUSH32 0x8C379A000000000000000000000000000000000000000000000000000000000 DUP2 MSTORE PUSH1 0x4 ADD PUSH2 0x3C1 SWAP1 PUSH2 0xB86 JUMP JUMPDEST PUSH1 0x40 MLOAD DUP1 SWAP2 SUB SWAP1 REVERT JUMPDEST POP POP JUMP JUMPDEST PUSH1 0x0 PUSH2 0x3E5 PUSH1 0x3 SLOAD DUP4 PUSH2 0x53B SWAP1 SWAP2 SWAP1 PUSH4 0xFFFFFFFF AND JUMP JUMPDEST SWAP1 POP SWAP2 SWAP1 POP JUMP JUMPDEST PUSH1 0x0 DUP2 DUP4 PUSH2 0x3FA SWAP2 SWAP1 PUSH2 0xCDC JUMP JUMPDEST SWAP1 POP SWAP3 SWAP2 POP POP JUMP JUMPDEST PUSH2 0x40C DUP3 DUP3 PUSH2 0x551 JUMP JUMPDEST POP POP JUMP JUMPDEST POP POP JUMP JUMPDEST PUSH1 0x2 PUSH1 0x0 SWAP1 SLOAD SWAP1 PUSH2 0x100 EXP SWAP1 DIV PUSH20 0xFFFFFFFFFFFFFFFFFFFFFFFFFFFFFFFFFFFFFFFF AND PUSH20 0xFFFFFFFFFFFFFFFFFFFFFFFFFFFFFFFFFFFFFFFF AND PUSH2 0x8FC CALLVALUE SWAP1 DUP2 ISZERO MUL SWAP1 PUSH1 0x40 MLOAD PUSH1 0x0 PUSH1 0x40 MLOAD DUP1 DUP4 SUB DUP2 DUP6 DUP9 DUP9 CALL SWAP4 POP POP POP POP ISZERO DUP1 ISZERO PUSH2 0x47C JUMPI RETURNDATASIZE PUSH1 0x0 DUP1 RETURNDATACOPY RETURNDATASIZE PUSH1 0x0 REVERT JUMPDEST POP JUMP JUMPDEST POP POP JUMP JUMPDEST PUSH1 0x0 PUSH20 0xFFFFFFFFFFFFFFFFFFFFFFFFFFFFFFFFFFFFFFFF AND DUP3 PUSH20 0xFFFFFFFFFFFFFFFFFFFFFFFFFFFFFFFFFFFFFFFF AND EQ ISZERO PUSH2 0x4F3 JUMPI PUSH1 0x40 MLOAD PUSH32 0x8C379A000000000000000000000000000000000000000000000000000000000 DUP2 MSTORE PUSH1 0x4 ADD PUSH2 0x4EA SWAP1 PUSH2 0xBC6 JUMP JUMPDEST PUSH1 0x40 MLOAD DUP1 SWAP2 SUB SWAP1 REVERT JUMPDEST PUSH1 0x0 DUP2 EQ ISZERO PUSH2 0x537 JUMPI PUSH1 0x40 MLOAD PUSH32 0x8C379A000000000000000000000000000000000000000000000000000000000 DUP2 MSTORE PUSH1 0x4 ADD PUSH2 0x52E SWAP1 PUSH2 0xC46 JUMP JUMPDEST PUSH1 0x40 MLOAD DUP1 SWAP2 SUB SWAP1 REVERT JUMPDEST POP POP JUMP JUMPDEST PUSH1 0x0 DUP2 DUP4 PUSH2 0x549 SWAP2 SWAP1 PUSH2 0xD32 JUMP JUMPDEST SWAP1 POP SWAP3 SWAP2 POP POP JUMP JUMPDEST PUSH2 0x59E DUP3 DUP3 PUSH1 0x1 PUSH1 0x0 SWAP1 SLOAD SWAP1 PUSH2 0x100 EXP SWAP1 DIV PUSH20 0xFFFFFFFFFFFFFFFFFFFFFFFFFFFFFFFFFFFFFFFF AND PUSH20 0xFFFFFFFFFFFFFFFFFFFFFFFFFFFFFFFFFFFFFFFF AND PUSH2 0x5A2 SWAP1 SWAP3 SWAP2 SWAP1 PUSH4 0xFFFFFFFF AND JUMP JUMPDEST POP POP JUMP JUMPDEST PUSH2 0x623 DUP4 PUSH4 0xA9059CBB PUSH1 0xE0 SHL DUP5 DUP5 PUSH1 0x40 MLOAD PUSH1 0x24 ADD PUSH2 0x5C1 SWAP3 SWAP2 SWAP1 PUSH2 0xB05 JUMP JUMPDEST PUSH1 0x40 MLOAD PUSH1 0x20 DUP2 DUP4 SUB SUB DUP2 MSTORE SWAP1 PUSH1 0x40 MSTORE SWAP1 PUSH28 0xFFFFFFFFFFFFFFFFFFFFFFFFFFFFFFFFFFFFFFFFFFFFFFFFFFFFFFFF NOT AND PUSH1 0x20 DUP3 ADD DUP1 MLOAD PUSH28 0xFFFFFFFFFFFFFFFFFFFFFFFFFFFFFFFFFFFFFFFFFFFFFFFFFFFFFFFF DUP4 DUP2 DUP4 AND OR DUP4 MSTORE POP POP POP POP PUSH2 0x628 JUMP JUMPDEST POP POP POP JUMP JUMPDEST PUSH1 0x0 PUSH2 0x68A DUP3 PUSH1 0x40 MLOAD DUP1 PUSH1 0x40 ADD PUSH1 0x40 MSTORE DUP1 PUSH1 0x20 DUP2 MSTORE PUSH1 0x20 ADD PUSH32 0x5361666545524332303A206C6F772D6C6576656C2063616C6C206661696C6564 DUP2 MSTORE POP DUP6 PUSH20 0xFFFFFFFFFFFFFFFFFFFFFFFFFFFFFFFFFFFFFFFF AND PUSH2 0x6EF SWAP1 SWAP3 SWAP2 SWAP1 PUSH4 0xFFFFFFFF AND JUMP JUMPDEST SWAP1 POP PUSH1 0x0 DUP2 MLOAD GT ISZERO PUSH2 0x6EA JUMPI DUP1 DUP1 PUSH1 0x20 ADD SWAP1 MLOAD DUP2 ADD SWAP1 PUSH2 0x6AA SWAP2 SWAP1 PUSH2 0x8FC JUMP JUMPDEST PUSH2 0x6E9 JUMPI PUSH1 0x40 MLOAD PUSH32 0x8C379A000000000000000000000000000000000000000000000000000000000 DUP2 MSTORE PUSH1 0x4 ADD PUSH2 0x6E0 SWAP1 PUSH2 0xC06 JUMP JUMPDEST PUSH1 0x40 MLOAD DUP1 SWAP2 SUB SWAP1 REVERT JUMPDEST JUMPDEST POP POP POP JUMP JUMPDEST PUSH1 0x60 PUSH2 0x6FE DUP5 DUP5 PUSH1 0x0 DUP6 PUSH2 0x707 JUMP JUMPDEST SWAP1 POP SWAP4 SWAP3 POP POP POP JUMP JUMPDEST PUSH1 0x60 DUP3 SELFBALANCE LT ISZERO PUSH2 0x74C JUMPI PUSH1 0x40 MLOAD PUSH32 0x8C379A000000000000000000000000000000000000000000000000000000000 DUP2 MSTORE PUSH1 0x4 ADD PUSH2 0x743 SWAP1 PUSH2 0xBA6 JUMP JUMPDEST PUSH1 0x40 MLOAD DUP1 SWAP2 SUB SWAP1 REVERT JUMPDEST PUSH2 0x755 DUP6 PUSH2 0x81B JUMP JUMPDEST PUSH2 0x794 JUMPI PUSH1 0x40 MLOAD PUSH32 0x8C379A000000000000000000000000000000000000000000000000000000000 DUP2 MSTORE PUSH1 0x4 ADD PUSH2 0x78B SWAP1 PUSH2 0xBE6 JUMP JUMPDEST PUSH1 0x40 MLOAD DUP1 SWAP2 SUB SWAP1 REVERT JUMPDEST PUSH1 0x0 DUP1 DUP7 PUSH20 0xFFFFFFFFFFFFFFFFFFFFFFFFFFFFFFFFFFFFFFFF AND DUP6 DUP8 PUSH1 0x40 MLOAD PUSH2 0x7BD SWAP2 SWAP1 PUSH2 0xAD3 JUMP JUMPDEST PUSH1 0x0 PUSH1 0x40 MLOAD DUP1 DUP4 SUB DUP2 DUP6 DUP8 GAS CALL SWAP3 POP POP POP RETURNDATASIZE DUP1 PUSH1 0x0 DUP2 EQ PUSH2 0x7FA JUMPI PUSH1 0x40 MLOAD SWAP2 POP PUSH1 0x1F NOT PUSH1 0x3F RETURNDATASIZE ADD AND DUP3 ADD PUSH1 0x40 MSTORE RETURNDATASIZE DUP3 MSTORE RETURNDATASIZE PUSH1 0x0 PUSH1 0x20 DUP5 ADD RETURNDATACOPY PUSH2 0x7FF JUMP JUMPDEST PUSH1 0x60 SWAP2 POP JUMPDEST POP SWAP2 POP SWAP2 POP PUSH2 0x80F DUP3 DUP3 DUP7 PUSH2 0x83E JUMP JUMPDEST SWAP3 POP POP POP SWAP5 SWAP4 POP POP POP POP JUMP JUMPDEST PUSH1 0x0 DUP1 DUP3 PUSH20 0xFFFFFFFFFFFFFFFFFFFFFFFFFFFFFFFFFFFFFFFF AND EXTCODESIZE GT SWAP1 POP SWAP2 SWAP1 POP JUMP JUMPDEST PUSH1 0x60 DUP4 ISZERO PUSH2 0x84E JUMPI DUP3 SWAP1 POP PUSH2 0x89E JUMP JUMPDEST PUSH1 0x0 DUP4 MLOAD GT ISZERO PUSH2 0x861 JUMPI DUP3 MLOAD DUP1 DUP5 PUSH1 0x20 ADD REVERT JUMPDEST DUP2 PUSH1 0x40 MLOAD PUSH32 0x8C379A000000000000000000000000000000000000000000000000000000000 DUP2 MSTORE PUSH1 0x4 ADD PUSH2 0x895 SWAP2 SWAP1 PUSH2 0xB64 JUMP JUMPDEST PUSH1 0x40 MLOAD DUP1 SWAP2 SUB SWAP1 REVERT JUMPDEST SWAP4 SWAP3 POP POP POP JUMP JUMPDEST PUSH1 0x0 DUP2 CALLDATALOAD SWAP1 POP PUSH2 0x8B4 DUP2 PUSH2 0x1025 JUMP JUMPDEST SWAP3 SWAP2 POP POP JUMP JUMPDEST PUSH1 0x0 DUP2 MLOAD SWAP1 POP PUSH2 0x8C9 DUP2 PUSH2 0x103C JUMP JUMPDEST SWAP3 SWAP2 POP POP JUMP JUMPDEST PUSH1 0x0 PUSH1 0x20 DUP3 DUP5 SUB SLT ISZERO PUSH2 0x8E5 JUMPI PUSH2 0x8E4 PUSH2 0xE7E JUMP JUMPDEST JUMPDEST PUSH1 0x0 PUSH2 0x8F3 DUP5 DUP3 DUP6 ADD PUSH2 0x8A5 JUMP JUMPDEST SWAP2 POP POP SWAP3 SWAP2 POP POP JUMP JUMPDEST PUSH1 0x0 PUSH1 0x20 DUP3 DUP5 SUB SLT ISZERO PUSH2 0x912 JUMPI PUSH2 0x911 PUSH2 0xE7E JUMP JUMPDEST JUMPDEST PUSH1 0x0 PUSH2 0x920 DUP5 DUP3 DUP6 ADD PUSH2 0x8BA JUMP JUMPDEST SWAP2 POP POP SWAP3 SWAP2 POP POP JUMP JUMPDEST PUSH2 0x932 DUP2 PUSH2 0xD9E JUMP JUMPDEST DUP3 MSTORE POP POP JUMP JUMPDEST PUSH2 0x941 DUP2 PUSH2 0xD8C JUMP JUMPDEST DUP3 MSTORE POP POP JUMP JUMPDEST PUSH2 0x950 DUP2 PUSH2 0xDB0 JUMP JUMPDEST DUP3 MSTORE POP POP JUMP JUMPDEST PUSH1 0x0 PUSH2 0x961 DUP3 PUSH2 0xCAA JUMP JUMPDEST PUSH2 0x96B DUP2 DUP6 PUSH2 0xCC0 JUMP JUMPDEST SWAP4 POP PUSH2 0x97B DUP2 DUP6 PUSH1 0x20 DUP7 ADD PUSH2 0xE1C JUMP JUMPDEST DUP1 DUP5 ADD SWAP2 POP POP SWAP3 SWAP2 POP POP JUMP JUMPDEST PUSH2 0x990 DUP2 PUSH2 0xDE6 JUMP JUMPDEST DUP3 MSTORE POP POP JUMP JUMPDEST PUSH1 0x0 PUSH2 0x9A1 DUP3 PUSH2 0xCB5 JUMP JUMPDEST PUSH2 0x9AB DUP2 DUP6 PUSH2 0xCCB JUMP JUMPDEST SWAP4 POP PUSH2 0x9BB DUP2 DUP6 PUSH1 0x20 DUP7 ADD PUSH2 0xE1C JUMP JUMPDEST PUSH2 0x9C4 DUP2 PUSH2 0xE83 JUMP JUMPDEST DUP5 ADD SWAP2 POP POP SWAP3 SWAP2 POP POP JUMP JUMPDEST PUSH1 0x0 PUSH2 0x9DC PUSH1 0x1D DUP4 PUSH2 0xCCB JUMP JUMPDEST SWAP2 POP PUSH2 0x9E7 DUP3 PUSH2 0xE94 JUMP JUMPDEST PUSH1 0x20 DUP3 ADD SWAP1 POP SWAP2 SWAP1 POP JUMP JUMPDEST PUSH1 0x0 PUSH2 0x9FF PUSH1 0x26 DUP4 PUSH2 0xCCB JUMP JUMPDEST SWAP2 POP PUSH2 0xA0A DUP3 PUSH2 0xEBD JUMP JUMPDEST PUSH1 0x40 DUP3 ADD SWAP1 POP SWAP2 SWAP1 POP JUMP JUMPDEST PUSH1 0x0 PUSH2 0xA22 PUSH1 0x2A DUP4 PUSH2 0xCCB JUMP JUMPDEST SWAP2 POP PUSH2 0xA2D DUP3 PUSH2 0xF0C JUMP JUMPDEST PUSH1 0x40 DUP3 ADD SWAP1 POP SWAP2 SWAP1 POP JUMP JUMPDEST PUSH1 0x0 PUSH2 0xA45 PUSH1 0x1D DUP4 PUSH2 0xCCB JUMP JUMPDEST SWAP2 POP PUSH2 0xA50 DUP3 PUSH2 0xF5B JUMP JUMPDEST PUSH1 0x20 DUP3 ADD SWAP1 POP SWAP2 SWAP1 POP JUMP JUMPDEST PUSH1 0x0 PUSH2 0xA68 PUSH1 0x2A DUP4 PUSH2 0xCCB JUMP JUMPDEST SWAP2 POP PUSH2 0xA73 DUP3 PUSH2 0xF84 JUMP JUMPDEST PUSH1 0x40 DUP3 ADD SWAP1 POP SWAP2 SWAP1 POP JUMP JUMPDEST PUSH1 0x0 PUSH2 0xA8B PUSH1 0x1F DUP4 PUSH2 0xCCB JUMP JUMPDEST SWAP2 POP PUSH2 0xA96 DUP3 PUSH2 0xFD3 JUMP JUMPDEST PUSH1 0x20 DUP3 ADD SWAP1 POP SWAP2 SWAP1 POP JUMP JUMPDEST PUSH1 0x0 PUSH2 0xAAE PUSH1 0x19 DUP4 PUSH2 0xCCB JUMP JUMPDEST SWAP2 POP PUSH2 0xAB9 DUP3 PUSH2 0xFFC JUMP JUMPDEST PUSH1 0x20 DUP3 ADD SWAP1 POP SWAP2 SWAP1 POP JUMP JUMPDEST PUSH2 0xACD DUP2 PUSH2 0xDDC JUMP JUMPDEST DUP3 MSTORE POP POP JUMP JUMPDEST PUSH1 0x0 PUSH2 0xADF DUP3 DUP5 PUSH2 0x956 JUMP JUMPDEST SWAP2 POP DUP2 SWAP1 POP SWAP3 SWAP2 POP POP JUMP JUMPDEST PUSH1 0x0 PUSH1 0x20 DUP3 ADD SWAP1 POP PUSH2 0xAFF PUSH1 0x0 DUP4 ADD DUP5 PUSH2 0x929 JUMP JUMPDEST SWAP3 SWAP2 POP POP JUMP JUMPDEST PUSH1 0x0 PUSH1 0x40 DUP3 ADD SWAP1 POP PUSH2 0xB1A PUSH1 0x0 DUP4 ADD DUP6 PUSH2 0x938 JUMP JUMPDEST PUSH2 0xB27 PUSH1 0x20 DUP4 ADD DUP5 PUSH2 0xAC4 JUMP JUMPDEST SWAP4 SWAP3 POP POP POP JUMP JUMPDEST PUSH1 0x0 PUSH1 0x20 DUP3 ADD SWAP1 POP PUSH2 0xB43 PUSH1 0x0 DUP4 ADD DUP5 PUSH2 0x947 JUMP JUMPDEST SWAP3 SWAP2 POP POP JUMP JUMPDEST PUSH1 0x0 PUSH1 0x20 DUP3 ADD SWAP1 POP PUSH2 0xB5E PUSH1 0x0 DUP4 ADD DUP5 PUSH2 0x987 JUMP JUMPDEST SWAP3 SWAP2 POP POP JUMP JUMPDEST PUSH1 0x0 PUSH1 0x20 DUP3 ADD SWAP1 POP DUP2 DUP2 SUB PUSH1 0x0 DUP4 ADD MSTORE PUSH2 0xB7E DUP2 DUP5 PUSH2 0x996 JUMP JUMPDEST SWAP1 POP SWAP3 SWAP2 POP POP JUMP JUMPDEST PUSH1 0x0 PUSH1 0x20 DUP3 ADD SWAP1 POP DUP2 DUP2 SUB PUSH1 0x0 DUP4 ADD MSTORE PUSH2 0xB9F DUP2 PUSH2 0x9CF JUMP JUMPDEST SWAP1 POP SWAP2 SWAP1 POP JUMP JUMPDEST PUSH1 0x0 PUSH1 0x20 DUP3 ADD SWAP1 POP DUP2 DUP2 SUB PUSH1 0x0 DUP4 ADD MSTORE PUSH2 0xBBF DUP2 PUSH2 0x9F2 JUMP JUMPDEST SWAP1 POP SWAP2 SWAP1 POP JUMP JUMPDEST PUSH1 0x0 PUSH1 0x20 DUP3 ADD SWAP1 POP DUP2 DUP2 SUB PUSH1 0x0 DUP4 ADD MSTORE PUSH2 0xBDF DUP2 PUSH2 0xA15 JUMP JUMPDEST SWAP1 POP SWAP2 SWAP1 POP JUMP JUMPDEST PUSH1 0x0 PUSH1 0x20 DUP3 ADD SWAP1 POP DUP2 DUP2 SUB PUSH1 0x0 DUP4 ADD MSTORE PUSH2 0xBFF DUP2 PUSH2 0xA38 JUMP JUMPDEST SWAP1 POP SWAP2 SWAP1 POP JUMP JUMPDEST PUSH1 0x0 PUSH1 0x20 DUP3 ADD SWAP1 POP DUP2 DUP2 SUB PUSH1 0x0 DUP4 ADD MSTORE PUSH2 0xC1F DUP2 PUSH2 0xA5B JUMP JUMPDEST SWAP1 POP SWAP2 SWAP1 POP JUMP JUMPDEST PUSH1 0x0 PUSH1 0x20 DUP3 ADD SWAP1 POP DUP2 DUP2 SUB PUSH1 0x0 DUP4 ADD MSTORE PUSH2 0xC3F DUP2 PUSH2 0xA7E JUMP JUMPDEST SWAP1 POP SWAP2 SWAP1 POP JUMP JUMPDEST PUSH1 0x0 PUSH1 0x20 DUP3 ADD SWAP1 POP DUP2 DUP2 SUB PUSH1 0x0 DUP4 ADD MSTORE PUSH2 0xC5F DUP2 PUSH2 0xAA1 JUMP JUMPDEST SWAP1 POP SWAP2 SWAP1 POP JUMP JUMPDEST PUSH1 0x0 PUSH1 0x20 DUP3 ADD SWAP1 POP PUSH2 0xC7B PUSH1 0x0 DUP4 ADD DUP5 PUSH2 0xAC4 JUMP JUMPDEST SWAP3 SWAP2 POP POP JUMP JUMPDEST PUSH1 0x0 PUSH1 0x40 DUP3 ADD SWAP1 POP PUSH2 0xC96 PUSH1 0x0 DUP4 ADD DUP6 PUSH2 0xAC4 JUMP JUMPDEST PUSH2 0xCA3 PUSH1 0x20 DUP4 ADD DUP5 PUSH2 0xAC4 JUMP JUMPDEST SWAP4 SWAP3 POP POP POP JUMP JUMPDEST PUSH1 0x0 DUP2 MLOAD SWAP1 POP SWAP2 SWAP1 POP JUMP JUMPDEST PUSH1 0x0 DUP2 MLOAD SWAP1 POP SWAP2 SWAP1 POP JUMP JUMPDEST PUSH1 0x0 DUP2 SWAP1 POP SWAP3 SWAP2 POP POP JUMP JUMPDEST PUSH1 0x0 DUP3 DUP3 MSTORE PUSH1 0x20 DUP3 ADD SWAP1 POP SWAP3 SWAP2 POP POP JUMP JUMPDEST PUSH1 0x0 PUSH2 0xCE7 DUP3 PUSH2 0xDDC JUMP JUMPDEST SWAP2 POP PUSH2 0xCF2 DUP4 PUSH2 0xDDC JUMP JUMPDEST SWAP3 POP DUP3 PUSH32 0xFFFFFFFFFFFFFFFFFFFFFFFFFFFFFFFFFFFFFFFFFFFFFFFFFFFFFFFFFFFFFFFF SUB DUP3 GT ISZERO PUSH2 0xD27 JUMPI PUSH2 0xD26 PUSH2 0xE4F JUMP JUMPDEST JUMPDEST DUP3 DUP3 ADD SWAP1 POP SWAP3 SWAP2 POP POP JUMP JUMPDEST PUSH1 0x0 PUSH2 0xD3D DUP3 PUSH2 0xDDC JUMP JUMPDEST SWAP2 POP PUSH2 0xD48 DUP4 PUSH2 0xDDC JUMP JUMPDEST SWAP3 POP DUP2 PUSH32 0xFFFFFFFFFFFFFFFFFFFFFFFFFFFFFFFFFFFFFFFFFFFFFFFFFFFFFFFFFFFFFFFF DIV DUP4 GT DUP3 ISZERO ISZERO AND ISZERO PUSH2 0xD81 JUMPI PUSH2 0xD80 PUSH2 0xE4F JUMP JUMPDEST JUMPDEST DUP3 DUP3 MUL SWAP1 POP SWAP3 SWAP2 POP POP JUMP JUMPDEST PUSH1 0x0 PUSH2 0xD97 DUP3 PUSH2 0xDBC JUMP JUMPDEST SWAP1 POP SWAP2 SWAP1 POP JUMP JUMPDEST PUSH1 0x0 PUSH2 0xDA9 DUP3 PUSH2 0xDBC JUMP JUMPDEST SWAP1 POP SWAP2 SWAP1 POP JUMP JUMPDEST PUSH1 0x0 DUP2 ISZERO ISZERO SWAP1 POP SWAP2 SWAP1 POP JUMP JUMPDEST PUSH1 0x0 PUSH20 0xFFFFFFFFFFFFFFFFFFFFFFFFFFFFFFFFFFFFFFFF DUP3 AND SWAP1 POP SWAP2 SWAP1 POP JUMP JUMPDEST PUSH1 0x0 DUP2 SWAP1 POP SWAP2 SWAP1 POP JUMP JUMPDEST PUSH1 0x0 PUSH2 0xDF1 DUP3 PUSH2 0xDF8 JUMP JUMPDEST SWAP1 POP SWAP2 SWAP1 POP JUMP JUMPDEST PUSH1 0x0 PUSH2 0xE03 DUP3 PUSH2 0xE0A JUMP JUMPDEST SWAP1 POP SWAP2 SWAP1 POP JUMP JUMPDEST PUSH1 0x0 PUSH2 0xE15 DUP3 PUSH2 0xDBC JUMP JUMPDEST SWAP1 POP SWAP2 SWAP1 POP JUMP JUMPDEST PUSH1 0x0 JUMPDEST DUP4 DUP2 LT ISZERO PUSH2 0xE3A JUMPI DUP1 DUP3 ADD MLOAD DUP2 DUP5 ADD MSTORE PUSH1 0x20 DUP2 ADD SWAP1 POP PUSH2 0xE1F JUMP JUMPDEST DUP4 DUP2 GT ISZERO PUSH2 0xE49 JUMPI PUSH1 0x0 DUP5 DUP5 ADD MSTORE JUMPDEST POP POP POP POP JUMP JUMPDEST PUSH32 0x4E487B7100000000000000000000000000000000000000000000000000000000 PUSH1 0x0 MSTORE PUSH1 0x11 PUSH1 0x4 MSTORE PUSH1 0x24 PUSH1 0x0 REVERT JUMPDEST PUSH1 0x0 DUP1 REVERT JUMPDEST PUSH1 0x0 PUSH1 0x1F NOT PUSH1 0x1F DUP4 ADD AND SWAP1 POP SWAP2 SWAP1 POP JUMP JUMPDEST PUSH32 0x43617070656443726F776473616C653A20636170206578636565646564000000 PUSH1 0x0 DUP3 ADD MSTORE POP JUMP JUMPDEST PUSH32 0x416464726573733A20696E73756666696369656E742062616C616E636520666F PUSH1 0x0 DUP3 ADD MSTORE PUSH32 0x722063616C6C0000000000000000000000000000000000000000000000000000 PUSH1 0x20 DUP3 ADD MSTORE POP JUMP JUMPDEST PUSH32 0x43726F776473616C653A2062656E656669636961727920697320746865207A65 PUSH1 0x0 DUP3 ADD MSTORE PUSH32 0x726F206164647265737300000000000000000000000000000000000000000000 PUSH1 0x20 DUP3 ADD MSTORE POP JUMP JUMPDEST PUSH32 0x416464726573733A2063616C6C20746F206E6F6E2D636F6E7472616374000000 PUSH1 0x0 DUP3 ADD MSTORE POP JUMP JUMPDEST PUSH32 0x5361666545524332303A204552433230206F7065726174696F6E20646964206E PUSH1 0x0 DUP3 ADD MSTORE PUSH32 0x6F74207375636365656400000000000000000000000000000000000000000000 PUSH1 0x20 DUP3 ADD MSTORE POP JUMP JUMPDEST PUSH32 0x5265656E7472616E637947756172643A207265656E7472616E742063616C6C00 PUSH1 0x0 DUP3 ADD MSTORE POP JUMP JUMPDEST PUSH32 0x43726F776473616C653A20776569416D6F756E74206973203000000000000000 PUSH1 0x0 DUP3 ADD MSTORE POP JUMP JUMPDEST PUSH2 0x102E DUP2 PUSH2 0xD8C JUMP JUMPDEST DUP2 EQ PUSH2 0x1039 JUMPI PUSH1 0x0 DUP1 REVERT JUMPDEST POP JUMP JUMPDEST PUSH2 0x1045 DUP2 PUSH2 0xDB0 JUMP JUMPDEST DUP2 EQ PUSH2 0x1050 JUMPI PUSH1 0x0 DUP1 REVERT JUMPDEST POP JUMP INVALID LOG2 PUSH5 0x6970667358 0x22 SLT KECCAK256 DUP11 0x21 0xC5 SGT 0xFC CODESIZE DUP6 TIMESTAMP 0x2C LOG2 LOG4 0xE1 CALLDATALOAD 0xD9 0xB1 EQ NOT 0xAD CHAINID PUSH27 0x2C2B8322FA4CF1E4917B9C1264736F6C6343000807003300000000 "
				},
				"gasEstimates": {
					"creation": {
						"codeDepositCost": "846600",
						"executionCost": "infinite",
						"totalCost": "infinite"
					},
					"external": {
						"buyTokens(address)": "infinite",
						"cap()": "2460",
						"capReached()": "4587",
						"rate()": "2438",
						"token()": "2674",
						"wallet()": "2544",
						"weiRaised()": "2482"
					},
					"internal": {
						"_preValidatePurchase(address,uint256)": "infinite"
					}
				},
				"methodIdentifiers": {
					"buyTokens(address)": "ec8ac4d8",
					"cap()": "355274ea",
					"capReached()": "4f935945",
					"rate()": "2c4e722e",
					"token()": "fc0c546a",
					"wallet()": "521eb273",
					"weiRaised()": "4042b66f"
				}
			},
			"storageLayout": {
				"storage": [
					{
						"astId": 10,
						"contract": "contracts/crowdsale-contracts/validation/CappedCrowdsale.sol:CappedCrowdsale",
						"label": "_status",
						"offset": 0,
						"slot": "0",
						"type": "t_uint256"
					},
					{
						"astId": 992,
						"contract": "contracts/crowdsale-contracts/validation/CappedCrowdsale.sol:CappedCrowdsale",
						"label": "_token",
						"offset": 0,
						"slot": "1",
						"type": "t_contract(IERC20)117"
					},
					{
						"astId": 994,
						"contract": "contracts/crowdsale-contracts/validation/CappedCrowdsale.sol:CappedCrowdsale",
						"label": "_wallet",
						"offset": 0,
						"slot": "2",
						"type": "t_address_payable"
					},
					{
						"astId": 996,
						"contract": "contracts/crowdsale-contracts/validation/CappedCrowdsale.sol:CappedCrowdsale",
						"label": "_rate",
						"offset": 0,
						"slot": "3",
						"type": "t_uint256"
					},
					{
						"astId": 998,
						"contract": "contracts/crowdsale-contracts/validation/CappedCrowdsale.sol:CappedCrowdsale",
						"label": "_weiRaised",
						"offset": 0,
						"slot": "4",
						"type": "t_uint256"
					},
					{
						"astId": 1285,
						"contract": "contracts/crowdsale-contracts/validation/CappedCrowdsale.sol:CappedCrowdsale",
						"label": "_cap",
						"offset": 0,
						"slot": "5",
						"type": "t_uint256"
					}
				],
				"types": {
					"t_address_payable": {
						"encoding": "inplace",
						"label": "address payable",
						"numberOfBytes": "20"
					},
					"t_contract(IERC20)117": {
						"encoding": "inplace",
						"label": "contract IERC20",
						"numberOfBytes": "20"
					},
					"t_uint256": {
						"encoding": "inplace",
						"label": "uint256",
						"numberOfBytes": "32"
					}
				}
			},
			"userdoc": {
				"events": {
					"TokensPurchased(address,address,uint256,uint256)": {
						"notice": "Event for token purchase logging"
					}
				},
				"kind": "user",
				"methods": {},
				"version": 1
			}
		}
	}
}