{
	"contracts/crowdsale-contracts/Crowdsale.sol": {
		"Crowdsale": {
			"abi": [
				{
					"inputs": [
						{
							"internalType": "uint256",
							"name": "rate_",
							"type": "uint256"
						},
						{
							"internalType": "address payable",
							"name": "wallet_",
							"type": "address"
						},
						{
							"internalType": "contract IERC20",
							"name": "token_",
							"type": "address"
						}
					],
					"stateMutability": "nonpayable",
					"type": "constructor"
				},
				{
					"anonymous": false,
					"inputs": [
						{
							"indexed": true,
							"internalType": "address",
							"name": "purchaser",
							"type": "address"
						},
						{
							"indexed": true,
							"internalType": "address",
							"name": "beneficiary",
							"type": "address"
						},
						{
							"indexed": false,
							"internalType": "uint256",
							"name": "value",
							"type": "uint256"
						},
						{
							"indexed": false,
							"internalType": "uint256",
							"name": "amount",
							"type": "uint256"
						}
					],
					"name": "TokensPurchased",
					"type": "event"
				},
				{
					"inputs": [],
					"name": "_rate",
					"outputs": [
						{
							"internalType": "uint256",
							"name": "",
							"type": "uint256"
						}
					],
					"stateMutability": "view",
					"type": "function"
				},
				{
					"inputs": [],
					"name": "_token",
					"outputs": [
						{
							"internalType": "contract IERC20",
							"name": "",
							"type": "address"
						}
					],
					"stateMutability": "view",
					"type": "function"
				},
				{
					"inputs": [],
					"name": "_wallet",
					"outputs": [
						{
							"internalType": "address payable",
							"name": "",
							"type": "address"
						}
					],
					"stateMutability": "view",
					"type": "function"
				},
				{
					"inputs": [],
					"name": "_weiRaised",
					"outputs": [
						{
							"internalType": "uint256",
							"name": "",
							"type": "uint256"
						}
					],
					"stateMutability": "view",
					"type": "function"
				},
				{
					"inputs": [
						{
							"internalType": "address",
							"name": "beneficiary",
							"type": "address"
						}
					],
					"name": "buyTokens",
					"outputs": [],
					"stateMutability": "payable",
					"type": "function"
				},
				{
					"stateMutability": "payable",
					"type": "receive"
				}
			],
			"devdoc": {
				"details": "Crowdsale is a base contract for managing a token crowdsale, allowing investors to purchase tokens with ether. This contract implements such functionality in its most fundamental form and can be extended to provide additional functionality and/or custom behavior. The external interface represents the basic interface for purchasing tokens, and conforms the base architecture for crowdsales. It is *not* intended to be modified / overridden. The internal interface conforms the extensible and modifiable surface of crowdsales. Override the methods to add functionality. Consider using 'super' where appropriate to concatenate behavior.",
				"events": {
					"TokensPurchased(address,address,uint256,uint256)": {
						"params": {
							"amount": "amount of tokens purchased",
							"beneficiary": "who got the tokens",
							"purchaser": "who paid for the tokens",
							"value": "weis paid for purchase"
						}
					}
				},
				"kind": "dev",
				"methods": {
					"buyTokens(address)": {
						"details": "low level token purchase ***DO NOT OVERRIDE*** This function has a non-reentrancy guard, so it shouldn't be called by another `nonReentrant` function.",
						"params": {
							"beneficiary": "Recipient of the token purchase"
						}
					},
					"constructor": {
						"details": "The rate is the conversion between wei and the smallest and indivisible token unit. So, if you are using a rate of 1 with a ERC20Detailed token with 3 decimals called TOK, 1 wei will give you 1 unit, or 0.001 TOK.",
						"params": {
							"rate_": "Number of token units a buyer gets per wei",
							"token_": "Address of the token being sold",
							"wallet_": "Address where collected funds will be forwarded to"
						}
					}
				},
				"title": "Crowdsale",
				"version": 1
			},
			"evm": {
				"assembly": "    /* \"contracts/crowdsale-contracts/Crowdsale.sol\":1071:7396  contract Crowdsale is Context, ReentrancyGuard {\r... */\n  mstore(0x40, 0x80)\n    /* \"contracts/crowdsale-contracts/Crowdsale.sol\":2529:2909  constructor (uint256 rate_, address payable wallet_, IERC20 token_) {\r... */\n  callvalue\n  dup1\n  iszero\n  tag_1\n  jumpi\n  0x00\n  dup1\n  revert\ntag_1:\n  pop\n  mload(0x40)\n  sub(codesize, bytecodeSize)\n  dup1\n  bytecodeSize\n  dup4\n  codecopy\n  dup2\n  dup2\n  add\n  0x40\n  mstore\n  dup2\n  add\n  swap1\n  tag_2\n  swap2\n  swap1\n  tag_3\n  jump\t// in\ntag_2:\n    /* \"@openzeppelin/contracts/security/ReentrancyGuard.sol\":1701:1702  1 */\n  0x01\n    /* \"@openzeppelin/contracts/security/ReentrancyGuard.sol\":1806:1813  _status */\n  0x00\n    /* \"@openzeppelin/contracts/security/ReentrancyGuard.sol\":1806:1828  _status = _NOT_ENTERED */\n  dup2\n  swap1\n  sstore\n  pop\n    /* \"contracts/crowdsale-contracts/Crowdsale.sol\":2624:2625  0 */\n  0x00\n    /* \"contracts/crowdsale-contracts/Crowdsale.sol\":2616:2621  rate_ */\n  dup4\n    /* \"contracts/crowdsale-contracts/Crowdsale.sol\":2616:2625  rate_ > 0 */\n  gt\n    /* \"contracts/crowdsale-contracts/Crowdsale.sol\":2608:2650  require(rate_ > 0, \"Crowdsale: rate is 0\") */\n  tag_8\n  jumpi\n  mload(0x40)\n  0x08c379a000000000000000000000000000000000000000000000000000000000\n  dup2\n  mstore\n  0x04\n  add\n  tag_9\n  swap1\n  tag_10\n  jump\t// in\ntag_9:\n  mload(0x40)\n  dup1\n  swap2\n  sub\n  swap1\n  revert\ntag_8:\n    /* \"contracts/crowdsale-contracts/Crowdsale.sol\":2688:2689  0 */\n  0x00\n    /* \"contracts/crowdsale-contracts/Crowdsale.sol\":2669:2690  wallet_ != address(0) */\n  0xffffffffffffffffffffffffffffffffffffffff\n  and\n    /* \"contracts/crowdsale-contracts/Crowdsale.sol\":2669:2676  wallet_ */\n  dup3\n    /* \"contracts/crowdsale-contracts/Crowdsale.sol\":2669:2690  wallet_ != address(0) */\n  0xffffffffffffffffffffffffffffffffffffffff\n  and\n  eq\n  iszero\n    /* \"contracts/crowdsale-contracts/Crowdsale.sol\":2661:2732  require(wallet_ != address(0), \"Crowdsale: wallet is the zero address\") */\n  tag_11\n  jumpi\n  mload(0x40)\n  0x08c379a000000000000000000000000000000000000000000000000000000000\n  dup2\n  mstore\n  0x04\n  add\n  tag_12\n  swap1\n  tag_13\n  jump\t// in\ntag_12:\n  mload(0x40)\n  dup1\n  swap2\n  sub\n  swap1\n  revert\ntag_11:\n    /* \"contracts/crowdsale-contracts/Crowdsale.sol\":2778:2779  0 */\n  0x00\n    /* \"contracts/crowdsale-contracts/Crowdsale.sol\":2751:2780  address(token_) != address(0) */\n  0xffffffffffffffffffffffffffffffffffffffff\n  and\n    /* \"contracts/crowdsale-contracts/Crowdsale.sol\":2759:2765  token_ */\n  dup2\n    /* \"contracts/crowdsale-contracts/Crowdsale.sol\":2751:2780  address(token_) != address(0) */\n  0xffffffffffffffffffffffffffffffffffffffff\n  and\n  eq\n  iszero\n    /* \"contracts/crowdsale-contracts/Crowdsale.sol\":2743:2821  require(address(token_) != address(0), \"Crowdsale: token is the zero address\") */\n  tag_14\n  jumpi\n  mload(0x40)\n  0x08c379a000000000000000000000000000000000000000000000000000000000\n  dup2\n  mstore\n  0x04\n  add\n  tag_15\n  swap1\n  tag_16\n  jump\t// in\ntag_15:\n  mload(0x40)\n  dup1\n  swap2\n  sub\n  swap1\n  revert\ntag_14:\n    /* \"contracts/crowdsale-contracts/Crowdsale.sol\":2842:2847  rate_ */\n  dup3\n    /* \"contracts/crowdsale-contracts/Crowdsale.sol\":2834:2839  _rate */\n  0x03\n    /* \"contracts/crowdsale-contracts/Crowdsale.sol\":2834:2847  _rate = rate_ */\n  dup2\n  swap1\n  sstore\n  pop\n    /* \"contracts/crowdsale-contracts/Crowdsale.sol\":2868:2875  wallet_ */\n  dup2\n    /* \"contracts/crowdsale-contracts/Crowdsale.sol\":2858:2865  _wallet */\n  0x02\n  0x00\n    /* \"contracts/crowdsale-contracts/Crowdsale.sol\":2858:2875  _wallet = wallet_ */\n  0x0100\n  exp\n  dup2\n  sload\n  dup2\n  0xffffffffffffffffffffffffffffffffffffffff\n  mul\n  not\n  and\n  swap1\n  dup4\n  0xffffffffffffffffffffffffffffffffffffffff\n  and\n  mul\n  or\n  swap1\n  sstore\n  pop\n    /* \"contracts/crowdsale-contracts/Crowdsale.sol\":2895:2901  token_ */\n  dup1\n    /* \"contracts/crowdsale-contracts/Crowdsale.sol\":2886:2892  _token */\n  0x01\n  0x00\n    /* \"contracts/crowdsale-contracts/Crowdsale.sol\":2886:2901  _token = token_ */\n  0x0100\n  exp\n  dup2\n  sload\n  dup2\n  0xffffffffffffffffffffffffffffffffffffffff\n  mul\n  not\n  and\n  swap1\n  dup4\n  0xffffffffffffffffffffffffffffffffffffffff\n  and\n  mul\n  or\n  swap1\n  sstore\n  pop\n    /* \"contracts/crowdsale-contracts/Crowdsale.sol\":2529:2909  constructor (uint256 rate_, address payable wallet_, IERC20 token_) {\r... */\n  pop\n  pop\n  pop\n    /* \"contracts/crowdsale-contracts/Crowdsale.sol\":1071:7396  contract Crowdsale is Context, ReentrancyGuard {\r... */\n  jump(tag_17)\n    /* \"#utility.yul\":7:166   */\ntag_19:\n    /* \"#utility.yul\":72:77   */\n  0x00\n    /* \"#utility.yul\":103:109   */\n  dup2\n    /* \"#utility.yul\":97:110   */\n  mload\n    /* \"#utility.yul\":88:110   */\n  swap1\n  pop\n    /* \"#utility.yul\":119:160   */\n  tag_21\n    /* \"#utility.yul\":154:159   */\n  dup2\n    /* \"#utility.yul\":119:160   */\n  tag_22\n  jump\t// in\ntag_21:\n    /* \"#utility.yul\":7:166   */\n  swap3\n  swap2\n  pop\n  pop\n  jump\t// out\n    /* \"#utility.yul\":172:343   */\ntag_23:\n    /* \"#utility.yul\":243:248   */\n  0x00\n    /* \"#utility.yul\":274:280   */\n  dup2\n    /* \"#utility.yul\":268:281   */\n  mload\n    /* \"#utility.yul\":259:281   */\n  swap1\n  pop\n    /* \"#utility.yul\":290:337   */\n  tag_25\n    /* \"#utility.yul\":331:336   */\n  dup2\n    /* \"#utility.yul\":290:337   */\n  tag_26\n  jump\t// in\ntag_25:\n    /* \"#utility.yul\":172:343   */\n  swap3\n  swap2\n  pop\n  pop\n  jump\t// out\n    /* \"#utility.yul\":349:492   */\ntag_27:\n    /* \"#utility.yul\":406:411   */\n  0x00\n    /* \"#utility.yul\":437:443   */\n  dup2\n    /* \"#utility.yul\":431:444   */\n  mload\n    /* \"#utility.yul\":422:444   */\n  swap1\n  pop\n    /* \"#utility.yul\":453:486   */\n  tag_29\n    /* \"#utility.yul\":480:485   */\n  dup2\n    /* \"#utility.yul\":453:486   */\n  tag_30\n  jump\t// in\ntag_29:\n    /* \"#utility.yul\":349:492   */\n  swap3\n  swap2\n  pop\n  pop\n  jump\t// out\n    /* \"#utility.yul\":498:1205   */\ntag_3:\n    /* \"#utility.yul\":608:614   */\n  0x00\n    /* \"#utility.yul\":616:622   */\n  dup1\n    /* \"#utility.yul\":624:630   */\n  0x00\n    /* \"#utility.yul\":673:675   */\n  0x60\n    /* \"#utility.yul\":661:670   */\n  dup5\n    /* \"#utility.yul\":652:659   */\n  dup7\n    /* \"#utility.yul\":648:671   */\n  sub\n    /* \"#utility.yul\":644:676   */\n  slt\n    /* \"#utility.yul\":641:760   */\n  iszero\n  tag_32\n  jumpi\n    /* \"#utility.yul\":679:758   */\n  tag_33\n  tag_34\n  jump\t// in\ntag_33:\n    /* \"#utility.yul\":641:760   */\ntag_32:\n    /* \"#utility.yul\":799:800   */\n  0x00\n    /* \"#utility.yul\":824:888   */\n  tag_35\n    /* \"#utility.yul\":880:887   */\n  dup7\n    /* \"#utility.yul\":871:877   */\n  dup3\n    /* \"#utility.yul\":860:869   */\n  dup8\n    /* \"#utility.yul\":856:878   */\n  add\n    /* \"#utility.yul\":824:888   */\n  tag_27\n  jump\t// in\ntag_35:\n    /* \"#utility.yul\":814:888   */\n  swap4\n  pop\n    /* \"#utility.yul\":770:898   */\n  pop\n    /* \"#utility.yul\":937:939   */\n  0x20\n    /* \"#utility.yul\":963:1035   */\n  tag_36\n    /* \"#utility.yul\":1027:1034   */\n  dup7\n    /* \"#utility.yul\":1018:1024   */\n  dup3\n    /* \"#utility.yul\":1007:1016   */\n  dup8\n    /* \"#utility.yul\":1003:1025   */\n  add\n    /* \"#utility.yul\":963:1035   */\n  tag_19\n  jump\t// in\ntag_36:\n    /* \"#utility.yul\":953:1035   */\n  swap3\n  pop\n    /* \"#utility.yul\":908:1045   */\n  pop\n    /* \"#utility.yul\":1084:1086   */\n  0x40\n    /* \"#utility.yul\":1110:1188   */\n  tag_37\n    /* \"#utility.yul\":1180:1187   */\n  dup7\n    /* \"#utility.yul\":1171:1177   */\n  dup3\n    /* \"#utility.yul\":1160:1169   */\n  dup8\n    /* \"#utility.yul\":1156:1178   */\n  add\n    /* \"#utility.yul\":1110:1188   */\n  tag_23\n  jump\t// in\ntag_37:\n    /* \"#utility.yul\":1100:1188   */\n  swap2\n  pop\n    /* \"#utility.yul\":1055:1198   */\n  pop\n    /* \"#utility.yul\":498:1205   */\n  swap3\n  pop\n  swap3\n  pop\n  swap3\n  jump\t// out\n    /* \"#utility.yul\":1211:1577   */\ntag_38:\n    /* \"#utility.yul\":1353:1356   */\n  0x00\n    /* \"#utility.yul\":1374:1441   */\n  tag_40\n    /* \"#utility.yul\":1438:1440   */\n  0x24\n    /* \"#utility.yul\":1433:1436   */\n  dup4\n    /* \"#utility.yul\":1374:1441   */\n  tag_41\n  jump\t// in\ntag_40:\n    /* \"#utility.yul\":1367:1441   */\n  swap2\n  pop\n    /* \"#utility.yul\":1450:1543   */\n  tag_42\n    /* \"#utility.yul\":1539:1542   */\n  dup3\n    /* \"#utility.yul\":1450:1543   */\n  tag_43\n  jump\t// in\ntag_42:\n    /* \"#utility.yul\":1568:1570   */\n  0x40\n    /* \"#utility.yul\":1563:1566   */\n  dup3\n    /* \"#utility.yul\":1559:1571   */\n  add\n    /* \"#utility.yul\":1552:1571   */\n  swap1\n  pop\n    /* \"#utility.yul\":1211:1577   */\n  swap2\n  swap1\n  pop\n  jump\t// out\n    /* \"#utility.yul\":1583:1949   */\ntag_44:\n    /* \"#utility.yul\":1725:1728   */\n  0x00\n    /* \"#utility.yul\":1746:1813   */\n  tag_46\n    /* \"#utility.yul\":1810:1812   */\n  0x14\n    /* \"#utility.yul\":1805:1808   */\n  dup4\n    /* \"#utility.yul\":1746:1813   */\n  tag_41\n  jump\t// in\ntag_46:\n    /* \"#utility.yul\":1739:1813   */\n  swap2\n  pop\n    /* \"#utility.yul\":1822:1915   */\n  tag_47\n    /* \"#utility.yul\":1911:1914   */\n  dup3\n    /* \"#utility.yul\":1822:1915   */\n  tag_48\n  jump\t// in\ntag_47:\n    /* \"#utility.yul\":1940:1942   */\n  0x20\n    /* \"#utility.yul\":1935:1938   */\n  dup3\n    /* \"#utility.yul\":1931:1943   */\n  add\n    /* \"#utility.yul\":1924:1943   */\n  swap1\n  pop\n    /* \"#utility.yul\":1583:1949   */\n  swap2\n  swap1\n  pop\n  jump\t// out\n    /* \"#utility.yul\":1955:2321   */\ntag_49:\n    /* \"#utility.yul\":2097:2100   */\n  0x00\n    /* \"#utility.yul\":2118:2185   */\n  tag_51\n    /* \"#utility.yul\":2182:2184   */\n  0x25\n    /* \"#utility.yul\":2177:2180   */\n  dup4\n    /* \"#utility.yul\":2118:2185   */\n  tag_41\n  jump\t// in\ntag_51:\n    /* \"#utility.yul\":2111:2185   */\n  swap2\n  pop\n    /* \"#utility.yul\":2194:2287   */\n  tag_52\n    /* \"#utility.yul\":2283:2286   */\n  dup3\n    /* \"#utility.yul\":2194:2287   */\n  tag_53\n  jump\t// in\ntag_52:\n    /* \"#utility.yul\":2312:2314   */\n  0x40\n    /* \"#utility.yul\":2307:2310   */\n  dup3\n    /* \"#utility.yul\":2303:2315   */\n  add\n    /* \"#utility.yul\":2296:2315   */\n  swap1\n  pop\n    /* \"#utility.yul\":1955:2321   */\n  swap2\n  swap1\n  pop\n  jump\t// out\n    /* \"#utility.yul\":2327:2746   */\ntag_16:\n    /* \"#utility.yul\":2493:2497   */\n  0x00\n    /* \"#utility.yul\":2531:2533   */\n  0x20\n    /* \"#utility.yul\":2520:2529   */\n  dup3\n    /* \"#utility.yul\":2516:2534   */\n  add\n    /* \"#utility.yul\":2508:2534   */\n  swap1\n  pop\n    /* \"#utility.yul\":2580:2589   */\n  dup2\n    /* \"#utility.yul\":2574:2578   */\n  dup2\n    /* \"#utility.yul\":2570:2590   */\n  sub\n    /* \"#utility.yul\":2566:2567   */\n  0x00\n    /* \"#utility.yul\":2555:2564   */\n  dup4\n    /* \"#utility.yul\":2551:2568   */\n  add\n    /* \"#utility.yul\":2544:2591   */\n  mstore\n    /* \"#utility.yul\":2608:2739   */\n  tag_55\n    /* \"#utility.yul\":2734:2738   */\n  dup2\n    /* \"#utility.yul\":2608:2739   */\n  tag_38\n  jump\t// in\ntag_55:\n    /* \"#utility.yul\":2600:2739   */\n  swap1\n  pop\n    /* \"#utility.yul\":2327:2746   */\n  swap2\n  swap1\n  pop\n  jump\t// out\n    /* \"#utility.yul\":2752:3171   */\ntag_10:\n    /* \"#utility.yul\":2918:2922   */\n  0x00\n    /* \"#utility.yul\":2956:2958   */\n  0x20\n    /* \"#utility.yul\":2945:2954   */\n  dup3\n    /* \"#utility.yul\":2941:2959   */\n  add\n    /* \"#utility.yul\":2933:2959   */\n  swap1\n  pop\n    /* \"#utility.yul\":3005:3014   */\n  dup2\n    /* \"#utility.yul\":2999:3003   */\n  dup2\n    /* \"#utility.yul\":2995:3015   */\n  sub\n    /* \"#utility.yul\":2991:2992   */\n  0x00\n    /* \"#utility.yul\":2980:2989   */\n  dup4\n    /* \"#utility.yul\":2976:2993   */\n  add\n    /* \"#utility.yul\":2969:3016   */\n  mstore\n    /* \"#utility.yul\":3033:3164   */\n  tag_57\n    /* \"#utility.yul\":3159:3163   */\n  dup2\n    /* \"#utility.yul\":3033:3164   */\n  tag_44\n  jump\t// in\ntag_57:\n    /* \"#utility.yul\":3025:3164   */\n  swap1\n  pop\n    /* \"#utility.yul\":2752:3171   */\n  swap2\n  swap1\n  pop\n  jump\t// out\n    /* \"#utility.yul\":3177:3596   */\ntag_13:\n    /* \"#utility.yul\":3343:3347   */\n  0x00\n    /* \"#utility.yul\":3381:3383   */\n  0x20\n    /* \"#utility.yul\":3370:3379   */\n  dup3\n    /* \"#utility.yul\":3366:3384   */\n  add\n    /* \"#utility.yul\":3358:3384   */\n  swap1\n  pop\n    /* \"#utility.yul\":3430:3439   */\n  dup2\n    /* \"#utility.yul\":3424:3428   */\n  dup2\n    /* \"#utility.yul\":3420:3440   */\n  sub\n    /* \"#utility.yul\":3416:3417   */\n  0x00\n    /* \"#utility.yul\":3405:3414   */\n  dup4\n    /* \"#utility.yul\":3401:3418   */\n  add\n    /* \"#utility.yul\":3394:3441   */\n  mstore\n    /* \"#utility.yul\":3458:3589   */\n  tag_59\n    /* \"#utility.yul\":3584:3588   */\n  dup2\n    /* \"#utility.yul\":3458:3589   */\n  tag_49\n  jump\t// in\ntag_59:\n    /* \"#utility.yul\":3450:3589   */\n  swap1\n  pop\n    /* \"#utility.yul\":3177:3596   */\n  swap2\n  swap1\n  pop\n  jump\t// out\n    /* \"#utility.yul\":3683:3852   */\ntag_41:\n    /* \"#utility.yul\":3767:3778   */\n  0x00\n    /* \"#utility.yul\":3801:3807   */\n  dup3\n    /* \"#utility.yul\":3796:3799   */\n  dup3\n    /* \"#utility.yul\":3789:3808   */\n  mstore\n    /* \"#utility.yul\":3841:3845   */\n  0x20\n    /* \"#utility.yul\":3836:3839   */\n  dup3\n    /* \"#utility.yul\":3832:3846   */\n  add\n    /* \"#utility.yul\":3817:3846   */\n  swap1\n  pop\n    /* \"#utility.yul\":3683:3852   */\n  swap3\n  swap2\n  pop\n  pop\n  jump\t// out\n    /* \"#utility.yul\":3858:3954   */\ntag_63:\n    /* \"#utility.yul\":3895:3902   */\n  0x00\n    /* \"#utility.yul\":3924:3948   */\n  tag_65\n    /* \"#utility.yul\":3942:3947   */\n  dup3\n    /* \"#utility.yul\":3924:3948   */\n  tag_66\n  jump\t// in\ntag_65:\n    /* \"#utility.yul\":3913:3948   */\n  swap1\n  pop\n    /* \"#utility.yul\":3858:3954   */\n  swap2\n  swap1\n  pop\n  jump\t// out\n    /* \"#utility.yul\":3960:4064   */\ntag_67:\n    /* \"#utility.yul\":4005:4012   */\n  0x00\n    /* \"#utility.yul\":4034:4058   */\n  tag_69\n    /* \"#utility.yul\":4052:4057   */\n  dup3\n    /* \"#utility.yul\":4034:4058   */\n  tag_66\n  jump\t// in\ntag_69:\n    /* \"#utility.yul\":4023:4058   */\n  swap1\n  pop\n    /* \"#utility.yul\":3960:4064   */\n  swap2\n  swap1\n  pop\n  jump\t// out\n    /* \"#utility.yul\":4070:4180   */\ntag_70:\n    /* \"#utility.yul\":4121:4128   */\n  0x00\n    /* \"#utility.yul\":4150:4174   */\n  tag_72\n    /* \"#utility.yul\":4168:4173   */\n  dup3\n    /* \"#utility.yul\":4150:4174   */\n  tag_63\n  jump\t// in\ntag_72:\n    /* \"#utility.yul\":4139:4174   */\n  swap1\n  pop\n    /* \"#utility.yul\":4070:4180   */\n  swap2\n  swap1\n  pop\n  jump\t// out\n    /* \"#utility.yul\":4186:4312   */\ntag_66:\n    /* \"#utility.yul\":4223:4230   */\n  0x00\n    /* \"#utility.yul\":4263:4305   */\n  0xffffffffffffffffffffffffffffffffffffffff\n    /* \"#utility.yul\":4256:4261   */\n  dup3\n    /* \"#utility.yul\":4252:4306   */\n  and\n    /* \"#utility.yul\":4241:4306   */\n  swap1\n  pop\n    /* \"#utility.yul\":4186:4312   */\n  swap2\n  swap1\n  pop\n  jump\t// out\n    /* \"#utility.yul\":4318:4395   */\ntag_74:\n    /* \"#utility.yul\":4355:4362   */\n  0x00\n    /* \"#utility.yul\":4384:4389   */\n  dup2\n    /* \"#utility.yul\":4373:4389   */\n  swap1\n  pop\n    /* \"#utility.yul\":4318:4395   */\n  swap2\n  swap1\n  pop\n  jump\t// out\n    /* \"#utility.yul\":4524:4641   */\ntag_34:\n    /* \"#utility.yul\":4633:4634   */\n  0x00\n    /* \"#utility.yul\":4630:4631   */\n  dup1\n    /* \"#utility.yul\":4623:4635   */\n  revert\n    /* \"#utility.yul\":4647:4870   */\ntag_43:\n    /* \"#utility.yul\":4787:4821   */\n  0x43726f776473616c653a20746f6b656e20697320746865207a65726f20616464\n    /* \"#utility.yul\":4783:4784   */\n  0x00\n    /* \"#utility.yul\":4775:4781   */\n  dup3\n    /* \"#utility.yul\":4771:4785   */\n  add\n    /* \"#utility.yul\":4764:4822   */\n  mstore\n    /* \"#utility.yul\":4856:4862   */\n  0x7265737300000000000000000000000000000000000000000000000000000000\n    /* \"#utility.yul\":4851:4853   */\n  0x20\n    /* \"#utility.yul\":4843:4849   */\n  dup3\n    /* \"#utility.yul\":4839:4854   */\n  add\n    /* \"#utility.yul\":4832:4863   */\n  mstore\n    /* \"#utility.yul\":4647:4870   */\n  pop\n  jump\t// out\n    /* \"#utility.yul\":4876:5046   */\ntag_48:\n    /* \"#utility.yul\":5016:5038   */\n  0x43726f776473616c653a20726174652069732030000000000000000000000000\n    /* \"#utility.yul\":5012:5013   */\n  0x00\n    /* \"#utility.yul\":5004:5010   */\n  dup3\n    /* \"#utility.yul\":5000:5014   */\n  add\n    /* \"#utility.yul\":4993:5039   */\n  mstore\n    /* \"#utility.yul\":4876:5046   */\n  pop\n  jump\t// out\n    /* \"#utility.yul\":5052:5276   */\ntag_53:\n    /* \"#utility.yul\":5192:5226   */\n  0x43726f776473616c653a2077616c6c657420697320746865207a65726f206164\n    /* \"#utility.yul\":5188:5189   */\n  0x00\n    /* \"#utility.yul\":5180:5186   */\n  dup3\n    /* \"#utility.yul\":5176:5190   */\n  add\n    /* \"#utility.yul\":5169:5227   */\n  mstore\n    /* \"#utility.yul\":5261:5268   */\n  0x6472657373000000000000000000000000000000000000000000000000000000\n    /* \"#utility.yul\":5256:5258   */\n  0x20\n    /* \"#utility.yul\":5248:5254   */\n  dup3\n    /* \"#utility.yul\":5244:5259   */\n  add\n    /* \"#utility.yul\":5237:5269   */\n  mstore\n    /* \"#utility.yul\":5052:5276   */\n  pop\n  jump\t// out\n    /* \"#utility.yul\":5282:5420   */\ntag_22:\n    /* \"#utility.yul\":5363:5395   */\n  tag_83\n    /* \"#utility.yul\":5389:5394   */\n  dup2\n    /* \"#utility.yul\":5363:5395   */\n  tag_67\n  jump\t// in\ntag_83:\n    /* \"#utility.yul\":5356:5361   */\n  dup2\n    /* \"#utility.yul\":5353:5396   */\n  eq\n    /* \"#utility.yul\":5343:5414   */\n  tag_84\n  jumpi\n    /* \"#utility.yul\":5410:5411   */\n  0x00\n    /* \"#utility.yul\":5407:5408   */\n  dup1\n    /* \"#utility.yul\":5400:5412   */\n  revert\n    /* \"#utility.yul\":5343:5414   */\ntag_84:\n    /* \"#utility.yul\":5282:5420   */\n  pop\n  jump\t// out\n    /* \"#utility.yul\":5426:5576   */\ntag_26:\n    /* \"#utility.yul\":5513:5551   */\n  tag_86\n    /* \"#utility.yul\":5545:5550   */\n  dup2\n    /* \"#utility.yul\":5513:5551   */\n  tag_70\n  jump\t// in\ntag_86:\n    /* \"#utility.yul\":5506:5511   */\n  dup2\n    /* \"#utility.yul\":5503:5552   */\n  eq\n    /* \"#utility.yul\":5493:5570   */\n  tag_87\n  jumpi\n    /* \"#utility.yul\":5566:5567   */\n  0x00\n    /* \"#utility.yul\":5563:5564   */\n  dup1\n    /* \"#utility.yul\":5556:5568   */\n  revert\n    /* \"#utility.yul\":5493:5570   */\ntag_87:\n    /* \"#utility.yul\":5426:5576   */\n  pop\n  jump\t// out\n    /* \"#utility.yul\":5582:5704   */\ntag_30:\n    /* \"#utility.yul\":5655:5679   */\n  tag_89\n    /* \"#utility.yul\":5673:5678   */\n  dup2\n    /* \"#utility.yul\":5655:5679   */\n  tag_74\n  jump\t// in\ntag_89:\n    /* \"#utility.yul\":5648:5653   */\n  dup2\n    /* \"#utility.yul\":5645:5680   */\n  eq\n    /* \"#utility.yul\":5635:5698   */\n  tag_90\n  jumpi\n    /* \"#utility.yul\":5694:5695   */\n  0x00\n    /* \"#utility.yul\":5691:5692   */\n  dup1\n    /* \"#utility.yul\":5684:5696   */\n  revert\n    /* \"#utility.yul\":5635:5698   */\ntag_90:\n    /* \"#utility.yul\":5582:5704   */\n  pop\n  jump\t// out\n    /* \"contracts/crowdsale-contracts/Crowdsale.sol\":1071:7396  contract Crowdsale is Context, ReentrancyGuard {\r... */\ntag_17:\n  dataSize(sub_0)\n  dup1\n  dataOffset(sub_0)\n  0x00\n  codecopy\n  0x00\n  return\nstop\n\nsub_0: assembly {\n        /* \"contracts/crowdsale-contracts/Crowdsale.sol\":1071:7396  contract Crowdsale is Context, ReentrancyGuard {\r... */\n      mstore(0x40, 0x80)\n      jumpi(tag_1, lt(calldatasize, 0x04))\n      shr(0xe0, calldataload(0x00))\n      dup1\n      0x610757e4\n      eq\n      tag_3\n      jumpi\n      dup1\n      0x83bebced\n      eq\n      tag_4\n      jumpi\n      dup1\n      0x94a5aa8d\n      eq\n      tag_5\n      jumpi\n      dup1\n      0xec8ac4d8\n      eq\n      tag_6\n      jumpi\n      dup1\n      0xecd0c0c3\n      eq\n      tag_7\n      jumpi\n      jump(tag_2)\n    tag_1:\n      jumpi(tag_2, calldatasize)\n        /* \"contracts/crowdsale-contracts/Crowdsale.sol\":3245:3268  buyTokens(_msgSender()) */\n      tag_10\n        /* \"contracts/crowdsale-contracts/Crowdsale.sol\":3255:3267  _msgSender() */\n      tag_11\n        /* \"contracts/crowdsale-contracts/Crowdsale.sol\":3255:3265  _msgSender */\n      tag_12\n        /* \"contracts/crowdsale-contracts/Crowdsale.sol\":3255:3267  _msgSender() */\n      jump\t// in\n    tag_11:\n        /* \"contracts/crowdsale-contracts/Crowdsale.sol\":3245:3254  buyTokens */\n      tag_13\n        /* \"contracts/crowdsale-contracts/Crowdsale.sol\":3245:3268  buyTokens(_msgSender()) */\n      jump\t// in\n    tag_10:\n        /* \"contracts/crowdsale-contracts/Crowdsale.sol\":1071:7396  contract Crowdsale is Context, ReentrancyGuard {\r... */\n      stop\n    tag_2:\n      0x00\n      dup1\n      revert\n        /* \"contracts/crowdsale-contracts/Crowdsale.sol\":1293:1323  address payable public _wallet */\n    tag_3:\n      callvalue\n      dup1\n      iszero\n      tag_14\n      jumpi\n      0x00\n      dup1\n      revert\n    tag_14:\n      pop\n      tag_15\n      tag_16\n      jump\t// in\n    tag_15:\n      mload(0x40)\n      tag_17\n      swap2\n      swap1\n      tag_18\n      jump\t// in\n    tag_17:\n      mload(0x40)\n      dup1\n      swap2\n      sub\n      swap1\n      return\n        /* \"contracts/crowdsale-contracts/Crowdsale.sol\":1620:1640  uint256 public _rate */\n    tag_4:\n      callvalue\n      dup1\n      iszero\n      tag_19\n      jumpi\n      0x00\n      dup1\n      revert\n    tag_19:\n      pop\n      tag_20\n      tag_21\n      jump\t// in\n    tag_20:\n      mload(0x40)\n      tag_22\n      swap2\n      swap1\n      tag_23\n      jump\t// in\n    tag_22:\n      mload(0x40)\n      dup1\n      swap2\n      sub\n      swap1\n      return\n        /* \"contracts/crowdsale-contracts/Crowdsale.sol\":1678:1703  uint256 public _weiRaised */\n    tag_5:\n      callvalue\n      dup1\n      iszero\n      tag_24\n      jumpi\n      0x00\n      dup1\n      revert\n    tag_24:\n      pop\n      tag_25\n      tag_26\n      jump\t// in\n    tag_25:\n      mload(0x40)\n      tag_27\n      swap2\n      swap1\n      tag_23\n      jump\t// in\n    tag_27:\n      mload(0x40)\n      dup1\n      swap2\n      sub\n      swap1\n      return\n        /* \"contracts/crowdsale-contracts/Crowdsale.sol\":3541:4163  function buyTokens(address beneficiary) public nonReentrant payable {\r... */\n    tag_6:\n      tag_28\n      0x04\n      dup1\n      calldatasize\n      sub\n      dup2\n      add\n      swap1\n      tag_29\n      swap2\n      swap1\n      tag_30\n      jump\t// in\n    tag_29:\n      tag_13\n      jump\t// in\n    tag_28:\n      stop\n        /* \"contracts/crowdsale-contracts/Crowdsale.sol\":1222:1242  IERC20 public _token */\n    tag_7:\n      callvalue\n      dup1\n      iszero\n      tag_31\n      jumpi\n      0x00\n      dup1\n      revert\n    tag_31:\n      pop\n      tag_32\n      tag_33\n      jump\t// in\n    tag_32:\n      mload(0x40)\n      tag_34\n      swap2\n      swap1\n      tag_35\n      jump\t// in\n    tag_34:\n      mload(0x40)\n      dup1\n      swap2\n      sub\n      swap1\n      return\n        /* \"@openzeppelin/contracts/utils/Context.sol\":640:736  function _msgSender() internal view virtual returns (address) {... */\n    tag_12:\n        /* \"@openzeppelin/contracts/utils/Context.sol\":693:700  address */\n      0x00\n        /* \"@openzeppelin/contracts/utils/Context.sol\":719:729  msg.sender */\n      caller\n        /* \"@openzeppelin/contracts/utils/Context.sol\":712:729  return msg.sender */\n      swap1\n      pop\n        /* \"@openzeppelin/contracts/utils/Context.sol\":640:736  function _msgSender() internal view virtual returns (address) {... */\n      swap1\n      jump\t// out\n        /* \"contracts/crowdsale-contracts/Crowdsale.sol\":3541:4163  function buyTokens(address beneficiary) public nonReentrant payable {\r... */\n    tag_13:\n        /* \"@openzeppelin/contracts/security/ReentrancyGuard.sol\":1744:1745  2 */\n      0x02\n        /* \"@openzeppelin/contracts/security/ReentrancyGuard.sol\":2325:2332  _status */\n      sload(0x00)\n        /* \"@openzeppelin/contracts/security/ReentrancyGuard.sol\":2325:2344  _status != _ENTERED */\n      eq\n      iszero\n        /* \"@openzeppelin/contracts/security/ReentrancyGuard.sol\":2317:2380  require(_status != _ENTERED, \"ReentrancyGuard: reentrant call\") */\n      tag_38\n      jumpi\n      mload(0x40)\n      0x08c379a000000000000000000000000000000000000000000000000000000000\n      dup2\n      mstore\n      0x04\n      add\n      tag_39\n      swap1\n      tag_40\n      jump\t// in\n    tag_39:\n      mload(0x40)\n      dup1\n      swap2\n      sub\n      swap1\n      revert\n    tag_38:\n        /* \"@openzeppelin/contracts/security/ReentrancyGuard.sol\":1744:1745  2 */\n      0x02\n        /* \"@openzeppelin/contracts/security/ReentrancyGuard.sol\":2455:2462  _status */\n      0x00\n        /* \"@openzeppelin/contracts/security/ReentrancyGuard.sol\":2455:2473  _status = _ENTERED */\n      dup2\n      swap1\n      sstore\n      pop\n        /* \"contracts/crowdsale-contracts/Crowdsale.sol\":3620:3637  uint256 weiAmount */\n      0x00\n        /* \"contracts/crowdsale-contracts/Crowdsale.sol\":3640:3649  msg.value */\n      callvalue\n        /* \"contracts/crowdsale-contracts/Crowdsale.sol\":3620:3649  uint256 weiAmount = msg.value */\n      swap1\n      pop\n        /* \"contracts/crowdsale-contracts/Crowdsale.sol\":3660:3704  _preValidatePurchase(beneficiary, weiAmount) */\n      tag_42\n        /* \"contracts/crowdsale-contracts/Crowdsale.sol\":3681:3692  beneficiary */\n      dup3\n        /* \"contracts/crowdsale-contracts/Crowdsale.sol\":3694:3703  weiAmount */\n      dup3\n        /* \"contracts/crowdsale-contracts/Crowdsale.sol\":3660:3680  _preValidatePurchase */\n      tag_43\n        /* \"contracts/crowdsale-contracts/Crowdsale.sol\":3660:3704  _preValidatePurchase(beneficiary, weiAmount) */\n      jump\t// in\n    tag_42:\n        /* \"contracts/crowdsale-contracts/Crowdsale.sol\":3766:3780  uint256 tokens */\n      0x00\n        /* \"contracts/crowdsale-contracts/Crowdsale.sol\":3783:3809  _getTokenAmount(weiAmount) */\n      tag_44\n        /* \"contracts/crowdsale-contracts/Crowdsale.sol\":3799:3808  weiAmount */\n      dup3\n        /* \"contracts/crowdsale-contracts/Crowdsale.sol\":3783:3798  _getTokenAmount */\n      tag_45\n        /* \"contracts/crowdsale-contracts/Crowdsale.sol\":3783:3809  _getTokenAmount(weiAmount) */\n      jump\t// in\n    tag_44:\n        /* \"contracts/crowdsale-contracts/Crowdsale.sol\":3766:3809  uint256 tokens = _getTokenAmount(weiAmount) */\n      swap1\n      pop\n        /* \"contracts/crowdsale-contracts/Crowdsale.sol\":3860:3885  _weiRaised.add(weiAmount) */\n      tag_46\n        /* \"contracts/crowdsale-contracts/Crowdsale.sol\":3875:3884  weiAmount */\n      dup3\n        /* \"contracts/crowdsale-contracts/Crowdsale.sol\":3860:3870  _weiRaised */\n      sload(0x04)\n        /* \"contracts/crowdsale-contracts/Crowdsale.sol\":3860:3874  _weiRaised.add */\n      tag_47\n      swap1\n        /* \"contracts/crowdsale-contracts/Crowdsale.sol\":3860:3885  _weiRaised.add(weiAmount) */\n      swap2\n      swap1\n      0xffffffff\n      and\n      jump\t// in\n    tag_46:\n        /* \"contracts/crowdsale-contracts/Crowdsale.sol\":3847:3857  _weiRaised */\n      0x04\n        /* \"contracts/crowdsale-contracts/Crowdsale.sol\":3847:3885  _weiRaised = _weiRaised.add(weiAmount) */\n      dup2\n      swap1\n      sstore\n      pop\n        /* \"contracts/crowdsale-contracts/Crowdsale.sol\":3898:3935  _processPurchase(beneficiary, tokens) */\n      tag_48\n        /* \"contracts/crowdsale-contracts/Crowdsale.sol\":3915:3926  beneficiary */\n      dup4\n        /* \"contracts/crowdsale-contracts/Crowdsale.sol\":3928:3934  tokens */\n      dup3\n        /* \"contracts/crowdsale-contracts/Crowdsale.sol\":3898:3914  _processPurchase */\n      tag_49\n        /* \"contracts/crowdsale-contracts/Crowdsale.sol\":3898:3935  _processPurchase(beneficiary, tokens) */\n      jump\t// in\n    tag_48:\n        /* \"contracts/crowdsale-contracts/Crowdsale.sol\":3981:3992  beneficiary */\n      dup3\n        /* \"contracts/crowdsale-contracts/Crowdsale.sol\":3951:4012  TokensPurchased(_msgSender(), beneficiary, weiAmount, tokens) */\n      0xffffffffffffffffffffffffffffffffffffffff\n      and\n        /* \"contracts/crowdsale-contracts/Crowdsale.sol\":3967:3979  _msgSender() */\n      tag_50\n        /* \"contracts/crowdsale-contracts/Crowdsale.sol\":3967:3977  _msgSender */\n      tag_12\n        /* \"contracts/crowdsale-contracts/Crowdsale.sol\":3967:3979  _msgSender() */\n      jump\t// in\n    tag_50:\n        /* \"contracts/crowdsale-contracts/Crowdsale.sol\":3951:4012  TokensPurchased(_msgSender(), beneficiary, weiAmount, tokens) */\n      0xffffffffffffffffffffffffffffffffffffffff\n      and\n      0x6faf93231a456e552dbc9961f58d9713ee4f2e69d15f1975b050ef0911053a7b\n        /* \"contracts/crowdsale-contracts/Crowdsale.sol\":3994:4003  weiAmount */\n      dup5\n        /* \"contracts/crowdsale-contracts/Crowdsale.sol\":4005:4011  tokens */\n      dup5\n        /* \"contracts/crowdsale-contracts/Crowdsale.sol\":3951:4012  TokensPurchased(_msgSender(), beneficiary, weiAmount, tokens) */\n      mload(0x40)\n      tag_51\n      swap3\n      swap2\n      swap1\n      tag_52\n      jump\t// in\n    tag_51:\n      mload(0x40)\n      dup1\n      swap2\n      sub\n      swap1\n      log3\n        /* \"contracts/crowdsale-contracts/Crowdsale.sol\":4025:4071  _updatePurchasingState(beneficiary, weiAmount) */\n      tag_53\n        /* \"contracts/crowdsale-contracts/Crowdsale.sol\":4048:4059  beneficiary */\n      dup4\n        /* \"contracts/crowdsale-contracts/Crowdsale.sol\":4061:4070  weiAmount */\n      dup4\n        /* \"contracts/crowdsale-contracts/Crowdsale.sol\":4025:4047  _updatePurchasingState */\n      tag_54\n        /* \"contracts/crowdsale-contracts/Crowdsale.sol\":4025:4071  _updatePurchasingState(beneficiary, weiAmount) */\n      jump\t// in\n    tag_53:\n        /* \"contracts/crowdsale-contracts/Crowdsale.sol\":4084:4099  _forwardFunds() */\n      tag_55\n        /* \"contracts/crowdsale-contracts/Crowdsale.sol\":4084:4097  _forwardFunds */\n      tag_56\n        /* \"contracts/crowdsale-contracts/Crowdsale.sol\":4084:4099  _forwardFunds() */\n      jump\t// in\n    tag_55:\n        /* \"contracts/crowdsale-contracts/Crowdsale.sol\":4110:4155  _postValidatePurchase(beneficiary, weiAmount) */\n      tag_57\n        /* \"contracts/crowdsale-contracts/Crowdsale.sol\":4132:4143  beneficiary */\n      dup4\n        /* \"contracts/crowdsale-contracts/Crowdsale.sol\":4145:4154  weiAmount */\n      dup4\n        /* \"contracts/crowdsale-contracts/Crowdsale.sol\":4110:4131  _postValidatePurchase */\n      tag_58\n        /* \"contracts/crowdsale-contracts/Crowdsale.sol\":4110:4155  _postValidatePurchase(beneficiary, weiAmount) */\n      jump\t// in\n    tag_57:\n        /* \"contracts/crowdsale-contracts/Crowdsale.sol\":3609:4163  {\r... */\n      pop\n      pop\n        /* \"@openzeppelin/contracts/security/ReentrancyGuard.sol\":1701:1702  1 */\n      0x01\n        /* \"@openzeppelin/contracts/security/ReentrancyGuard.sol\":2628:2635  _status */\n      0x00\n        /* \"@openzeppelin/contracts/security/ReentrancyGuard.sol\":2628:2650  _status = _NOT_ENTERED */\n      dup2\n      swap1\n      sstore\n      pop\n        /* \"contracts/crowdsale-contracts/Crowdsale.sol\":3541:4163  function buyTokens(address beneficiary) public nonReentrant payable {\r... */\n      pop\n      jump\t// out\n        /* \"contracts/crowdsale-contracts/Crowdsale.sol\":1293:1323  address payable public _wallet */\n    tag_16:\n      0x02\n      0x00\n      swap1\n      sload\n      swap1\n      0x0100\n      exp\n      swap1\n      div\n      0xffffffffffffffffffffffffffffffffffffffff\n      and\n      dup2\n      jump\t// out\n        /* \"contracts/crowdsale-contracts/Crowdsale.sol\":1620:1640  uint256 public _rate */\n    tag_21:\n      sload(0x03)\n      dup2\n      jump\t// out\n        /* \"contracts/crowdsale-contracts/Crowdsale.sol\":1678:1703  uint256 public _weiRaised */\n    tag_26:\n      sload(0x04)\n      dup2\n      jump\t// out\n        /* \"contracts/crowdsale-contracts/Crowdsale.sol\":1222:1242  IERC20 public _token */\n    tag_33:\n      0x01\n      0x00\n      swap1\n      sload\n      swap1\n      0x0100\n      exp\n      swap1\n      div\n      0xffffffffffffffffffffffffffffffffffffffff\n      and\n      dup2\n      jump\t// out\n        /* \"contracts/crowdsale-contracts/Crowdsale.sol\":4716:5104  function _preValidatePurchase(address beneficiary, uint256 weiAmount) internal virtual view {\r... */\n    tag_43:\n        /* \"contracts/crowdsale-contracts/Crowdsale.sol\":4850:4851  0 */\n      0x00\n        /* \"contracts/crowdsale-contracts/Crowdsale.sol\":4827:4852  beneficiary != address(0) */\n      0xffffffffffffffffffffffffffffffffffffffff\n      and\n        /* \"contracts/crowdsale-contracts/Crowdsale.sol\":4827:4838  beneficiary */\n      dup3\n        /* \"contracts/crowdsale-contracts/Crowdsale.sol\":4827:4852  beneficiary != address(0) */\n      0xffffffffffffffffffffffffffffffffffffffff\n      and\n      eq\n      iszero\n        /* \"contracts/crowdsale-contracts/Crowdsale.sol\":4819:4899  require(beneficiary != address(0), \"Crowdsale: beneficiary is the zero address\") */\n      tag_60\n      jumpi\n      mload(0x40)\n      0x08c379a000000000000000000000000000000000000000000000000000000000\n      dup2\n      mstore\n      0x04\n      add\n      tag_61\n      swap1\n      tag_62\n      jump\t// in\n    tag_61:\n      mload(0x40)\n      dup1\n      swap2\n      sub\n      swap1\n      revert\n    tag_60:\n        /* \"contracts/crowdsale-contracts/Crowdsale.sol\":4931:4932  0 */\n      0x00\n        /* \"contracts/crowdsale-contracts/Crowdsale.sol\":4918:4927  weiAmount */\n      dup2\n        /* \"contracts/crowdsale-contracts/Crowdsale.sol\":4918:4932  weiAmount != 0 */\n      eq\n      iszero\n        /* \"contracts/crowdsale-contracts/Crowdsale.sol\":4910:4962  require(weiAmount != 0, \"Crowdsale: weiAmount is 0\") */\n      tag_63\n      jumpi\n      mload(0x40)\n      0x08c379a000000000000000000000000000000000000000000000000000000000\n      dup2\n      mstore\n      0x04\n      add\n      tag_64\n      swap1\n      tag_65\n      jump\t// in\n    tag_64:\n      mload(0x40)\n      dup1\n      swap2\n      sub\n      swap1\n      revert\n    tag_63:\n        /* \"contracts/crowdsale-contracts/Crowdsale.sol\":4716:5104  function _preValidatePurchase(address beneficiary, uint256 weiAmount) internal virtual view {\r... */\n      pop\n      pop\n      jump\t// out\n        /* \"contracts/crowdsale-contracts/Crowdsale.sol\":7099:7221  function _getTokenAmount(uint256 weiAmount) internal view returns (uint256) {\r... */\n    tag_45:\n        /* \"contracts/crowdsale-contracts/Crowdsale.sol\":7166:7173  uint256 */\n      0x00\n        /* \"contracts/crowdsale-contracts/Crowdsale.sol\":7193:7213  weiAmount.mul(_rate) */\n      tag_67\n        /* \"contracts/crowdsale-contracts/Crowdsale.sol\":7207:7212  _rate */\n      sload(0x03)\n        /* \"contracts/crowdsale-contracts/Crowdsale.sol\":7193:7202  weiAmount */\n      dup4\n        /* \"contracts/crowdsale-contracts/Crowdsale.sol\":7193:7206  weiAmount.mul */\n      tag_68\n      swap1\n        /* \"contracts/crowdsale-contracts/Crowdsale.sol\":7193:7213  weiAmount.mul(_rate) */\n      swap2\n      swap1\n      0xffffffff\n      and\n      jump\t// in\n    tag_67:\n        /* \"contracts/crowdsale-contracts/Crowdsale.sol\":7186:7213  return weiAmount.mul(_rate) */\n      swap1\n      pop\n        /* \"contracts/crowdsale-contracts/Crowdsale.sol\":7099:7221  function _getTokenAmount(uint256 weiAmount) internal view returns (uint256) {\r... */\n      swap2\n      swap1\n      pop\n      jump\t// out\n        /* \"@openzeppelin/contracts/utils/math/SafeMath.sol\":2755:2851  function add(uint256 a, uint256 b) internal pure returns (uint256) {... */\n    tag_47:\n        /* \"@openzeppelin/contracts/utils/math/SafeMath.sol\":2813:2820  uint256 */\n      0x00\n        /* \"@openzeppelin/contracts/utils/math/SafeMath.sol\":2843:2844  b */\n      dup2\n        /* \"@openzeppelin/contracts/utils/math/SafeMath.sol\":2839:2840  a */\n      dup4\n        /* \"@openzeppelin/contracts/utils/math/SafeMath.sol\":2839:2844  a + b */\n      tag_70\n      swap2\n      swap1\n      tag_71\n      jump\t// in\n    tag_70:\n        /* \"@openzeppelin/contracts/utils/math/SafeMath.sol\":2832:2844  return a + b */\n      swap1\n      pop\n        /* \"@openzeppelin/contracts/utils/math/SafeMath.sol\":2755:2851  function add(uint256 a, uint256 b) internal pure returns (uint256) {... */\n      swap3\n      swap2\n      pop\n      pop\n      jump\t// out\n        /* \"contracts/crowdsale-contracts/Crowdsale.sol\":6282:6418  function _processPurchase(address beneficiary, uint256 tokenAmount) internal {\r... */\n    tag_49:\n        /* \"contracts/crowdsale-contracts/Crowdsale.sol\":6370:6410  _deliverTokens(beneficiary, tokenAmount) */\n      tag_73\n        /* \"contracts/crowdsale-contracts/Crowdsale.sol\":6385:6396  beneficiary */\n      dup3\n        /* \"contracts/crowdsale-contracts/Crowdsale.sol\":6398:6409  tokenAmount */\n      dup3\n        /* \"contracts/crowdsale-contracts/Crowdsale.sol\":6370:6384  _deliverTokens */\n      tag_74\n        /* \"contracts/crowdsale-contracts/Crowdsale.sol\":6370:6410  _deliverTokens(beneficiary, tokenAmount) */\n      jump\t// in\n    tag_73:\n        /* \"contracts/crowdsale-contracts/Crowdsale.sol\":6282:6418  function _processPurchase(address beneficiary, uint256 tokenAmount) internal {\r... */\n      pop\n      pop\n      jump\t// out\n        /* \"contracts/crowdsale-contracts/Crowdsale.sol\":6696:6843  function _updatePurchasingState(address beneficiary, uint256 weiAmount) internal {\r... */\n    tag_54:\n      pop\n      pop\n      jump\t// out\n        /* \"contracts/crowdsale-contracts/Crowdsale.sol\":7313:7393  function _forwardFunds() internal {\r... */\n    tag_56:\n        /* \"contracts/crowdsale-contracts/Crowdsale.sol\":7358:7365  _wallet */\n      0x02\n      0x00\n      swap1\n      sload\n      swap1\n      0x0100\n      exp\n      swap1\n      div\n      0xffffffffffffffffffffffffffffffffffffffff\n      and\n        /* \"contracts/crowdsale-contracts/Crowdsale.sol\":7358:7374  _wallet.transfer */\n      0xffffffffffffffffffffffffffffffffffffffff\n      and\n        /* \"contracts/crowdsale-contracts/Crowdsale.sol\":7358:7385  _wallet.transfer(msg.value) */\n      0x08fc\n        /* \"contracts/crowdsale-contracts/Crowdsale.sol\":7375:7384  msg.value */\n      callvalue\n        /* \"contracts/crowdsale-contracts/Crowdsale.sol\":7358:7385  _wallet.transfer(msg.value) */\n      swap1\n      dup2\n      iszero\n      mul\n      swap1\n      mload(0x40)\n      0x00\n      mload(0x40)\n      dup1\n      dup4\n      sub\n      dup2\n      dup6\n      dup9\n      dup9\n      call\n      swap4\n      pop\n      pop\n      pop\n      pop\n      iszero\n      dup1\n      iszero\n      tag_78\n      jumpi\n      returndatasize\n      0x00\n      dup1\n      returndatacopy\n      revert(0x00, returndatasize)\n    tag_78:\n      pop\n        /* \"contracts/crowdsale-contracts/Crowdsale.sol\":7313:7393  function _forwardFunds() internal {\r... */\n      jump\t// out\n        /* \"contracts/crowdsale-contracts/Crowdsale.sol\":5407:5573  function _postValidatePurchase(address beneficiary, uint256 weiAmount) internal view {\r... */\n    tag_58:\n      pop\n      pop\n      jump\t// out\n        /* \"@openzeppelin/contracts/utils/math/SafeMath.sol\":3465:3561  function mul(uint256 a, uint256 b) internal pure returns (uint256) {... */\n    tag_68:\n        /* \"@openzeppelin/contracts/utils/math/SafeMath.sol\":3523:3530  uint256 */\n      0x00\n        /* \"@openzeppelin/contracts/utils/math/SafeMath.sol\":3553:3554  b */\n      dup2\n        /* \"@openzeppelin/contracts/utils/math/SafeMath.sol\":3549:3550  a */\n      dup4\n        /* \"@openzeppelin/contracts/utils/math/SafeMath.sol\":3549:3554  a * b */\n      tag_81\n      swap2\n      swap1\n      tag_82\n      jump\t// in\n    tag_81:\n        /* \"@openzeppelin/contracts/utils/math/SafeMath.sol\":3542:3554  return a * b */\n      swap1\n      pop\n        /* \"@openzeppelin/contracts/utils/math/SafeMath.sol\":3465:3561  function mul(uint256 a, uint256 b) internal pure returns (uint256) {... */\n      swap3\n      swap2\n      pop\n      pop\n      jump\t// out\n        /* \"contracts/crowdsale-contracts/Crowdsale.sol\":5861:6008  function _deliverTokens(address beneficiary, uint256 tokenAmount) internal virtual {\r... */\n    tag_74:\n        /* \"contracts/crowdsale-contracts/Crowdsale.sol\":5955:6000  _token.safeTransfer(beneficiary, tokenAmount) */\n      tag_84\n        /* \"contracts/crowdsale-contracts/Crowdsale.sol\":5975:5986  beneficiary */\n      dup3\n        /* \"contracts/crowdsale-contracts/Crowdsale.sol\":5988:5999  tokenAmount */\n      dup3\n        /* \"contracts/crowdsale-contracts/Crowdsale.sol\":5955:5961  _token */\n      0x01\n      0x00\n      swap1\n      sload\n      swap1\n      0x0100\n      exp\n      swap1\n      div\n      0xffffffffffffffffffffffffffffffffffffffff\n      and\n        /* \"contracts/crowdsale-contracts/Crowdsale.sol\":5955:5974  _token.safeTransfer */\n      0xffffffffffffffffffffffffffffffffffffffff\n      and\n      tag_85\n      swap1\n        /* \"contracts/crowdsale-contracts/Crowdsale.sol\":5955:6000  _token.safeTransfer(beneficiary, tokenAmount) */\n      swap3\n      swap2\n      swap1\n      0xffffffff\n      and\n      jump\t// in\n    tag_84:\n        /* \"contracts/crowdsale-contracts/Crowdsale.sol\":5861:6008  function _deliverTokens(address beneficiary, uint256 tokenAmount) internal virtual {\r... */\n      pop\n      pop\n      jump\t// out\n        /* \"@openzeppelin/contracts/token/ERC20/utils/SafeERC20.sol\":701:906  function safeTransfer(... */\n    tag_85:\n        /* \"@openzeppelin/contracts/token/ERC20/utils/SafeERC20.sol\":813:899  _callOptionalReturn(token, abi.encodeWithSelector(token.transfer.selector, to, value)) */\n      tag_87\n        /* \"@openzeppelin/contracts/token/ERC20/utils/SafeERC20.sol\":833:838  token */\n      dup4\n        /* \"@openzeppelin/contracts/token/ERC20/utils/SafeERC20.sol\":863:886  token.transfer.selector */\n      shl(0xe0, 0xa9059cbb)\n        /* \"@openzeppelin/contracts/token/ERC20/utils/SafeERC20.sol\":888:890  to */\n      dup5\n        /* \"@openzeppelin/contracts/token/ERC20/utils/SafeERC20.sol\":892:897  value */\n      dup5\n        /* \"@openzeppelin/contracts/token/ERC20/utils/SafeERC20.sol\":840:898  abi.encodeWithSelector(token.transfer.selector, to, value) */\n      add(0x24, mload(0x40))\n      tag_88\n      swap3\n      swap2\n      swap1\n      tag_89\n      jump\t// in\n    tag_88:\n      mload(0x40)\n      0x20\n      dup2\n      dup4\n      sub\n      sub\n      dup2\n      mstore\n      swap1\n      0x40\n      mstore\n      swap1\n      not(0xffffffffffffffffffffffffffffffffffffffffffffffffffffffff)\n      and\n      0x20\n      dup3\n      add\n      dup1\n      mload\n      0xffffffffffffffffffffffffffffffffffffffffffffffffffffffff\n      dup4\n      dup2\n      dup4\n      and\n      or\n      dup4\n      mstore\n      pop\n      pop\n      pop\n      pop\n        /* \"@openzeppelin/contracts/token/ERC20/utils/SafeERC20.sol\":813:832  _callOptionalReturn */\n      tag_90\n        /* \"@openzeppelin/contracts/token/ERC20/utils/SafeERC20.sol\":813:899  _callOptionalReturn(token, abi.encodeWithSelector(token.transfer.selector, to, value)) */\n      jump\t// in\n    tag_87:\n        /* \"@openzeppelin/contracts/token/ERC20/utils/SafeERC20.sol\":701:906  function safeTransfer(... */\n      pop\n      pop\n      pop\n      jump\t// out\n        /* \"@openzeppelin/contracts/token/ERC20/utils/SafeERC20.sol\":3207:3913  function _callOptionalReturn(IERC20 token, bytes memory data) private {... */\n    tag_90:\n        /* \"@openzeppelin/contracts/token/ERC20/utils/SafeERC20.sol\":3626:3649  bytes memory returndata */\n      0x00\n        /* \"@openzeppelin/contracts/token/ERC20/utils/SafeERC20.sol\":3652:3721  address(token).functionCall(data, \"SafeERC20: low-level call failed\") */\n      tag_92\n        /* \"@openzeppelin/contracts/token/ERC20/utils/SafeERC20.sol\":3680:3684  data */\n      dup3\n        /* \"@openzeppelin/contracts/token/ERC20/utils/SafeERC20.sol\":3652:3721  address(token).functionCall(data, \"SafeERC20: low-level call failed\") */\n      mload(0x40)\n      dup1\n      0x40\n      add\n      0x40\n      mstore\n      dup1\n      0x20\n      dup2\n      mstore\n      0x20\n      add\n      0x5361666545524332303a206c6f772d6c6576656c2063616c6c206661696c6564\n      dup2\n      mstore\n      pop\n        /* \"@openzeppelin/contracts/token/ERC20/utils/SafeERC20.sol\":3660:3665  token */\n      dup6\n        /* \"@openzeppelin/contracts/token/ERC20/utils/SafeERC20.sol\":3652:3679  address(token).functionCall */\n      0xffffffffffffffffffffffffffffffffffffffff\n      and\n      tag_93\n      swap1\n        /* \"@openzeppelin/contracts/token/ERC20/utils/SafeERC20.sol\":3652:3721  address(token).functionCall(data, \"SafeERC20: low-level call failed\") */\n      swap3\n      swap2\n      swap1\n      0xffffffff\n      and\n      jump\t// in\n    tag_92:\n        /* \"@openzeppelin/contracts/token/ERC20/utils/SafeERC20.sol\":3626:3721  bytes memory returndata = address(token).functionCall(data, \"SafeERC20: low-level call failed\") */\n      swap1\n      pop\n        /* \"@openzeppelin/contracts/token/ERC20/utils/SafeERC20.sol\":3755:3756  0 */\n      0x00\n        /* \"@openzeppelin/contracts/token/ERC20/utils/SafeERC20.sol\":3735:3745  returndata */\n      dup2\n        /* \"@openzeppelin/contracts/token/ERC20/utils/SafeERC20.sol\":3735:3752  returndata.length */\n      mload\n        /* \"@openzeppelin/contracts/token/ERC20/utils/SafeERC20.sol\":3735:3756  returndata.length > 0 */\n      gt\n        /* \"@openzeppelin/contracts/token/ERC20/utils/SafeERC20.sol\":3731:3907  if (returndata.length > 0) {... */\n      iszero\n      tag_94\n      jumpi\n        /* \"@openzeppelin/contracts/token/ERC20/utils/SafeERC20.sol\":3830:3840  returndata */\n      dup1\n        /* \"@openzeppelin/contracts/token/ERC20/utils/SafeERC20.sol\":3819:3849  abi.decode(returndata, (bool)) */\n      dup1\n      0x20\n      add\n      swap1\n      mload\n      dup2\n      add\n      swap1\n      tag_95\n      swap2\n      swap1\n      tag_96\n      jump\t// in\n    tag_95:\n        /* \"@openzeppelin/contracts/token/ERC20/utils/SafeERC20.sol\":3811:3896  require(abi.decode(returndata, (bool)), \"SafeERC20: ERC20 operation did not succeed\") */\n      tag_97\n      jumpi\n      mload(0x40)\n      0x08c379a000000000000000000000000000000000000000000000000000000000\n      dup2\n      mstore\n      0x04\n      add\n      tag_98\n      swap1\n      tag_99\n      jump\t// in\n    tag_98:\n      mload(0x40)\n      dup1\n      swap2\n      sub\n      swap1\n      revert\n    tag_97:\n        /* \"@openzeppelin/contracts/token/ERC20/utils/SafeERC20.sol\":3731:3907  if (returndata.length > 0) {... */\n    tag_94:\n        /* \"@openzeppelin/contracts/token/ERC20/utils/SafeERC20.sol\":3277:3913  {... */\n      pop\n        /* \"@openzeppelin/contracts/token/ERC20/utils/SafeERC20.sol\":3207:3913  function _callOptionalReturn(IERC20 token, bytes memory data) private {... */\n      pop\n      pop\n      jump\t// out\n        /* \"@openzeppelin/contracts/utils/Address.sol\":3861:4084  function functionCall(... */\n    tag_93:\n        /* \"@openzeppelin/contracts/utils/Address.sol\":3994:4006  bytes memory */\n      0x60\n        /* \"@openzeppelin/contracts/utils/Address.sol\":4025:4077  functionCallWithValue(target, data, 0, errorMessage) */\n      tag_101\n        /* \"@openzeppelin/contracts/utils/Address.sol\":4047:4053  target */\n      dup5\n        /* \"@openzeppelin/contracts/utils/Address.sol\":4055:4059  data */\n      dup5\n        /* \"@openzeppelin/contracts/utils/Address.sol\":4061:4062  0 */\n      0x00\n        /* \"@openzeppelin/contracts/utils/Address.sol\":4064:4076  errorMessage */\n      dup6\n        /* \"@openzeppelin/contracts/utils/Address.sol\":4025:4046  functionCallWithValue */\n      tag_102\n        /* \"@openzeppelin/contracts/utils/Address.sol\":4025:4077  functionCallWithValue(target, data, 0, errorMessage) */\n      jump\t// in\n    tag_101:\n        /* \"@openzeppelin/contracts/utils/Address.sol\":4018:4077  return functionCallWithValue(target, data, 0, errorMessage) */\n      swap1\n      pop\n        /* \"@openzeppelin/contracts/utils/Address.sol\":3861:4084  function functionCall(... */\n      swap4\n      swap3\n      pop\n      pop\n      pop\n      jump\t// out\n        /* \"@openzeppelin/contracts/utils/Address.sol\":4948:5447  function functionCallWithValue(... */\n    tag_102:\n        /* \"@openzeppelin/contracts/utils/Address.sol\":5113:5125  bytes memory */\n      0x60\n        /* \"@openzeppelin/contracts/utils/Address.sol\":5170:5175  value */\n      dup3\n        /* \"@openzeppelin/contracts/utils/Address.sol\":5145:5166  address(this).balance */\n      selfbalance\n        /* \"@openzeppelin/contracts/utils/Address.sol\":5145:5175  address(this).balance >= value */\n      lt\n      iszero\n        /* \"@openzeppelin/contracts/utils/Address.sol\":5137:5218  require(address(this).balance >= value, \"Address: insufficient balance for call\") */\n      tag_104\n      jumpi\n      mload(0x40)\n      0x08c379a000000000000000000000000000000000000000000000000000000000\n      dup2\n      mstore\n      0x04\n      add\n      tag_105\n      swap1\n      tag_106\n      jump\t// in\n    tag_105:\n      mload(0x40)\n      dup1\n      swap2\n      sub\n      swap1\n      revert\n    tag_104:\n        /* \"@openzeppelin/contracts/utils/Address.sol\":5236:5254  isContract(target) */\n      tag_107\n        /* \"@openzeppelin/contracts/utils/Address.sol\":5247:5253  target */\n      dup6\n        /* \"@openzeppelin/contracts/utils/Address.sol\":5236:5246  isContract */\n      tag_108\n        /* \"@openzeppelin/contracts/utils/Address.sol\":5236:5254  isContract(target) */\n      jump\t// in\n    tag_107:\n        /* \"@openzeppelin/contracts/utils/Address.sol\":5228:5288  require(isContract(target), \"Address: call to non-contract\") */\n      tag_109\n      jumpi\n      mload(0x40)\n      0x08c379a000000000000000000000000000000000000000000000000000000000\n      dup2\n      mstore\n      0x04\n      add\n      tag_110\n      swap1\n      tag_111\n      jump\t// in\n    tag_110:\n      mload(0x40)\n      dup1\n      swap2\n      sub\n      swap1\n      revert\n    tag_109:\n        /* \"@openzeppelin/contracts/utils/Address.sol\":5300:5312  bool success */\n      0x00\n        /* \"@openzeppelin/contracts/utils/Address.sol\":5314:5337  bytes memory returndata */\n      dup1\n        /* \"@openzeppelin/contracts/utils/Address.sol\":5341:5347  target */\n      dup7\n        /* \"@openzeppelin/contracts/utils/Address.sol\":5341:5352  target.call */\n      0xffffffffffffffffffffffffffffffffffffffff\n      and\n        /* \"@openzeppelin/contracts/utils/Address.sol\":5360:5365  value */\n      dup6\n        /* \"@openzeppelin/contracts/utils/Address.sol\":5367:5371  data */\n      dup8\n        /* \"@openzeppelin/contracts/utils/Address.sol\":5341:5372  target.call{value: value}(data) */\n      mload(0x40)\n      tag_112\n      swap2\n      swap1\n      tag_113\n      jump\t// in\n    tag_112:\n      0x00\n      mload(0x40)\n      dup1\n      dup4\n      sub\n      dup2\n      dup6\n      dup8\n      gas\n      call\n      swap3\n      pop\n      pop\n      pop\n      returndatasize\n      dup1\n      0x00\n      dup2\n      eq\n      tag_116\n      jumpi\n      mload(0x40)\n      swap2\n      pop\n      and(add(returndatasize, 0x3f), not(0x1f))\n      dup3\n      add\n      0x40\n      mstore\n      returndatasize\n      dup3\n      mstore\n      returndatasize\n      0x00\n      0x20\n      dup5\n      add\n      returndatacopy\n      jump(tag_115)\n    tag_116:\n      0x60\n      swap2\n      pop\n    tag_115:\n      pop\n        /* \"@openzeppelin/contracts/utils/Address.sol\":5299:5372  (bool success, bytes memory returndata) = target.call{value: value}(data) */\n      swap2\n      pop\n      swap2\n      pop\n        /* \"@openzeppelin/contracts/utils/Address.sol\":5389:5440  verifyCallResult(success, returndata, errorMessage) */\n      tag_117\n        /* \"@openzeppelin/contracts/utils/Address.sol\":5406:5413  success */\n      dup3\n        /* \"@openzeppelin/contracts/utils/Address.sol\":5415:5425  returndata */\n      dup3\n        /* \"@openzeppelin/contracts/utils/Address.sol\":5427:5439  errorMessage */\n      dup7\n        /* \"@openzeppelin/contracts/utils/Address.sol\":5389:5405  verifyCallResult */\n      tag_118\n        /* \"@openzeppelin/contracts/utils/Address.sol\":5389:5440  verifyCallResult(success, returndata, errorMessage) */\n      jump\t// in\n    tag_117:\n        /* \"@openzeppelin/contracts/utils/Address.sol\":5382:5440  return verifyCallResult(success, returndata, errorMessage) */\n      swap3\n      pop\n      pop\n      pop\n        /* \"@openzeppelin/contracts/utils/Address.sol\":4948:5447  function functionCallWithValue(... */\n      swap5\n      swap4\n      pop\n      pop\n      pop\n      pop\n      jump\t// out\n        /* \"@openzeppelin/contracts/utils/Address.sol\":1175:1495  function isContract(address account) internal view returns (bool) {... */\n    tag_108:\n        /* \"@openzeppelin/contracts/utils/Address.sol\":1235:1239  bool */\n      0x00\n        /* \"@openzeppelin/contracts/utils/Address.sol\":1487:1488  0 */\n      dup1\n        /* \"@openzeppelin/contracts/utils/Address.sol\":1465:1472  account */\n      dup3\n        /* \"@openzeppelin/contracts/utils/Address.sol\":1465:1484  account.code.length */\n      0xffffffffffffffffffffffffffffffffffffffff\n      and\n      extcodesize\n        /* \"@openzeppelin/contracts/utils/Address.sol\":1465:1488  account.code.length > 0 */\n      gt\n        /* \"@openzeppelin/contracts/utils/Address.sol\":1458:1488  return account.code.length > 0 */\n      swap1\n      pop\n        /* \"@openzeppelin/contracts/utils/Address.sol\":1175:1495  function isContract(address account) internal view returns (bool) {... */\n      swap2\n      swap1\n      pop\n      jump\t// out\n        /* \"@openzeppelin/contracts/utils/Address.sol\":7561:8253  function verifyCallResult(... */\n    tag_118:\n        /* \"@openzeppelin/contracts/utils/Address.sol\":7707:7719  bytes memory */\n      0x60\n        /* \"@openzeppelin/contracts/utils/Address.sol\":7735:7742  success */\n      dup4\n        /* \"@openzeppelin/contracts/utils/Address.sol\":7731:8247  if (success) {... */\n      iszero\n      tag_121\n      jumpi\n        /* \"@openzeppelin/contracts/utils/Address.sol\":7765:7775  returndata */\n      dup3\n        /* \"@openzeppelin/contracts/utils/Address.sol\":7758:7775  return returndata */\n      swap1\n      pop\n      jump(tag_120)\n        /* \"@openzeppelin/contracts/utils/Address.sol\":7731:8247  if (success) {... */\n    tag_121:\n        /* \"@openzeppelin/contracts/utils/Address.sol\":7896:7897  0 */\n      0x00\n        /* \"@openzeppelin/contracts/utils/Address.sol\":7876:7886  returndata */\n      dup4\n        /* \"@openzeppelin/contracts/utils/Address.sol\":7876:7893  returndata.length */\n      mload\n        /* \"@openzeppelin/contracts/utils/Address.sol\":7876:7897  returndata.length > 0 */\n      gt\n        /* \"@openzeppelin/contracts/utils/Address.sol\":7872:8237  if (returndata.length > 0) {... */\n      iszero\n      tag_123\n      jumpi\n        /* \"@openzeppelin/contracts/utils/Address.sol\":8070:8080  returndata */\n      dup3\n        /* \"@openzeppelin/contracts/utils/Address.sol\":8064:8081  mload(returndata) */\n      mload\n        /* \"@openzeppelin/contracts/utils/Address.sol\":8130:8145  returndata_size */\n      dup1\n        /* \"@openzeppelin/contracts/utils/Address.sol\":8117:8127  returndata */\n      dup5\n        /* \"@openzeppelin/contracts/utils/Address.sol\":8113:8115  32 */\n      0x20\n        /* \"@openzeppelin/contracts/utils/Address.sol\":8109:8128  add(32, returndata) */\n      add\n        /* \"@openzeppelin/contracts/utils/Address.sol\":8102:8146  revert(add(32, returndata), returndata_size) */\n      revert\n        /* \"@openzeppelin/contracts/utils/Address.sol\":7872:8237  if (returndata.length > 0) {... */\n    tag_123:\n        /* \"@openzeppelin/contracts/utils/Address.sol\":8209:8221  errorMessage */\n      dup2\n        /* \"@openzeppelin/contracts/utils/Address.sol\":8202:8222  revert(errorMessage) */\n      mload(0x40)\n      0x08c379a000000000000000000000000000000000000000000000000000000000\n      dup2\n      mstore\n      0x04\n      add\n      tag_125\n      swap2\n      swap1\n      tag_126\n      jump\t// in\n    tag_125:\n      mload(0x40)\n      dup1\n      swap2\n      sub\n      swap1\n      revert\n        /* \"@openzeppelin/contracts/utils/Address.sol\":7561:8253  function verifyCallResult(... */\n    tag_120:\n      swap4\n      swap3\n      pop\n      pop\n      pop\n      jump\t// out\n        /* \"#utility.yul\":7:146   */\n    tag_128:\n        /* \"#utility.yul\":53:58   */\n      0x00\n        /* \"#utility.yul\":91:97   */\n      dup2\n        /* \"#utility.yul\":78:98   */\n      calldataload\n        /* \"#utility.yul\":69:98   */\n      swap1\n      pop\n        /* \"#utility.yul\":107:140   */\n      tag_130\n        /* \"#utility.yul\":134:139   */\n      dup2\n        /* \"#utility.yul\":107:140   */\n      tag_131\n      jump\t// in\n    tag_130:\n        /* \"#utility.yul\":7:146   */\n      swap3\n      swap2\n      pop\n      pop\n      jump\t// out\n        /* \"#utility.yul\":152:289   */\n    tag_132:\n        /* \"#utility.yul\":206:211   */\n      0x00\n        /* \"#utility.yul\":237:243   */\n      dup2\n        /* \"#utility.yul\":231:244   */\n      mload\n        /* \"#utility.yul\":222:244   */\n      swap1\n      pop\n        /* \"#utility.yul\":253:283   */\n      tag_134\n        /* \"#utility.yul\":277:282   */\n      dup2\n        /* \"#utility.yul\":253:283   */\n      tag_135\n      jump\t// in\n    tag_134:\n        /* \"#utility.yul\":152:289   */\n      swap3\n      swap2\n      pop\n      pop\n      jump\t// out\n        /* \"#utility.yul\":295:624   */\n    tag_30:\n        /* \"#utility.yul\":354:360   */\n      0x00\n        /* \"#utility.yul\":403:405   */\n      0x20\n        /* \"#utility.yul\":391:400   */\n      dup3\n        /* \"#utility.yul\":382:389   */\n      dup5\n        /* \"#utility.yul\":378:401   */\n      sub\n        /* \"#utility.yul\":374:406   */\n      slt\n        /* \"#utility.yul\":371:490   */\n      iszero\n      tag_137\n      jumpi\n        /* \"#utility.yul\":409:488   */\n      tag_138\n      tag_139\n      jump\t// in\n    tag_138:\n        /* \"#utility.yul\":371:490   */\n    tag_137:\n        /* \"#utility.yul\":529:530   */\n      0x00\n        /* \"#utility.yul\":554:607   */\n      tag_140\n        /* \"#utility.yul\":599:606   */\n      dup5\n        /* \"#utility.yul\":590:596   */\n      dup3\n        /* \"#utility.yul\":579:588   */\n      dup6\n        /* \"#utility.yul\":575:597   */\n      add\n        /* \"#utility.yul\":554:607   */\n      tag_128\n      jump\t// in\n    tag_140:\n        /* \"#utility.yul\":544:607   */\n      swap2\n      pop\n        /* \"#utility.yul\":500:617   */\n      pop\n        /* \"#utility.yul\":295:624   */\n      swap3\n      swap2\n      pop\n      pop\n      jump\t// out\n        /* \"#utility.yul\":630:975   */\n    tag_96:\n        /* \"#utility.yul\":697:703   */\n      0x00\n        /* \"#utility.yul\":746:748   */\n      0x20\n        /* \"#utility.yul\":734:743   */\n      dup3\n        /* \"#utility.yul\":725:732   */\n      dup5\n        /* \"#utility.yul\":721:744   */\n      sub\n        /* \"#utility.yul\":717:749   */\n      slt\n        /* \"#utility.yul\":714:833   */\n      iszero\n      tag_142\n      jumpi\n        /* \"#utility.yul\":752:831   */\n      tag_143\n      tag_139\n      jump\t// in\n    tag_143:\n        /* \"#utility.yul\":714:833   */\n    tag_142:\n        /* \"#utility.yul\":872:873   */\n      0x00\n        /* \"#utility.yul\":897:958   */\n      tag_144\n        /* \"#utility.yul\":950:957   */\n      dup5\n        /* \"#utility.yul\":941:947   */\n      dup3\n        /* \"#utility.yul\":930:939   */\n      dup6\n        /* \"#utility.yul\":926:948   */\n      add\n        /* \"#utility.yul\":897:958   */\n      tag_132\n      jump\t// in\n    tag_144:\n        /* \"#utility.yul\":887:958   */\n      swap2\n      pop\n        /* \"#utility.yul\":843:968   */\n      pop\n        /* \"#utility.yul\":630:975   */\n      swap3\n      swap2\n      pop\n      pop\n      jump\t// out\n        /* \"#utility.yul\":981:1123   */\n    tag_145:\n        /* \"#utility.yul\":1084:1116   */\n      tag_147\n        /* \"#utility.yul\":1110:1115   */\n      dup2\n        /* \"#utility.yul\":1084:1116   */\n      tag_148\n      jump\t// in\n    tag_147:\n        /* \"#utility.yul\":1079:1082   */\n      dup3\n        /* \"#utility.yul\":1072:1117   */\n      mstore\n        /* \"#utility.yul\":981:1123   */\n      pop\n      pop\n      jump\t// out\n        /* \"#utility.yul\":1129:1247   */\n    tag_149:\n        /* \"#utility.yul\":1216:1240   */\n      tag_151\n        /* \"#utility.yul\":1234:1239   */\n      dup2\n        /* \"#utility.yul\":1216:1240   */\n      tag_152\n      jump\t// in\n    tag_151:\n        /* \"#utility.yul\":1211:1214   */\n      dup3\n        /* \"#utility.yul\":1204:1241   */\n      mstore\n        /* \"#utility.yul\":1129:1247   */\n      pop\n      pop\n      jump\t// out\n        /* \"#utility.yul\":1253:1626   */\n    tag_153:\n        /* \"#utility.yul\":1357:1360   */\n      0x00\n        /* \"#utility.yul\":1385:1423   */\n      tag_155\n        /* \"#utility.yul\":1417:1422   */\n      dup3\n        /* \"#utility.yul\":1385:1423   */\n      tag_156\n      jump\t// in\n    tag_155:\n        /* \"#utility.yul\":1439:1527   */\n      tag_157\n        /* \"#utility.yul\":1520:1526   */\n      dup2\n        /* \"#utility.yul\":1515:1518   */\n      dup6\n        /* \"#utility.yul\":1439:1527   */\n      tag_158\n      jump\t// in\n    tag_157:\n        /* \"#utility.yul\":1432:1527   */\n      swap4\n      pop\n        /* \"#utility.yul\":1536:1588   */\n      tag_159\n        /* \"#utility.yul\":1581:1587   */\n      dup2\n        /* \"#utility.yul\":1576:1579   */\n      dup6\n        /* \"#utility.yul\":1569:1573   */\n      0x20\n        /* \"#utility.yul\":1562:1567   */\n      dup7\n        /* \"#utility.yul\":1558:1574   */\n      add\n        /* \"#utility.yul\":1536:1588   */\n      tag_160\n      jump\t// in\n    tag_159:\n        /* \"#utility.yul\":1613:1619   */\n      dup1\n        /* \"#utility.yul\":1608:1611   */\n      dup5\n        /* \"#utility.yul\":1604:1620   */\n      add\n        /* \"#utility.yul\":1597:1620   */\n      swap2\n      pop\n        /* \"#utility.yul\":1361:1626   */\n      pop\n        /* \"#utility.yul\":1253:1626   */\n      swap3\n      swap2\n      pop\n      pop\n      jump\t// out\n        /* \"#utility.yul\":1632:1791   */\n    tag_161:\n        /* \"#utility.yul\":1733:1784   */\n      tag_163\n        /* \"#utility.yul\":1778:1783   */\n      dup2\n        /* \"#utility.yul\":1733:1784   */\n      tag_164\n      jump\t// in\n    tag_163:\n        /* \"#utility.yul\":1728:1731   */\n      dup3\n        /* \"#utility.yul\":1721:1785   */\n      mstore\n        /* \"#utility.yul\":1632:1791   */\n      pop\n      pop\n      jump\t// out\n        /* \"#utility.yul\":1797:2161   */\n    tag_165:\n        /* \"#utility.yul\":1885:1888   */\n      0x00\n        /* \"#utility.yul\":1913:1952   */\n      tag_167\n        /* \"#utility.yul\":1946:1951   */\n      dup3\n        /* \"#utility.yul\":1913:1952   */\n      tag_168\n      jump\t// in\n    tag_167:\n        /* \"#utility.yul\":1968:2039   */\n      tag_169\n        /* \"#utility.yul\":2032:2038   */\n      dup2\n        /* \"#utility.yul\":2027:2030   */\n      dup6\n        /* \"#utility.yul\":1968:2039   */\n      tag_170\n      jump\t// in\n    tag_169:\n        /* \"#utility.yul\":1961:2039   */\n      swap4\n      pop\n        /* \"#utility.yul\":2048:2100   */\n      tag_171\n        /* \"#utility.yul\":2093:2099   */\n      dup2\n        /* \"#utility.yul\":2088:2091   */\n      dup6\n        /* \"#utility.yul\":2081:2085   */\n      0x20\n        /* \"#utility.yul\":2074:2079   */\n      dup7\n        /* \"#utility.yul\":2070:2086   */\n      add\n        /* \"#utility.yul\":2048:2100   */\n      tag_160\n      jump\t// in\n    tag_171:\n        /* \"#utility.yul\":2125:2154   */\n      tag_172\n        /* \"#utility.yul\":2147:2153   */\n      dup2\n        /* \"#utility.yul\":2125:2154   */\n      tag_173\n      jump\t// in\n    tag_172:\n        /* \"#utility.yul\":2120:2123   */\n      dup5\n        /* \"#utility.yul\":2116:2155   */\n      add\n        /* \"#utility.yul\":2109:2155   */\n      swap2\n      pop\n        /* \"#utility.yul\":1889:2161   */\n      pop\n        /* \"#utility.yul\":1797:2161   */\n      swap3\n      swap2\n      pop\n      pop\n      jump\t// out\n        /* \"#utility.yul\":2167:2533   */\n    tag_174:\n        /* \"#utility.yul\":2309:2312   */\n      0x00\n        /* \"#utility.yul\":2330:2397   */\n      tag_176\n        /* \"#utility.yul\":2394:2396   */\n      0x26\n        /* \"#utility.yul\":2389:2392   */\n      dup4\n        /* \"#utility.yul\":2330:2397   */\n      tag_170\n      jump\t// in\n    tag_176:\n        /* \"#utility.yul\":2323:2397   */\n      swap2\n      pop\n        /* \"#utility.yul\":2406:2499   */\n      tag_177\n        /* \"#utility.yul\":2495:2498   */\n      dup3\n        /* \"#utility.yul\":2406:2499   */\n      tag_178\n      jump\t// in\n    tag_177:\n        /* \"#utility.yul\":2524:2526   */\n      0x40\n        /* \"#utility.yul\":2519:2522   */\n      dup3\n        /* \"#utility.yul\":2515:2527   */\n      add\n        /* \"#utility.yul\":2508:2527   */\n      swap1\n      pop\n        /* \"#utility.yul\":2167:2533   */\n      swap2\n      swap1\n      pop\n      jump\t// out\n        /* \"#utility.yul\":2539:2905   */\n    tag_179:\n        /* \"#utility.yul\":2681:2684   */\n      0x00\n        /* \"#utility.yul\":2702:2769   */\n      tag_181\n        /* \"#utility.yul\":2766:2768   */\n      0x2a\n        /* \"#utility.yul\":2761:2764   */\n      dup4\n        /* \"#utility.yul\":2702:2769   */\n      tag_170\n      jump\t// in\n    tag_181:\n        /* \"#utility.yul\":2695:2769   */\n      swap2\n      pop\n        /* \"#utility.yul\":2778:2871   */\n      tag_182\n        /* \"#utility.yul\":2867:2870   */\n      dup3\n        /* \"#utility.yul\":2778:2871   */\n      tag_183\n      jump\t// in\n    tag_182:\n        /* \"#utility.yul\":2896:2898   */\n      0x40\n        /* \"#utility.yul\":2891:2894   */\n      dup3\n        /* \"#utility.yul\":2887:2899   */\n      add\n        /* \"#utility.yul\":2880:2899   */\n      swap1\n      pop\n        /* \"#utility.yul\":2539:2905   */\n      swap2\n      swap1\n      pop\n      jump\t// out\n        /* \"#utility.yul\":2911:3277   */\n    tag_184:\n        /* \"#utility.yul\":3053:3056   */\n      0x00\n        /* \"#utility.yul\":3074:3141   */\n      tag_186\n        /* \"#utility.yul\":3138:3140   */\n      0x1d\n        /* \"#utility.yul\":3133:3136   */\n      dup4\n        /* \"#utility.yul\":3074:3141   */\n      tag_170\n      jump\t// in\n    tag_186:\n        /* \"#utility.yul\":3067:3141   */\n      swap2\n      pop\n        /* \"#utility.yul\":3150:3243   */\n      tag_187\n        /* \"#utility.yul\":3239:3242   */\n      dup3\n        /* \"#utility.yul\":3150:3243   */\n      tag_188\n      jump\t// in\n    tag_187:\n        /* \"#utility.yul\":3268:3270   */\n      0x20\n        /* \"#utility.yul\":3263:3266   */\n      dup3\n        /* \"#utility.yul\":3259:3271   */\n      add\n        /* \"#utility.yul\":3252:3271   */\n      swap1\n      pop\n        /* \"#utility.yul\":2911:3277   */\n      swap2\n      swap1\n      pop\n      jump\t// out\n        /* \"#utility.yul\":3283:3649   */\n    tag_189:\n        /* \"#utility.yul\":3425:3428   */\n      0x00\n        /* \"#utility.yul\":3446:3513   */\n      tag_191\n        /* \"#utility.yul\":3510:3512   */\n      0x2a\n        /* \"#utility.yul\":3505:3508   */\n      dup4\n        /* \"#utility.yul\":3446:3513   */\n      tag_170\n      jump\t// in\n    tag_191:\n        /* \"#utility.yul\":3439:3513   */\n      swap2\n      pop\n        /* \"#utility.yul\":3522:3615   */\n      tag_192\n        /* \"#utility.yul\":3611:3614   */\n      dup3\n        /* \"#utility.yul\":3522:3615   */\n      tag_193\n      jump\t// in\n    tag_192:\n        /* \"#utility.yul\":3640:3642   */\n      0x40\n        /* \"#utility.yul\":3635:3638   */\n      dup3\n        /* \"#utility.yul\":3631:3643   */\n      add\n        /* \"#utility.yul\":3624:3643   */\n      swap1\n      pop\n        /* \"#utility.yul\":3283:3649   */\n      swap2\n      swap1\n      pop\n      jump\t// out\n        /* \"#utility.yul\":3655:4021   */\n    tag_194:\n        /* \"#utility.yul\":3797:3800   */\n      0x00\n        /* \"#utility.yul\":3818:3885   */\n      tag_196\n        /* \"#utility.yul\":3882:3884   */\n      0x1f\n        /* \"#utility.yul\":3877:3880   */\n      dup4\n        /* \"#utility.yul\":3818:3885   */\n      tag_170\n      jump\t// in\n    tag_196:\n        /* \"#utility.yul\":3811:3885   */\n      swap2\n      pop\n        /* \"#utility.yul\":3894:3987   */\n      tag_197\n        /* \"#utility.yul\":3983:3986   */\n      dup3\n        /* \"#utility.yul\":3894:3987   */\n      tag_198\n      jump\t// in\n    tag_197:\n        /* \"#utility.yul\":4012:4014   */\n      0x20\n        /* \"#utility.yul\":4007:4010   */\n      dup3\n        /* \"#utility.yul\":4003:4015   */\n      add\n        /* \"#utility.yul\":3996:4015   */\n      swap1\n      pop\n        /* \"#utility.yul\":3655:4021   */\n      swap2\n      swap1\n      pop\n      jump\t// out\n        /* \"#utility.yul\":4027:4393   */\n    tag_199:\n        /* \"#utility.yul\":4169:4172   */\n      0x00\n        /* \"#utility.yul\":4190:4257   */\n      tag_201\n        /* \"#utility.yul\":4254:4256   */\n      0x19\n        /* \"#utility.yul\":4249:4252   */\n      dup4\n        /* \"#utility.yul\":4190:4257   */\n      tag_170\n      jump\t// in\n    tag_201:\n        /* \"#utility.yul\":4183:4257   */\n      swap2\n      pop\n        /* \"#utility.yul\":4266:4359   */\n      tag_202\n        /* \"#utility.yul\":4355:4358   */\n      dup3\n        /* \"#utility.yul\":4266:4359   */\n      tag_203\n      jump\t// in\n    tag_202:\n        /* \"#utility.yul\":4384:4386   */\n      0x20\n        /* \"#utility.yul\":4379:4382   */\n      dup3\n        /* \"#utility.yul\":4375:4387   */\n      add\n        /* \"#utility.yul\":4368:4387   */\n      swap1\n      pop\n        /* \"#utility.yul\":4027:4393   */\n      swap2\n      swap1\n      pop\n      jump\t// out\n        /* \"#utility.yul\":4399:4517   */\n    tag_204:\n        /* \"#utility.yul\":4486:4510   */\n      tag_206\n        /* \"#utility.yul\":4504:4509   */\n      dup2\n        /* \"#utility.yul\":4486:4510   */\n      tag_207\n      jump\t// in\n    tag_206:\n        /* \"#utility.yul\":4481:4484   */\n      dup3\n        /* \"#utility.yul\":4474:4511   */\n      mstore\n        /* \"#utility.yul\":4399:4517   */\n      pop\n      pop\n      jump\t// out\n        /* \"#utility.yul\":4523:4794   */\n    tag_113:\n        /* \"#utility.yul\":4653:4656   */\n      0x00\n        /* \"#utility.yul\":4675:4768   */\n      tag_209\n        /* \"#utility.yul\":4764:4767   */\n      dup3\n        /* \"#utility.yul\":4755:4761   */\n      dup5\n        /* \"#utility.yul\":4675:4768   */\n      tag_153\n      jump\t// in\n    tag_209:\n        /* \"#utility.yul\":4668:4768   */\n      swap2\n      pop\n        /* \"#utility.yul\":4785:4788   */\n      dup2\n        /* \"#utility.yul\":4778:4788   */\n      swap1\n      pop\n        /* \"#utility.yul\":4523:4794   */\n      swap3\n      swap2\n      pop\n      pop\n      jump\t// out\n        /* \"#utility.yul\":4800:5054   */\n    tag_18:\n        /* \"#utility.yul\":4909:4913   */\n      0x00\n        /* \"#utility.yul\":4947:4949   */\n      0x20\n        /* \"#utility.yul\":4936:4945   */\n      dup3\n        /* \"#utility.yul\":4932:4950   */\n      add\n        /* \"#utility.yul\":4924:4950   */\n      swap1\n      pop\n        /* \"#utility.yul\":4960:5047   */\n      tag_211\n        /* \"#utility.yul\":5044:5045   */\n      0x00\n        /* \"#utility.yul\":5033:5042   */\n      dup4\n        /* \"#utility.yul\":5029:5046   */\n      add\n        /* \"#utility.yul\":5020:5026   */\n      dup5\n        /* \"#utility.yul\":4960:5047   */\n      tag_145\n      jump\t// in\n    tag_211:\n        /* \"#utility.yul\":4800:5054   */\n      swap3\n      swap2\n      pop\n      pop\n      jump\t// out\n        /* \"#utility.yul\":5060:5392   */\n    tag_89:\n        /* \"#utility.yul\":5181:5185   */\n      0x00\n        /* \"#utility.yul\":5219:5221   */\n      0x40\n        /* \"#utility.yul\":5208:5217   */\n      dup3\n        /* \"#utility.yul\":5204:5222   */\n      add\n        /* \"#utility.yul\":5196:5222   */\n      swap1\n      pop\n        /* \"#utility.yul\":5232:5303   */\n      tag_213\n        /* \"#utility.yul\":5300:5301   */\n      0x00\n        /* \"#utility.yul\":5289:5298   */\n      dup4\n        /* \"#utility.yul\":5285:5302   */\n      add\n        /* \"#utility.yul\":5276:5282   */\n      dup6\n        /* \"#utility.yul\":5232:5303   */\n      tag_149\n      jump\t// in\n    tag_213:\n        /* \"#utility.yul\":5313:5385   */\n      tag_214\n        /* \"#utility.yul\":5381:5383   */\n      0x20\n        /* \"#utility.yul\":5370:5379   */\n      dup4\n        /* \"#utility.yul\":5366:5384   */\n      add\n        /* \"#utility.yul\":5357:5363   */\n      dup5\n        /* \"#utility.yul\":5313:5385   */\n      tag_204\n      jump\t// in\n    tag_214:\n        /* \"#utility.yul\":5060:5392   */\n      swap4\n      swap3\n      pop\n      pop\n      pop\n      jump\t// out\n        /* \"#utility.yul\":5398:5648   */\n    tag_35:\n        /* \"#utility.yul\":5505:5509   */\n      0x00\n        /* \"#utility.yul\":5543:5545   */\n      0x20\n        /* \"#utility.yul\":5532:5541   */\n      dup3\n        /* \"#utility.yul\":5528:5546   */\n      add\n        /* \"#utility.yul\":5520:5546   */\n      swap1\n      pop\n        /* \"#utility.yul\":5556:5641   */\n      tag_216\n        /* \"#utility.yul\":5638:5639   */\n      0x00\n        /* \"#utility.yul\":5627:5636   */\n      dup4\n        /* \"#utility.yul\":5623:5640   */\n      add\n        /* \"#utility.yul\":5614:5620   */\n      dup5\n        /* \"#utility.yul\":5556:5641   */\n      tag_161\n      jump\t// in\n    tag_216:\n        /* \"#utility.yul\":5398:5648   */\n      swap3\n      swap2\n      pop\n      pop\n      jump\t// out\n        /* \"#utility.yul\":5654:5967   */\n    tag_126:\n        /* \"#utility.yul\":5767:5771   */\n      0x00\n        /* \"#utility.yul\":5805:5807   */\n      0x20\n        /* \"#utility.yul\":5794:5803   */\n      dup3\n        /* \"#utility.yul\":5790:5808   */\n      add\n        /* \"#utility.yul\":5782:5808   */\n      swap1\n      pop\n        /* \"#utility.yul\":5854:5863   */\n      dup2\n        /* \"#utility.yul\":5848:5852   */\n      dup2\n        /* \"#utility.yul\":5844:5864   */\n      sub\n        /* \"#utility.yul\":5840:5841   */\n      0x00\n        /* \"#utility.yul\":5829:5838   */\n      dup4\n        /* \"#utility.yul\":5825:5842   */\n      add\n        /* \"#utility.yul\":5818:5865   */\n      mstore\n        /* \"#utility.yul\":5882:5960   */\n      tag_218\n        /* \"#utility.yul\":5955:5959   */\n      dup2\n        /* \"#utility.yul\":5946:5952   */\n      dup5\n        /* \"#utility.yul\":5882:5960   */\n      tag_165\n      jump\t// in\n    tag_218:\n        /* \"#utility.yul\":5874:5960   */\n      swap1\n      pop\n        /* \"#utility.yul\":5654:5967   */\n      swap3\n      swap2\n      pop\n      pop\n      jump\t// out\n        /* \"#utility.yul\":5973:6392   */\n    tag_106:\n        /* \"#utility.yul\":6139:6143   */\n      0x00\n        /* \"#utility.yul\":6177:6179   */\n      0x20\n        /* \"#utility.yul\":6166:6175   */\n      dup3\n        /* \"#utility.yul\":6162:6180   */\n      add\n        /* \"#utility.yul\":6154:6180   */\n      swap1\n      pop\n        /* \"#utility.yul\":6226:6235   */\n      dup2\n        /* \"#utility.yul\":6220:6224   */\n      dup2\n        /* \"#utility.yul\":6216:6236   */\n      sub\n        /* \"#utility.yul\":6212:6213   */\n      0x00\n        /* \"#utility.yul\":6201:6210   */\n      dup4\n        /* \"#utility.yul\":6197:6214   */\n      add\n        /* \"#utility.yul\":6190:6237   */\n      mstore\n        /* \"#utility.yul\":6254:6385   */\n      tag_220\n        /* \"#utility.yul\":6380:6384   */\n      dup2\n        /* \"#utility.yul\":6254:6385   */\n      tag_174\n      jump\t// in\n    tag_220:\n        /* \"#utility.yul\":6246:6385   */\n      swap1\n      pop\n        /* \"#utility.yul\":5973:6392   */\n      swap2\n      swap1\n      pop\n      jump\t// out\n        /* \"#utility.yul\":6398:6817   */\n    tag_62:\n        /* \"#utility.yul\":6564:6568   */\n      0x00\n        /* \"#utility.yul\":6602:6604   */\n      0x20\n        /* \"#utility.yul\":6591:6600   */\n      dup3\n        /* \"#utility.yul\":6587:6605   */\n      add\n        /* \"#utility.yul\":6579:6605   */\n      swap1\n      pop\n        /* \"#utility.yul\":6651:6660   */\n      dup2\n        /* \"#utility.yul\":6645:6649   */\n      dup2\n        /* \"#utility.yul\":6641:6661   */\n      sub\n        /* \"#utility.yul\":6637:6638   */\n      0x00\n        /* \"#utility.yul\":6626:6635   */\n      dup4\n        /* \"#utility.yul\":6622:6639   */\n      add\n        /* \"#utility.yul\":6615:6662   */\n      mstore\n        /* \"#utility.yul\":6679:6810   */\n      tag_222\n        /* \"#utility.yul\":6805:6809   */\n      dup2\n        /* \"#utility.yul\":6679:6810   */\n      tag_179\n      jump\t// in\n    tag_222:\n        /* \"#utility.yul\":6671:6810   */\n      swap1\n      pop\n        /* \"#utility.yul\":6398:6817   */\n      swap2\n      swap1\n      pop\n      jump\t// out\n        /* \"#utility.yul\":6823:7242   */\n    tag_111:\n        /* \"#utility.yul\":6989:6993   */\n      0x00\n        /* \"#utility.yul\":7027:7029   */\n      0x20\n        /* \"#utility.yul\":7016:7025   */\n      dup3\n        /* \"#utility.yul\":7012:7030   */\n      add\n        /* \"#utility.yul\":7004:7030   */\n      swap1\n      pop\n        /* \"#utility.yul\":7076:7085   */\n      dup2\n        /* \"#utility.yul\":7070:7074   */\n      dup2\n        /* \"#utility.yul\":7066:7086   */\n      sub\n        /* \"#utility.yul\":7062:7063   */\n      0x00\n        /* \"#utility.yul\":7051:7060   */\n      dup4\n        /* \"#utility.yul\":7047:7064   */\n      add\n        /* \"#utility.yul\":7040:7087   */\n      mstore\n        /* \"#utility.yul\":7104:7235   */\n      tag_224\n        /* \"#utility.yul\":7230:7234   */\n      dup2\n        /* \"#utility.yul\":7104:7235   */\n      tag_184\n      jump\t// in\n    tag_224:\n        /* \"#utility.yul\":7096:7235   */\n      swap1\n      pop\n        /* \"#utility.yul\":6823:7242   */\n      swap2\n      swap1\n      pop\n      jump\t// out\n        /* \"#utility.yul\":7248:7667   */\n    tag_99:\n        /* \"#utility.yul\":7414:7418   */\n      0x00\n        /* \"#utility.yul\":7452:7454   */\n      0x20\n        /* \"#utility.yul\":7441:7450   */\n      dup3\n        /* \"#utility.yul\":7437:7455   */\n      add\n        /* \"#utility.yul\":7429:7455   */\n      swap1\n      pop\n        /* \"#utility.yul\":7501:7510   */\n      dup2\n        /* \"#utility.yul\":7495:7499   */\n      dup2\n        /* \"#utility.yul\":7491:7511   */\n      sub\n        /* \"#utility.yul\":7487:7488   */\n      0x00\n        /* \"#utility.yul\":7476:7485   */\n      dup4\n        /* \"#utility.yul\":7472:7489   */\n      add\n        /* \"#utility.yul\":7465:7512   */\n      mstore\n        /* \"#utility.yul\":7529:7660   */\n      tag_226\n        /* \"#utility.yul\":7655:7659   */\n      dup2\n        /* \"#utility.yul\":7529:7660   */\n      tag_189\n      jump\t// in\n    tag_226:\n        /* \"#utility.yul\":7521:7660   */\n      swap1\n      pop\n        /* \"#utility.yul\":7248:7667   */\n      swap2\n      swap1\n      pop\n      jump\t// out\n        /* \"#utility.yul\":7673:8092   */\n    tag_40:\n        /* \"#utility.yul\":7839:7843   */\n      0x00\n        /* \"#utility.yul\":7877:7879   */\n      0x20\n        /* \"#utility.yul\":7866:7875   */\n      dup3\n        /* \"#utility.yul\":7862:7880   */\n      add\n        /* \"#utility.yul\":7854:7880   */\n      swap1\n      pop\n        /* \"#utility.yul\":7926:7935   */\n      dup2\n        /* \"#utility.yul\":7920:7924   */\n      dup2\n        /* \"#utility.yul\":7916:7936   */\n      sub\n        /* \"#utility.yul\":7912:7913   */\n      0x00\n        /* \"#utility.yul\":7901:7910   */\n      dup4\n        /* \"#utility.yul\":7897:7914   */\n      add\n        /* \"#utility.yul\":7890:7937   */\n      mstore\n        /* \"#utility.yul\":7954:8085   */\n      tag_228\n        /* \"#utility.yul\":8080:8084   */\n      dup2\n        /* \"#utility.yul\":7954:8085   */\n      tag_194\n      jump\t// in\n    tag_228:\n        /* \"#utility.yul\":7946:8085   */\n      swap1\n      pop\n        /* \"#utility.yul\":7673:8092   */\n      swap2\n      swap1\n      pop\n      jump\t// out\n        /* \"#utility.yul\":8098:8517   */\n    tag_65:\n        /* \"#utility.yul\":8264:8268   */\n      0x00\n        /* \"#utility.yul\":8302:8304   */\n      0x20\n        /* \"#utility.yul\":8291:8300   */\n      dup3\n        /* \"#utility.yul\":8287:8305   */\n      add\n        /* \"#utility.yul\":8279:8305   */\n      swap1\n      pop\n        /* \"#utility.yul\":8351:8360   */\n      dup2\n        /* \"#utility.yul\":8345:8349   */\n      dup2\n        /* \"#utility.yul\":8341:8361   */\n      sub\n        /* \"#utility.yul\":8337:8338   */\n      0x00\n        /* \"#utility.yul\":8326:8335   */\n      dup4\n        /* \"#utility.yul\":8322:8339   */\n      add\n        /* \"#utility.yul\":8315:8362   */\n      mstore\n        /* \"#utility.yul\":8379:8510   */\n      tag_230\n        /* \"#utility.yul\":8505:8509   */\n      dup2\n        /* \"#utility.yul\":8379:8510   */\n      tag_199\n      jump\t// in\n    tag_230:\n        /* \"#utility.yul\":8371:8510   */\n      swap1\n      pop\n        /* \"#utility.yul\":8098:8517   */\n      swap2\n      swap1\n      pop\n      jump\t// out\n        /* \"#utility.yul\":8523:8745   */\n    tag_23:\n        /* \"#utility.yul\":8616:8620   */\n      0x00\n        /* \"#utility.yul\":8654:8656   */\n      0x20\n        /* \"#utility.yul\":8643:8652   */\n      dup3\n        /* \"#utility.yul\":8639:8657   */\n      add\n        /* \"#utility.yul\":8631:8657   */\n      swap1\n      pop\n        /* \"#utility.yul\":8667:8738   */\n      tag_232\n        /* \"#utility.yul\":8735:8736   */\n      0x00\n        /* \"#utility.yul\":8724:8733   */\n      dup4\n        /* \"#utility.yul\":8720:8737   */\n      add\n        /* \"#utility.yul\":8711:8717   */\n      dup5\n        /* \"#utility.yul\":8667:8738   */\n      tag_204\n      jump\t// in\n    tag_232:\n        /* \"#utility.yul\":8523:8745   */\n      swap3\n      swap2\n      pop\n      pop\n      jump\t// out\n        /* \"#utility.yul\":8751:9083   */\n    tag_52:\n        /* \"#utility.yul\":8872:8876   */\n      0x00\n        /* \"#utility.yul\":8910:8912   */\n      0x40\n        /* \"#utility.yul\":8899:8908   */\n      dup3\n        /* \"#utility.yul\":8895:8913   */\n      add\n        /* \"#utility.yul\":8887:8913   */\n      swap1\n      pop\n        /* \"#utility.yul\":8923:8994   */\n      tag_234\n        /* \"#utility.yul\":8991:8992   */\n      0x00\n        /* \"#utility.yul\":8980:8989   */\n      dup4\n        /* \"#utility.yul\":8976:8993   */\n      add\n        /* \"#utility.yul\":8967:8973   */\n      dup6\n        /* \"#utility.yul\":8923:8994   */\n      tag_204\n      jump\t// in\n    tag_234:\n        /* \"#utility.yul\":9004:9076   */\n      tag_235\n        /* \"#utility.yul\":9072:9074   */\n      0x20\n        /* \"#utility.yul\":9061:9070   */\n      dup4\n        /* \"#utility.yul\":9057:9075   */\n      add\n        /* \"#utility.yul\":9048:9054   */\n      dup5\n        /* \"#utility.yul\":9004:9076   */\n      tag_204\n      jump\t// in\n    tag_235:\n        /* \"#utility.yul\":8751:9083   */\n      swap4\n      swap3\n      pop\n      pop\n      pop\n      jump\t// out\n        /* \"#utility.yul\":9170:9268   */\n    tag_156:\n        /* \"#utility.yul\":9221:9227   */\n      0x00\n        /* \"#utility.yul\":9255:9260   */\n      dup2\n        /* \"#utility.yul\":9249:9261   */\n      mload\n        /* \"#utility.yul\":9239:9261   */\n      swap1\n      pop\n        /* \"#utility.yul\":9170:9268   */\n      swap2\n      swap1\n      pop\n      jump\t// out\n        /* \"#utility.yul\":9274:9373   */\n    tag_168:\n        /* \"#utility.yul\":9326:9332   */\n      0x00\n        /* \"#utility.yul\":9360:9365   */\n      dup2\n        /* \"#utility.yul\":9354:9366   */\n      mload\n        /* \"#utility.yul\":9344:9366   */\n      swap1\n      pop\n        /* \"#utility.yul\":9274:9373   */\n      swap2\n      swap1\n      pop\n      jump\t// out\n        /* \"#utility.yul\":9379:9526   */\n    tag_158:\n        /* \"#utility.yul\":9480:9491   */\n      0x00\n        /* \"#utility.yul\":9517:9520   */\n      dup2\n        /* \"#utility.yul\":9502:9520   */\n      swap1\n      pop\n        /* \"#utility.yul\":9379:9526   */\n      swap3\n      swap2\n      pop\n      pop\n      jump\t// out\n        /* \"#utility.yul\":9532:9701   */\n    tag_170:\n        /* \"#utility.yul\":9616:9627   */\n      0x00\n        /* \"#utility.yul\":9650:9656   */\n      dup3\n        /* \"#utility.yul\":9645:9648   */\n      dup3\n        /* \"#utility.yul\":9638:9657   */\n      mstore\n        /* \"#utility.yul\":9690:9694   */\n      0x20\n        /* \"#utility.yul\":9685:9688   */\n      dup3\n        /* \"#utility.yul\":9681:9695   */\n      add\n        /* \"#utility.yul\":9666:9695   */\n      swap1\n      pop\n        /* \"#utility.yul\":9532:9701   */\n      swap3\n      swap2\n      pop\n      pop\n      jump\t// out\n        /* \"#utility.yul\":9707:10012   */\n    tag_71:\n        /* \"#utility.yul\":9747:9750   */\n      0x00\n        /* \"#utility.yul\":9766:9786   */\n      tag_243\n        /* \"#utility.yul\":9784:9785   */\n      dup3\n        /* \"#utility.yul\":9766:9786   */\n      tag_207\n      jump\t// in\n    tag_243:\n        /* \"#utility.yul\":9761:9786   */\n      swap2\n      pop\n        /* \"#utility.yul\":9800:9820   */\n      tag_244\n        /* \"#utility.yul\":9818:9819   */\n      dup4\n        /* \"#utility.yul\":9800:9820   */\n      tag_207\n      jump\t// in\n    tag_244:\n        /* \"#utility.yul\":9795:9820   */\n      swap3\n      pop\n        /* \"#utility.yul\":9954:9955   */\n      dup3\n        /* \"#utility.yul\":9886:9952   */\n      0xffffffffffffffffffffffffffffffffffffffffffffffffffffffffffffffff\n        /* \"#utility.yul\":9882:9956   */\n      sub\n        /* \"#utility.yul\":9879:9880   */\n      dup3\n        /* \"#utility.yul\":9876:9957   */\n      gt\n        /* \"#utility.yul\":9873:9980   */\n      iszero\n      tag_245\n      jumpi\n        /* \"#utility.yul\":9960:9978   */\n      tag_246\n      tag_247\n      jump\t// in\n    tag_246:\n        /* \"#utility.yul\":9873:9980   */\n    tag_245:\n        /* \"#utility.yul\":10004:10005   */\n      dup3\n        /* \"#utility.yul\":10001:10002   */\n      dup3\n        /* \"#utility.yul\":9997:10006   */\n      add\n        /* \"#utility.yul\":9990:10006   */\n      swap1\n      pop\n        /* \"#utility.yul\":9707:10012   */\n      swap3\n      swap2\n      pop\n      pop\n      jump\t// out\n        /* \"#utility.yul\":10018:10366   */\n    tag_82:\n        /* \"#utility.yul\":10058:10065   */\n      0x00\n        /* \"#utility.yul\":10081:10101   */\n      tag_249\n        /* \"#utility.yul\":10099:10100   */\n      dup3\n        /* \"#utility.yul\":10081:10101   */\n      tag_207\n      jump\t// in\n    tag_249:\n        /* \"#utility.yul\":10076:10101   */\n      swap2\n      pop\n        /* \"#utility.yul\":10115:10135   */\n      tag_250\n        /* \"#utility.yul\":10133:10134   */\n      dup4\n        /* \"#utility.yul\":10115:10135   */\n      tag_207\n      jump\t// in\n    tag_250:\n        /* \"#utility.yul\":10110:10135   */\n      swap3\n      pop\n        /* \"#utility.yul\":10303:10304   */\n      dup2\n        /* \"#utility.yul\":10235:10301   */\n      0xffffffffffffffffffffffffffffffffffffffffffffffffffffffffffffffff\n        /* \"#utility.yul\":10231:10305   */\n      div\n        /* \"#utility.yul\":10228:10229   */\n      dup4\n        /* \"#utility.yul\":10225:10306   */\n      gt\n        /* \"#utility.yul\":10220:10221   */\n      dup3\n        /* \"#utility.yul\":10213:10222   */\n      iszero\n        /* \"#utility.yul\":10206:10223   */\n      iszero\n        /* \"#utility.yul\":10202:10307   */\n      and\n        /* \"#utility.yul\":10199:10330   */\n      iszero\n      tag_251\n      jumpi\n        /* \"#utility.yul\":10310:10328   */\n      tag_252\n      tag_247\n      jump\t// in\n    tag_252:\n        /* \"#utility.yul\":10199:10330   */\n    tag_251:\n        /* \"#utility.yul\":10358:10359   */\n      dup3\n        /* \"#utility.yul\":10355:10356   */\n      dup3\n        /* \"#utility.yul\":10351:10360   */\n      mul\n        /* \"#utility.yul\":10340:10360   */\n      swap1\n      pop\n        /* \"#utility.yul\":10018:10366   */\n      swap3\n      swap2\n      pop\n      pop\n      jump\t// out\n        /* \"#utility.yul\":10372:10468   */\n    tag_152:\n        /* \"#utility.yul\":10409:10416   */\n      0x00\n        /* \"#utility.yul\":10438:10462   */\n      tag_254\n        /* \"#utility.yul\":10456:10461   */\n      dup3\n        /* \"#utility.yul\":10438:10462   */\n      tag_255\n      jump\t// in\n    tag_254:\n        /* \"#utility.yul\":10427:10462   */\n      swap1\n      pop\n        /* \"#utility.yul\":10372:10468   */\n      swap2\n      swap1\n      pop\n      jump\t// out\n        /* \"#utility.yul\":10474:10578   */\n    tag_148:\n        /* \"#utility.yul\":10519:10526   */\n      0x00\n        /* \"#utility.yul\":10548:10572   */\n      tag_257\n        /* \"#utility.yul\":10566:10571   */\n      dup3\n        /* \"#utility.yul\":10548:10572   */\n      tag_255\n      jump\t// in\n    tag_257:\n        /* \"#utility.yul\":10537:10572   */\n      swap1\n      pop\n        /* \"#utility.yul\":10474:10578   */\n      swap2\n      swap1\n      pop\n      jump\t// out\n        /* \"#utility.yul\":10584:10674   */\n    tag_258:\n        /* \"#utility.yul\":10618:10625   */\n      0x00\n        /* \"#utility.yul\":10661:10666   */\n      dup2\n        /* \"#utility.yul\":10654:10667   */\n      iszero\n        /* \"#utility.yul\":10647:10668   */\n      iszero\n        /* \"#utility.yul\":10636:10668   */\n      swap1\n      pop\n        /* \"#utility.yul\":10584:10674   */\n      swap2\n      swap1\n      pop\n      jump\t// out\n        /* \"#utility.yul\":10680:10806   */\n    tag_255:\n        /* \"#utility.yul\":10717:10724   */\n      0x00\n        /* \"#utility.yul\":10757:10799   */\n      0xffffffffffffffffffffffffffffffffffffffff\n        /* \"#utility.yul\":10750:10755   */\n      dup3\n        /* \"#utility.yul\":10746:10800   */\n      and\n        /* \"#utility.yul\":10735:10800   */\n      swap1\n      pop\n        /* \"#utility.yul\":10680:10806   */\n      swap2\n      swap1\n      pop\n      jump\t// out\n        /* \"#utility.yul\":10812:10889   */\n    tag_207:\n        /* \"#utility.yul\":10849:10856   */\n      0x00\n        /* \"#utility.yul\":10878:10883   */\n      dup2\n        /* \"#utility.yul\":10867:10883   */\n      swap1\n      pop\n        /* \"#utility.yul\":10812:10889   */\n      swap2\n      swap1\n      pop\n      jump\t// out\n        /* \"#utility.yul\":10895:11035   */\n    tag_164:\n        /* \"#utility.yul\":10959:10968   */\n      0x00\n        /* \"#utility.yul\":10992:11029   */\n      tag_263\n        /* \"#utility.yul\":11023:11028   */\n      dup3\n        /* \"#utility.yul\":10992:11029   */\n      tag_264\n      jump\t// in\n    tag_263:\n        /* \"#utility.yul\":10979:11029   */\n      swap1\n      pop\n        /* \"#utility.yul\":10895:11035   */\n      swap2\n      swap1\n      pop\n      jump\t// out\n        /* \"#utility.yul\":11041:11167   */\n    tag_264:\n        /* \"#utility.yul\":11091:11100   */\n      0x00\n        /* \"#utility.yul\":11124:11161   */\n      tag_266\n        /* \"#utility.yul\":11155:11160   */\n      dup3\n        /* \"#utility.yul\":11124:11161   */\n      tag_267\n      jump\t// in\n    tag_266:\n        /* \"#utility.yul\":11111:11161   */\n      swap1\n      pop\n        /* \"#utility.yul\":11041:11167   */\n      swap2\n      swap1\n      pop\n      jump\t// out\n        /* \"#utility.yul\":11173:11286   */\n    tag_267:\n        /* \"#utility.yul\":11223:11232   */\n      0x00\n        /* \"#utility.yul\":11256:11280   */\n      tag_269\n        /* \"#utility.yul\":11274:11279   */\n      dup3\n        /* \"#utility.yul\":11256:11280   */\n      tag_255\n      jump\t// in\n    tag_269:\n        /* \"#utility.yul\":11243:11280   */\n      swap1\n      pop\n        /* \"#utility.yul\":11173:11286   */\n      swap2\n      swap1\n      pop\n      jump\t// out\n        /* \"#utility.yul\":11292:11599   */\n    tag_160:\n        /* \"#utility.yul\":11360:11361   */\n      0x00\n        /* \"#utility.yul\":11370:11483   */\n    tag_271:\n        /* \"#utility.yul\":11384:11390   */\n      dup4\n        /* \"#utility.yul\":11381:11382   */\n      dup2\n        /* \"#utility.yul\":11378:11391   */\n      lt\n        /* \"#utility.yul\":11370:11483   */\n      iszero\n      tag_273\n      jumpi\n        /* \"#utility.yul\":11469:11470   */\n      dup1\n        /* \"#utility.yul\":11464:11467   */\n      dup3\n        /* \"#utility.yul\":11460:11471   */\n      add\n        /* \"#utility.yul\":11454:11472   */\n      mload\n        /* \"#utility.yul\":11450:11451   */\n      dup2\n        /* \"#utility.yul\":11445:11448   */\n      dup5\n        /* \"#utility.yul\":11441:11452   */\n      add\n        /* \"#utility.yul\":11434:11473   */\n      mstore\n        /* \"#utility.yul\":11406:11408   */\n      0x20\n        /* \"#utility.yul\":11403:11404   */\n      dup2\n        /* \"#utility.yul\":11399:11409   */\n      add\n        /* \"#utility.yul\":11394:11409   */\n      swap1\n      pop\n        /* \"#utility.yul\":11370:11483   */\n      jump(tag_271)\n    tag_273:\n        /* \"#utility.yul\":11501:11507   */\n      dup4\n        /* \"#utility.yul\":11498:11499   */\n      dup2\n        /* \"#utility.yul\":11495:11508   */\n      gt\n        /* \"#utility.yul\":11492:11593   */\n      iszero\n      tag_274\n      jumpi\n        /* \"#utility.yul\":11581:11582   */\n      0x00\n        /* \"#utility.yul\":11572:11578   */\n      dup5\n        /* \"#utility.yul\":11567:11570   */\n      dup5\n        /* \"#utility.yul\":11563:11579   */\n      add\n        /* \"#utility.yul\":11556:11583   */\n      mstore\n        /* \"#utility.yul\":11492:11593   */\n    tag_274:\n        /* \"#utility.yul\":11341:11599   */\n      pop\n        /* \"#utility.yul\":11292:11599   */\n      pop\n      pop\n      pop\n      jump\t// out\n        /* \"#utility.yul\":11605:11785   */\n    tag_247:\n        /* \"#utility.yul\":11653:11730   */\n      0x4e487b7100000000000000000000000000000000000000000000000000000000\n        /* \"#utility.yul\":11650:11651   */\n      0x00\n        /* \"#utility.yul\":11643:11731   */\n      mstore\n        /* \"#utility.yul\":11750:11754   */\n      0x11\n        /* \"#utility.yul\":11747:11748   */\n      0x04\n        /* \"#utility.yul\":11740:11755   */\n      mstore\n        /* \"#utility.yul\":11774:11778   */\n      0x24\n        /* \"#utility.yul\":11771:11772   */\n      0x00\n        /* \"#utility.yul\":11764:11779   */\n      revert\n        /* \"#utility.yul\":11914:12031   */\n    tag_139:\n        /* \"#utility.yul\":12023:12024   */\n      0x00\n        /* \"#utility.yul\":12020:12021   */\n      dup1\n        /* \"#utility.yul\":12013:12025   */\n      revert\n        /* \"#utility.yul\":12037:12139   */\n    tag_173:\n        /* \"#utility.yul\":12078:12084   */\n      0x00\n        /* \"#utility.yul\":12129:12131   */\n      0x1f\n        /* \"#utility.yul\":12125:12132   */\n      not\n        /* \"#utility.yul\":12120:12122   */\n      0x1f\n        /* \"#utility.yul\":12113:12118   */\n      dup4\n        /* \"#utility.yul\":12109:12123   */\n      add\n        /* \"#utility.yul\":12105:12133   */\n      and\n        /* \"#utility.yul\":12095:12133   */\n      swap1\n      pop\n        /* \"#utility.yul\":12037:12139   */\n      swap2\n      swap1\n      pop\n      jump\t// out\n        /* \"#utility.yul\":12145:12370   */\n    tag_178:\n        /* \"#utility.yul\":12285:12319   */\n      0x416464726573733a20696e73756666696369656e742062616c616e636520666f\n        /* \"#utility.yul\":12281:12282   */\n      0x00\n        /* \"#utility.yul\":12273:12279   */\n      dup3\n        /* \"#utility.yul\":12269:12283   */\n      add\n        /* \"#utility.yul\":12262:12320   */\n      mstore\n        /* \"#utility.yul\":12354:12362   */\n      0x722063616c6c0000000000000000000000000000000000000000000000000000\n        /* \"#utility.yul\":12349:12351   */\n      0x20\n        /* \"#utility.yul\":12341:12347   */\n      dup3\n        /* \"#utility.yul\":12337:12352   */\n      add\n        /* \"#utility.yul\":12330:12363   */\n      mstore\n        /* \"#utility.yul\":12145:12370   */\n      pop\n      jump\t// out\n        /* \"#utility.yul\":12376:12605   */\n    tag_183:\n        /* \"#utility.yul\":12516:12550   */\n      0x43726f776473616c653a2062656e656669636961727920697320746865207a65\n        /* \"#utility.yul\":12512:12513   */\n      0x00\n        /* \"#utility.yul\":12504:12510   */\n      dup3\n        /* \"#utility.yul\":12500:12514   */\n      add\n        /* \"#utility.yul\":12493:12551   */\n      mstore\n        /* \"#utility.yul\":12585:12597   */\n      0x726f206164647265737300000000000000000000000000000000000000000000\n        /* \"#utility.yul\":12580:12582   */\n      0x20\n        /* \"#utility.yul\":12572:12578   */\n      dup3\n        /* \"#utility.yul\":12568:12583   */\n      add\n        /* \"#utility.yul\":12561:12598   */\n      mstore\n        /* \"#utility.yul\":12376:12605   */\n      pop\n      jump\t// out\n        /* \"#utility.yul\":12611:12790   */\n    tag_188:\n        /* \"#utility.yul\":12751:12782   */\n      0x416464726573733a2063616c6c20746f206e6f6e2d636f6e7472616374000000\n        /* \"#utility.yul\":12747:12748   */\n      0x00\n        /* \"#utility.yul\":12739:12745   */\n      dup3\n        /* \"#utility.yul\":12735:12749   */\n      add\n        /* \"#utility.yul\":12728:12783   */\n      mstore\n        /* \"#utility.yul\":12611:12790   */\n      pop\n      jump\t// out\n        /* \"#utility.yul\":12796:13025   */\n    tag_193:\n        /* \"#utility.yul\":12936:12970   */\n      0x5361666545524332303a204552433230206f7065726174696f6e20646964206e\n        /* \"#utility.yul\":12932:12933   */\n      0x00\n        /* \"#utility.yul\":12924:12930   */\n      dup3\n        /* \"#utility.yul\":12920:12934   */\n      add\n        /* \"#utility.yul\":12913:12971   */\n      mstore\n        /* \"#utility.yul\":13005:13017   */\n      0x6f74207375636365656400000000000000000000000000000000000000000000\n        /* \"#utility.yul\":13000:13002   */\n      0x20\n        /* \"#utility.yul\":12992:12998   */\n      dup3\n        /* \"#utility.yul\":12988:13003   */\n      add\n        /* \"#utility.yul\":12981:13018   */\n      mstore\n        /* \"#utility.yul\":12796:13025   */\n      pop\n      jump\t// out\n        /* \"#utility.yul\":13031:13212   */\n    tag_198:\n        /* \"#utility.yul\":13171:13204   */\n      0x5265656e7472616e637947756172643a207265656e7472616e742063616c6c00\n        /* \"#utility.yul\":13167:13168   */\n      0x00\n        /* \"#utility.yul\":13159:13165   */\n      dup3\n        /* \"#utility.yul\":13155:13169   */\n      add\n        /* \"#utility.yul\":13148:13205   */\n      mstore\n        /* \"#utility.yul\":13031:13212   */\n      pop\n      jump\t// out\n        /* \"#utility.yul\":13218:13393   */\n    tag_203:\n        /* \"#utility.yul\":13358:13385   */\n      0x43726f776473616c653a20776569416d6f756e74206973203000000000000000\n        /* \"#utility.yul\":13354:13355   */\n      0x00\n        /* \"#utility.yul\":13346:13352   */\n      dup3\n        /* \"#utility.yul\":13342:13356   */\n      add\n        /* \"#utility.yul\":13335:13386   */\n      mstore\n        /* \"#utility.yul\":13218:13393   */\n      pop\n      jump\t// out\n        /* \"#utility.yul\":13399:13521   */\n    tag_131:\n        /* \"#utility.yul\":13472:13496   */\n      tag_287\n        /* \"#utility.yul\":13490:13495   */\n      dup2\n        /* \"#utility.yul\":13472:13496   */\n      tag_152\n      jump\t// in\n    tag_287:\n        /* \"#utility.yul\":13465:13470   */\n      dup2\n        /* \"#utility.yul\":13462:13497   */\n      eq\n        /* \"#utility.yul\":13452:13515   */\n      tag_288\n      jumpi\n        /* \"#utility.yul\":13511:13512   */\n      0x00\n        /* \"#utility.yul\":13508:13509   */\n      dup1\n        /* \"#utility.yul\":13501:13513   */\n      revert\n        /* \"#utility.yul\":13452:13515   */\n    tag_288:\n        /* \"#utility.yul\":13399:13521   */\n      pop\n      jump\t// out\n        /* \"#utility.yul\":13527:13643   */\n    tag_135:\n        /* \"#utility.yul\":13597:13618   */\n      tag_290\n        /* \"#utility.yul\":13612:13617   */\n      dup2\n        /* \"#utility.yul\":13597:13618   */\n      tag_258\n      jump\t// in\n    tag_290:\n        /* \"#utility.yul\":13590:13595   */\n      dup2\n        /* \"#utility.yul\":13587:13619   */\n      eq\n        /* \"#utility.yul\":13577:13637   */\n      tag_291\n      jumpi\n        /* \"#utility.yul\":13633:13634   */\n      0x00\n        /* \"#utility.yul\":13630:13631   */\n      dup1\n        /* \"#utility.yul\":13623:13635   */\n      revert\n        /* \"#utility.yul\":13577:13637   */\n    tag_291:\n        /* \"#utility.yul\":13527:13643   */\n      pop\n      jump\t// out\n\n    auxdata: 0xa26469706673582212209970ce7449ad0ebcfc6704f978ab4d35a740ebc1e352d00f40dde6801210c41864736f6c63430008070033\n}\n",
				"bytecode": {
					"linkReferences": {},
					"object": "60806040523480156200001157600080fd5b50604051620013f7380380620013f7833981810160405281019062000037919062000242565b60016000819055506000831162000085576040517f08c379a00000000000000000000000000000000000000000000000000000000081526004016200007c9062000335565b60405180910390fd5b600073ffffffffffffffffffffffffffffffffffffffff168273ffffffffffffffffffffffffffffffffffffffff161415620000f8576040517f08c379a0000000000000000000000000000000000000000000000000000000008152600401620000ef9062000357565b60405180910390fd5b600073ffffffffffffffffffffffffffffffffffffffff168173ffffffffffffffffffffffffffffffffffffffff1614156200016b576040517f08c379a0000000000000000000000000000000000000000000000000000000008152600401620001629062000313565b60405180910390fd5b8260038190555081600260006101000a81548173ffffffffffffffffffffffffffffffffffffffff021916908373ffffffffffffffffffffffffffffffffffffffff16021790555080600160006101000a81548173ffffffffffffffffffffffffffffffffffffffff021916908373ffffffffffffffffffffffffffffffffffffffff1602179055505050506200050a565b6000815190506200020e81620004bc565b92915050565b6000815190506200022581620004d6565b92915050565b6000815190506200023c81620004f0565b92915050565b6000806000606084860312156200025e576200025d620003f0565b5b60006200026e868287016200022b565b93505060206200028186828701620001fd565b9250506040620002948682870162000214565b9150509250925092565b6000620002ad60248362000379565b9150620002ba82620003f5565b604082019050919050565b6000620002d460148362000379565b9150620002e18262000444565b602082019050919050565b6000620002fb60258362000379565b915062000308826200046d565b604082019050919050565b600060208201905081810360008301526200032e816200029e565b9050919050565b600060208201905081810360008301526200035081620002c5565b9050919050565b600060208201905081810360008301526200037281620002ec565b9050919050565b600082825260208201905092915050565b60006200039782620003c6565b9050919050565b6000620003ab82620003c6565b9050919050565b6000620003bf826200038a565b9050919050565b600073ffffffffffffffffffffffffffffffffffffffff82169050919050565b6000819050919050565b600080fd5b7f43726f776473616c653a20746f6b656e20697320746865207a65726f2061646460008201527f7265737300000000000000000000000000000000000000000000000000000000602082015250565b7f43726f776473616c653a20726174652069732030000000000000000000000000600082015250565b7f43726f776473616c653a2077616c6c657420697320746865207a65726f20616460008201527f6472657373000000000000000000000000000000000000000000000000000000602082015250565b620004c7816200039e565b8114620004d357600080fd5b50565b620004e181620003b2565b8114620004ed57600080fd5b50565b620004fb81620003e6565b81146200050757600080fd5b50565b610edd806200051a6000396000f3fe60806040526004361061004e5760003560e01c8063610757e41461006a57806383bebced1461009557806394a5aa8d146100c0578063ec8ac4d8146100eb578063ecd0c0c31461010757610065565b366100655761006361005e610132565b61013a565b005b600080fd5b34801561007657600080fd5b5061007f610260565b60405161008c91906109a2565b60405180910390f35b3480156100a157600080fd5b506100aa610286565b6040516100b79190610ae3565b60405180910390f35b3480156100cc57600080fd5b506100d561028c565b6040516100e29190610ae3565b60405180910390f35b610105600480360381019061010091906107b9565b61013a565b005b34801561011357600080fd5b5061011c610292565b60405161012991906109e6565b60405180910390f35b600033905090565b60026000541415610180576040517f08c379a000000000000000000000000000000000000000000000000000000000815260040161017790610aa3565b60405180910390fd5b6002600081905550600034905061019782826102b8565b60006101a282610370565b90506101b98260045461038e90919063ffffffff16565b6004819055506101c983826103a4565b8273ffffffffffffffffffffffffffffffffffffffff166101e8610132565b73ffffffffffffffffffffffffffffffffffffffff167f6faf93231a456e552dbc9961f58d9713ee4f2e69d15f1975b050ef0911053a7b848460405161022f929190610afe565b60405180910390a361024183836103b2565b6102496103b6565b6102538383610421565b5050600160008190555050565b600260009054906101000a900473ffffffffffffffffffffffffffffffffffffffff1681565b60035481565b60045481565b600160009054906101000a900473ffffffffffffffffffffffffffffffffffffffff1681565b600073ffffffffffffffffffffffffffffffffffffffff168273ffffffffffffffffffffffffffffffffffffffff161415610328576040517f08c379a000000000000000000000000000000000000000000000000000000000815260040161031f90610a43565b60405180910390fd5b600081141561036c576040517f08c379a000000000000000000000000000000000000000000000000000000000815260040161036390610ac3565b60405180910390fd5b5050565b60006103876003548361042590919063ffffffff16565b9050919050565b6000818361039c9190610b59565b905092915050565b6103ae828261043b565b5050565b5050565b600260009054906101000a900473ffffffffffffffffffffffffffffffffffffffff1673ffffffffffffffffffffffffffffffffffffffff166108fc349081150290604051600060405180830381858888f1935050505015801561041e573d6000803e3d6000fd5b50565b5050565b600081836104339190610baf565b905092915050565b6104888282600160009054906101000a900473ffffffffffffffffffffffffffffffffffffffff1673ffffffffffffffffffffffffffffffffffffffff1661048c9092919063ffffffff16565b5050565b61050d8363a9059cbb60e01b84846040516024016104ab9291906109bd565b604051602081830303815290604052907bffffffffffffffffffffffffffffffffffffffffffffffffffffffff19166020820180517bffffffffffffffffffffffffffffffffffffffffffffffffffffffff8381831617835250505050610512565b505050565b6000610574826040518060400160405280602081526020017f5361666545524332303a206c6f772d6c6576656c2063616c6c206661696c65648152508573ffffffffffffffffffffffffffffffffffffffff166105d99092919063ffffffff16565b90506000815111156105d4578080602001905181019061059491906107e6565b6105d3576040517f08c379a00000000000000000000000000000000000000000000000000000000081526004016105ca90610a83565b60405180910390fd5b5b505050565b60606105e884846000856105f1565b90509392505050565b606082471015610636576040517f08c379a000000000000000000000000000000000000000000000000000000000815260040161062d90610a23565b60405180910390fd5b61063f85610705565b61067e576040517f08c379a000000000000000000000000000000000000000000000000000000000815260040161067590610a63565b60405180910390fd5b6000808673ffffffffffffffffffffffffffffffffffffffff1685876040516106a7919061098b565b60006040518083038185875af1925050503d80600081146106e4576040519150601f19603f3d011682016040523d82523d6000602084013e6106e9565b606091505b50915091506106f9828286610728565b92505050949350505050565b6000808273ffffffffffffffffffffffffffffffffffffffff163b119050919050565b6060831561073857829050610788565b60008351111561074b5782518084602001fd5b816040517f08c379a000000000000000000000000000000000000000000000000000000000815260040161077f9190610a01565b60405180910390fd5b9392505050565b60008135905061079e81610e79565b92915050565b6000815190506107b381610e90565b92915050565b6000602082840312156107cf576107ce610cfb565b5b60006107dd8482850161078f565b91505092915050565b6000602082840312156107fc576107fb610cfb565b5b600061080a848285016107a4565b91505092915050565b61081c81610c1b565b82525050565b61082b81610c09565b82525050565b600061083c82610b27565b6108468185610b3d565b9350610856818560208601610c99565b80840191505092915050565b61086b81610c63565b82525050565b600061087c82610b32565b6108868185610b48565b9350610896818560208601610c99565b61089f81610d00565b840191505092915050565b60006108b7602683610b48565b91506108c282610d11565b604082019050919050565b60006108da602a83610b48565b91506108e582610d60565b604082019050919050565b60006108fd601d83610b48565b915061090882610daf565b602082019050919050565b6000610920602a83610b48565b915061092b82610dd8565b604082019050919050565b6000610943601f83610b48565b915061094e82610e27565b602082019050919050565b6000610966601983610b48565b915061097182610e50565b602082019050919050565b61098581610c59565b82525050565b60006109978284610831565b915081905092915050565b60006020820190506109b76000830184610813565b92915050565b60006040820190506109d26000830185610822565b6109df602083018461097c565b9392505050565b60006020820190506109fb6000830184610862565b92915050565b60006020820190508181036000830152610a1b8184610871565b905092915050565b60006020820190508181036000830152610a3c816108aa565b9050919050565b60006020820190508181036000830152610a5c816108cd565b9050919050565b60006020820190508181036000830152610a7c816108f0565b9050919050565b60006020820190508181036000830152610a9c81610913565b9050919050565b60006020820190508181036000830152610abc81610936565b9050919050565b60006020820190508181036000830152610adc81610959565b9050919050565b6000602082019050610af8600083018461097c565b92915050565b6000604082019050610b13600083018561097c565b610b20602083018461097c565b9392505050565b600081519050919050565b600081519050919050565b600081905092915050565b600082825260208201905092915050565b6000610b6482610c59565b9150610b6f83610c59565b9250827fffffffffffffffffffffffffffffffffffffffffffffffffffffffffffffffff03821115610ba457610ba3610ccc565b5b828201905092915050565b6000610bba82610c59565b9150610bc583610c59565b9250817fffffffffffffffffffffffffffffffffffffffffffffffffffffffffffffffff0483118215151615610bfe57610bfd610ccc565b5b828202905092915050565b6000610c1482610c39565b9050919050565b6000610c2682610c39565b9050919050565b60008115159050919050565b600073ffffffffffffffffffffffffffffffffffffffff82169050919050565b6000819050919050565b6000610c6e82610c75565b9050919050565b6000610c8082610c87565b9050919050565b6000610c9282610c39565b9050919050565b60005b83811015610cb7578082015181840152602081019050610c9c565b83811115610cc6576000848401525b50505050565b7f4e487b7100000000000000000000000000000000000000000000000000000000600052601160045260246000fd5b600080fd5b6000601f19601f8301169050919050565b7f416464726573733a20696e73756666696369656e742062616c616e636520666f60008201527f722063616c6c0000000000000000000000000000000000000000000000000000602082015250565b7f43726f776473616c653a2062656e656669636961727920697320746865207a6560008201527f726f206164647265737300000000000000000000000000000000000000000000602082015250565b7f416464726573733a2063616c6c20746f206e6f6e2d636f6e7472616374000000600082015250565b7f5361666545524332303a204552433230206f7065726174696f6e20646964206e60008201527f6f74207375636365656400000000000000000000000000000000000000000000602082015250565b7f5265656e7472616e637947756172643a207265656e7472616e742063616c6c00600082015250565b7f43726f776473616c653a20776569416d6f756e74206973203000000000000000600082015250565b610e8281610c09565b8114610e8d57600080fd5b50565b610e9981610c2d565b8114610ea457600080fd5b5056fea26469706673582212209970ce7449ad0ebcfc6704f978ab4d35a740ebc1e352d00f40dde6801210c41864736f6c63430008070033",
					"opcodes": "PUSH1 0x80 PUSH1 0x40 MSTORE CALLVALUE DUP1 ISZERO PUSH3 0x11 JUMPI PUSH1 0x0 DUP1 REVERT JUMPDEST POP PUSH1 0x40 MLOAD PUSH3 0x13F7 CODESIZE SUB DUP1 PUSH3 0x13F7 DUP4 CODECOPY DUP2 DUP2 ADD PUSH1 0x40 MSTORE DUP2 ADD SWAP1 PUSH3 0x37 SWAP2 SWAP1 PUSH3 0x242 JUMP JUMPDEST PUSH1 0x1 PUSH1 0x0 DUP2 SWAP1 SSTORE POP PUSH1 0x0 DUP4 GT PUSH3 0x85 JUMPI PUSH1 0x40 MLOAD PUSH32 0x8C379A000000000000000000000000000000000000000000000000000000000 DUP2 MSTORE PUSH1 0x4 ADD PUSH3 0x7C SWAP1 PUSH3 0x335 JUMP JUMPDEST PUSH1 0x40 MLOAD DUP1 SWAP2 SUB SWAP1 REVERT JUMPDEST PUSH1 0x0 PUSH20 0xFFFFFFFFFFFFFFFFFFFFFFFFFFFFFFFFFFFFFFFF AND DUP3 PUSH20 0xFFFFFFFFFFFFFFFFFFFFFFFFFFFFFFFFFFFFFFFF AND EQ ISZERO PUSH3 0xF8 JUMPI PUSH1 0x40 MLOAD PUSH32 0x8C379A000000000000000000000000000000000000000000000000000000000 DUP2 MSTORE PUSH1 0x4 ADD PUSH3 0xEF SWAP1 PUSH3 0x357 JUMP JUMPDEST PUSH1 0x40 MLOAD DUP1 SWAP2 SUB SWAP1 REVERT JUMPDEST PUSH1 0x0 PUSH20 0xFFFFFFFFFFFFFFFFFFFFFFFFFFFFFFFFFFFFFFFF AND DUP2 PUSH20 0xFFFFFFFFFFFFFFFFFFFFFFFFFFFFFFFFFFFFFFFF AND EQ ISZERO PUSH3 0x16B JUMPI PUSH1 0x40 MLOAD PUSH32 0x8C379A000000000000000000000000000000000000000000000000000000000 DUP2 MSTORE PUSH1 0x4 ADD PUSH3 0x162 SWAP1 PUSH3 0x313 JUMP JUMPDEST PUSH1 0x40 MLOAD DUP1 SWAP2 SUB SWAP1 REVERT JUMPDEST DUP3 PUSH1 0x3 DUP2 SWAP1 SSTORE POP DUP2 PUSH1 0x2 PUSH1 0x0 PUSH2 0x100 EXP DUP2 SLOAD DUP2 PUSH20 0xFFFFFFFFFFFFFFFFFFFFFFFFFFFFFFFFFFFFFFFF MUL NOT AND SWAP1 DUP4 PUSH20 0xFFFFFFFFFFFFFFFFFFFFFFFFFFFFFFFFFFFFFFFF AND MUL OR SWAP1 SSTORE POP DUP1 PUSH1 0x1 PUSH1 0x0 PUSH2 0x100 EXP DUP2 SLOAD DUP2 PUSH20 0xFFFFFFFFFFFFFFFFFFFFFFFFFFFFFFFFFFFFFFFF MUL NOT AND SWAP1 DUP4 PUSH20 0xFFFFFFFFFFFFFFFFFFFFFFFFFFFFFFFFFFFFFFFF AND MUL OR SWAP1 SSTORE POP POP POP POP PUSH3 0x50A JUMP JUMPDEST PUSH1 0x0 DUP2 MLOAD SWAP1 POP PUSH3 0x20E DUP2 PUSH3 0x4BC JUMP JUMPDEST SWAP3 SWAP2 POP POP JUMP JUMPDEST PUSH1 0x0 DUP2 MLOAD SWAP1 POP PUSH3 0x225 DUP2 PUSH3 0x4D6 JUMP JUMPDEST SWAP3 SWAP2 POP POP JUMP JUMPDEST PUSH1 0x0 DUP2 MLOAD SWAP1 POP PUSH3 0x23C DUP2 PUSH3 0x4F0 JUMP JUMPDEST SWAP3 SWAP2 POP POP JUMP JUMPDEST PUSH1 0x0 DUP1 PUSH1 0x0 PUSH1 0x60 DUP5 DUP7 SUB SLT ISZERO PUSH3 0x25E JUMPI PUSH3 0x25D PUSH3 0x3F0 JUMP JUMPDEST JUMPDEST PUSH1 0x0 PUSH3 0x26E DUP7 DUP3 DUP8 ADD PUSH3 0x22B JUMP JUMPDEST SWAP4 POP POP PUSH1 0x20 PUSH3 0x281 DUP7 DUP3 DUP8 ADD PUSH3 0x1FD JUMP JUMPDEST SWAP3 POP POP PUSH1 0x40 PUSH3 0x294 DUP7 DUP3 DUP8 ADD PUSH3 0x214 JUMP JUMPDEST SWAP2 POP POP SWAP3 POP SWAP3 POP SWAP3 JUMP JUMPDEST PUSH1 0x0 PUSH3 0x2AD PUSH1 0x24 DUP4 PUSH3 0x379 JUMP JUMPDEST SWAP2 POP PUSH3 0x2BA DUP3 PUSH3 0x3F5 JUMP JUMPDEST PUSH1 0x40 DUP3 ADD SWAP1 POP SWAP2 SWAP1 POP JUMP JUMPDEST PUSH1 0x0 PUSH3 0x2D4 PUSH1 0x14 DUP4 PUSH3 0x379 JUMP JUMPDEST SWAP2 POP PUSH3 0x2E1 DUP3 PUSH3 0x444 JUMP JUMPDEST PUSH1 0x20 DUP3 ADD SWAP1 POP SWAP2 SWAP1 POP JUMP JUMPDEST PUSH1 0x0 PUSH3 0x2FB PUSH1 0x25 DUP4 PUSH3 0x379 JUMP JUMPDEST SWAP2 POP PUSH3 0x308 DUP3 PUSH3 0x46D JUMP JUMPDEST PUSH1 0x40 DUP3 ADD SWAP1 POP SWAP2 SWAP1 POP JUMP JUMPDEST PUSH1 0x0 PUSH1 0x20 DUP3 ADD SWAP1 POP DUP2 DUP2 SUB PUSH1 0x0 DUP4 ADD MSTORE PUSH3 0x32E DUP2 PUSH3 0x29E JUMP JUMPDEST SWAP1 POP SWAP2 SWAP1 POP JUMP JUMPDEST PUSH1 0x0 PUSH1 0x20 DUP3 ADD SWAP1 POP DUP2 DUP2 SUB PUSH1 0x0 DUP4 ADD MSTORE PUSH3 0x350 DUP2 PUSH3 0x2C5 JUMP JUMPDEST SWAP1 POP SWAP2 SWAP1 POP JUMP JUMPDEST PUSH1 0x0 PUSH1 0x20 DUP3 ADD SWAP1 POP DUP2 DUP2 SUB PUSH1 0x0 DUP4 ADD MSTORE PUSH3 0x372 DUP2 PUSH3 0x2EC JUMP JUMPDEST SWAP1 POP SWAP2 SWAP1 POP JUMP JUMPDEST PUSH1 0x0 DUP3 DUP3 MSTORE PUSH1 0x20 DUP3 ADD SWAP1 POP SWAP3 SWAP2 POP POP JUMP JUMPDEST PUSH1 0x0 PUSH3 0x397 DUP3 PUSH3 0x3C6 JUMP JUMPDEST SWAP1 POP SWAP2 SWAP1 POP JUMP JUMPDEST PUSH1 0x0 PUSH3 0x3AB DUP3 PUSH3 0x3C6 JUMP JUMPDEST SWAP1 POP SWAP2 SWAP1 POP JUMP JUMPDEST PUSH1 0x0 PUSH3 0x3BF DUP3 PUSH3 0x38A JUMP JUMPDEST SWAP1 POP SWAP2 SWAP1 POP JUMP JUMPDEST PUSH1 0x0 PUSH20 0xFFFFFFFFFFFFFFFFFFFFFFFFFFFFFFFFFFFFFFFF DUP3 AND SWAP1 POP SWAP2 SWAP1 POP JUMP JUMPDEST PUSH1 0x0 DUP2 SWAP1 POP SWAP2 SWAP1 POP JUMP JUMPDEST PUSH1 0x0 DUP1 REVERT JUMPDEST PUSH32 0x43726F776473616C653A20746F6B656E20697320746865207A65726F20616464 PUSH1 0x0 DUP3 ADD MSTORE PUSH32 0x7265737300000000000000000000000000000000000000000000000000000000 PUSH1 0x20 DUP3 ADD MSTORE POP JUMP JUMPDEST PUSH32 0x43726F776473616C653A20726174652069732030000000000000000000000000 PUSH1 0x0 DUP3 ADD MSTORE POP JUMP JUMPDEST PUSH32 0x43726F776473616C653A2077616C6C657420697320746865207A65726F206164 PUSH1 0x0 DUP3 ADD MSTORE PUSH32 0x6472657373000000000000000000000000000000000000000000000000000000 PUSH1 0x20 DUP3 ADD MSTORE POP JUMP JUMPDEST PUSH3 0x4C7 DUP2 PUSH3 0x39E JUMP JUMPDEST DUP2 EQ PUSH3 0x4D3 JUMPI PUSH1 0x0 DUP1 REVERT JUMPDEST POP JUMP JUMPDEST PUSH3 0x4E1 DUP2 PUSH3 0x3B2 JUMP JUMPDEST DUP2 EQ PUSH3 0x4ED JUMPI PUSH1 0x0 DUP1 REVERT JUMPDEST POP JUMP JUMPDEST PUSH3 0x4FB DUP2 PUSH3 0x3E6 JUMP JUMPDEST DUP2 EQ PUSH3 0x507 JUMPI PUSH1 0x0 DUP1 REVERT JUMPDEST POP JUMP JUMPDEST PUSH2 0xEDD DUP1 PUSH3 0x51A PUSH1 0x0 CODECOPY PUSH1 0x0 RETURN INVALID PUSH1 0x80 PUSH1 0x40 MSTORE PUSH1 0x4 CALLDATASIZE LT PUSH2 0x4E JUMPI PUSH1 0x0 CALLDATALOAD PUSH1 0xE0 SHR DUP1 PUSH4 0x610757E4 EQ PUSH2 0x6A JUMPI DUP1 PUSH4 0x83BEBCED EQ PUSH2 0x95 JUMPI DUP1 PUSH4 0x94A5AA8D EQ PUSH2 0xC0 JUMPI DUP1 PUSH4 0xEC8AC4D8 EQ PUSH2 0xEB JUMPI DUP1 PUSH4 0xECD0C0C3 EQ PUSH2 0x107 JUMPI PUSH2 0x65 JUMP JUMPDEST CALLDATASIZE PUSH2 0x65 JUMPI PUSH2 0x63 PUSH2 0x5E PUSH2 0x132 JUMP JUMPDEST PUSH2 0x13A JUMP JUMPDEST STOP JUMPDEST PUSH1 0x0 DUP1 REVERT JUMPDEST CALLVALUE DUP1 ISZERO PUSH2 0x76 JUMPI PUSH1 0x0 DUP1 REVERT JUMPDEST POP PUSH2 0x7F PUSH2 0x260 JUMP JUMPDEST PUSH1 0x40 MLOAD PUSH2 0x8C SWAP2 SWAP1 PUSH2 0x9A2 JUMP JUMPDEST PUSH1 0x40 MLOAD DUP1 SWAP2 SUB SWAP1 RETURN JUMPDEST CALLVALUE DUP1 ISZERO PUSH2 0xA1 JUMPI PUSH1 0x0 DUP1 REVERT JUMPDEST POP PUSH2 0xAA PUSH2 0x286 JUMP JUMPDEST PUSH1 0x40 MLOAD PUSH2 0xB7 SWAP2 SWAP1 PUSH2 0xAE3 JUMP JUMPDEST PUSH1 0x40 MLOAD DUP1 SWAP2 SUB SWAP1 RETURN JUMPDEST CALLVALUE DUP1 ISZERO PUSH2 0xCC JUMPI PUSH1 0x0 DUP1 REVERT JUMPDEST POP PUSH2 0xD5 PUSH2 0x28C JUMP JUMPDEST PUSH1 0x40 MLOAD PUSH2 0xE2 SWAP2 SWAP1 PUSH2 0xAE3 JUMP JUMPDEST PUSH1 0x40 MLOAD DUP1 SWAP2 SUB SWAP1 RETURN JUMPDEST PUSH2 0x105 PUSH1 0x4 DUP1 CALLDATASIZE SUB DUP2 ADD SWAP1 PUSH2 0x100 SWAP2 SWAP1 PUSH2 0x7B9 JUMP JUMPDEST PUSH2 0x13A JUMP JUMPDEST STOP JUMPDEST CALLVALUE DUP1 ISZERO PUSH2 0x113 JUMPI PUSH1 0x0 DUP1 REVERT JUMPDEST POP PUSH2 0x11C PUSH2 0x292 JUMP JUMPDEST PUSH1 0x40 MLOAD PUSH2 0x129 SWAP2 SWAP1 PUSH2 0x9E6 JUMP JUMPDEST PUSH1 0x40 MLOAD DUP1 SWAP2 SUB SWAP1 RETURN JUMPDEST PUSH1 0x0 CALLER SWAP1 POP SWAP1 JUMP JUMPDEST PUSH1 0x2 PUSH1 0x0 SLOAD EQ ISZERO PUSH2 0x180 JUMPI PUSH1 0x40 MLOAD PUSH32 0x8C379A000000000000000000000000000000000000000000000000000000000 DUP2 MSTORE PUSH1 0x4 ADD PUSH2 0x177 SWAP1 PUSH2 0xAA3 JUMP JUMPDEST PUSH1 0x40 MLOAD DUP1 SWAP2 SUB SWAP1 REVERT JUMPDEST PUSH1 0x2 PUSH1 0x0 DUP2 SWAP1 SSTORE POP PUSH1 0x0 CALLVALUE SWAP1 POP PUSH2 0x197 DUP3 DUP3 PUSH2 0x2B8 JUMP JUMPDEST PUSH1 0x0 PUSH2 0x1A2 DUP3 PUSH2 0x370 JUMP JUMPDEST SWAP1 POP PUSH2 0x1B9 DUP3 PUSH1 0x4 SLOAD PUSH2 0x38E SWAP1 SWAP2 SWAP1 PUSH4 0xFFFFFFFF AND JUMP JUMPDEST PUSH1 0x4 DUP2 SWAP1 SSTORE POP PUSH2 0x1C9 DUP4 DUP3 PUSH2 0x3A4 JUMP JUMPDEST DUP3 PUSH20 0xFFFFFFFFFFFFFFFFFFFFFFFFFFFFFFFFFFFFFFFF AND PUSH2 0x1E8 PUSH2 0x132 JUMP JUMPDEST PUSH20 0xFFFFFFFFFFFFFFFFFFFFFFFFFFFFFFFFFFFFFFFF AND PUSH32 0x6FAF93231A456E552DBC9961F58D9713EE4F2E69D15F1975B050EF0911053A7B DUP5 DUP5 PUSH1 0x40 MLOAD PUSH2 0x22F SWAP3 SWAP2 SWAP1 PUSH2 0xAFE JUMP JUMPDEST PUSH1 0x40 MLOAD DUP1 SWAP2 SUB SWAP1 LOG3 PUSH2 0x241 DUP4 DUP4 PUSH2 0x3B2 JUMP JUMPDEST PUSH2 0x249 PUSH2 0x3B6 JUMP JUMPDEST PUSH2 0x253 DUP4 DUP4 PUSH2 0x421 JUMP JUMPDEST POP POP PUSH1 0x1 PUSH1 0x0 DUP2 SWAP1 SSTORE POP POP JUMP JUMPDEST PUSH1 0x2 PUSH1 0x0 SWAP1 SLOAD SWAP1 PUSH2 0x100 EXP SWAP1 DIV PUSH20 0xFFFFFFFFFFFFFFFFFFFFFFFFFFFFFFFFFFFFFFFF AND DUP2 JUMP JUMPDEST PUSH1 0x3 SLOAD DUP2 JUMP JUMPDEST PUSH1 0x4 SLOAD DUP2 JUMP JUMPDEST PUSH1 0x1 PUSH1 0x0 SWAP1 SLOAD SWAP1 PUSH2 0x100 EXP SWAP1 DIV PUSH20 0xFFFFFFFFFFFFFFFFFFFFFFFFFFFFFFFFFFFFFFFF AND DUP2 JUMP JUMPDEST PUSH1 0x0 PUSH20 0xFFFFFFFFFFFFFFFFFFFFFFFFFFFFFFFFFFFFFFFF AND DUP3 PUSH20 0xFFFFFFFFFFFFFFFFFFFFFFFFFFFFFFFFFFFFFFFF AND EQ ISZERO PUSH2 0x328 JUMPI PUSH1 0x40 MLOAD PUSH32 0x8C379A000000000000000000000000000000000000000000000000000000000 DUP2 MSTORE PUSH1 0x4 ADD PUSH2 0x31F SWAP1 PUSH2 0xA43 JUMP JUMPDEST PUSH1 0x40 MLOAD DUP1 SWAP2 SUB SWAP1 REVERT JUMPDEST PUSH1 0x0 DUP2 EQ ISZERO PUSH2 0x36C JUMPI PUSH1 0x40 MLOAD PUSH32 0x8C379A000000000000000000000000000000000000000000000000000000000 DUP2 MSTORE PUSH1 0x4 ADD PUSH2 0x363 SWAP1 PUSH2 0xAC3 JUMP JUMPDEST PUSH1 0x40 MLOAD DUP1 SWAP2 SUB SWAP1 REVERT JUMPDEST POP POP JUMP JUMPDEST PUSH1 0x0 PUSH2 0x387 PUSH1 0x3 SLOAD DUP4 PUSH2 0x425 SWAP1 SWAP2 SWAP1 PUSH4 0xFFFFFFFF AND JUMP JUMPDEST SWAP1 POP SWAP2 SWAP1 POP JUMP JUMPDEST PUSH1 0x0 DUP2 DUP4 PUSH2 0x39C SWAP2 SWAP1 PUSH2 0xB59 JUMP JUMPDEST SWAP1 POP SWAP3 SWAP2 POP POP JUMP JUMPDEST PUSH2 0x3AE DUP3 DUP3 PUSH2 0x43B JUMP JUMPDEST POP POP JUMP JUMPDEST POP POP JUMP JUMPDEST PUSH1 0x2 PUSH1 0x0 SWAP1 SLOAD SWAP1 PUSH2 0x100 EXP SWAP1 DIV PUSH20 0xFFFFFFFFFFFFFFFFFFFFFFFFFFFFFFFFFFFFFFFF AND PUSH20 0xFFFFFFFFFFFFFFFFFFFFFFFFFFFFFFFFFFFFFFFF AND PUSH2 0x8FC CALLVALUE SWAP1 DUP2 ISZERO MUL SWAP1 PUSH1 0x40 MLOAD PUSH1 0x0 PUSH1 0x40 MLOAD DUP1 DUP4 SUB DUP2 DUP6 DUP9 DUP9 CALL SWAP4 POP POP POP POP ISZERO DUP1 ISZERO PUSH2 0x41E JUMPI RETURNDATASIZE PUSH1 0x0 DUP1 RETURNDATACOPY RETURNDATASIZE PUSH1 0x0 REVERT JUMPDEST POP JUMP JUMPDEST POP POP JUMP JUMPDEST PUSH1 0x0 DUP2 DUP4 PUSH2 0x433 SWAP2 SWAP1 PUSH2 0xBAF JUMP JUMPDEST SWAP1 POP SWAP3 SWAP2 POP POP JUMP JUMPDEST PUSH2 0x488 DUP3 DUP3 PUSH1 0x1 PUSH1 0x0 SWAP1 SLOAD SWAP1 PUSH2 0x100 EXP SWAP1 DIV PUSH20 0xFFFFFFFFFFFFFFFFFFFFFFFFFFFFFFFFFFFFFFFF AND PUSH20 0xFFFFFFFFFFFFFFFFFFFFFFFFFFFFFFFFFFFFFFFF AND PUSH2 0x48C SWAP1 SWAP3 SWAP2 SWAP1 PUSH4 0xFFFFFFFF AND JUMP JUMPDEST POP POP JUMP JUMPDEST PUSH2 0x50D DUP4 PUSH4 0xA9059CBB PUSH1 0xE0 SHL DUP5 DUP5 PUSH1 0x40 MLOAD PUSH1 0x24 ADD PUSH2 0x4AB SWAP3 SWAP2 SWAP1 PUSH2 0x9BD JUMP JUMPDEST PUSH1 0x40 MLOAD PUSH1 0x20 DUP2 DUP4 SUB SUB DUP2 MSTORE SWAP1 PUSH1 0x40 MSTORE SWAP1 PUSH28 0xFFFFFFFFFFFFFFFFFFFFFFFFFFFFFFFFFFFFFFFFFFFFFFFFFFFFFFFF NOT AND PUSH1 0x20 DUP3 ADD DUP1 MLOAD PUSH28 0xFFFFFFFFFFFFFFFFFFFFFFFFFFFFFFFFFFFFFFFFFFFFFFFFFFFFFFFF DUP4 DUP2 DUP4 AND OR DUP4 MSTORE POP POP POP POP PUSH2 0x512 JUMP JUMPDEST POP POP POP JUMP JUMPDEST PUSH1 0x0 PUSH2 0x574 DUP3 PUSH1 0x40 MLOAD DUP1 PUSH1 0x40 ADD PUSH1 0x40 MSTORE DUP1 PUSH1 0x20 DUP2 MSTORE PUSH1 0x20 ADD PUSH32 0x5361666545524332303A206C6F772D6C6576656C2063616C6C206661696C6564 DUP2 MSTORE POP DUP6 PUSH20 0xFFFFFFFFFFFFFFFFFFFFFFFFFFFFFFFFFFFFFFFF AND PUSH2 0x5D9 SWAP1 SWAP3 SWAP2 SWAP1 PUSH4 0xFFFFFFFF AND JUMP JUMPDEST SWAP1 POP PUSH1 0x0 DUP2 MLOAD GT ISZERO PUSH2 0x5D4 JUMPI DUP1 DUP1 PUSH1 0x20 ADD SWAP1 MLOAD DUP2 ADD SWAP1 PUSH2 0x594 SWAP2 SWAP1 PUSH2 0x7E6 JUMP JUMPDEST PUSH2 0x5D3 JUMPI PUSH1 0x40 MLOAD PUSH32 0x8C379A000000000000000000000000000000000000000000000000000000000 DUP2 MSTORE PUSH1 0x4 ADD PUSH2 0x5CA SWAP1 PUSH2 0xA83 JUMP JUMPDEST PUSH1 0x40 MLOAD DUP1 SWAP2 SUB SWAP1 REVERT JUMPDEST JUMPDEST POP POP POP JUMP JUMPDEST PUSH1 0x60 PUSH2 0x5E8 DUP5 DUP5 PUSH1 0x0 DUP6 PUSH2 0x5F1 JUMP JUMPDEST SWAP1 POP SWAP4 SWAP3 POP POP POP JUMP JUMPDEST PUSH1 0x60 DUP3 SELFBALANCE LT ISZERO PUSH2 0x636 JUMPI PUSH1 0x40 MLOAD PUSH32 0x8C379A000000000000000000000000000000000000000000000000000000000 DUP2 MSTORE PUSH1 0x4 ADD PUSH2 0x62D SWAP1 PUSH2 0xA23 JUMP JUMPDEST PUSH1 0x40 MLOAD DUP1 SWAP2 SUB SWAP1 REVERT JUMPDEST PUSH2 0x63F DUP6 PUSH2 0x705 JUMP JUMPDEST PUSH2 0x67E JUMPI PUSH1 0x40 MLOAD PUSH32 0x8C379A000000000000000000000000000000000000000000000000000000000 DUP2 MSTORE PUSH1 0x4 ADD PUSH2 0x675 SWAP1 PUSH2 0xA63 JUMP JUMPDEST PUSH1 0x40 MLOAD DUP1 SWAP2 SUB SWAP1 REVERT JUMPDEST PUSH1 0x0 DUP1 DUP7 PUSH20 0xFFFFFFFFFFFFFFFFFFFFFFFFFFFFFFFFFFFFFFFF AND DUP6 DUP8 PUSH1 0x40 MLOAD PUSH2 0x6A7 SWAP2 SWAP1 PUSH2 0x98B JUMP JUMPDEST PUSH1 0x0 PUSH1 0x40 MLOAD DUP1 DUP4 SUB DUP2 DUP6 DUP8 GAS CALL SWAP3 POP POP POP RETURNDATASIZE DUP1 PUSH1 0x0 DUP2 EQ PUSH2 0x6E4 JUMPI PUSH1 0x40 MLOAD SWAP2 POP PUSH1 0x1F NOT PUSH1 0x3F RETURNDATASIZE ADD AND DUP3 ADD PUSH1 0x40 MSTORE RETURNDATASIZE DUP3 MSTORE RETURNDATASIZE PUSH1 0x0 PUSH1 0x20 DUP5 ADD RETURNDATACOPY PUSH2 0x6E9 JUMP JUMPDEST PUSH1 0x60 SWAP2 POP JUMPDEST POP SWAP2 POP SWAP2 POP PUSH2 0x6F9 DUP3 DUP3 DUP7 PUSH2 0x728 JUMP JUMPDEST SWAP3 POP POP POP SWAP5 SWAP4 POP POP POP POP JUMP JUMPDEST PUSH1 0x0 DUP1 DUP3 PUSH20 0xFFFFFFFFFFFFFFFFFFFFFFFFFFFFFFFFFFFFFFFF AND EXTCODESIZE GT SWAP1 POP SWAP2 SWAP1 POP JUMP JUMPDEST PUSH1 0x60 DUP4 ISZERO PUSH2 0x738 JUMPI DUP3 SWAP1 POP PUSH2 0x788 JUMP JUMPDEST PUSH1 0x0 DUP4 MLOAD GT ISZERO PUSH2 0x74B JUMPI DUP3 MLOAD DUP1 DUP5 PUSH1 0x20 ADD REVERT JUMPDEST DUP2 PUSH1 0x40 MLOAD PUSH32 0x8C379A000000000000000000000000000000000000000000000000000000000 DUP2 MSTORE PUSH1 0x4 ADD PUSH2 0x77F SWAP2 SWAP1 PUSH2 0xA01 JUMP JUMPDEST PUSH1 0x40 MLOAD DUP1 SWAP2 SUB SWAP1 REVERT JUMPDEST SWAP4 SWAP3 POP POP POP JUMP JUMPDEST PUSH1 0x0 DUP2 CALLDATALOAD SWAP1 POP PUSH2 0x79E DUP2 PUSH2 0xE79 JUMP JUMPDEST SWAP3 SWAP2 POP POP JUMP JUMPDEST PUSH1 0x0 DUP2 MLOAD SWAP1 POP PUSH2 0x7B3 DUP2 PUSH2 0xE90 JUMP JUMPDEST SWAP3 SWAP2 POP POP JUMP JUMPDEST PUSH1 0x0 PUSH1 0x20 DUP3 DUP5 SUB SLT ISZERO PUSH2 0x7CF JUMPI PUSH2 0x7CE PUSH2 0xCFB JUMP JUMPDEST JUMPDEST PUSH1 0x0 PUSH2 0x7DD DUP5 DUP3 DUP6 ADD PUSH2 0x78F JUMP JUMPDEST SWAP2 POP POP SWAP3 SWAP2 POP POP JUMP JUMPDEST PUSH1 0x0 PUSH1 0x20 DUP3 DUP5 SUB SLT ISZERO PUSH2 0x7FC JUMPI PUSH2 0x7FB PUSH2 0xCFB JUMP JUMPDEST JUMPDEST PUSH1 0x0 PUSH2 0x80A DUP5 DUP3 DUP6 ADD PUSH2 0x7A4 JUMP JUMPDEST SWAP2 POP POP SWAP3 SWAP2 POP POP JUMP JUMPDEST PUSH2 0x81C DUP2 PUSH2 0xC1B JUMP JUMPDEST DUP3 MSTORE POP POP JUMP JUMPDEST PUSH2 0x82B DUP2 PUSH2 0xC09 JUMP JUMPDEST DUP3 MSTORE POP POP JUMP JUMPDEST PUSH1 0x0 PUSH2 0x83C DUP3 PUSH2 0xB27 JUMP JUMPDEST PUSH2 0x846 DUP2 DUP6 PUSH2 0xB3D JUMP JUMPDEST SWAP4 POP PUSH2 0x856 DUP2 DUP6 PUSH1 0x20 DUP7 ADD PUSH2 0xC99 JUMP JUMPDEST DUP1 DUP5 ADD SWAP2 POP POP SWAP3 SWAP2 POP POP JUMP JUMPDEST PUSH2 0x86B DUP2 PUSH2 0xC63 JUMP JUMPDEST DUP3 MSTORE POP POP JUMP JUMPDEST PUSH1 0x0 PUSH2 0x87C DUP3 PUSH2 0xB32 JUMP JUMPDEST PUSH2 0x886 DUP2 DUP6 PUSH2 0xB48 JUMP JUMPDEST SWAP4 POP PUSH2 0x896 DUP2 DUP6 PUSH1 0x20 DUP7 ADD PUSH2 0xC99 JUMP JUMPDEST PUSH2 0x89F DUP2 PUSH2 0xD00 JUMP JUMPDEST DUP5 ADD SWAP2 POP POP SWAP3 SWAP2 POP POP JUMP JUMPDEST PUSH1 0x0 PUSH2 0x8B7 PUSH1 0x26 DUP4 PUSH2 0xB48 JUMP JUMPDEST SWAP2 POP PUSH2 0x8C2 DUP3 PUSH2 0xD11 JUMP JUMPDEST PUSH1 0x40 DUP3 ADD SWAP1 POP SWAP2 SWAP1 POP JUMP JUMPDEST PUSH1 0x0 PUSH2 0x8DA PUSH1 0x2A DUP4 PUSH2 0xB48 JUMP JUMPDEST SWAP2 POP PUSH2 0x8E5 DUP3 PUSH2 0xD60 JUMP JUMPDEST PUSH1 0x40 DUP3 ADD SWAP1 POP SWAP2 SWAP1 POP JUMP JUMPDEST PUSH1 0x0 PUSH2 0x8FD PUSH1 0x1D DUP4 PUSH2 0xB48 JUMP JUMPDEST SWAP2 POP PUSH2 0x908 DUP3 PUSH2 0xDAF JUMP JUMPDEST PUSH1 0x20 DUP3 ADD SWAP1 POP SWAP2 SWAP1 POP JUMP JUMPDEST PUSH1 0x0 PUSH2 0x920 PUSH1 0x2A DUP4 PUSH2 0xB48 JUMP JUMPDEST SWAP2 POP PUSH2 0x92B DUP3 PUSH2 0xDD8 JUMP JUMPDEST PUSH1 0x40 DUP3 ADD SWAP1 POP SWAP2 SWAP1 POP JUMP JUMPDEST PUSH1 0x0 PUSH2 0x943 PUSH1 0x1F DUP4 PUSH2 0xB48 JUMP JUMPDEST SWAP2 POP PUSH2 0x94E DUP3 PUSH2 0xE27 JUMP JUMPDEST PUSH1 0x20 DUP3 ADD SWAP1 POP SWAP2 SWAP1 POP JUMP JUMPDEST PUSH1 0x0 PUSH2 0x966 PUSH1 0x19 DUP4 PUSH2 0xB48 JUMP JUMPDEST SWAP2 POP PUSH2 0x971 DUP3 PUSH2 0xE50 JUMP JUMPDEST PUSH1 0x20 DUP3 ADD SWAP1 POP SWAP2 SWAP1 POP JUMP JUMPDEST PUSH2 0x985 DUP2 PUSH2 0xC59 JUMP JUMPDEST DUP3 MSTORE POP POP JUMP JUMPDEST PUSH1 0x0 PUSH2 0x997 DUP3 DUP5 PUSH2 0x831 JUMP JUMPDEST SWAP2 POP DUP2 SWAP1 POP SWAP3 SWAP2 POP POP JUMP JUMPDEST PUSH1 0x0 PUSH1 0x20 DUP3 ADD SWAP1 POP PUSH2 0x9B7 PUSH1 0x0 DUP4 ADD DUP5 PUSH2 0x813 JUMP JUMPDEST SWAP3 SWAP2 POP POP JUMP JUMPDEST PUSH1 0x0 PUSH1 0x40 DUP3 ADD SWAP1 POP PUSH2 0x9D2 PUSH1 0x0 DUP4 ADD DUP6 PUSH2 0x822 JUMP JUMPDEST PUSH2 0x9DF PUSH1 0x20 DUP4 ADD DUP5 PUSH2 0x97C JUMP JUMPDEST SWAP4 SWAP3 POP POP POP JUMP JUMPDEST PUSH1 0x0 PUSH1 0x20 DUP3 ADD SWAP1 POP PUSH2 0x9FB PUSH1 0x0 DUP4 ADD DUP5 PUSH2 0x862 JUMP JUMPDEST SWAP3 SWAP2 POP POP JUMP JUMPDEST PUSH1 0x0 PUSH1 0x20 DUP3 ADD SWAP1 POP DUP2 DUP2 SUB PUSH1 0x0 DUP4 ADD MSTORE PUSH2 0xA1B DUP2 DUP5 PUSH2 0x871 JUMP JUMPDEST SWAP1 POP SWAP3 SWAP2 POP POP JUMP JUMPDEST PUSH1 0x0 PUSH1 0x20 DUP3 ADD SWAP1 POP DUP2 DUP2 SUB PUSH1 0x0 DUP4 ADD MSTORE PUSH2 0xA3C DUP2 PUSH2 0x8AA JUMP JUMPDEST SWAP1 POP SWAP2 SWAP1 POP JUMP JUMPDEST PUSH1 0x0 PUSH1 0x20 DUP3 ADD SWAP1 POP DUP2 DUP2 SUB PUSH1 0x0 DUP4 ADD MSTORE PUSH2 0xA5C DUP2 PUSH2 0x8CD JUMP JUMPDEST SWAP1 POP SWAP2 SWAP1 POP JUMP JUMPDEST PUSH1 0x0 PUSH1 0x20 DUP3 ADD SWAP1 POP DUP2 DUP2 SUB PUSH1 0x0 DUP4 ADD MSTORE PUSH2 0xA7C DUP2 PUSH2 0x8F0 JUMP JUMPDEST SWAP1 POP SWAP2 SWAP1 POP JUMP JUMPDEST PUSH1 0x0 PUSH1 0x20 DUP3 ADD SWAP1 POP DUP2 DUP2 SUB PUSH1 0x0 DUP4 ADD MSTORE PUSH2 0xA9C DUP2 PUSH2 0x913 JUMP JUMPDEST SWAP1 POP SWAP2 SWAP1 POP JUMP JUMPDEST PUSH1 0x0 PUSH1 0x20 DUP3 ADD SWAP1 POP DUP2 DUP2 SUB PUSH1 0x0 DUP4 ADD MSTORE PUSH2 0xABC DUP2 PUSH2 0x936 JUMP JUMPDEST SWAP1 POP SWAP2 SWAP1 POP JUMP JUMPDEST PUSH1 0x0 PUSH1 0x20 DUP3 ADD SWAP1 POP DUP2 DUP2 SUB PUSH1 0x0 DUP4 ADD MSTORE PUSH2 0xADC DUP2 PUSH2 0x959 JUMP JUMPDEST SWAP1 POP SWAP2 SWAP1 POP JUMP JUMPDEST PUSH1 0x0 PUSH1 0x20 DUP3 ADD SWAP1 POP PUSH2 0xAF8 PUSH1 0x0 DUP4 ADD DUP5 PUSH2 0x97C JUMP JUMPDEST SWAP3 SWAP2 POP POP JUMP JUMPDEST PUSH1 0x0 PUSH1 0x40 DUP3 ADD SWAP1 POP PUSH2 0xB13 PUSH1 0x0 DUP4 ADD DUP6 PUSH2 0x97C JUMP JUMPDEST PUSH2 0xB20 PUSH1 0x20 DUP4 ADD DUP5 PUSH2 0x97C JUMP JUMPDEST SWAP4 SWAP3 POP POP POP JUMP JUMPDEST PUSH1 0x0 DUP2 MLOAD SWAP1 POP SWAP2 SWAP1 POP JUMP JUMPDEST PUSH1 0x0 DUP2 MLOAD SWAP1 POP SWAP2 SWAP1 POP JUMP JUMPDEST PUSH1 0x0 DUP2 SWAP1 POP SWAP3 SWAP2 POP POP JUMP JUMPDEST PUSH1 0x0 DUP3 DUP3 MSTORE PUSH1 0x20 DUP3 ADD SWAP1 POP SWAP3 SWAP2 POP POP JUMP JUMPDEST PUSH1 0x0 PUSH2 0xB64 DUP3 PUSH2 0xC59 JUMP JUMPDEST SWAP2 POP PUSH2 0xB6F DUP4 PUSH2 0xC59 JUMP JUMPDEST SWAP3 POP DUP3 PUSH32 0xFFFFFFFFFFFFFFFFFFFFFFFFFFFFFFFFFFFFFFFFFFFFFFFFFFFFFFFFFFFFFFFF SUB DUP3 GT ISZERO PUSH2 0xBA4 JUMPI PUSH2 0xBA3 PUSH2 0xCCC JUMP JUMPDEST JUMPDEST DUP3 DUP3 ADD SWAP1 POP SWAP3 SWAP2 POP POP JUMP JUMPDEST PUSH1 0x0 PUSH2 0xBBA DUP3 PUSH2 0xC59 JUMP JUMPDEST SWAP2 POP PUSH2 0xBC5 DUP4 PUSH2 0xC59 JUMP JUMPDEST SWAP3 POP DUP2 PUSH32 0xFFFFFFFFFFFFFFFFFFFFFFFFFFFFFFFFFFFFFFFFFFFFFFFFFFFFFFFFFFFFFFFF DIV DUP4 GT DUP3 ISZERO ISZERO AND ISZERO PUSH2 0xBFE JUMPI PUSH2 0xBFD PUSH2 0xCCC JUMP JUMPDEST JUMPDEST DUP3 DUP3 MUL SWAP1 POP SWAP3 SWAP2 POP POP JUMP JUMPDEST PUSH1 0x0 PUSH2 0xC14 DUP3 PUSH2 0xC39 JUMP JUMPDEST SWAP1 POP SWAP2 SWAP1 POP JUMP JUMPDEST PUSH1 0x0 PUSH2 0xC26 DUP3 PUSH2 0xC39 JUMP JUMPDEST SWAP1 POP SWAP2 SWAP1 POP JUMP JUMPDEST PUSH1 0x0 DUP2 ISZERO ISZERO SWAP1 POP SWAP2 SWAP1 POP JUMP JUMPDEST PUSH1 0x0 PUSH20 0xFFFFFFFFFFFFFFFFFFFFFFFFFFFFFFFFFFFFFFFF DUP3 AND SWAP1 POP SWAP2 SWAP1 POP JUMP JUMPDEST PUSH1 0x0 DUP2 SWAP1 POP SWAP2 SWAP1 POP JUMP JUMPDEST PUSH1 0x0 PUSH2 0xC6E DUP3 PUSH2 0xC75 JUMP JUMPDEST SWAP1 POP SWAP2 SWAP1 POP JUMP JUMPDEST PUSH1 0x0 PUSH2 0xC80 DUP3 PUSH2 0xC87 JUMP JUMPDEST SWAP1 POP SWAP2 SWAP1 POP JUMP JUMPDEST PUSH1 0x0 PUSH2 0xC92 DUP3 PUSH2 0xC39 JUMP JUMPDEST SWAP1 POP SWAP2 SWAP1 POP JUMP JUMPDEST PUSH1 0x0 JUMPDEST DUP4 DUP2 LT ISZERO PUSH2 0xCB7 JUMPI DUP1 DUP3 ADD MLOAD DUP2 DUP5 ADD MSTORE PUSH1 0x20 DUP2 ADD SWAP1 POP PUSH2 0xC9C JUMP JUMPDEST DUP4 DUP2 GT ISZERO PUSH2 0xCC6 JUMPI PUSH1 0x0 DUP5 DUP5 ADD MSTORE JUMPDEST POP POP POP POP JUMP JUMPDEST PUSH32 0x4E487B7100000000000000000000000000000000000000000000000000000000 PUSH1 0x0 MSTORE PUSH1 0x11 PUSH1 0x4 MSTORE PUSH1 0x24 PUSH1 0x0 REVERT JUMPDEST PUSH1 0x0 DUP1 REVERT JUMPDEST PUSH1 0x0 PUSH1 0x1F NOT PUSH1 0x1F DUP4 ADD AND SWAP1 POP SWAP2 SWAP1 POP JUMP JUMPDEST PUSH32 0x416464726573733A20696E73756666696369656E742062616C616E636520666F PUSH1 0x0 DUP3 ADD MSTORE PUSH32 0x722063616C6C0000000000000000000000000000000000000000000000000000 PUSH1 0x20 DUP3 ADD MSTORE POP JUMP JUMPDEST PUSH32 0x43726F776473616C653A2062656E656669636961727920697320746865207A65 PUSH1 0x0 DUP3 ADD MSTORE PUSH32 0x726F206164647265737300000000000000000000000000000000000000000000 PUSH1 0x20 DUP3 ADD MSTORE POP JUMP JUMPDEST PUSH32 0x416464726573733A2063616C6C20746F206E6F6E2D636F6E7472616374000000 PUSH1 0x0 DUP3 ADD MSTORE POP JUMP JUMPDEST PUSH32 0x5361666545524332303A204552433230206F7065726174696F6E20646964206E PUSH1 0x0 DUP3 ADD MSTORE PUSH32 0x6F74207375636365656400000000000000000000000000000000000000000000 PUSH1 0x20 DUP3 ADD MSTORE POP JUMP JUMPDEST PUSH32 0x5265656E7472616E637947756172643A207265656E7472616E742063616C6C00 PUSH1 0x0 DUP3 ADD MSTORE POP JUMP JUMPDEST PUSH32 0x43726F776473616C653A20776569416D6F756E74206973203000000000000000 PUSH1 0x0 DUP3 ADD MSTORE POP JUMP JUMPDEST PUSH2 0xE82 DUP2 PUSH2 0xC09 JUMP JUMPDEST DUP2 EQ PUSH2 0xE8D JUMPI PUSH1 0x0 DUP1 REVERT JUMPDEST POP JUMP JUMPDEST PUSH2 0xE99 DUP2 PUSH2 0xC2D JUMP JUMPDEST DUP2 EQ PUSH2 0xEA4 JUMPI PUSH1 0x0 DUP1 REVERT JUMPDEST POP JUMP INVALID LOG2 PUSH5 0x6970667358 0x22 SLT KECCAK256 SWAP10 PUSH17 0xCE7449AD0EBCFC6704F978AB4D35A740EB 0xC1 0xE3 MSTORE 0xD0 0xF BLOCKHASH 0xDD 0xE6 DUP1 SLT LT 0xC4 XOR PUSH5 0x736F6C6343 STOP ADDMOD SMOD STOP CALLER "
				},
				"gasEstimates": {
					"creation": {
						"codeDepositCost": "761000",
						"executionCost": "infinite",
						"totalCost": "infinite"
					},
					"external": {
						"_rate()": "2429",
						"_token()": "2666",
						"_wallet()": "2492",
						"_weiRaised()": "2451",
						"buyTokens(address)": "infinite"
					},
					"internal": {
						"_deliverTokens(address,uint256)": "infinite",
						"_forwardFunds()": "infinite",
						"_getTokenAmount(uint256)": "infinite",
						"_postValidatePurchase(address,uint256)": "13",
						"_preValidatePurchase(address,uint256)": "infinite",
						"_processPurchase(address,uint256)": "infinite",
						"_updatePurchasingState(address,uint256)": "13"
					}
				},
				"methodIdentifiers": {
					"_rate()": "83bebced",
					"_token()": "ecd0c0c3",
					"_wallet()": "610757e4",
					"_weiRaised()": "94a5aa8d",
					"buyTokens(address)": "ec8ac4d8"
				}
			},
			"storageLayout": {
				"storage": [
					{
						"astId": 10,
						"contract": "contracts/crowdsale-contracts/Crowdsale.sol:Crowdsale",
						"label": "_status",
						"offset": 0,
						"slot": "0",
						"type": "t_uint256"
					},
					{
						"astId": 992,
						"contract": "contracts/crowdsale-contracts/Crowdsale.sol:Crowdsale",
						"label": "_token",
						"offset": 0,
						"slot": "1",
						"type": "t_contract(IERC20)117"
					},
					{
						"astId": 994,
						"contract": "contracts/crowdsale-contracts/Crowdsale.sol:Crowdsale",
						"label": "_wallet",
						"offset": 0,
						"slot": "2",
						"type": "t_address_payable"
					},
					{
						"astId": 996,
						"contract": "contracts/crowdsale-contracts/Crowdsale.sol:Crowdsale",
						"label": "_rate",
						"offset": 0,
						"slot": "3",
						"type": "t_uint256"
					},
					{
						"astId": 998,
						"contract": "contracts/crowdsale-contracts/Crowdsale.sol:Crowdsale",
						"label": "_weiRaised",
						"offset": 0,
						"slot": "4",
						"type": "t_uint256"
					}
				],
				"types": {
					"t_address_payable": {
						"encoding": "inplace",
						"label": "address payable",
						"numberOfBytes": "20"
					},
					"t_contract(IERC20)117": {
						"encoding": "inplace",
						"label": "contract IERC20",
						"numberOfBytes": "20"
					},
					"t_uint256": {
						"encoding": "inplace",
						"label": "uint256",
						"numberOfBytes": "32"
					}
				}
			},
			"userdoc": {
				"events": {
					"TokensPurchased(address,address,uint256,uint256)": {
						"notice": "Event for token purchase logging"
					}
				},
				"kind": "user",
				"methods": {},
				"version": 1
			}
		}
	}
}