{
	"contracts/crowdsale-contracts/Crowdsale.sol": {
		"Crowdsale": {
			"abi": [
				{
					"inputs": [
						{
							"internalType": "uint256",
							"name": "rate_",
							"type": "uint256"
						},
						{
							"internalType": "address payable",
							"name": "wallet_",
							"type": "address"
						},
						{
							"internalType": "contract IERC20",
							"name": "token_",
							"type": "address"
						}
					],
					"stateMutability": "nonpayable",
					"type": "constructor"
				},
				{
					"anonymous": false,
					"inputs": [
						{
							"indexed": true,
							"internalType": "address",
							"name": "purchaser",
							"type": "address"
						},
						{
							"indexed": true,
							"internalType": "address",
							"name": "beneficiary",
							"type": "address"
						},
						{
							"indexed": false,
							"internalType": "uint256",
							"name": "value",
							"type": "uint256"
						},
						{
							"indexed": false,
							"internalType": "uint256",
							"name": "amount",
							"type": "uint256"
						}
					],
					"name": "TokensPurchased",
					"type": "event"
				},
				{
					"inputs": [],
					"name": "_rate",
					"outputs": [
						{
							"internalType": "uint256",
							"name": "",
							"type": "uint256"
						}
					],
					"stateMutability": "view",
					"type": "function"
				},
				{
					"inputs": [],
					"name": "_token",
					"outputs": [
						{
							"internalType": "contract IERC20",
							"name": "",
							"type": "address"
						}
					],
					"stateMutability": "view",
					"type": "function"
				},
				{
					"inputs": [],
					"name": "_wallet",
					"outputs": [
						{
							"internalType": "address payable",
							"name": "",
							"type": "address"
						}
					],
					"stateMutability": "view",
					"type": "function"
				},
				{
					"inputs": [],
					"name": "_weiRaised",
					"outputs": [
						{
							"internalType": "uint256",
							"name": "",
							"type": "uint256"
						}
					],
					"stateMutability": "view",
					"type": "function"
				},
				{
					"inputs": [
						{
							"internalType": "address",
							"name": "beneficiary",
							"type": "address"
						}
					],
					"name": "buyTokens",
					"outputs": [],
					"stateMutability": "payable",
					"type": "function"
				},
				{
					"inputs": [],
					"name": "rate",
					"outputs": [
						{
							"internalType": "uint256",
							"name": "",
							"type": "uint256"
						}
					],
					"stateMutability": "view",
					"type": "function"
				},
				{
					"inputs": [],
					"name": "token",
					"outputs": [
						{
							"internalType": "contract IERC20",
							"name": "",
							"type": "address"
						}
					],
					"stateMutability": "view",
					"type": "function"
				},
				{
					"inputs": [],
					"name": "wallet",
					"outputs": [
						{
							"internalType": "address payable",
							"name": "",
							"type": "address"
						}
					],
					"stateMutability": "view",
					"type": "function"
				},
				{
					"inputs": [],
					"name": "weiRaised",
					"outputs": [
						{
							"internalType": "uint256",
							"name": "",
							"type": "uint256"
						}
					],
					"stateMutability": "view",
					"type": "function"
				},
				{
					"stateMutability": "payable",
					"type": "receive"
				}
			],
			"devdoc": {
				"details": "Crowdsale is a base contract for managing a token crowdsale, allowing investors to purchase tokens with ether. This contract implements such functionality in its most fundamental form and can be extended to provide additional functionality and/or custom behavior. The external interface represents the basic interface for purchasing tokens, and conforms the base architecture for crowdsales. It is *not* intended to be modified / overridden. The internal interface conforms the extensible and modifiable surface of crowdsales. Override the methods to add functionality. Consider using 'super' where appropriate to concatenate behavior.",
				"events": {
					"TokensPurchased(address,address,uint256,uint256)": {
						"params": {
							"amount": "amount of tokens purchased",
							"beneficiary": "who got the tokens",
							"purchaser": "who paid for the tokens",
							"value": "weis paid for purchase"
						}
					}
				},
				"kind": "dev",
				"methods": {
					"buyTokens(address)": {
						"details": "low level token purchase ***DO NOT OVERRIDE*** This function has a non-reentrancy guard, so it shouldn't be called by another `nonReentrant` function.",
						"params": {
							"beneficiary": "Recipient of the token purchase"
						}
					},
					"constructor": {
						"details": "The rate is the conversion between wei and the smallest and indivisible token unit. So, if you are using a rate of 1 with a ERC20Detailed token with 3 decimals called TOK, 1 wei will give you 1 unit, or 0.001 TOK.",
						"params": {
							"rate_": "Number of token units a buyer gets per wei",
							"token_": "Address of the token being sold",
							"wallet_": "Address where collected funds will be forwarded to"
						}
					},
					"rate()": {
						"returns": {
							"_0": "the number of token units a buyer gets per wei."
						}
					},
					"token()": {
						"returns": {
							"_0": "the token being sold."
						}
					},
					"wallet()": {
						"returns": {
							"_0": "the address where funds are collected."
						}
					},
					"weiRaised()": {
						"returns": {
							"_0": "the amount of wei raised."
						}
					}
				},
				"title": "Crowdsale",
				"version": 1
			},
			"evm": {
				"assembly": "    /* \"contracts/crowdsale-contracts/Crowdsale.sol\":1071:8030  contract Crowdsale is Context, ReentrancyGuard {... */\n  mstore(0x40, 0x80)\n    /* \"contracts/crowdsale-contracts/Crowdsale.sol\":2529:2909  constructor (uint256 rate_, address payable wallet_, IERC20 token_) {... */\n  callvalue\n  dup1\n  iszero\n  tag_1\n  jumpi\n  0x00\n  dup1\n  revert\ntag_1:\n  pop\n  mload(0x40)\n  sub(codesize, bytecodeSize)\n  dup1\n  bytecodeSize\n  dup4\n  codecopy\n  dup2\n  dup2\n  add\n  0x40\n  mstore\n  dup2\n  add\n  swap1\n  tag_2\n  swap2\n  swap1\n  tag_3\n  jump\t// in\ntag_2:\n    /* \"@openzeppelin/contracts/security/ReentrancyGuard.sol\":1701:1702  1 */\n  0x01\n    /* \"@openzeppelin/contracts/security/ReentrancyGuard.sol\":1806:1813  _status */\n  0x00\n    /* \"@openzeppelin/contracts/security/ReentrancyGuard.sol\":1806:1828  _status = _NOT_ENTERED */\n  dup2\n  swap1\n  sstore\n  pop\n    /* \"contracts/crowdsale-contracts/Crowdsale.sol\":2624:2625  0 */\n  0x00\n    /* \"contracts/crowdsale-contracts/Crowdsale.sol\":2616:2621  rate_ */\n  dup4\n    /* \"contracts/crowdsale-contracts/Crowdsale.sol\":2616:2625  rate_ > 0 */\n  gt\n    /* \"contracts/crowdsale-contracts/Crowdsale.sol\":2608:2650  require(rate_ > 0, \"Crowdsale: rate is 0\") */\n  tag_8\n  jumpi\n  mload(0x40)\n  0x08c379a000000000000000000000000000000000000000000000000000000000\n  dup2\n  mstore\n  0x04\n  add\n  tag_9\n  swap1\n  tag_10\n  jump\t// in\ntag_9:\n  mload(0x40)\n  dup1\n  swap2\n  sub\n  swap1\n  revert\ntag_8:\n    /* \"contracts/crowdsale-contracts/Crowdsale.sol\":2688:2689  0 */\n  0x00\n    /* \"contracts/crowdsale-contracts/Crowdsale.sol\":2669:2690  wallet_ != address(0) */\n  0xffffffffffffffffffffffffffffffffffffffff\n  and\n    /* \"contracts/crowdsale-contracts/Crowdsale.sol\":2669:2676  wallet_ */\n  dup3\n    /* \"contracts/crowdsale-contracts/Crowdsale.sol\":2669:2690  wallet_ != address(0) */\n  0xffffffffffffffffffffffffffffffffffffffff\n  and\n  sub\n    /* \"contracts/crowdsale-contracts/Crowdsale.sol\":2661:2732  require(wallet_ != address(0), \"Crowdsale: wallet is the zero address\") */\n  tag_11\n  jumpi\n  mload(0x40)\n  0x08c379a000000000000000000000000000000000000000000000000000000000\n  dup2\n  mstore\n  0x04\n  add\n  tag_12\n  swap1\n  tag_13\n  jump\t// in\ntag_12:\n  mload(0x40)\n  dup1\n  swap2\n  sub\n  swap1\n  revert\ntag_11:\n    /* \"contracts/crowdsale-contracts/Crowdsale.sol\":2778:2779  0 */\n  0x00\n    /* \"contracts/crowdsale-contracts/Crowdsale.sol\":2751:2780  address(token_) != address(0) */\n  0xffffffffffffffffffffffffffffffffffffffff\n  and\n    /* \"contracts/crowdsale-contracts/Crowdsale.sol\":2759:2765  token_ */\n  dup2\n    /* \"contracts/crowdsale-contracts/Crowdsale.sol\":2751:2780  address(token_) != address(0) */\n  0xffffffffffffffffffffffffffffffffffffffff\n  and\n  sub\n    /* \"contracts/crowdsale-contracts/Crowdsale.sol\":2743:2821  require(address(token_) != address(0), \"Crowdsale: token is the zero address\") */\n  tag_14\n  jumpi\n  mload(0x40)\n  0x08c379a000000000000000000000000000000000000000000000000000000000\n  dup2\n  mstore\n  0x04\n  add\n  tag_15\n  swap1\n  tag_16\n  jump\t// in\ntag_15:\n  mload(0x40)\n  dup1\n  swap2\n  sub\n  swap1\n  revert\ntag_14:\n    /* \"contracts/crowdsale-contracts/Crowdsale.sol\":2842:2847  rate_ */\n  dup3\n    /* \"contracts/crowdsale-contracts/Crowdsale.sol\":2834:2839  _rate */\n  0x03\n    /* \"contracts/crowdsale-contracts/Crowdsale.sol\":2834:2847  _rate = rate_ */\n  dup2\n  swap1\n  sstore\n  pop\n    /* \"contracts/crowdsale-contracts/Crowdsale.sol\":2868:2875  wallet_ */\n  dup2\n    /* \"contracts/crowdsale-contracts/Crowdsale.sol\":2858:2865  _wallet */\n  0x02\n  0x00\n    /* \"contracts/crowdsale-contracts/Crowdsale.sol\":2858:2875  _wallet = wallet_ */\n  0x0100\n  exp\n  dup2\n  sload\n  dup2\n  0xffffffffffffffffffffffffffffffffffffffff\n  mul\n  not\n  and\n  swap1\n  dup4\n  0xffffffffffffffffffffffffffffffffffffffff\n  and\n  mul\n  or\n  swap1\n  sstore\n  pop\n    /* \"contracts/crowdsale-contracts/Crowdsale.sol\":2895:2901  token_ */\n  dup1\n    /* \"contracts/crowdsale-contracts/Crowdsale.sol\":2886:2892  _token */\n  0x01\n  0x00\n    /* \"contracts/crowdsale-contracts/Crowdsale.sol\":2886:2901  _token = token_ */\n  0x0100\n  exp\n  dup2\n  sload\n  dup2\n  0xffffffffffffffffffffffffffffffffffffffff\n  mul\n  not\n  and\n  swap1\n  dup4\n  0xffffffffffffffffffffffffffffffffffffffff\n  and\n  mul\n  or\n  swap1\n  sstore\n  pop\n    /* \"contracts/crowdsale-contracts/Crowdsale.sol\":2529:2909  constructor (uint256 rate_, address payable wallet_, IERC20 token_) {... */\n  pop\n  pop\n  pop\n    /* \"contracts/crowdsale-contracts/Crowdsale.sol\":1071:8030  contract Crowdsale is Context, ReentrancyGuard {... */\n  jump(tag_17)\n    /* \"#utility.yul\":88:205   */\ntag_19:\n    /* \"#utility.yul\":197:198   */\n  0x00\n    /* \"#utility.yul\":194:195   */\n  dup1\n    /* \"#utility.yul\":187:199   */\n  revert\n    /* \"#utility.yul\":334:411   */\ntag_21:\n    /* \"#utility.yul\":371:378   */\n  0x00\n    /* \"#utility.yul\":400:405   */\n  dup2\n    /* \"#utility.yul\":389:405   */\n  swap1\n  pop\n    /* \"#utility.yul\":334:411   */\n  swap2\n  swap1\n  pop\n  jump\t// out\n    /* \"#utility.yul\":417:539   */\ntag_22:\n    /* \"#utility.yul\":490:514   */\n  tag_45\n    /* \"#utility.yul\":508:513   */\n  dup2\n    /* \"#utility.yul\":490:514   */\n  tag_21\n  jump\t// in\ntag_45:\n    /* \"#utility.yul\":483:488   */\n  dup2\n    /* \"#utility.yul\":480:515   */\n  eq\n    /* \"#utility.yul\":470:533   */\n  tag_46\n  jumpi\n    /* \"#utility.yul\":529:530   */\n  0x00\n    /* \"#utility.yul\":526:527   */\n  dup1\n    /* \"#utility.yul\":519:531   */\n  revert\n    /* \"#utility.yul\":470:533   */\ntag_46:\n    /* \"#utility.yul\":417:539   */\n  pop\n  jump\t// out\n    /* \"#utility.yul\":545:688   */\ntag_23:\n    /* \"#utility.yul\":602:607   */\n  0x00\n    /* \"#utility.yul\":633:639   */\n  dup2\n    /* \"#utility.yul\":627:640   */\n  mload\n    /* \"#utility.yul\":618:640   */\n  swap1\n  pop\n    /* \"#utility.yul\":649:682   */\n  tag_48\n    /* \"#utility.yul\":676:681   */\n  dup2\n    /* \"#utility.yul\":649:682   */\n  tag_22\n  jump\t// in\ntag_48:\n    /* \"#utility.yul\":545:688   */\n  swap3\n  swap2\n  pop\n  pop\n  jump\t// out\n    /* \"#utility.yul\":694:820   */\ntag_24:\n    /* \"#utility.yul\":731:738   */\n  0x00\n    /* \"#utility.yul\":771:813   */\n  0xffffffffffffffffffffffffffffffffffffffff\n    /* \"#utility.yul\":764:769   */\n  dup3\n    /* \"#utility.yul\":760:814   */\n  and\n    /* \"#utility.yul\":749:814   */\n  swap1\n  pop\n    /* \"#utility.yul\":694:820   */\n  swap2\n  swap1\n  pop\n  jump\t// out\n    /* \"#utility.yul\":826:930   */\ntag_25:\n    /* \"#utility.yul\":871:878   */\n  0x00\n    /* \"#utility.yul\":900:924   */\n  tag_51\n    /* \"#utility.yul\":918:923   */\n  dup3\n    /* \"#utility.yul\":900:924   */\n  tag_24\n  jump\t// in\ntag_51:\n    /* \"#utility.yul\":889:924   */\n  swap1\n  pop\n    /* \"#utility.yul\":826:930   */\n  swap2\n  swap1\n  pop\n  jump\t// out\n    /* \"#utility.yul\":936:1074   */\ntag_26:\n    /* \"#utility.yul\":1017:1049   */\n  tag_53\n    /* \"#utility.yul\":1043:1048   */\n  dup2\n    /* \"#utility.yul\":1017:1049   */\n  tag_25\n  jump\t// in\ntag_53:\n    /* \"#utility.yul\":1010:1015   */\n  dup2\n    /* \"#utility.yul\":1007:1050   */\n  eq\n    /* \"#utility.yul\":997:1068   */\n  tag_54\n  jumpi\n    /* \"#utility.yul\":1064:1065   */\n  0x00\n    /* \"#utility.yul\":1061:1062   */\n  dup1\n    /* \"#utility.yul\":1054:1066   */\n  revert\n    /* \"#utility.yul\":997:1068   */\ntag_54:\n    /* \"#utility.yul\":936:1074   */\n  pop\n  jump\t// out\n    /* \"#utility.yul\":1080:1239   */\ntag_27:\n    /* \"#utility.yul\":1145:1150   */\n  0x00\n    /* \"#utility.yul\":1176:1182   */\n  dup2\n    /* \"#utility.yul\":1170:1183   */\n  mload\n    /* \"#utility.yul\":1161:1183   */\n  swap1\n  pop\n    /* \"#utility.yul\":1192:1233   */\n  tag_56\n    /* \"#utility.yul\":1227:1232   */\n  dup2\n    /* \"#utility.yul\":1192:1233   */\n  tag_26\n  jump\t// in\ntag_56:\n    /* \"#utility.yul\":1080:1239   */\n  swap3\n  swap2\n  pop\n  pop\n  jump\t// out\n    /* \"#utility.yul\":1245:1341   */\ntag_28:\n    /* \"#utility.yul\":1282:1289   */\n  0x00\n    /* \"#utility.yul\":1311:1335   */\n  tag_58\n    /* \"#utility.yul\":1329:1334   */\n  dup3\n    /* \"#utility.yul\":1311:1335   */\n  tag_24\n  jump\t// in\ntag_58:\n    /* \"#utility.yul\":1300:1335   */\n  swap1\n  pop\n    /* \"#utility.yul\":1245:1341   */\n  swap2\n  swap1\n  pop\n  jump\t// out\n    /* \"#utility.yul\":1347:1457   */\ntag_29:\n    /* \"#utility.yul\":1398:1405   */\n  0x00\n    /* \"#utility.yul\":1427:1451   */\n  tag_60\n    /* \"#utility.yul\":1445:1450   */\n  dup3\n    /* \"#utility.yul\":1427:1451   */\n  tag_28\n  jump\t// in\ntag_60:\n    /* \"#utility.yul\":1416:1451   */\n  swap1\n  pop\n    /* \"#utility.yul\":1347:1457   */\n  swap2\n  swap1\n  pop\n  jump\t// out\n    /* \"#utility.yul\":1463:1613   */\ntag_30:\n    /* \"#utility.yul\":1550:1588   */\n  tag_62\n    /* \"#utility.yul\":1582:1587   */\n  dup2\n    /* \"#utility.yul\":1550:1588   */\n  tag_29\n  jump\t// in\ntag_62:\n    /* \"#utility.yul\":1543:1548   */\n  dup2\n    /* \"#utility.yul\":1540:1589   */\n  eq\n    /* \"#utility.yul\":1530:1607   */\n  tag_63\n  jumpi\n    /* \"#utility.yul\":1603:1604   */\n  0x00\n    /* \"#utility.yul\":1600:1601   */\n  dup1\n    /* \"#utility.yul\":1593:1605   */\n  revert\n    /* \"#utility.yul\":1530:1607   */\ntag_63:\n    /* \"#utility.yul\":1463:1613   */\n  pop\n  jump\t// out\n    /* \"#utility.yul\":1619:1790   */\ntag_31:\n    /* \"#utility.yul\":1690:1695   */\n  0x00\n    /* \"#utility.yul\":1721:1727   */\n  dup2\n    /* \"#utility.yul\":1715:1728   */\n  mload\n    /* \"#utility.yul\":1706:1728   */\n  swap1\n  pop\n    /* \"#utility.yul\":1737:1784   */\n  tag_65\n    /* \"#utility.yul\":1778:1783   */\n  dup2\n    /* \"#utility.yul\":1737:1784   */\n  tag_30\n  jump\t// in\ntag_65:\n    /* \"#utility.yul\":1619:1790   */\n  swap3\n  swap2\n  pop\n  pop\n  jump\t// out\n    /* \"#utility.yul\":1796:2503   */\ntag_3:\n    /* \"#utility.yul\":1906:1912   */\n  0x00\n    /* \"#utility.yul\":1914:1920   */\n  dup1\n    /* \"#utility.yul\":1922:1928   */\n  0x00\n    /* \"#utility.yul\":1971:1973   */\n  0x60\n    /* \"#utility.yul\":1959:1968   */\n  dup5\n    /* \"#utility.yul\":1950:1957   */\n  dup7\n    /* \"#utility.yul\":1946:1969   */\n  sub\n    /* \"#utility.yul\":1942:1974   */\n  slt\n    /* \"#utility.yul\":1939:2058   */\n  iszero\n  tag_67\n  jumpi\n    /* \"#utility.yul\":1977:2056   */\n  tag_68\n  tag_19\n  jump\t// in\ntag_68:\n    /* \"#utility.yul\":1939:2058   */\ntag_67:\n    /* \"#utility.yul\":2097:2098   */\n  0x00\n    /* \"#utility.yul\":2122:2186   */\n  tag_69\n    /* \"#utility.yul\":2178:2185   */\n  dup7\n    /* \"#utility.yul\":2169:2175   */\n  dup3\n    /* \"#utility.yul\":2158:2167   */\n  dup8\n    /* \"#utility.yul\":2154:2176   */\n  add\n    /* \"#utility.yul\":2122:2186   */\n  tag_23\n  jump\t// in\ntag_69:\n    /* \"#utility.yul\":2112:2186   */\n  swap4\n  pop\n    /* \"#utility.yul\":2068:2196   */\n  pop\n    /* \"#utility.yul\":2235:2237   */\n  0x20\n    /* \"#utility.yul\":2261:2333   */\n  tag_70\n    /* \"#utility.yul\":2325:2332   */\n  dup7\n    /* \"#utility.yul\":2316:2322   */\n  dup3\n    /* \"#utility.yul\":2305:2314   */\n  dup8\n    /* \"#utility.yul\":2301:2323   */\n  add\n    /* \"#utility.yul\":2261:2333   */\n  tag_27\n  jump\t// in\ntag_70:\n    /* \"#utility.yul\":2251:2333   */\n  swap3\n  pop\n    /* \"#utility.yul\":2206:2343   */\n  pop\n    /* \"#utility.yul\":2382:2384   */\n  0x40\n    /* \"#utility.yul\":2408:2486   */\n  tag_71\n    /* \"#utility.yul\":2478:2485   */\n  dup7\n    /* \"#utility.yul\":2469:2475   */\n  dup3\n    /* \"#utility.yul\":2458:2467   */\n  dup8\n    /* \"#utility.yul\":2454:2476   */\n  add\n    /* \"#utility.yul\":2408:2486   */\n  tag_31\n  jump\t// in\ntag_71:\n    /* \"#utility.yul\":2398:2486   */\n  swap2\n  pop\n    /* \"#utility.yul\":2353:2496   */\n  pop\n    /* \"#utility.yul\":1796:2503   */\n  swap3\n  pop\n  swap3\n  pop\n  swap3\n  jump\t// out\n    /* \"#utility.yul\":2509:2678   */\ntag_32:\n    /* \"#utility.yul\":2593:2604   */\n  0x00\n    /* \"#utility.yul\":2627:2633   */\n  dup3\n    /* \"#utility.yul\":2622:2625   */\n  dup3\n    /* \"#utility.yul\":2615:2634   */\n  mstore\n    /* \"#utility.yul\":2667:2671   */\n  0x20\n    /* \"#utility.yul\":2662:2665   */\n  dup3\n    /* \"#utility.yul\":2658:2672   */\n  add\n    /* \"#utility.yul\":2643:2672   */\n  swap1\n  pop\n    /* \"#utility.yul\":2509:2678   */\n  swap3\n  swap2\n  pop\n  pop\n  jump\t// out\n    /* \"#utility.yul\":2684:2854   */\ntag_33:\n    /* \"#utility.yul\":2824:2846   */\n  0x43726f776473616c653a20726174652069732030000000000000000000000000\n    /* \"#utility.yul\":2820:2821   */\n  0x00\n    /* \"#utility.yul\":2812:2818   */\n  dup3\n    /* \"#utility.yul\":2808:2822   */\n  add\n    /* \"#utility.yul\":2801:2847   */\n  mstore\n    /* \"#utility.yul\":2684:2854   */\n  pop\n  jump\t// out\n    /* \"#utility.yul\":2860:3226   */\ntag_34:\n    /* \"#utility.yul\":3002:3005   */\n  0x00\n    /* \"#utility.yul\":3023:3090   */\n  tag_75\n    /* \"#utility.yul\":3087:3089   */\n  0x14\n    /* \"#utility.yul\":3082:3085   */\n  dup4\n    /* \"#utility.yul\":3023:3090   */\n  tag_32\n  jump\t// in\ntag_75:\n    /* \"#utility.yul\":3016:3090   */\n  swap2\n  pop\n    /* \"#utility.yul\":3099:3192   */\n  tag_76\n    /* \"#utility.yul\":3188:3191   */\n  dup3\n    /* \"#utility.yul\":3099:3192   */\n  tag_33\n  jump\t// in\ntag_76:\n    /* \"#utility.yul\":3217:3219   */\n  0x20\n    /* \"#utility.yul\":3212:3215   */\n  dup3\n    /* \"#utility.yul\":3208:3220   */\n  add\n    /* \"#utility.yul\":3201:3220   */\n  swap1\n  pop\n    /* \"#utility.yul\":2860:3226   */\n  swap2\n  swap1\n  pop\n  jump\t// out\n    /* \"#utility.yul\":3232:3651   */\ntag_10:\n    /* \"#utility.yul\":3398:3402   */\n  0x00\n    /* \"#utility.yul\":3436:3438   */\n  0x20\n    /* \"#utility.yul\":3425:3434   */\n  dup3\n    /* \"#utility.yul\":3421:3439   */\n  add\n    /* \"#utility.yul\":3413:3439   */\n  swap1\n  pop\n    /* \"#utility.yul\":3485:3494   */\n  dup2\n    /* \"#utility.yul\":3479:3483   */\n  dup2\n    /* \"#utility.yul\":3475:3495   */\n  sub\n    /* \"#utility.yul\":3471:3472   */\n  0x00\n    /* \"#utility.yul\":3460:3469   */\n  dup4\n    /* \"#utility.yul\":3456:3473   */\n  add\n    /* \"#utility.yul\":3449:3496   */\n  mstore\n    /* \"#utility.yul\":3513:3644   */\n  tag_78\n    /* \"#utility.yul\":3639:3643   */\n  dup2\n    /* \"#utility.yul\":3513:3644   */\n  tag_34\n  jump\t// in\ntag_78:\n    /* \"#utility.yul\":3505:3644   */\n  swap1\n  pop\n    /* \"#utility.yul\":3232:3651   */\n  swap2\n  swap1\n  pop\n  jump\t// out\n    /* \"#utility.yul\":3657:3881   */\ntag_35:\n    /* \"#utility.yul\":3797:3831   */\n  0x43726f776473616c653a2077616c6c657420697320746865207a65726f206164\n    /* \"#utility.yul\":3793:3794   */\n  0x00\n    /* \"#utility.yul\":3785:3791   */\n  dup3\n    /* \"#utility.yul\":3781:3795   */\n  add\n    /* \"#utility.yul\":3774:3832   */\n  mstore\n    /* \"#utility.yul\":3866:3873   */\n  0x6472657373000000000000000000000000000000000000000000000000000000\n    /* \"#utility.yul\":3861:3863   */\n  0x20\n    /* \"#utility.yul\":3853:3859   */\n  dup3\n    /* \"#utility.yul\":3849:3864   */\n  add\n    /* \"#utility.yul\":3842:3874   */\n  mstore\n    /* \"#utility.yul\":3657:3881   */\n  pop\n  jump\t// out\n    /* \"#utility.yul\":3887:4253   */\ntag_36:\n    /* \"#utility.yul\":4029:4032   */\n  0x00\n    /* \"#utility.yul\":4050:4117   */\n  tag_81\n    /* \"#utility.yul\":4114:4116   */\n  0x25\n    /* \"#utility.yul\":4109:4112   */\n  dup4\n    /* \"#utility.yul\":4050:4117   */\n  tag_32\n  jump\t// in\ntag_81:\n    /* \"#utility.yul\":4043:4117   */\n  swap2\n  pop\n    /* \"#utility.yul\":4126:4219   */\n  tag_82\n    /* \"#utility.yul\":4215:4218   */\n  dup3\n    /* \"#utility.yul\":4126:4219   */\n  tag_35\n  jump\t// in\ntag_82:\n    /* \"#utility.yul\":4244:4246   */\n  0x40\n    /* \"#utility.yul\":4239:4242   */\n  dup3\n    /* \"#utility.yul\":4235:4247   */\n  add\n    /* \"#utility.yul\":4228:4247   */\n  swap1\n  pop\n    /* \"#utility.yul\":3887:4253   */\n  swap2\n  swap1\n  pop\n  jump\t// out\n    /* \"#utility.yul\":4259:4678   */\ntag_13:\n    /* \"#utility.yul\":4425:4429   */\n  0x00\n    /* \"#utility.yul\":4463:4465   */\n  0x20\n    /* \"#utility.yul\":4452:4461   */\n  dup3\n    /* \"#utility.yul\":4448:4466   */\n  add\n    /* \"#utility.yul\":4440:4466   */\n  swap1\n  pop\n    /* \"#utility.yul\":4512:4521   */\n  dup2\n    /* \"#utility.yul\":4506:4510   */\n  dup2\n    /* \"#utility.yul\":4502:4522   */\n  sub\n    /* \"#utility.yul\":4498:4499   */\n  0x00\n    /* \"#utility.yul\":4487:4496   */\n  dup4\n    /* \"#utility.yul\":4483:4500   */\n  add\n    /* \"#utility.yul\":4476:4523   */\n  mstore\n    /* \"#utility.yul\":4540:4671   */\n  tag_84\n    /* \"#utility.yul\":4666:4670   */\n  dup2\n    /* \"#utility.yul\":4540:4671   */\n  tag_36\n  jump\t// in\ntag_84:\n    /* \"#utility.yul\":4532:4671   */\n  swap1\n  pop\n    /* \"#utility.yul\":4259:4678   */\n  swap2\n  swap1\n  pop\n  jump\t// out\n    /* \"#utility.yul\":4684:4907   */\ntag_37:\n    /* \"#utility.yul\":4824:4858   */\n  0x43726f776473616c653a20746f6b656e20697320746865207a65726f20616464\n    /* \"#utility.yul\":4820:4821   */\n  0x00\n    /* \"#utility.yul\":4812:4818   */\n  dup3\n    /* \"#utility.yul\":4808:4822   */\n  add\n    /* \"#utility.yul\":4801:4859   */\n  mstore\n    /* \"#utility.yul\":4893:4899   */\n  0x7265737300000000000000000000000000000000000000000000000000000000\n    /* \"#utility.yul\":4888:4890   */\n  0x20\n    /* \"#utility.yul\":4880:4886   */\n  dup3\n    /* \"#utility.yul\":4876:4891   */\n  add\n    /* \"#utility.yul\":4869:4900   */\n  mstore\n    /* \"#utility.yul\":4684:4907   */\n  pop\n  jump\t// out\n    /* \"#utility.yul\":4913:5279   */\ntag_38:\n    /* \"#utility.yul\":5055:5058   */\n  0x00\n    /* \"#utility.yul\":5076:5143   */\n  tag_87\n    /* \"#utility.yul\":5140:5142   */\n  0x24\n    /* \"#utility.yul\":5135:5138   */\n  dup4\n    /* \"#utility.yul\":5076:5143   */\n  tag_32\n  jump\t// in\ntag_87:\n    /* \"#utility.yul\":5069:5143   */\n  swap2\n  pop\n    /* \"#utility.yul\":5152:5245   */\n  tag_88\n    /* \"#utility.yul\":5241:5244   */\n  dup3\n    /* \"#utility.yul\":5152:5245   */\n  tag_37\n  jump\t// in\ntag_88:\n    /* \"#utility.yul\":5270:5272   */\n  0x40\n    /* \"#utility.yul\":5265:5268   */\n  dup3\n    /* \"#utility.yul\":5261:5273   */\n  add\n    /* \"#utility.yul\":5254:5273   */\n  swap1\n  pop\n    /* \"#utility.yul\":4913:5279   */\n  swap2\n  swap1\n  pop\n  jump\t// out\n    /* \"#utility.yul\":5285:5704   */\ntag_16:\n    /* \"#utility.yul\":5451:5455   */\n  0x00\n    /* \"#utility.yul\":5489:5491   */\n  0x20\n    /* \"#utility.yul\":5478:5487   */\n  dup3\n    /* \"#utility.yul\":5474:5492   */\n  add\n    /* \"#utility.yul\":5466:5492   */\n  swap1\n  pop\n    /* \"#utility.yul\":5538:5547   */\n  dup2\n    /* \"#utility.yul\":5532:5536   */\n  dup2\n    /* \"#utility.yul\":5528:5548   */\n  sub\n    /* \"#utility.yul\":5524:5525   */\n  0x00\n    /* \"#utility.yul\":5513:5522   */\n  dup4\n    /* \"#utility.yul\":5509:5526   */\n  add\n    /* \"#utility.yul\":5502:5549   */\n  mstore\n    /* \"#utility.yul\":5566:5697   */\n  tag_90\n    /* \"#utility.yul\":5692:5696   */\n  dup2\n    /* \"#utility.yul\":5566:5697   */\n  tag_38\n  jump\t// in\ntag_90:\n    /* \"#utility.yul\":5558:5697   */\n  swap1\n  pop\n    /* \"#utility.yul\":5285:5704   */\n  swap2\n  swap1\n  pop\n  jump\t// out\n    /* \"contracts/crowdsale-contracts/Crowdsale.sol\":1071:8030  contract Crowdsale is Context, ReentrancyGuard {... */\ntag_17:\n  dataSize(sub_0)\n  dup1\n  dataOffset(sub_0)\n  0x00\n  codecopy\n  0x00\n  return\nstop\n\nsub_0: assembly {\n        /* \"contracts/crowdsale-contracts/Crowdsale.sol\":1071:8030  contract Crowdsale is Context, ReentrancyGuard {... */\n      mstore(0x40, 0x80)\n      jumpi(tag_1, lt(calldatasize, 0x04))\n      shr(0xe0, calldataload(0x00))\n      dup1\n      0x83bebced\n      gt\n      tag_12\n      jumpi\n      dup1\n      0x83bebced\n      eq\n      tag_7\n      jumpi\n      dup1\n      0x94a5aa8d\n      eq\n      tag_8\n      jumpi\n      dup1\n      0xec8ac4d8\n      eq\n      tag_9\n      jumpi\n      dup1\n      0xecd0c0c3\n      eq\n      tag_10\n      jumpi\n      dup1\n      0xfc0c546a\n      eq\n      tag_11\n      jumpi\n      jump(tag_2)\n    tag_12:\n      dup1\n      0x2c4e722e\n      eq\n      tag_3\n      jumpi\n      dup1\n      0x4042b66f\n      eq\n      tag_4\n      jumpi\n      dup1\n      0x521eb273\n      eq\n      tag_5\n      jumpi\n      dup1\n      0x610757e4\n      eq\n      tag_6\n      jumpi\n      jump(tag_2)\n    tag_1:\n      jumpi(tag_2, calldatasize)\n        /* \"contracts/crowdsale-contracts/Crowdsale.sol\":3245:3268  buyTokens(_msgSender()) */\n      tag_15\n        /* \"contracts/crowdsale-contracts/Crowdsale.sol\":3255:3267  _msgSender() */\n      tag_16\n        /* \"contracts/crowdsale-contracts/Crowdsale.sol\":3255:3265  _msgSender */\n      tag_17\n        /* \"contracts/crowdsale-contracts/Crowdsale.sol\":3255:3267  _msgSender() */\n      jump\t// in\n    tag_16:\n        /* \"contracts/crowdsale-contracts/Crowdsale.sol\":3245:3254  buyTokens */\n      tag_18\n        /* \"contracts/crowdsale-contracts/Crowdsale.sol\":3245:3268  buyTokens(_msgSender()) */\n      jump\t// in\n    tag_15:\n        /* \"contracts/crowdsale-contracts/Crowdsale.sol\":1071:8030  contract Crowdsale is Context, ReentrancyGuard {... */\n      stop\n    tag_2:\n      0x00\n      dup1\n      revert\n        /* \"contracts/crowdsale-contracts/Crowdsale.sol\":3678:3755  function rate() public view returns (uint256) {... */\n    tag_3:\n      callvalue\n      dup1\n      iszero\n      tag_19\n      jumpi\n      0x00\n      dup1\n      revert\n    tag_19:\n      pop\n      tag_20\n      tag_21\n      jump\t// in\n    tag_20:\n      mload(0x40)\n      tag_22\n      swap2\n      swap1\n      tag_23\n      jump\t// in\n    tag_22:\n      mload(0x40)\n      dup1\n      swap2\n      sub\n      swap1\n      return\n        /* \"contracts/crowdsale-contracts/Crowdsale.sol\":3823:3910  function weiRaised() public view returns (uint256) {... */\n    tag_4:\n      callvalue\n      dup1\n      iszero\n      tag_24\n      jumpi\n      0x00\n      dup1\n      revert\n    tag_24:\n      pop\n      tag_25\n      tag_26\n      jump\t// in\n    tag_25:\n      mload(0x40)\n      tag_27\n      swap2\n      swap1\n      tag_23\n      jump\t// in\n    tag_27:\n      mload(0x40)\n      dup1\n      swap2\n      sub\n      swap1\n      return\n        /* \"contracts/crowdsale-contracts/Crowdsale.sol\":3499:3588  function wallet() public view returns (address payable) {... */\n    tag_5:\n      callvalue\n      dup1\n      iszero\n      tag_28\n      jumpi\n      0x00\n      dup1\n      revert\n    tag_28:\n      pop\n      tag_29\n      tag_30\n      jump\t// in\n    tag_29:\n      mload(0x40)\n      tag_31\n      swap2\n      swap1\n      tag_32\n      jump\t// in\n    tag_31:\n      mload(0x40)\n      dup1\n      swap2\n      sub\n      swap1\n      return\n        /* \"contracts/crowdsale-contracts/Crowdsale.sol\":1293:1323  address payable public _wallet */\n    tag_6:\n      callvalue\n      dup1\n      iszero\n      tag_33\n      jumpi\n      0x00\n      dup1\n      revert\n    tag_33:\n      pop\n      tag_34\n      tag_35\n      jump\t// in\n    tag_34:\n      mload(0x40)\n      tag_36\n      swap2\n      swap1\n      tag_32\n      jump\t// in\n    tag_36:\n      mload(0x40)\n      dup1\n      swap2\n      sub\n      swap1\n      return\n        /* \"contracts/crowdsale-contracts/Crowdsale.sol\":1620:1640  uint256 public _rate */\n    tag_7:\n      callvalue\n      dup1\n      iszero\n      tag_37\n      jumpi\n      0x00\n      dup1\n      revert\n    tag_37:\n      pop\n      tag_38\n      tag_39\n      jump\t// in\n    tag_38:\n      mload(0x40)\n      tag_40\n      swap2\n      swap1\n      tag_23\n      jump\t// in\n    tag_40:\n      mload(0x40)\n      dup1\n      swap2\n      sub\n      swap1\n      return\n        /* \"contracts/crowdsale-contracts/Crowdsale.sol\":1678:1703  uint256 public _weiRaised */\n    tag_8:\n      callvalue\n      dup1\n      iszero\n      tag_41\n      jumpi\n      0x00\n      dup1\n      revert\n    tag_41:\n      pop\n      tag_42\n      tag_43\n      jump\t// in\n    tag_42:\n      mload(0x40)\n      tag_44\n      swap2\n      swap1\n      tag_23\n      jump\t// in\n    tag_44:\n      mload(0x40)\n      dup1\n      swap2\n      sub\n      swap1\n      return\n        /* \"contracts/crowdsale-contracts/Crowdsale.sol\":4175:4797  function buyTokens(address beneficiary) public nonReentrant payable {... */\n    tag_9:\n      tag_45\n      0x04\n      dup1\n      calldatasize\n      sub\n      dup2\n      add\n      swap1\n      tag_46\n      swap2\n      swap1\n      tag_47\n      jump\t// in\n    tag_46:\n      tag_18\n      jump\t// in\n    tag_45:\n      stop\n        /* \"contracts/crowdsale-contracts/Crowdsale.sol\":1222:1242  IERC20 public _token */\n    tag_10:\n      callvalue\n      dup1\n      iszero\n      tag_48\n      jumpi\n      0x00\n      dup1\n      revert\n    tag_48:\n      pop\n      tag_49\n      tag_50\n      jump\t// in\n    tag_49:\n      mload(0x40)\n      tag_51\n      swap2\n      swap1\n      tag_52\n      jump\t// in\n    tag_51:\n      mload(0x40)\n      dup1\n      swap2\n      sub\n      swap1\n      return\n        /* \"contracts/crowdsale-contracts/Crowdsale.sol\":3340:3418  function token() public view returns (IERC20) {... */\n    tag_11:\n      callvalue\n      dup1\n      iszero\n      tag_53\n      jumpi\n      0x00\n      dup1\n      revert\n    tag_53:\n      pop\n      tag_54\n      tag_55\n      jump\t// in\n    tag_54:\n      mload(0x40)\n      tag_56\n      swap2\n      swap1\n      tag_52\n      jump\t// in\n    tag_56:\n      mload(0x40)\n      dup1\n      swap2\n      sub\n      swap1\n      return\n        /* \"@openzeppelin/contracts/utils/Context.sol\":640:736  function _msgSender() internal view virtual returns (address) {... */\n    tag_17:\n        /* \"@openzeppelin/contracts/utils/Context.sol\":693:700  address */\n      0x00\n        /* \"@openzeppelin/contracts/utils/Context.sol\":719:729  msg.sender */\n      caller\n        /* \"@openzeppelin/contracts/utils/Context.sol\":712:729  return msg.sender */\n      swap1\n      pop\n        /* \"@openzeppelin/contracts/utils/Context.sol\":640:736  function _msgSender() internal view virtual returns (address) {... */\n      swap1\n      jump\t// out\n        /* \"contracts/crowdsale-contracts/Crowdsale.sol\":4175:4797  function buyTokens(address beneficiary) public nonReentrant payable {... */\n    tag_18:\n        /* \"@openzeppelin/contracts/security/ReentrancyGuard.sol\":1744:1745  2 */\n      0x02\n        /* \"@openzeppelin/contracts/security/ReentrancyGuard.sol\":2325:2332  _status */\n      sload(0x00)\n        /* \"@openzeppelin/contracts/security/ReentrancyGuard.sol\":2325:2344  _status != _ENTERED */\n      sub\n        /* \"@openzeppelin/contracts/security/ReentrancyGuard.sol\":2317:2380  require(_status != _ENTERED, \"ReentrancyGuard: reentrant call\") */\n      tag_59\n      jumpi\n      mload(0x40)\n      0x08c379a000000000000000000000000000000000000000000000000000000000\n      dup2\n      mstore\n      0x04\n      add\n      tag_60\n      swap1\n      tag_61\n      jump\t// in\n    tag_60:\n      mload(0x40)\n      dup1\n      swap2\n      sub\n      swap1\n      revert\n    tag_59:\n        /* \"@openzeppelin/contracts/security/ReentrancyGuard.sol\":1744:1745  2 */\n      0x02\n        /* \"@openzeppelin/contracts/security/ReentrancyGuard.sol\":2455:2462  _status */\n      0x00\n        /* \"@openzeppelin/contracts/security/ReentrancyGuard.sol\":2455:2473  _status = _ENTERED */\n      dup2\n      swap1\n      sstore\n      pop\n        /* \"contracts/crowdsale-contracts/Crowdsale.sol\":4254:4271  uint256 weiAmount */\n      0x00\n        /* \"contracts/crowdsale-contracts/Crowdsale.sol\":4274:4283  msg.value */\n      callvalue\n        /* \"contracts/crowdsale-contracts/Crowdsale.sol\":4254:4283  uint256 weiAmount = msg.value */\n      swap1\n      pop\n        /* \"contracts/crowdsale-contracts/Crowdsale.sol\":4294:4338  _preValidatePurchase(beneficiary, weiAmount) */\n      tag_63\n        /* \"contracts/crowdsale-contracts/Crowdsale.sol\":4315:4326  beneficiary */\n      dup3\n        /* \"contracts/crowdsale-contracts/Crowdsale.sol\":4328:4337  weiAmount */\n      dup3\n        /* \"contracts/crowdsale-contracts/Crowdsale.sol\":4294:4314  _preValidatePurchase */\n      tag_64\n        /* \"contracts/crowdsale-contracts/Crowdsale.sol\":4294:4338  _preValidatePurchase(beneficiary, weiAmount) */\n      jump\t// in\n    tag_63:\n        /* \"contracts/crowdsale-contracts/Crowdsale.sol\":4400:4414  uint256 tokens */\n      0x00\n        /* \"contracts/crowdsale-contracts/Crowdsale.sol\":4417:4443  _getTokenAmount(weiAmount) */\n      tag_65\n        /* \"contracts/crowdsale-contracts/Crowdsale.sol\":4433:4442  weiAmount */\n      dup3\n        /* \"contracts/crowdsale-contracts/Crowdsale.sol\":4417:4432  _getTokenAmount */\n      tag_66\n        /* \"contracts/crowdsale-contracts/Crowdsale.sol\":4417:4443  _getTokenAmount(weiAmount) */\n      jump\t// in\n    tag_65:\n        /* \"contracts/crowdsale-contracts/Crowdsale.sol\":4400:4443  uint256 tokens = _getTokenAmount(weiAmount) */\n      swap1\n      pop\n        /* \"contracts/crowdsale-contracts/Crowdsale.sol\":4494:4519  _weiRaised.add(weiAmount) */\n      tag_67\n        /* \"contracts/crowdsale-contracts/Crowdsale.sol\":4509:4518  weiAmount */\n      dup3\n        /* \"contracts/crowdsale-contracts/Crowdsale.sol\":4494:4504  _weiRaised */\n      sload(0x04)\n        /* \"contracts/crowdsale-contracts/Crowdsale.sol\":4494:4508  _weiRaised.add */\n      tag_68\n      swap1\n        /* \"contracts/crowdsale-contracts/Crowdsale.sol\":4494:4519  _weiRaised.add(weiAmount) */\n      swap2\n      swap1\n      0xffffffff\n      and\n      jump\t// in\n    tag_67:\n        /* \"contracts/crowdsale-contracts/Crowdsale.sol\":4481:4491  _weiRaised */\n      0x04\n        /* \"contracts/crowdsale-contracts/Crowdsale.sol\":4481:4519  _weiRaised = _weiRaised.add(weiAmount) */\n      dup2\n      swap1\n      sstore\n      pop\n        /* \"contracts/crowdsale-contracts/Crowdsale.sol\":4532:4569  _processPurchase(beneficiary, tokens) */\n      tag_69\n        /* \"contracts/crowdsale-contracts/Crowdsale.sol\":4549:4560  beneficiary */\n      dup4\n        /* \"contracts/crowdsale-contracts/Crowdsale.sol\":4562:4568  tokens */\n      dup3\n        /* \"contracts/crowdsale-contracts/Crowdsale.sol\":4532:4548  _processPurchase */\n      tag_70\n        /* \"contracts/crowdsale-contracts/Crowdsale.sol\":4532:4569  _processPurchase(beneficiary, tokens) */\n      jump\t// in\n    tag_69:\n        /* \"contracts/crowdsale-contracts/Crowdsale.sol\":4615:4626  beneficiary */\n      dup3\n        /* \"contracts/crowdsale-contracts/Crowdsale.sol\":4585:4646  TokensPurchased(_msgSender(), beneficiary, weiAmount, tokens) */\n      0xffffffffffffffffffffffffffffffffffffffff\n      and\n        /* \"contracts/crowdsale-contracts/Crowdsale.sol\":4601:4613  _msgSender() */\n      tag_71\n        /* \"contracts/crowdsale-contracts/Crowdsale.sol\":4601:4611  _msgSender */\n      tag_17\n        /* \"contracts/crowdsale-contracts/Crowdsale.sol\":4601:4613  _msgSender() */\n      jump\t// in\n    tag_71:\n        /* \"contracts/crowdsale-contracts/Crowdsale.sol\":4585:4646  TokensPurchased(_msgSender(), beneficiary, weiAmount, tokens) */\n      0xffffffffffffffffffffffffffffffffffffffff\n      and\n      0x6faf93231a456e552dbc9961f58d9713ee4f2e69d15f1975b050ef0911053a7b\n        /* \"contracts/crowdsale-contracts/Crowdsale.sol\":4628:4637  weiAmount */\n      dup5\n        /* \"contracts/crowdsale-contracts/Crowdsale.sol\":4639:4645  tokens */\n      dup5\n        /* \"contracts/crowdsale-contracts/Crowdsale.sol\":4585:4646  TokensPurchased(_msgSender(), beneficiary, weiAmount, tokens) */\n      mload(0x40)\n      tag_72\n      swap3\n      swap2\n      swap1\n      tag_73\n      jump\t// in\n    tag_72:\n      mload(0x40)\n      dup1\n      swap2\n      sub\n      swap1\n      log3\n        /* \"contracts/crowdsale-contracts/Crowdsale.sol\":4659:4705  _updatePurchasingState(beneficiary, weiAmount) */\n      tag_74\n        /* \"contracts/crowdsale-contracts/Crowdsale.sol\":4682:4693  beneficiary */\n      dup4\n        /* \"contracts/crowdsale-contracts/Crowdsale.sol\":4695:4704  weiAmount */\n      dup4\n        /* \"contracts/crowdsale-contracts/Crowdsale.sol\":4659:4681  _updatePurchasingState */\n      tag_75\n        /* \"contracts/crowdsale-contracts/Crowdsale.sol\":4659:4705  _updatePurchasingState(beneficiary, weiAmount) */\n      jump\t// in\n    tag_74:\n        /* \"contracts/crowdsale-contracts/Crowdsale.sol\":4718:4733  _forwardFunds() */\n      tag_76\n        /* \"contracts/crowdsale-contracts/Crowdsale.sol\":4718:4731  _forwardFunds */\n      tag_77\n        /* \"contracts/crowdsale-contracts/Crowdsale.sol\":4718:4733  _forwardFunds() */\n      jump\t// in\n    tag_76:\n        /* \"contracts/crowdsale-contracts/Crowdsale.sol\":4744:4789  _postValidatePurchase(beneficiary, weiAmount) */\n      tag_78\n        /* \"contracts/crowdsale-contracts/Crowdsale.sol\":4766:4777  beneficiary */\n      dup4\n        /* \"contracts/crowdsale-contracts/Crowdsale.sol\":4779:4788  weiAmount */\n      dup4\n        /* \"contracts/crowdsale-contracts/Crowdsale.sol\":4744:4765  _postValidatePurchase */\n      tag_79\n        /* \"contracts/crowdsale-contracts/Crowdsale.sol\":4744:4789  _postValidatePurchase(beneficiary, weiAmount) */\n      jump\t// in\n    tag_78:\n        /* \"contracts/crowdsale-contracts/Crowdsale.sol\":4243:4797  {... */\n      pop\n      pop\n        /* \"@openzeppelin/contracts/security/ReentrancyGuard.sol\":1701:1702  1 */\n      0x01\n        /* \"@openzeppelin/contracts/security/ReentrancyGuard.sol\":2628:2635  _status */\n      0x00\n        /* \"@openzeppelin/contracts/security/ReentrancyGuard.sol\":2628:2650  _status = _NOT_ENTERED */\n      dup2\n      swap1\n      sstore\n      pop\n        /* \"contracts/crowdsale-contracts/Crowdsale.sol\":4175:4797  function buyTokens(address beneficiary) public nonReentrant payable {... */\n      pop\n      jump\t// out\n        /* \"contracts/crowdsale-contracts/Crowdsale.sol\":3678:3755  function rate() public view returns (uint256) {... */\n    tag_21:\n        /* \"contracts/crowdsale-contracts/Crowdsale.sol\":3715:3722  uint256 */\n      0x00\n        /* \"contracts/crowdsale-contracts/Crowdsale.sol\":3742:3747  _rate */\n      sload(0x03)\n        /* \"contracts/crowdsale-contracts/Crowdsale.sol\":3735:3747  return _rate */\n      swap1\n      pop\n        /* \"contracts/crowdsale-contracts/Crowdsale.sol\":3678:3755  function rate() public view returns (uint256) {... */\n      swap1\n      jump\t// out\n        /* \"contracts/crowdsale-contracts/Crowdsale.sol\":3823:3910  function weiRaised() public view returns (uint256) {... */\n    tag_26:\n        /* \"contracts/crowdsale-contracts/Crowdsale.sol\":3865:3872  uint256 */\n      0x00\n        /* \"contracts/crowdsale-contracts/Crowdsale.sol\":3892:3902  _weiRaised */\n      sload(0x04)\n        /* \"contracts/crowdsale-contracts/Crowdsale.sol\":3885:3902  return _weiRaised */\n      swap1\n      pop\n        /* \"contracts/crowdsale-contracts/Crowdsale.sol\":3823:3910  function weiRaised() public view returns (uint256) {... */\n      swap1\n      jump\t// out\n        /* \"contracts/crowdsale-contracts/Crowdsale.sol\":3499:3588  function wallet() public view returns (address payable) {... */\n    tag_30:\n        /* \"contracts/crowdsale-contracts/Crowdsale.sol\":3538:3553  address payable */\n      0x00\n        /* \"contracts/crowdsale-contracts/Crowdsale.sol\":3573:3580  _wallet */\n      0x02\n      0x00\n      swap1\n      sload\n      swap1\n      0x0100\n      exp\n      swap1\n      div\n      0xffffffffffffffffffffffffffffffffffffffff\n      and\n        /* \"contracts/crowdsale-contracts/Crowdsale.sol\":3566:3580  return _wallet */\n      swap1\n      pop\n        /* \"contracts/crowdsale-contracts/Crowdsale.sol\":3499:3588  function wallet() public view returns (address payable) {... */\n      swap1\n      jump\t// out\n        /* \"contracts/crowdsale-contracts/Crowdsale.sol\":1293:1323  address payable public _wallet */\n    tag_35:\n      0x02\n      0x00\n      swap1\n      sload\n      swap1\n      0x0100\n      exp\n      swap1\n      div\n      0xffffffffffffffffffffffffffffffffffffffff\n      and\n      dup2\n      jump\t// out\n        /* \"contracts/crowdsale-contracts/Crowdsale.sol\":1620:1640  uint256 public _rate */\n    tag_39:\n      sload(0x03)\n      dup2\n      jump\t// out\n        /* \"contracts/crowdsale-contracts/Crowdsale.sol\":1678:1703  uint256 public _weiRaised */\n    tag_43:\n      sload(0x04)\n      dup2\n      jump\t// out\n        /* \"contracts/crowdsale-contracts/Crowdsale.sol\":1222:1242  IERC20 public _token */\n    tag_50:\n      0x01\n      0x00\n      swap1\n      sload\n      swap1\n      0x0100\n      exp\n      swap1\n      div\n      0xffffffffffffffffffffffffffffffffffffffff\n      and\n      dup2\n      jump\t// out\n        /* \"contracts/crowdsale-contracts/Crowdsale.sol\":3340:3418  function token() public view returns (IERC20) {... */\n    tag_55:\n        /* \"contracts/crowdsale-contracts/Crowdsale.sol\":3378:3384  IERC20 */\n      0x00\n        /* \"contracts/crowdsale-contracts/Crowdsale.sol\":3404:3410  _token */\n      0x01\n      0x00\n      swap1\n      sload\n      swap1\n      0x0100\n      exp\n      swap1\n      div\n      0xffffffffffffffffffffffffffffffffffffffff\n      and\n        /* \"contracts/crowdsale-contracts/Crowdsale.sol\":3397:3410  return _token */\n      swap1\n      pop\n        /* \"contracts/crowdsale-contracts/Crowdsale.sol\":3340:3418  function token() public view returns (IERC20) {... */\n      swap1\n      jump\t// out\n        /* \"contracts/crowdsale-contracts/Crowdsale.sol\":5350:5738  function _preValidatePurchase(address beneficiary, uint256 weiAmount) internal virtual view {... */\n    tag_64:\n        /* \"contracts/crowdsale-contracts/Crowdsale.sol\":5484:5485  0 */\n      0x00\n        /* \"contracts/crowdsale-contracts/Crowdsale.sol\":5461:5486  beneficiary != address(0) */\n      0xffffffffffffffffffffffffffffffffffffffff\n      and\n        /* \"contracts/crowdsale-contracts/Crowdsale.sol\":5461:5472  beneficiary */\n      dup3\n        /* \"contracts/crowdsale-contracts/Crowdsale.sol\":5461:5486  beneficiary != address(0) */\n      0xffffffffffffffffffffffffffffffffffffffff\n      and\n      sub\n        /* \"contracts/crowdsale-contracts/Crowdsale.sol\":5453:5533  require(beneficiary != address(0), \"Crowdsale: beneficiary is the zero address\") */\n      tag_85\n      jumpi\n      mload(0x40)\n      0x08c379a000000000000000000000000000000000000000000000000000000000\n      dup2\n      mstore\n      0x04\n      add\n      tag_86\n      swap1\n      tag_87\n      jump\t// in\n    tag_86:\n      mload(0x40)\n      dup1\n      swap2\n      sub\n      swap1\n      revert\n    tag_85:\n        /* \"contracts/crowdsale-contracts/Crowdsale.sol\":5565:5566  0 */\n      0x00\n        /* \"contracts/crowdsale-contracts/Crowdsale.sol\":5552:5561  weiAmount */\n      dup2\n        /* \"contracts/crowdsale-contracts/Crowdsale.sol\":5552:5566  weiAmount != 0 */\n      sub\n        /* \"contracts/crowdsale-contracts/Crowdsale.sol\":5544:5596  require(weiAmount != 0, \"Crowdsale: weiAmount is 0\") */\n      tag_88\n      jumpi\n      mload(0x40)\n      0x08c379a000000000000000000000000000000000000000000000000000000000\n      dup2\n      mstore\n      0x04\n      add\n      tag_89\n      swap1\n      tag_90\n      jump\t// in\n    tag_89:\n      mload(0x40)\n      dup1\n      swap2\n      sub\n      swap1\n      revert\n    tag_88:\n        /* \"contracts/crowdsale-contracts/Crowdsale.sol\":5350:5738  function _preValidatePurchase(address beneficiary, uint256 weiAmount) internal virtual view {... */\n      pop\n      pop\n      jump\t// out\n        /* \"contracts/crowdsale-contracts/Crowdsale.sol\":7733:7855  function _getTokenAmount(uint256 weiAmount) internal view returns (uint256) {... */\n    tag_66:\n        /* \"contracts/crowdsale-contracts/Crowdsale.sol\":7800:7807  uint256 */\n      0x00\n        /* \"contracts/crowdsale-contracts/Crowdsale.sol\":7827:7847  weiAmount.mul(_rate) */\n      tag_92\n        /* \"contracts/crowdsale-contracts/Crowdsale.sol\":7841:7846  _rate */\n      sload(0x03)\n        /* \"contracts/crowdsale-contracts/Crowdsale.sol\":7827:7836  weiAmount */\n      dup4\n        /* \"contracts/crowdsale-contracts/Crowdsale.sol\":7827:7840  weiAmount.mul */\n      tag_93\n      swap1\n        /* \"contracts/crowdsale-contracts/Crowdsale.sol\":7827:7847  weiAmount.mul(_rate) */\n      swap2\n      swap1\n      0xffffffff\n      and\n      jump\t// in\n    tag_92:\n        /* \"contracts/crowdsale-contracts/Crowdsale.sol\":7820:7847  return weiAmount.mul(_rate) */\n      swap1\n      pop\n        /* \"contracts/crowdsale-contracts/Crowdsale.sol\":7733:7855  function _getTokenAmount(uint256 weiAmount) internal view returns (uint256) {... */\n      swap2\n      swap1\n      pop\n      jump\t// out\n        /* \"@openzeppelin/contracts/utils/math/SafeMath.sol\":2755:2851  function add(uint256 a, uint256 b) internal pure returns (uint256) {... */\n    tag_68:\n        /* \"@openzeppelin/contracts/utils/math/SafeMath.sol\":2813:2820  uint256 */\n      0x00\n        /* \"@openzeppelin/contracts/utils/math/SafeMath.sol\":2843:2844  b */\n      dup2\n        /* \"@openzeppelin/contracts/utils/math/SafeMath.sol\":2839:2840  a */\n      dup4\n        /* \"@openzeppelin/contracts/utils/math/SafeMath.sol\":2839:2844  a + b */\n      tag_95\n      swap2\n      swap1\n      tag_96\n      jump\t// in\n    tag_95:\n        /* \"@openzeppelin/contracts/utils/math/SafeMath.sol\":2832:2844  return a + b */\n      swap1\n      pop\n        /* \"@openzeppelin/contracts/utils/math/SafeMath.sol\":2755:2851  function add(uint256 a, uint256 b) internal pure returns (uint256) {... */\n      swap3\n      swap2\n      pop\n      pop\n      jump\t// out\n        /* \"contracts/crowdsale-contracts/Crowdsale.sol\":6916:7052  function _processPurchase(address beneficiary, uint256 tokenAmount) internal {... */\n    tag_70:\n        /* \"contracts/crowdsale-contracts/Crowdsale.sol\":7004:7044  _deliverTokens(beneficiary, tokenAmount) */\n      tag_98\n        /* \"contracts/crowdsale-contracts/Crowdsale.sol\":7019:7030  beneficiary */\n      dup3\n        /* \"contracts/crowdsale-contracts/Crowdsale.sol\":7032:7043  tokenAmount */\n      dup3\n        /* \"contracts/crowdsale-contracts/Crowdsale.sol\":7004:7018  _deliverTokens */\n      tag_99\n        /* \"contracts/crowdsale-contracts/Crowdsale.sol\":7004:7044  _deliverTokens(beneficiary, tokenAmount) */\n      jump\t// in\n    tag_98:\n        /* \"contracts/crowdsale-contracts/Crowdsale.sol\":6916:7052  function _processPurchase(address beneficiary, uint256 tokenAmount) internal {... */\n      pop\n      pop\n      jump\t// out\n        /* \"contracts/crowdsale-contracts/Crowdsale.sol\":7330:7477  function _updatePurchasingState(address beneficiary, uint256 weiAmount) internal {... */\n    tag_75:\n      pop\n      pop\n      jump\t// out\n        /* \"contracts/crowdsale-contracts/Crowdsale.sol\":7947:8027  function _forwardFunds() internal {... */\n    tag_77:\n        /* \"contracts/crowdsale-contracts/Crowdsale.sol\":7992:7999  _wallet */\n      0x02\n      0x00\n      swap1\n      sload\n      swap1\n      0x0100\n      exp\n      swap1\n      div\n      0xffffffffffffffffffffffffffffffffffffffff\n      and\n        /* \"contracts/crowdsale-contracts/Crowdsale.sol\":7992:8008  _wallet.transfer */\n      0xffffffffffffffffffffffffffffffffffffffff\n      and\n        /* \"contracts/crowdsale-contracts/Crowdsale.sol\":7992:8019  _wallet.transfer(msg.value) */\n      0x08fc\n        /* \"contracts/crowdsale-contracts/Crowdsale.sol\":8009:8018  msg.value */\n      callvalue\n        /* \"contracts/crowdsale-contracts/Crowdsale.sol\":7992:8019  _wallet.transfer(msg.value) */\n      swap1\n      dup2\n      iszero\n      mul\n      swap1\n      mload(0x40)\n      0x00\n      mload(0x40)\n      dup1\n      dup4\n      sub\n      dup2\n      dup6\n      dup9\n      dup9\n      call\n      swap4\n      pop\n      pop\n      pop\n      pop\n      iszero\n      dup1\n      iszero\n      tag_103\n      jumpi\n      returndatasize\n      0x00\n      dup1\n      returndatacopy\n      revert(0x00, returndatasize)\n    tag_103:\n      pop\n        /* \"contracts/crowdsale-contracts/Crowdsale.sol\":7947:8027  function _forwardFunds() internal {... */\n      jump\t// out\n        /* \"contracts/crowdsale-contracts/Crowdsale.sol\":6041:6207  function _postValidatePurchase(address beneficiary, uint256 weiAmount) internal view {... */\n    tag_79:\n      pop\n      pop\n      jump\t// out\n        /* \"@openzeppelin/contracts/utils/math/SafeMath.sol\":3465:3561  function mul(uint256 a, uint256 b) internal pure returns (uint256) {... */\n    tag_93:\n        /* \"@openzeppelin/contracts/utils/math/SafeMath.sol\":3523:3530  uint256 */\n      0x00\n        /* \"@openzeppelin/contracts/utils/math/SafeMath.sol\":3553:3554  b */\n      dup2\n        /* \"@openzeppelin/contracts/utils/math/SafeMath.sol\":3549:3550  a */\n      dup4\n        /* \"@openzeppelin/contracts/utils/math/SafeMath.sol\":3549:3554  a * b */\n      tag_106\n      swap2\n      swap1\n      tag_107\n      jump\t// in\n    tag_106:\n        /* \"@openzeppelin/contracts/utils/math/SafeMath.sol\":3542:3554  return a * b */\n      swap1\n      pop\n        /* \"@openzeppelin/contracts/utils/math/SafeMath.sol\":3465:3561  function mul(uint256 a, uint256 b) internal pure returns (uint256) {... */\n      swap3\n      swap2\n      pop\n      pop\n      jump\t// out\n        /* \"contracts/crowdsale-contracts/Crowdsale.sol\":6495:6642  function _deliverTokens(address beneficiary, uint256 tokenAmount) internal virtual {... */\n    tag_99:\n        /* \"contracts/crowdsale-contracts/Crowdsale.sol\":6589:6634  _token.safeTransfer(beneficiary, tokenAmount) */\n      tag_109\n        /* \"contracts/crowdsale-contracts/Crowdsale.sol\":6609:6620  beneficiary */\n      dup3\n        /* \"contracts/crowdsale-contracts/Crowdsale.sol\":6622:6633  tokenAmount */\n      dup3\n        /* \"contracts/crowdsale-contracts/Crowdsale.sol\":6589:6595  _token */\n      0x01\n      0x00\n      swap1\n      sload\n      swap1\n      0x0100\n      exp\n      swap1\n      div\n      0xffffffffffffffffffffffffffffffffffffffff\n      and\n        /* \"contracts/crowdsale-contracts/Crowdsale.sol\":6589:6608  _token.safeTransfer */\n      0xffffffffffffffffffffffffffffffffffffffff\n      and\n      tag_110\n      swap1\n        /* \"contracts/crowdsale-contracts/Crowdsale.sol\":6589:6634  _token.safeTransfer(beneficiary, tokenAmount) */\n      swap3\n      swap2\n      swap1\n      0xffffffff\n      and\n      jump\t// in\n    tag_109:\n        /* \"contracts/crowdsale-contracts/Crowdsale.sol\":6495:6642  function _deliverTokens(address beneficiary, uint256 tokenAmount) internal virtual {... */\n      pop\n      pop\n      jump\t// out\n        /* \"@openzeppelin/contracts/token/ERC20/utils/SafeERC20.sol\":701:906  function safeTransfer(... */\n    tag_110:\n        /* \"@openzeppelin/contracts/token/ERC20/utils/SafeERC20.sol\":813:899  _callOptionalReturn(token, abi.encodeWithSelector(token.transfer.selector, to, value)) */\n      tag_112\n        /* \"@openzeppelin/contracts/token/ERC20/utils/SafeERC20.sol\":833:838  token */\n      dup4\n        /* \"@openzeppelin/contracts/token/ERC20/utils/SafeERC20.sol\":863:886  token.transfer.selector */\n      shl(0xe0, 0xa9059cbb)\n        /* \"@openzeppelin/contracts/token/ERC20/utils/SafeERC20.sol\":888:890  to */\n      dup5\n        /* \"@openzeppelin/contracts/token/ERC20/utils/SafeERC20.sol\":892:897  value */\n      dup5\n        /* \"@openzeppelin/contracts/token/ERC20/utils/SafeERC20.sol\":840:898  abi.encodeWithSelector(token.transfer.selector, to, value) */\n      add(0x24, mload(0x40))\n      tag_113\n      swap3\n      swap2\n      swap1\n      tag_114\n      jump\t// in\n    tag_113:\n      mload(0x40)\n      0x20\n      dup2\n      dup4\n      sub\n      sub\n      dup2\n      mstore\n      swap1\n      0x40\n      mstore\n      swap1\n      not(0xffffffffffffffffffffffffffffffffffffffffffffffffffffffff)\n      and\n      0x20\n      dup3\n      add\n      dup1\n      mload\n      0xffffffffffffffffffffffffffffffffffffffffffffffffffffffff\n      dup4\n      dup2\n      dup4\n      and\n      or\n      dup4\n      mstore\n      pop\n      pop\n      pop\n      pop\n        /* \"@openzeppelin/contracts/token/ERC20/utils/SafeERC20.sol\":813:832  _callOptionalReturn */\n      tag_115\n        /* \"@openzeppelin/contracts/token/ERC20/utils/SafeERC20.sol\":813:899  _callOptionalReturn(token, abi.encodeWithSelector(token.transfer.selector, to, value)) */\n      jump\t// in\n    tag_112:\n        /* \"@openzeppelin/contracts/token/ERC20/utils/SafeERC20.sol\":701:906  function safeTransfer(... */\n      pop\n      pop\n      pop\n      jump\t// out\n        /* \"@openzeppelin/contracts/token/ERC20/utils/SafeERC20.sol\":3207:3913  function _callOptionalReturn(IERC20 token, bytes memory data) private {... */\n    tag_115:\n        /* \"@openzeppelin/contracts/token/ERC20/utils/SafeERC20.sol\":3626:3649  bytes memory returndata */\n      0x00\n        /* \"@openzeppelin/contracts/token/ERC20/utils/SafeERC20.sol\":3652:3721  address(token).functionCall(data, \"SafeERC20: low-level call failed\") */\n      tag_117\n        /* \"@openzeppelin/contracts/token/ERC20/utils/SafeERC20.sol\":3680:3684  data */\n      dup3\n        /* \"@openzeppelin/contracts/token/ERC20/utils/SafeERC20.sol\":3652:3721  address(token).functionCall(data, \"SafeERC20: low-level call failed\") */\n      mload(0x40)\n      dup1\n      0x40\n      add\n      0x40\n      mstore\n      dup1\n      0x20\n      dup2\n      mstore\n      0x20\n      add\n      0x5361666545524332303a206c6f772d6c6576656c2063616c6c206661696c6564\n      dup2\n      mstore\n      pop\n        /* \"@openzeppelin/contracts/token/ERC20/utils/SafeERC20.sol\":3660:3665  token */\n      dup6\n        /* \"@openzeppelin/contracts/token/ERC20/utils/SafeERC20.sol\":3652:3679  address(token).functionCall */\n      0xffffffffffffffffffffffffffffffffffffffff\n      and\n      tag_118\n      swap1\n        /* \"@openzeppelin/contracts/token/ERC20/utils/SafeERC20.sol\":3652:3721  address(token).functionCall(data, \"SafeERC20: low-level call failed\") */\n      swap3\n      swap2\n      swap1\n      0xffffffff\n      and\n      jump\t// in\n    tag_117:\n        /* \"@openzeppelin/contracts/token/ERC20/utils/SafeERC20.sol\":3626:3721  bytes memory returndata = address(token).functionCall(data, \"SafeERC20: low-level call failed\") */\n      swap1\n      pop\n        /* \"@openzeppelin/contracts/token/ERC20/utils/SafeERC20.sol\":3755:3756  0 */\n      0x00\n        /* \"@openzeppelin/contracts/token/ERC20/utils/SafeERC20.sol\":3735:3745  returndata */\n      dup2\n        /* \"@openzeppelin/contracts/token/ERC20/utils/SafeERC20.sol\":3735:3752  returndata.length */\n      mload\n        /* \"@openzeppelin/contracts/token/ERC20/utils/SafeERC20.sol\":3735:3756  returndata.length > 0 */\n      gt\n        /* \"@openzeppelin/contracts/token/ERC20/utils/SafeERC20.sol\":3731:3907  if (returndata.length > 0) {... */\n      iszero\n      tag_119\n      jumpi\n        /* \"@openzeppelin/contracts/token/ERC20/utils/SafeERC20.sol\":3830:3840  returndata */\n      dup1\n        /* \"@openzeppelin/contracts/token/ERC20/utils/SafeERC20.sol\":3819:3849  abi.decode(returndata, (bool)) */\n      dup1\n      0x20\n      add\n      swap1\n      mload\n      dup2\n      add\n      swap1\n      tag_120\n      swap2\n      swap1\n      tag_121\n      jump\t// in\n    tag_120:\n        /* \"@openzeppelin/contracts/token/ERC20/utils/SafeERC20.sol\":3811:3896  require(abi.decode(returndata, (bool)), \"SafeERC20: ERC20 operation did not succeed\") */\n      tag_122\n      jumpi\n      mload(0x40)\n      0x08c379a000000000000000000000000000000000000000000000000000000000\n      dup2\n      mstore\n      0x04\n      add\n      tag_123\n      swap1\n      tag_124\n      jump\t// in\n    tag_123:\n      mload(0x40)\n      dup1\n      swap2\n      sub\n      swap1\n      revert\n    tag_122:\n        /* \"@openzeppelin/contracts/token/ERC20/utils/SafeERC20.sol\":3731:3907  if (returndata.length > 0) {... */\n    tag_119:\n        /* \"@openzeppelin/contracts/token/ERC20/utils/SafeERC20.sol\":3277:3913  {... */\n      pop\n        /* \"@openzeppelin/contracts/token/ERC20/utils/SafeERC20.sol\":3207:3913  function _callOptionalReturn(IERC20 token, bytes memory data) private {... */\n      pop\n      pop\n      jump\t// out\n        /* \"@openzeppelin/contracts/utils/Address.sol\":3861:4084  function functionCall(... */\n    tag_118:\n        /* \"@openzeppelin/contracts/utils/Address.sol\":3994:4006  bytes memory */\n      0x60\n        /* \"@openzeppelin/contracts/utils/Address.sol\":4025:4077  functionCallWithValue(target, data, 0, errorMessage) */\n      tag_126\n        /* \"@openzeppelin/contracts/utils/Address.sol\":4047:4053  target */\n      dup5\n        /* \"@openzeppelin/contracts/utils/Address.sol\":4055:4059  data */\n      dup5\n        /* \"@openzeppelin/contracts/utils/Address.sol\":4061:4062  0 */\n      0x00\n        /* \"@openzeppelin/contracts/utils/Address.sol\":4064:4076  errorMessage */\n      dup6\n        /* \"@openzeppelin/contracts/utils/Address.sol\":4025:4046  functionCallWithValue */\n      tag_127\n        /* \"@openzeppelin/contracts/utils/Address.sol\":4025:4077  functionCallWithValue(target, data, 0, errorMessage) */\n      jump\t// in\n    tag_126:\n        /* \"@openzeppelin/contracts/utils/Address.sol\":4018:4077  return functionCallWithValue(target, data, 0, errorMessage) */\n      swap1\n      pop\n        /* \"@openzeppelin/contracts/utils/Address.sol\":3861:4084  function functionCall(... */\n      swap4\n      swap3\n      pop\n      pop\n      pop\n      jump\t// out\n        /* \"@openzeppelin/contracts/utils/Address.sol\":4948:5447  function functionCallWithValue(... */\n    tag_127:\n        /* \"@openzeppelin/contracts/utils/Address.sol\":5113:5125  bytes memory */\n      0x60\n        /* \"@openzeppelin/contracts/utils/Address.sol\":5170:5175  value */\n      dup3\n        /* \"@openzeppelin/contracts/utils/Address.sol\":5145:5166  address(this).balance */\n      selfbalance\n        /* \"@openzeppelin/contracts/utils/Address.sol\":5145:5175  address(this).balance >= value */\n      lt\n      iszero\n        /* \"@openzeppelin/contracts/utils/Address.sol\":5137:5218  require(address(this).balance >= value, \"Address: insufficient balance for call\") */\n      tag_129\n      jumpi\n      mload(0x40)\n      0x08c379a000000000000000000000000000000000000000000000000000000000\n      dup2\n      mstore\n      0x04\n      add\n      tag_130\n      swap1\n      tag_131\n      jump\t// in\n    tag_130:\n      mload(0x40)\n      dup1\n      swap2\n      sub\n      swap1\n      revert\n    tag_129:\n        /* \"@openzeppelin/contracts/utils/Address.sol\":5236:5254  isContract(target) */\n      tag_132\n        /* \"@openzeppelin/contracts/utils/Address.sol\":5247:5253  target */\n      dup6\n        /* \"@openzeppelin/contracts/utils/Address.sol\":5236:5246  isContract */\n      tag_133\n        /* \"@openzeppelin/contracts/utils/Address.sol\":5236:5254  isContract(target) */\n      jump\t// in\n    tag_132:\n        /* \"@openzeppelin/contracts/utils/Address.sol\":5228:5288  require(isContract(target), \"Address: call to non-contract\") */\n      tag_134\n      jumpi\n      mload(0x40)\n      0x08c379a000000000000000000000000000000000000000000000000000000000\n      dup2\n      mstore\n      0x04\n      add\n      tag_135\n      swap1\n      tag_136\n      jump\t// in\n    tag_135:\n      mload(0x40)\n      dup1\n      swap2\n      sub\n      swap1\n      revert\n    tag_134:\n        /* \"@openzeppelin/contracts/utils/Address.sol\":5300:5312  bool success */\n      0x00\n        /* \"@openzeppelin/contracts/utils/Address.sol\":5314:5337  bytes memory returndata */\n      dup1\n        /* \"@openzeppelin/contracts/utils/Address.sol\":5341:5347  target */\n      dup7\n        /* \"@openzeppelin/contracts/utils/Address.sol\":5341:5352  target.call */\n      0xffffffffffffffffffffffffffffffffffffffff\n      and\n        /* \"@openzeppelin/contracts/utils/Address.sol\":5360:5365  value */\n      dup6\n        /* \"@openzeppelin/contracts/utils/Address.sol\":5367:5371  data */\n      dup8\n        /* \"@openzeppelin/contracts/utils/Address.sol\":5341:5372  target.call{value: value}(data) */\n      mload(0x40)\n      tag_137\n      swap2\n      swap1\n      tag_138\n      jump\t// in\n    tag_137:\n      0x00\n      mload(0x40)\n      dup1\n      dup4\n      sub\n      dup2\n      dup6\n      dup8\n      gas\n      call\n      swap3\n      pop\n      pop\n      pop\n      returndatasize\n      dup1\n      0x00\n      dup2\n      eq\n      tag_141\n      jumpi\n      mload(0x40)\n      swap2\n      pop\n      and(add(returndatasize, 0x3f), not(0x1f))\n      dup3\n      add\n      0x40\n      mstore\n      returndatasize\n      dup3\n      mstore\n      returndatasize\n      0x00\n      0x20\n      dup5\n      add\n      returndatacopy\n      jump(tag_140)\n    tag_141:\n      0x60\n      swap2\n      pop\n    tag_140:\n      pop\n        /* \"@openzeppelin/contracts/utils/Address.sol\":5299:5372  (bool success, bytes memory returndata) = target.call{value: value}(data) */\n      swap2\n      pop\n      swap2\n      pop\n        /* \"@openzeppelin/contracts/utils/Address.sol\":5389:5440  verifyCallResult(success, returndata, errorMessage) */\n      tag_142\n        /* \"@openzeppelin/contracts/utils/Address.sol\":5406:5413  success */\n      dup3\n        /* \"@openzeppelin/contracts/utils/Address.sol\":5415:5425  returndata */\n      dup3\n        /* \"@openzeppelin/contracts/utils/Address.sol\":5427:5439  errorMessage */\n      dup7\n        /* \"@openzeppelin/contracts/utils/Address.sol\":5389:5405  verifyCallResult */\n      tag_143\n        /* \"@openzeppelin/contracts/utils/Address.sol\":5389:5440  verifyCallResult(success, returndata, errorMessage) */\n      jump\t// in\n    tag_142:\n        /* \"@openzeppelin/contracts/utils/Address.sol\":5382:5440  return verifyCallResult(success, returndata, errorMessage) */\n      swap3\n      pop\n      pop\n      pop\n        /* \"@openzeppelin/contracts/utils/Address.sol\":4948:5447  function functionCallWithValue(... */\n      swap5\n      swap4\n      pop\n      pop\n      pop\n      pop\n      jump\t// out\n        /* \"@openzeppelin/contracts/utils/Address.sol\":1175:1495  function isContract(address account) internal view returns (bool) {... */\n    tag_133:\n        /* \"@openzeppelin/contracts/utils/Address.sol\":1235:1239  bool */\n      0x00\n        /* \"@openzeppelin/contracts/utils/Address.sol\":1487:1488  0 */\n      dup1\n        /* \"@openzeppelin/contracts/utils/Address.sol\":1465:1472  account */\n      dup3\n        /* \"@openzeppelin/contracts/utils/Address.sol\":1465:1484  account.code.length */\n      0xffffffffffffffffffffffffffffffffffffffff\n      and\n      extcodesize\n        /* \"@openzeppelin/contracts/utils/Address.sol\":1465:1488  account.code.length > 0 */\n      gt\n        /* \"@openzeppelin/contracts/utils/Address.sol\":1458:1488  return account.code.length > 0 */\n      swap1\n      pop\n        /* \"@openzeppelin/contracts/utils/Address.sol\":1175:1495  function isContract(address account) internal view returns (bool) {... */\n      swap2\n      swap1\n      pop\n      jump\t// out\n        /* \"@openzeppelin/contracts/utils/Address.sol\":7561:8253  function verifyCallResult(... */\n    tag_143:\n        /* \"@openzeppelin/contracts/utils/Address.sol\":7707:7719  bytes memory */\n      0x60\n        /* \"@openzeppelin/contracts/utils/Address.sol\":7735:7742  success */\n      dup4\n        /* \"@openzeppelin/contracts/utils/Address.sol\":7731:8247  if (success) {... */\n      iszero\n      tag_146\n      jumpi\n        /* \"@openzeppelin/contracts/utils/Address.sol\":7765:7775  returndata */\n      dup3\n        /* \"@openzeppelin/contracts/utils/Address.sol\":7758:7775  return returndata */\n      swap1\n      pop\n      jump(tag_145)\n        /* \"@openzeppelin/contracts/utils/Address.sol\":7731:8247  if (success) {... */\n    tag_146:\n        /* \"@openzeppelin/contracts/utils/Address.sol\":7896:7897  0 */\n      0x00\n        /* \"@openzeppelin/contracts/utils/Address.sol\":7876:7886  returndata */\n      dup4\n        /* \"@openzeppelin/contracts/utils/Address.sol\":7876:7893  returndata.length */\n      mload\n        /* \"@openzeppelin/contracts/utils/Address.sol\":7876:7897  returndata.length > 0 */\n      gt\n        /* \"@openzeppelin/contracts/utils/Address.sol\":7872:8237  if (returndata.length > 0) {... */\n      iszero\n      tag_148\n      jumpi\n        /* \"@openzeppelin/contracts/utils/Address.sol\":8070:8080  returndata */\n      dup3\n        /* \"@openzeppelin/contracts/utils/Address.sol\":8064:8081  mload(returndata) */\n      mload\n        /* \"@openzeppelin/contracts/utils/Address.sol\":8130:8145  returndata_size */\n      dup1\n        /* \"@openzeppelin/contracts/utils/Address.sol\":8117:8127  returndata */\n      dup5\n        /* \"@openzeppelin/contracts/utils/Address.sol\":8113:8115  32 */\n      0x20\n        /* \"@openzeppelin/contracts/utils/Address.sol\":8109:8128  add(32, returndata) */\n      add\n        /* \"@openzeppelin/contracts/utils/Address.sol\":8102:8146  revert(add(32, returndata), returndata_size) */\n      revert\n        /* \"@openzeppelin/contracts/utils/Address.sol\":7872:8237  if (returndata.length > 0) {... */\n    tag_148:\n        /* \"@openzeppelin/contracts/utils/Address.sol\":8209:8221  errorMessage */\n      dup2\n        /* \"@openzeppelin/contracts/utils/Address.sol\":8202:8222  revert(errorMessage) */\n      mload(0x40)\n      0x08c379a000000000000000000000000000000000000000000000000000000000\n      dup2\n      mstore\n      0x04\n      add\n      tag_150\n      swap2\n      swap1\n      tag_151\n      jump\t// in\n    tag_150:\n      mload(0x40)\n      dup1\n      swap2\n      sub\n      swap1\n      revert\n        /* \"@openzeppelin/contracts/utils/Address.sol\":7561:8253  function verifyCallResult(... */\n    tag_145:\n      swap4\n      swap3\n      pop\n      pop\n      pop\n      jump\t// out\n        /* \"#utility.yul\":7:84   */\n    tag_152:\n        /* \"#utility.yul\":44:51   */\n      0x00\n        /* \"#utility.yul\":73:78   */\n      dup2\n        /* \"#utility.yul\":62:78   */\n      swap1\n      pop\n        /* \"#utility.yul\":7:84   */\n      swap2\n      swap1\n      pop\n      jump\t// out\n        /* \"#utility.yul\":90:208   */\n    tag_153:\n        /* \"#utility.yul\":177:201   */\n      tag_196\n        /* \"#utility.yul\":195:200   */\n      dup2\n        /* \"#utility.yul\":177:201   */\n      tag_152\n      jump\t// in\n    tag_196:\n        /* \"#utility.yul\":172:175   */\n      dup3\n        /* \"#utility.yul\":165:202   */\n      mstore\n        /* \"#utility.yul\":90:208   */\n      pop\n      pop\n      jump\t// out\n        /* \"#utility.yul\":214:436   */\n    tag_23:\n        /* \"#utility.yul\":307:311   */\n      0x00\n        /* \"#utility.yul\":345:347   */\n      0x20\n        /* \"#utility.yul\":334:343   */\n      dup3\n        /* \"#utility.yul\":330:348   */\n      add\n        /* \"#utility.yul\":322:348   */\n      swap1\n      pop\n        /* \"#utility.yul\":358:429   */\n      tag_198\n        /* \"#utility.yul\":426:427   */\n      0x00\n        /* \"#utility.yul\":415:424   */\n      dup4\n        /* \"#utility.yul\":411:428   */\n      add\n        /* \"#utility.yul\":402:408   */\n      dup5\n        /* \"#utility.yul\":358:429   */\n      tag_153\n      jump\t// in\n    tag_198:\n        /* \"#utility.yul\":214:436   */\n      swap3\n      swap2\n      pop\n      pop\n      jump\t// out\n        /* \"#utility.yul\":442:568   */\n    tag_154:\n        /* \"#utility.yul\":479:486   */\n      0x00\n        /* \"#utility.yul\":519:561   */\n      0xffffffffffffffffffffffffffffffffffffffff\n        /* \"#utility.yul\":512:517   */\n      dup3\n        /* \"#utility.yul\":508:562   */\n      and\n        /* \"#utility.yul\":497:562   */\n      swap1\n      pop\n        /* \"#utility.yul\":442:568   */\n      swap2\n      swap1\n      pop\n      jump\t// out\n        /* \"#utility.yul\":574:678   */\n    tag_155:\n        /* \"#utility.yul\":619:626   */\n      0x00\n        /* \"#utility.yul\":648:672   */\n      tag_201\n        /* \"#utility.yul\":666:671   */\n      dup3\n        /* \"#utility.yul\":648:672   */\n      tag_154\n      jump\t// in\n    tag_201:\n        /* \"#utility.yul\":637:672   */\n      swap1\n      pop\n        /* \"#utility.yul\":574:678   */\n      swap2\n      swap1\n      pop\n      jump\t// out\n        /* \"#utility.yul\":684:826   */\n    tag_156:\n        /* \"#utility.yul\":787:819   */\n      tag_203\n        /* \"#utility.yul\":813:818   */\n      dup2\n        /* \"#utility.yul\":787:819   */\n      tag_155\n      jump\t// in\n    tag_203:\n        /* \"#utility.yul\":782:785   */\n      dup3\n        /* \"#utility.yul\":775:820   */\n      mstore\n        /* \"#utility.yul\":684:826   */\n      pop\n      pop\n      jump\t// out\n        /* \"#utility.yul\":832:1086   */\n    tag_32:\n        /* \"#utility.yul\":941:945   */\n      0x00\n        /* \"#utility.yul\":979:981   */\n      0x20\n        /* \"#utility.yul\":968:977   */\n      dup3\n        /* \"#utility.yul\":964:982   */\n      add\n        /* \"#utility.yul\":956:982   */\n      swap1\n      pop\n        /* \"#utility.yul\":992:1079   */\n      tag_205\n        /* \"#utility.yul\":1076:1077   */\n      0x00\n        /* \"#utility.yul\":1065:1074   */\n      dup4\n        /* \"#utility.yul\":1061:1078   */\n      add\n        /* \"#utility.yul\":1052:1058   */\n      dup5\n        /* \"#utility.yul\":992:1079   */\n      tag_156\n      jump\t// in\n    tag_205:\n        /* \"#utility.yul\":832:1086   */\n      swap3\n      swap2\n      pop\n      pop\n      jump\t// out\n        /* \"#utility.yul\":1173:1290   */\n    tag_158:\n        /* \"#utility.yul\":1282:1283   */\n      0x00\n        /* \"#utility.yul\":1279:1280   */\n      dup1\n        /* \"#utility.yul\":1272:1284   */\n      revert\n        /* \"#utility.yul\":1419:1515   */\n    tag_160:\n        /* \"#utility.yul\":1456:1463   */\n      0x00\n        /* \"#utility.yul\":1485:1509   */\n      tag_210\n        /* \"#utility.yul\":1503:1508   */\n      dup3\n        /* \"#utility.yul\":1485:1509   */\n      tag_154\n      jump\t// in\n    tag_210:\n        /* \"#utility.yul\":1474:1509   */\n      swap1\n      pop\n        /* \"#utility.yul\":1419:1515   */\n      swap2\n      swap1\n      pop\n      jump\t// out\n        /* \"#utility.yul\":1521:1643   */\n    tag_161:\n        /* \"#utility.yul\":1594:1618   */\n      tag_212\n        /* \"#utility.yul\":1612:1617   */\n      dup2\n        /* \"#utility.yul\":1594:1618   */\n      tag_160\n      jump\t// in\n    tag_212:\n        /* \"#utility.yul\":1587:1592   */\n      dup2\n        /* \"#utility.yul\":1584:1619   */\n      eq\n        /* \"#utility.yul\":1574:1637   */\n      tag_213\n      jumpi\n        /* \"#utility.yul\":1633:1634   */\n      0x00\n        /* \"#utility.yul\":1630:1631   */\n      dup1\n        /* \"#utility.yul\":1623:1635   */\n      revert\n        /* \"#utility.yul\":1574:1637   */\n    tag_213:\n        /* \"#utility.yul\":1521:1643   */\n      pop\n      jump\t// out\n        /* \"#utility.yul\":1649:1788   */\n    tag_162:\n        /* \"#utility.yul\":1695:1700   */\n      0x00\n        /* \"#utility.yul\":1733:1739   */\n      dup2\n        /* \"#utility.yul\":1720:1740   */\n      calldataload\n        /* \"#utility.yul\":1711:1740   */\n      swap1\n      pop\n        /* \"#utility.yul\":1749:1782   */\n      tag_215\n        /* \"#utility.yul\":1776:1781   */\n      dup2\n        /* \"#utility.yul\":1749:1782   */\n      tag_161\n      jump\t// in\n    tag_215:\n        /* \"#utility.yul\":1649:1788   */\n      swap3\n      swap2\n      pop\n      pop\n      jump\t// out\n        /* \"#utility.yul\":1794:2123   */\n    tag_47:\n        /* \"#utility.yul\":1853:1859   */\n      0x00\n        /* \"#utility.yul\":1902:1904   */\n      0x20\n        /* \"#utility.yul\":1890:1899   */\n      dup3\n        /* \"#utility.yul\":1881:1888   */\n      dup5\n        /* \"#utility.yul\":1877:1900   */\n      sub\n        /* \"#utility.yul\":1873:1905   */\n      slt\n        /* \"#utility.yul\":1870:1989   */\n      iszero\n      tag_217\n      jumpi\n        /* \"#utility.yul\":1908:1987   */\n      tag_218\n      tag_158\n      jump\t// in\n    tag_218:\n        /* \"#utility.yul\":1870:1989   */\n    tag_217:\n        /* \"#utility.yul\":2028:2029   */\n      0x00\n        /* \"#utility.yul\":2053:2106   */\n      tag_219\n        /* \"#utility.yul\":2098:2105   */\n      dup5\n        /* \"#utility.yul\":2089:2095   */\n      dup3\n        /* \"#utility.yul\":2078:2087   */\n      dup6\n        /* \"#utility.yul\":2074:2096   */\n      add\n        /* \"#utility.yul\":2053:2106   */\n      tag_162\n      jump\t// in\n    tag_219:\n        /* \"#utility.yul\":2043:2106   */\n      swap2\n      pop\n        /* \"#utility.yul\":1999:2116   */\n      pop\n        /* \"#utility.yul\":1794:2123   */\n      swap3\n      swap2\n      pop\n      pop\n      jump\t// out\n        /* \"#utility.yul\":2129:2189   */\n    tag_163:\n        /* \"#utility.yul\":2157:2160   */\n      0x00\n        /* \"#utility.yul\":2178:2183   */\n      dup2\n        /* \"#utility.yul\":2171:2183   */\n      swap1\n      pop\n        /* \"#utility.yul\":2129:2189   */\n      swap2\n      swap1\n      pop\n      jump\t// out\n        /* \"#utility.yul\":2195:2337   */\n    tag_164:\n        /* \"#utility.yul\":2245:2254   */\n      0x00\n        /* \"#utility.yul\":2278:2331   */\n      tag_222\n        /* \"#utility.yul\":2296:2330   */\n      tag_223\n        /* \"#utility.yul\":2305:2329   */\n      tag_224\n        /* \"#utility.yul\":2323:2328   */\n      dup5\n        /* \"#utility.yul\":2305:2329   */\n      tag_154\n      jump\t// in\n    tag_224:\n        /* \"#utility.yul\":2296:2330   */\n      tag_163\n      jump\t// in\n    tag_223:\n        /* \"#utility.yul\":2278:2331   */\n      tag_154\n      jump\t// in\n    tag_222:\n        /* \"#utility.yul\":2265:2331   */\n      swap1\n      pop\n        /* \"#utility.yul\":2195:2337   */\n      swap2\n      swap1\n      pop\n      jump\t// out\n        /* \"#utility.yul\":2343:2469   */\n    tag_165:\n        /* \"#utility.yul\":2393:2402   */\n      0x00\n        /* \"#utility.yul\":2426:2463   */\n      tag_226\n        /* \"#utility.yul\":2457:2462   */\n      dup3\n        /* \"#utility.yul\":2426:2463   */\n      tag_164\n      jump\t// in\n    tag_226:\n        /* \"#utility.yul\":2413:2463   */\n      swap1\n      pop\n        /* \"#utility.yul\":2343:2469   */\n      swap2\n      swap1\n      pop\n      jump\t// out\n        /* \"#utility.yul\":2475:2615   */\n    tag_166:\n        /* \"#utility.yul\":2539:2548   */\n      0x00\n        /* \"#utility.yul\":2572:2609   */\n      tag_228\n        /* \"#utility.yul\":2603:2608   */\n      dup3\n        /* \"#utility.yul\":2572:2609   */\n      tag_165\n      jump\t// in\n    tag_228:\n        /* \"#utility.yul\":2559:2609   */\n      swap1\n      pop\n        /* \"#utility.yul\":2475:2615   */\n      swap2\n      swap1\n      pop\n      jump\t// out\n        /* \"#utility.yul\":2621:2780   */\n    tag_167:\n        /* \"#utility.yul\":2722:2773   */\n      tag_230\n        /* \"#utility.yul\":2767:2772   */\n      dup2\n        /* \"#utility.yul\":2722:2773   */\n      tag_166\n      jump\t// in\n    tag_230:\n        /* \"#utility.yul\":2717:2720   */\n      dup3\n        /* \"#utility.yul\":2710:2774   */\n      mstore\n        /* \"#utility.yul\":2621:2780   */\n      pop\n      pop\n      jump\t// out\n        /* \"#utility.yul\":2786:3036   */\n    tag_52:\n        /* \"#utility.yul\":2893:2897   */\n      0x00\n        /* \"#utility.yul\":2931:2933   */\n      0x20\n        /* \"#utility.yul\":2920:2929   */\n      dup3\n        /* \"#utility.yul\":2916:2934   */\n      add\n        /* \"#utility.yul\":2908:2934   */\n      swap1\n      pop\n        /* \"#utility.yul\":2944:3029   */\n      tag_232\n        /* \"#utility.yul\":3026:3027   */\n      0x00\n        /* \"#utility.yul\":3015:3024   */\n      dup4\n        /* \"#utility.yul\":3011:3028   */\n      add\n        /* \"#utility.yul\":3002:3008   */\n      dup5\n        /* \"#utility.yul\":2944:3029   */\n      tag_167\n      jump\t// in\n    tag_232:\n        /* \"#utility.yul\":2786:3036   */\n      swap3\n      swap2\n      pop\n      pop\n      jump\t// out\n        /* \"#utility.yul\":3042:3211   */\n    tag_168:\n        /* \"#utility.yul\":3126:3137   */\n      0x00\n        /* \"#utility.yul\":3160:3166   */\n      dup3\n        /* \"#utility.yul\":3155:3158   */\n      dup3\n        /* \"#utility.yul\":3148:3167   */\n      mstore\n        /* \"#utility.yul\":3200:3204   */\n      0x20\n        /* \"#utility.yul\":3195:3198   */\n      dup3\n        /* \"#utility.yul\":3191:3205   */\n      add\n        /* \"#utility.yul\":3176:3205   */\n      swap1\n      pop\n        /* \"#utility.yul\":3042:3211   */\n      swap3\n      swap2\n      pop\n      pop\n      jump\t// out\n        /* \"#utility.yul\":3217:3398   */\n    tag_169:\n        /* \"#utility.yul\":3357:3390   */\n      0x5265656e7472616e637947756172643a207265656e7472616e742063616c6c00\n        /* \"#utility.yul\":3353:3354   */\n      0x00\n        /* \"#utility.yul\":3345:3351   */\n      dup3\n        /* \"#utility.yul\":3341:3355   */\n      add\n        /* \"#utility.yul\":3334:3391   */\n      mstore\n        /* \"#utility.yul\":3217:3398   */\n      pop\n      jump\t// out\n        /* \"#utility.yul\":3404:3770   */\n    tag_170:\n        /* \"#utility.yul\":3546:3549   */\n      0x00\n        /* \"#utility.yul\":3567:3634   */\n      tag_236\n        /* \"#utility.yul\":3631:3633   */\n      0x1f\n        /* \"#utility.yul\":3626:3629   */\n      dup4\n        /* \"#utility.yul\":3567:3634   */\n      tag_168\n      jump\t// in\n    tag_236:\n        /* \"#utility.yul\":3560:3634   */\n      swap2\n      pop\n        /* \"#utility.yul\":3643:3736   */\n      tag_237\n        /* \"#utility.yul\":3732:3735   */\n      dup3\n        /* \"#utility.yul\":3643:3736   */\n      tag_169\n      jump\t// in\n    tag_237:\n        /* \"#utility.yul\":3761:3763   */\n      0x20\n        /* \"#utility.yul\":3756:3759   */\n      dup3\n        /* \"#utility.yul\":3752:3764   */\n      add\n        /* \"#utility.yul\":3745:3764   */\n      swap1\n      pop\n        /* \"#utility.yul\":3404:3770   */\n      swap2\n      swap1\n      pop\n      jump\t// out\n        /* \"#utility.yul\":3776:4195   */\n    tag_61:\n        /* \"#utility.yul\":3942:3946   */\n      0x00\n        /* \"#utility.yul\":3980:3982   */\n      0x20\n        /* \"#utility.yul\":3969:3978   */\n      dup3\n        /* \"#utility.yul\":3965:3983   */\n      add\n        /* \"#utility.yul\":3957:3983   */\n      swap1\n      pop\n        /* \"#utility.yul\":4029:4038   */\n      dup2\n        /* \"#utility.yul\":4023:4027   */\n      dup2\n        /* \"#utility.yul\":4019:4039   */\n      sub\n        /* \"#utility.yul\":4015:4016   */\n      0x00\n        /* \"#utility.yul\":4004:4013   */\n      dup4\n        /* \"#utility.yul\":4000:4017   */\n      add\n        /* \"#utility.yul\":3993:4040   */\n      mstore\n        /* \"#utility.yul\":4057:4188   */\n      tag_239\n        /* \"#utility.yul\":4183:4187   */\n      dup2\n        /* \"#utility.yul\":4057:4188   */\n      tag_170\n      jump\t// in\n    tag_239:\n        /* \"#utility.yul\":4049:4188   */\n      swap1\n      pop\n        /* \"#utility.yul\":3776:4195   */\n      swap2\n      swap1\n      pop\n      jump\t// out\n        /* \"#utility.yul\":4201:4533   */\n    tag_73:\n        /* \"#utility.yul\":4322:4326   */\n      0x00\n        /* \"#utility.yul\":4360:4362   */\n      0x40\n        /* \"#utility.yul\":4349:4358   */\n      dup3\n        /* \"#utility.yul\":4345:4363   */\n      add\n        /* \"#utility.yul\":4337:4363   */\n      swap1\n      pop\n        /* \"#utility.yul\":4373:4444   */\n      tag_241\n        /* \"#utility.yul\":4441:4442   */\n      0x00\n        /* \"#utility.yul\":4430:4439   */\n      dup4\n        /* \"#utility.yul\":4426:4443   */\n      add\n        /* \"#utility.yul\":4417:4423   */\n      dup6\n        /* \"#utility.yul\":4373:4444   */\n      tag_153\n      jump\t// in\n    tag_241:\n        /* \"#utility.yul\":4454:4526   */\n      tag_242\n        /* \"#utility.yul\":4522:4524   */\n      0x20\n        /* \"#utility.yul\":4511:4520   */\n      dup4\n        /* \"#utility.yul\":4507:4525   */\n      add\n        /* \"#utility.yul\":4498:4504   */\n      dup5\n        /* \"#utility.yul\":4454:4526   */\n      tag_153\n      jump\t// in\n    tag_242:\n        /* \"#utility.yul\":4201:4533   */\n      swap4\n      swap3\n      pop\n      pop\n      pop\n      jump\t// out\n        /* \"#utility.yul\":4539:4768   */\n    tag_171:\n        /* \"#utility.yul\":4679:4713   */\n      0x43726f776473616c653a2062656e656669636961727920697320746865207a65\n        /* \"#utility.yul\":4675:4676   */\n      0x00\n        /* \"#utility.yul\":4667:4673   */\n      dup3\n        /* \"#utility.yul\":4663:4677   */\n      add\n        /* \"#utility.yul\":4656:4714   */\n      mstore\n        /* \"#utility.yul\":4748:4760   */\n      0x726f206164647265737300000000000000000000000000000000000000000000\n        /* \"#utility.yul\":4743:4745   */\n      0x20\n        /* \"#utility.yul\":4735:4741   */\n      dup3\n        /* \"#utility.yul\":4731:4746   */\n      add\n        /* \"#utility.yul\":4724:4761   */\n      mstore\n        /* \"#utility.yul\":4539:4768   */\n      pop\n      jump\t// out\n        /* \"#utility.yul\":4774:5140   */\n    tag_172:\n        /* \"#utility.yul\":4916:4919   */\n      0x00\n        /* \"#utility.yul\":4937:5004   */\n      tag_245\n        /* \"#utility.yul\":5001:5003   */\n      0x2a\n        /* \"#utility.yul\":4996:4999   */\n      dup4\n        /* \"#utility.yul\":4937:5004   */\n      tag_168\n      jump\t// in\n    tag_245:\n        /* \"#utility.yul\":4930:5004   */\n      swap2\n      pop\n        /* \"#utility.yul\":5013:5106   */\n      tag_246\n        /* \"#utility.yul\":5102:5105   */\n      dup3\n        /* \"#utility.yul\":5013:5106   */\n      tag_171\n      jump\t// in\n    tag_246:\n        /* \"#utility.yul\":5131:5133   */\n      0x40\n        /* \"#utility.yul\":5126:5129   */\n      dup3\n        /* \"#utility.yul\":5122:5134   */\n      add\n        /* \"#utility.yul\":5115:5134   */\n      swap1\n      pop\n        /* \"#utility.yul\":4774:5140   */\n      swap2\n      swap1\n      pop\n      jump\t// out\n        /* \"#utility.yul\":5146:5565   */\n    tag_87:\n        /* \"#utility.yul\":5312:5316   */\n      0x00\n        /* \"#utility.yul\":5350:5352   */\n      0x20\n        /* \"#utility.yul\":5339:5348   */\n      dup3\n        /* \"#utility.yul\":5335:5353   */\n      add\n        /* \"#utility.yul\":5327:5353   */\n      swap1\n      pop\n        /* \"#utility.yul\":5399:5408   */\n      dup2\n        /* \"#utility.yul\":5393:5397   */\n      dup2\n        /* \"#utility.yul\":5389:5409   */\n      sub\n        /* \"#utility.yul\":5385:5386   */\n      0x00\n        /* \"#utility.yul\":5374:5383   */\n      dup4\n        /* \"#utility.yul\":5370:5387   */\n      add\n        /* \"#utility.yul\":5363:5410   */\n      mstore\n        /* \"#utility.yul\":5427:5558   */\n      tag_248\n        /* \"#utility.yul\":5553:5557   */\n      dup2\n        /* \"#utility.yul\":5427:5558   */\n      tag_172\n      jump\t// in\n    tag_248:\n        /* \"#utility.yul\":5419:5558   */\n      swap1\n      pop\n        /* \"#utility.yul\":5146:5565   */\n      swap2\n      swap1\n      pop\n      jump\t// out\n        /* \"#utility.yul\":5571:5746   */\n    tag_173:\n        /* \"#utility.yul\":5711:5738   */\n      0x43726f776473616c653a20776569416d6f756e74206973203000000000000000\n        /* \"#utility.yul\":5707:5708   */\n      0x00\n        /* \"#utility.yul\":5699:5705   */\n      dup3\n        /* \"#utility.yul\":5695:5709   */\n      add\n        /* \"#utility.yul\":5688:5739   */\n      mstore\n        /* \"#utility.yul\":5571:5746   */\n      pop\n      jump\t// out\n        /* \"#utility.yul\":5752:6118   */\n    tag_174:\n        /* \"#utility.yul\":5894:5897   */\n      0x00\n        /* \"#utility.yul\":5915:5982   */\n      tag_251\n        /* \"#utility.yul\":5979:5981   */\n      0x19\n        /* \"#utility.yul\":5974:5977   */\n      dup4\n        /* \"#utility.yul\":5915:5982   */\n      tag_168\n      jump\t// in\n    tag_251:\n        /* \"#utility.yul\":5908:5982   */\n      swap2\n      pop\n        /* \"#utility.yul\":5991:6084   */\n      tag_252\n        /* \"#utility.yul\":6080:6083   */\n      dup3\n        /* \"#utility.yul\":5991:6084   */\n      tag_173\n      jump\t// in\n    tag_252:\n        /* \"#utility.yul\":6109:6111   */\n      0x20\n        /* \"#utility.yul\":6104:6107   */\n      dup3\n        /* \"#utility.yul\":6100:6112   */\n      add\n        /* \"#utility.yul\":6093:6112   */\n      swap1\n      pop\n        /* \"#utility.yul\":5752:6118   */\n      swap2\n      swap1\n      pop\n      jump\t// out\n        /* \"#utility.yul\":6124:6543   */\n    tag_90:\n        /* \"#utility.yul\":6290:6294   */\n      0x00\n        /* \"#utility.yul\":6328:6330   */\n      0x20\n        /* \"#utility.yul\":6317:6326   */\n      dup3\n        /* \"#utility.yul\":6313:6331   */\n      add\n        /* \"#utility.yul\":6305:6331   */\n      swap1\n      pop\n        /* \"#utility.yul\":6377:6386   */\n      dup2\n        /* \"#utility.yul\":6371:6375   */\n      dup2\n        /* \"#utility.yul\":6367:6387   */\n      sub\n        /* \"#utility.yul\":6363:6364   */\n      0x00\n        /* \"#utility.yul\":6352:6361   */\n      dup4\n        /* \"#utility.yul\":6348:6365   */\n      add\n        /* \"#utility.yul\":6341:6388   */\n      mstore\n        /* \"#utility.yul\":6405:6536   */\n      tag_254\n        /* \"#utility.yul\":6531:6535   */\n      dup2\n        /* \"#utility.yul\":6405:6536   */\n      tag_174\n      jump\t// in\n    tag_254:\n        /* \"#utility.yul\":6397:6536   */\n      swap1\n      pop\n        /* \"#utility.yul\":6124:6543   */\n      swap2\n      swap1\n      pop\n      jump\t// out\n        /* \"#utility.yul\":6549:6729   */\n    tag_175:\n        /* \"#utility.yul\":6597:6674   */\n      0x4e487b7100000000000000000000000000000000000000000000000000000000\n        /* \"#utility.yul\":6594:6595   */\n      0x00\n        /* \"#utility.yul\":6587:6675   */\n      mstore\n        /* \"#utility.yul\":6694:6698   */\n      0x11\n        /* \"#utility.yul\":6691:6692   */\n      0x04\n        /* \"#utility.yul\":6684:6699   */\n      mstore\n        /* \"#utility.yul\":6718:6722   */\n      0x24\n        /* \"#utility.yul\":6715:6716   */\n      0x00\n        /* \"#utility.yul\":6708:6723   */\n      revert\n        /* \"#utility.yul\":6735:7040   */\n    tag_96:\n        /* \"#utility.yul\":6775:6778   */\n      0x00\n        /* \"#utility.yul\":6794:6814   */\n      tag_257\n        /* \"#utility.yul\":6812:6813   */\n      dup3\n        /* \"#utility.yul\":6794:6814   */\n      tag_152\n      jump\t// in\n    tag_257:\n        /* \"#utility.yul\":6789:6814   */\n      swap2\n      pop\n        /* \"#utility.yul\":6828:6848   */\n      tag_258\n        /* \"#utility.yul\":6846:6847   */\n      dup4\n        /* \"#utility.yul\":6828:6848   */\n      tag_152\n      jump\t// in\n    tag_258:\n        /* \"#utility.yul\":6823:6848   */\n      swap3\n      pop\n        /* \"#utility.yul\":6982:6983   */\n      dup3\n        /* \"#utility.yul\":6914:6980   */\n      0xffffffffffffffffffffffffffffffffffffffffffffffffffffffffffffffff\n        /* \"#utility.yul\":6910:6984   */\n      sub\n        /* \"#utility.yul\":6907:6908   */\n      dup3\n        /* \"#utility.yul\":6904:6985   */\n      gt\n        /* \"#utility.yul\":6901:7008   */\n      iszero\n      tag_259\n      jumpi\n        /* \"#utility.yul\":6988:7006   */\n      tag_260\n      tag_175\n      jump\t// in\n    tag_260:\n        /* \"#utility.yul\":6901:7008   */\n    tag_259:\n        /* \"#utility.yul\":7032:7033   */\n      dup3\n        /* \"#utility.yul\":7029:7030   */\n      dup3\n        /* \"#utility.yul\":7025:7034   */\n      add\n        /* \"#utility.yul\":7018:7034   */\n      swap1\n      pop\n        /* \"#utility.yul\":6735:7040   */\n      swap3\n      swap2\n      pop\n      pop\n      jump\t// out\n        /* \"#utility.yul\":7046:7394   */\n    tag_107:\n        /* \"#utility.yul\":7086:7093   */\n      0x00\n        /* \"#utility.yul\":7109:7129   */\n      tag_262\n        /* \"#utility.yul\":7127:7128   */\n      dup3\n        /* \"#utility.yul\":7109:7129   */\n      tag_152\n      jump\t// in\n    tag_262:\n        /* \"#utility.yul\":7104:7129   */\n      swap2\n      pop\n        /* \"#utility.yul\":7143:7163   */\n      tag_263\n        /* \"#utility.yul\":7161:7162   */\n      dup4\n        /* \"#utility.yul\":7143:7163   */\n      tag_152\n      jump\t// in\n    tag_263:\n        /* \"#utility.yul\":7138:7163   */\n      swap3\n      pop\n        /* \"#utility.yul\":7331:7332   */\n      dup2\n        /* \"#utility.yul\":7263:7329   */\n      0xffffffffffffffffffffffffffffffffffffffffffffffffffffffffffffffff\n        /* \"#utility.yul\":7259:7333   */\n      div\n        /* \"#utility.yul\":7256:7257   */\n      dup4\n        /* \"#utility.yul\":7253:7334   */\n      gt\n        /* \"#utility.yul\":7248:7249   */\n      dup3\n        /* \"#utility.yul\":7241:7250   */\n      iszero\n        /* \"#utility.yul\":7234:7251   */\n      iszero\n        /* \"#utility.yul\":7230:7335   */\n      and\n        /* \"#utility.yul\":7227:7358   */\n      iszero\n      tag_264\n      jumpi\n        /* \"#utility.yul\":7338:7356   */\n      tag_265\n      tag_175\n      jump\t// in\n    tag_265:\n        /* \"#utility.yul\":7227:7358   */\n    tag_264:\n        /* \"#utility.yul\":7386:7387   */\n      dup3\n        /* \"#utility.yul\":7383:7384   */\n      dup3\n        /* \"#utility.yul\":7379:7388   */\n      mul\n        /* \"#utility.yul\":7368:7388   */\n      swap1\n      pop\n        /* \"#utility.yul\":7046:7394   */\n      swap3\n      swap2\n      pop\n      pop\n      jump\t// out\n        /* \"#utility.yul\":7400:7518   */\n    tag_176:\n        /* \"#utility.yul\":7487:7511   */\n      tag_267\n        /* \"#utility.yul\":7505:7510   */\n      dup2\n        /* \"#utility.yul\":7487:7511   */\n      tag_160\n      jump\t// in\n    tag_267:\n        /* \"#utility.yul\":7482:7485   */\n      dup3\n        /* \"#utility.yul\":7475:7512   */\n      mstore\n        /* \"#utility.yul\":7400:7518   */\n      pop\n      pop\n      jump\t// out\n        /* \"#utility.yul\":7524:7856   */\n    tag_114:\n        /* \"#utility.yul\":7645:7649   */\n      0x00\n        /* \"#utility.yul\":7683:7685   */\n      0x40\n        /* \"#utility.yul\":7672:7681   */\n      dup3\n        /* \"#utility.yul\":7668:7686   */\n      add\n        /* \"#utility.yul\":7660:7686   */\n      swap1\n      pop\n        /* \"#utility.yul\":7696:7767   */\n      tag_269\n        /* \"#utility.yul\":7764:7765   */\n      0x00\n        /* \"#utility.yul\":7753:7762   */\n      dup4\n        /* \"#utility.yul\":7749:7766   */\n      add\n        /* \"#utility.yul\":7740:7746   */\n      dup6\n        /* \"#utility.yul\":7696:7767   */\n      tag_176\n      jump\t// in\n    tag_269:\n        /* \"#utility.yul\":7777:7849   */\n      tag_270\n        /* \"#utility.yul\":7845:7847   */\n      0x20\n        /* \"#utility.yul\":7834:7843   */\n      dup4\n        /* \"#utility.yul\":7830:7848   */\n      add\n        /* \"#utility.yul\":7821:7827   */\n      dup5\n        /* \"#utility.yul\":7777:7849   */\n      tag_153\n      jump\t// in\n    tag_270:\n        /* \"#utility.yul\":7524:7856   */\n      swap4\n      swap3\n      pop\n      pop\n      pop\n      jump\t// out\n        /* \"#utility.yul\":7862:7952   */\n    tag_177:\n        /* \"#utility.yul\":7896:7903   */\n      0x00\n        /* \"#utility.yul\":7939:7944   */\n      dup2\n        /* \"#utility.yul\":7932:7945   */\n      iszero\n        /* \"#utility.yul\":7925:7946   */\n      iszero\n        /* \"#utility.yul\":7914:7946   */\n      swap1\n      pop\n        /* \"#utility.yul\":7862:7952   */\n      swap2\n      swap1\n      pop\n      jump\t// out\n        /* \"#utility.yul\":7958:8074   */\n    tag_178:\n        /* \"#utility.yul\":8028:8049   */\n      tag_273\n        /* \"#utility.yul\":8043:8048   */\n      dup2\n        /* \"#utility.yul\":8028:8049   */\n      tag_177\n      jump\t// in\n    tag_273:\n        /* \"#utility.yul\":8021:8026   */\n      dup2\n        /* \"#utility.yul\":8018:8050   */\n      eq\n        /* \"#utility.yul\":8008:8068   */\n      tag_274\n      jumpi\n        /* \"#utility.yul\":8064:8065   */\n      0x00\n        /* \"#utility.yul\":8061:8062   */\n      dup1\n        /* \"#utility.yul\":8054:8066   */\n      revert\n        /* \"#utility.yul\":8008:8068   */\n    tag_274:\n        /* \"#utility.yul\":7958:8074   */\n      pop\n      jump\t// out\n        /* \"#utility.yul\":8080:8217   */\n    tag_179:\n        /* \"#utility.yul\":8134:8139   */\n      0x00\n        /* \"#utility.yul\":8165:8171   */\n      dup2\n        /* \"#utility.yul\":8159:8172   */\n      mload\n        /* \"#utility.yul\":8150:8172   */\n      swap1\n      pop\n        /* \"#utility.yul\":8181:8211   */\n      tag_276\n        /* \"#utility.yul\":8205:8210   */\n      dup2\n        /* \"#utility.yul\":8181:8211   */\n      tag_178\n      jump\t// in\n    tag_276:\n        /* \"#utility.yul\":8080:8217   */\n      swap3\n      swap2\n      pop\n      pop\n      jump\t// out\n        /* \"#utility.yul\":8223:8568   */\n    tag_121:\n        /* \"#utility.yul\":8290:8296   */\n      0x00\n        /* \"#utility.yul\":8339:8341   */\n      0x20\n        /* \"#utility.yul\":8327:8336   */\n      dup3\n        /* \"#utility.yul\":8318:8325   */\n      dup5\n        /* \"#utility.yul\":8314:8337   */\n      sub\n        /* \"#utility.yul\":8310:8342   */\n      slt\n        /* \"#utility.yul\":8307:8426   */\n      iszero\n      tag_278\n      jumpi\n        /* \"#utility.yul\":8345:8424   */\n      tag_279\n      tag_158\n      jump\t// in\n    tag_279:\n        /* \"#utility.yul\":8307:8426   */\n    tag_278:\n        /* \"#utility.yul\":8465:8466   */\n      0x00\n        /* \"#utility.yul\":8490:8551   */\n      tag_280\n        /* \"#utility.yul\":8543:8550   */\n      dup5\n        /* \"#utility.yul\":8534:8540   */\n      dup3\n        /* \"#utility.yul\":8523:8532   */\n      dup6\n        /* \"#utility.yul\":8519:8541   */\n      add\n        /* \"#utility.yul\":8490:8551   */\n      tag_179\n      jump\t// in\n    tag_280:\n        /* \"#utility.yul\":8480:8551   */\n      swap2\n      pop\n        /* \"#utility.yul\":8436:8561   */\n      pop\n        /* \"#utility.yul\":8223:8568   */\n      swap3\n      swap2\n      pop\n      pop\n      jump\t// out\n        /* \"#utility.yul\":8574:8803   */\n    tag_180:\n        /* \"#utility.yul\":8714:8748   */\n      0x5361666545524332303a204552433230206f7065726174696f6e20646964206e\n        /* \"#utility.yul\":8710:8711   */\n      0x00\n        /* \"#utility.yul\":8702:8708   */\n      dup3\n        /* \"#utility.yul\":8698:8712   */\n      add\n        /* \"#utility.yul\":8691:8749   */\n      mstore\n        /* \"#utility.yul\":8783:8795   */\n      0x6f74207375636365656400000000000000000000000000000000000000000000\n        /* \"#utility.yul\":8778:8780   */\n      0x20\n        /* \"#utility.yul\":8770:8776   */\n      dup3\n        /* \"#utility.yul\":8766:8781   */\n      add\n        /* \"#utility.yul\":8759:8796   */\n      mstore\n        /* \"#utility.yul\":8574:8803   */\n      pop\n      jump\t// out\n        /* \"#utility.yul\":8809:9175   */\n    tag_181:\n        /* \"#utility.yul\":8951:8954   */\n      0x00\n        /* \"#utility.yul\":8972:9039   */\n      tag_283\n        /* \"#utility.yul\":9036:9038   */\n      0x2a\n        /* \"#utility.yul\":9031:9034   */\n      dup4\n        /* \"#utility.yul\":8972:9039   */\n      tag_168\n      jump\t// in\n    tag_283:\n        /* \"#utility.yul\":8965:9039   */\n      swap2\n      pop\n        /* \"#utility.yul\":9048:9141   */\n      tag_284\n        /* \"#utility.yul\":9137:9140   */\n      dup3\n        /* \"#utility.yul\":9048:9141   */\n      tag_180\n      jump\t// in\n    tag_284:\n        /* \"#utility.yul\":9166:9168   */\n      0x40\n        /* \"#utility.yul\":9161:9164   */\n      dup3\n        /* \"#utility.yul\":9157:9169   */\n      add\n        /* \"#utility.yul\":9150:9169   */\n      swap1\n      pop\n        /* \"#utility.yul\":8809:9175   */\n      swap2\n      swap1\n      pop\n      jump\t// out\n        /* \"#utility.yul\":9181:9600   */\n    tag_124:\n        /* \"#utility.yul\":9347:9351   */\n      0x00\n        /* \"#utility.yul\":9385:9387   */\n      0x20\n        /* \"#utility.yul\":9374:9383   */\n      dup3\n        /* \"#utility.yul\":9370:9388   */\n      add\n        /* \"#utility.yul\":9362:9388   */\n      swap1\n      pop\n        /* \"#utility.yul\":9434:9443   */\n      dup2\n        /* \"#utility.yul\":9428:9432   */\n      dup2\n        /* \"#utility.yul\":9424:9444   */\n      sub\n        /* \"#utility.yul\":9420:9421   */\n      0x00\n        /* \"#utility.yul\":9409:9418   */\n      dup4\n        /* \"#utility.yul\":9405:9422   */\n      add\n        /* \"#utility.yul\":9398:9445   */\n      mstore\n        /* \"#utility.yul\":9462:9593   */\n      tag_286\n        /* \"#utility.yul\":9588:9592   */\n      dup2\n        /* \"#utility.yul\":9462:9593   */\n      tag_181\n      jump\t// in\n    tag_286:\n        /* \"#utility.yul\":9454:9593   */\n      swap1\n      pop\n        /* \"#utility.yul\":9181:9600   */\n      swap2\n      swap1\n      pop\n      jump\t// out\n        /* \"#utility.yul\":9606:9831   */\n    tag_182:\n        /* \"#utility.yul\":9746:9780   */\n      0x416464726573733a20696e73756666696369656e742062616c616e636520666f\n        /* \"#utility.yul\":9742:9743   */\n      0x00\n        /* \"#utility.yul\":9734:9740   */\n      dup3\n        /* \"#utility.yul\":9730:9744   */\n      add\n        /* \"#utility.yul\":9723:9781   */\n      mstore\n        /* \"#utility.yul\":9815:9823   */\n      0x722063616c6c0000000000000000000000000000000000000000000000000000\n        /* \"#utility.yul\":9810:9812   */\n      0x20\n        /* \"#utility.yul\":9802:9808   */\n      dup3\n        /* \"#utility.yul\":9798:9813   */\n      add\n        /* \"#utility.yul\":9791:9824   */\n      mstore\n        /* \"#utility.yul\":9606:9831   */\n      pop\n      jump\t// out\n        /* \"#utility.yul\":9837:10203   */\n    tag_183:\n        /* \"#utility.yul\":9979:9982   */\n      0x00\n        /* \"#utility.yul\":10000:10067   */\n      tag_289\n        /* \"#utility.yul\":10064:10066   */\n      0x26\n        /* \"#utility.yul\":10059:10062   */\n      dup4\n        /* \"#utility.yul\":10000:10067   */\n      tag_168\n      jump\t// in\n    tag_289:\n        /* \"#utility.yul\":9993:10067   */\n      swap2\n      pop\n        /* \"#utility.yul\":10076:10169   */\n      tag_290\n        /* \"#utility.yul\":10165:10168   */\n      dup3\n        /* \"#utility.yul\":10076:10169   */\n      tag_182\n      jump\t// in\n    tag_290:\n        /* \"#utility.yul\":10194:10196   */\n      0x40\n        /* \"#utility.yul\":10189:10192   */\n      dup3\n        /* \"#utility.yul\":10185:10197   */\n      add\n        /* \"#utility.yul\":10178:10197   */\n      swap1\n      pop\n        /* \"#utility.yul\":9837:10203   */\n      swap2\n      swap1\n      pop\n      jump\t// out\n        /* \"#utility.yul\":10209:10628   */\n    tag_131:\n        /* \"#utility.yul\":10375:10379   */\n      0x00\n        /* \"#utility.yul\":10413:10415   */\n      0x20\n        /* \"#utility.yul\":10402:10411   */\n      dup3\n        /* \"#utility.yul\":10398:10416   */\n      add\n        /* \"#utility.yul\":10390:10416   */\n      swap1\n      pop\n        /* \"#utility.yul\":10462:10471   */\n      dup2\n        /* \"#utility.yul\":10456:10460   */\n      dup2\n        /* \"#utility.yul\":10452:10472   */\n      sub\n        /* \"#utility.yul\":10448:10449   */\n      0x00\n        /* \"#utility.yul\":10437:10446   */\n      dup4\n        /* \"#utility.yul\":10433:10450   */\n      add\n        /* \"#utility.yul\":10426:10473   */\n      mstore\n        /* \"#utility.yul\":10490:10621   */\n      tag_292\n        /* \"#utility.yul\":10616:10620   */\n      dup2\n        /* \"#utility.yul\":10490:10621   */\n      tag_183\n      jump\t// in\n    tag_292:\n        /* \"#utility.yul\":10482:10621   */\n      swap1\n      pop\n        /* \"#utility.yul\":10209:10628   */\n      swap2\n      swap1\n      pop\n      jump\t// out\n        /* \"#utility.yul\":10634:10813   */\n    tag_184:\n        /* \"#utility.yul\":10774:10805   */\n      0x416464726573733a2063616c6c20746f206e6f6e2d636f6e7472616374000000\n        /* \"#utility.yul\":10770:10771   */\n      0x00\n        /* \"#utility.yul\":10762:10768   */\n      dup3\n        /* \"#utility.yul\":10758:10772   */\n      add\n        /* \"#utility.yul\":10751:10806   */\n      mstore\n        /* \"#utility.yul\":10634:10813   */\n      pop\n      jump\t// out\n        /* \"#utility.yul\":10819:11185   */\n    tag_185:\n        /* \"#utility.yul\":10961:10964   */\n      0x00\n        /* \"#utility.yul\":10982:11049   */\n      tag_295\n        /* \"#utility.yul\":11046:11048   */\n      0x1d\n        /* \"#utility.yul\":11041:11044   */\n      dup4\n        /* \"#utility.yul\":10982:11049   */\n      tag_168\n      jump\t// in\n    tag_295:\n        /* \"#utility.yul\":10975:11049   */\n      swap2\n      pop\n        /* \"#utility.yul\":11058:11151   */\n      tag_296\n        /* \"#utility.yul\":11147:11150   */\n      dup3\n        /* \"#utility.yul\":11058:11151   */\n      tag_184\n      jump\t// in\n    tag_296:\n        /* \"#utility.yul\":11176:11178   */\n      0x20\n        /* \"#utility.yul\":11171:11174   */\n      dup3\n        /* \"#utility.yul\":11167:11179   */\n      add\n        /* \"#utility.yul\":11160:11179   */\n      swap1\n      pop\n        /* \"#utility.yul\":10819:11185   */\n      swap2\n      swap1\n      pop\n      jump\t// out\n        /* \"#utility.yul\":11191:11610   */\n    tag_136:\n        /* \"#utility.yul\":11357:11361   */\n      0x00\n        /* \"#utility.yul\":11395:11397   */\n      0x20\n        /* \"#utility.yul\":11384:11393   */\n      dup3\n        /* \"#utility.yul\":11380:11398   */\n      add\n        /* \"#utility.yul\":11372:11398   */\n      swap1\n      pop\n        /* \"#utility.yul\":11444:11453   */\n      dup2\n        /* \"#utility.yul\":11438:11442   */\n      dup2\n        /* \"#utility.yul\":11434:11454   */\n      sub\n        /* \"#utility.yul\":11430:11431   */\n      0x00\n        /* \"#utility.yul\":11419:11428   */\n      dup4\n        /* \"#utility.yul\":11415:11432   */\n      add\n        /* \"#utility.yul\":11408:11455   */\n      mstore\n        /* \"#utility.yul\":11472:11603   */\n      tag_298\n        /* \"#utility.yul\":11598:11602   */\n      dup2\n        /* \"#utility.yul\":11472:11603   */\n      tag_185\n      jump\t// in\n    tag_298:\n        /* \"#utility.yul\":11464:11603   */\n      swap1\n      pop\n        /* \"#utility.yul\":11191:11610   */\n      swap2\n      swap1\n      pop\n      jump\t// out\n        /* \"#utility.yul\":11616:11714   */\n    tag_186:\n        /* \"#utility.yul\":11667:11673   */\n      0x00\n        /* \"#utility.yul\":11701:11706   */\n      dup2\n        /* \"#utility.yul\":11695:11707   */\n      mload\n        /* \"#utility.yul\":11685:11707   */\n      swap1\n      pop\n        /* \"#utility.yul\":11616:11714   */\n      swap2\n      swap1\n      pop\n      jump\t// out\n        /* \"#utility.yul\":11720:11867   */\n    tag_187:\n        /* \"#utility.yul\":11821:11832   */\n      0x00\n        /* \"#utility.yul\":11858:11861   */\n      dup2\n        /* \"#utility.yul\":11843:11861   */\n      swap1\n      pop\n        /* \"#utility.yul\":11720:11867   */\n      swap3\n      swap2\n      pop\n      pop\n      jump\t// out\n        /* \"#utility.yul\":11873:12180   */\n    tag_188:\n        /* \"#utility.yul\":11941:11942   */\n      0x00\n        /* \"#utility.yul\":11951:12064   */\n    tag_302:\n        /* \"#utility.yul\":11965:11971   */\n      dup4\n        /* \"#utility.yul\":11962:11963   */\n      dup2\n        /* \"#utility.yul\":11959:11972   */\n      lt\n        /* \"#utility.yul\":11951:12064   */\n      iszero\n      tag_304\n      jumpi\n        /* \"#utility.yul\":12050:12051   */\n      dup1\n        /* \"#utility.yul\":12045:12048   */\n      dup3\n        /* \"#utility.yul\":12041:12052   */\n      add\n        /* \"#utility.yul\":12035:12053   */\n      mload\n        /* \"#utility.yul\":12031:12032   */\n      dup2\n        /* \"#utility.yul\":12026:12029   */\n      dup5\n        /* \"#utility.yul\":12022:12033   */\n      add\n        /* \"#utility.yul\":12015:12054   */\n      mstore\n        /* \"#utility.yul\":11987:11989   */\n      0x20\n        /* \"#utility.yul\":11984:11985   */\n      dup2\n        /* \"#utility.yul\":11980:11990   */\n      add\n        /* \"#utility.yul\":11975:11990   */\n      swap1\n      pop\n        /* \"#utility.yul\":11951:12064   */\n      jump(tag_302)\n    tag_304:\n        /* \"#utility.yul\":12082:12088   */\n      dup4\n        /* \"#utility.yul\":12079:12080   */\n      dup2\n        /* \"#utility.yul\":12076:12089   */\n      gt\n        /* \"#utility.yul\":12073:12174   */\n      iszero\n      tag_305\n      jumpi\n        /* \"#utility.yul\":12162:12163   */\n      0x00\n        /* \"#utility.yul\":12153:12159   */\n      dup5\n        /* \"#utility.yul\":12148:12151   */\n      dup5\n        /* \"#utility.yul\":12144:12160   */\n      add\n        /* \"#utility.yul\":12137:12164   */\n      mstore\n        /* \"#utility.yul\":12073:12174   */\n    tag_305:\n        /* \"#utility.yul\":11922:12180   */\n      pop\n        /* \"#utility.yul\":11873:12180   */\n      pop\n      pop\n      pop\n      jump\t// out\n        /* \"#utility.yul\":12186:12559   */\n    tag_189:\n        /* \"#utility.yul\":12290:12293   */\n      0x00\n        /* \"#utility.yul\":12318:12356   */\n      tag_307\n        /* \"#utility.yul\":12350:12355   */\n      dup3\n        /* \"#utility.yul\":12318:12356   */\n      tag_186\n      jump\t// in\n    tag_307:\n        /* \"#utility.yul\":12372:12460   */\n      tag_308\n        /* \"#utility.yul\":12453:12459   */\n      dup2\n        /* \"#utility.yul\":12448:12451   */\n      dup6\n        /* \"#utility.yul\":12372:12460   */\n      tag_187\n      jump\t// in\n    tag_308:\n        /* \"#utility.yul\":12365:12460   */\n      swap4\n      pop\n        /* \"#utility.yul\":12469:12521   */\n      tag_309\n        /* \"#utility.yul\":12514:12520   */\n      dup2\n        /* \"#utility.yul\":12509:12512   */\n      dup6\n        /* \"#utility.yul\":12502:12506   */\n      0x20\n        /* \"#utility.yul\":12495:12500   */\n      dup7\n        /* \"#utility.yul\":12491:12507   */\n      add\n        /* \"#utility.yul\":12469:12521   */\n      tag_188\n      jump\t// in\n    tag_309:\n        /* \"#utility.yul\":12546:12552   */\n      dup1\n        /* \"#utility.yul\":12541:12544   */\n      dup5\n        /* \"#utility.yul\":12537:12553   */\n      add\n        /* \"#utility.yul\":12530:12553   */\n      swap2\n      pop\n        /* \"#utility.yul\":12294:12559   */\n      pop\n        /* \"#utility.yul\":12186:12559   */\n      swap3\n      swap2\n      pop\n      pop\n      jump\t// out\n        /* \"#utility.yul\":12565:12836   */\n    tag_138:\n        /* \"#utility.yul\":12695:12698   */\n      0x00\n        /* \"#utility.yul\":12717:12810   */\n      tag_311\n        /* \"#utility.yul\":12806:12809   */\n      dup3\n        /* \"#utility.yul\":12797:12803   */\n      dup5\n        /* \"#utility.yul\":12717:12810   */\n      tag_189\n      jump\t// in\n    tag_311:\n        /* \"#utility.yul\":12710:12810   */\n      swap2\n      pop\n        /* \"#utility.yul\":12827:12830   */\n      dup2\n        /* \"#utility.yul\":12820:12830   */\n      swap1\n      pop\n        /* \"#utility.yul\":12565:12836   */\n      swap3\n      swap2\n      pop\n      pop\n      jump\t// out\n        /* \"#utility.yul\":12842:12941   */\n    tag_190:\n        /* \"#utility.yul\":12894:12900   */\n      0x00\n        /* \"#utility.yul\":12928:12933   */\n      dup2\n        /* \"#utility.yul\":12922:12934   */\n      mload\n        /* \"#utility.yul\":12912:12934   */\n      swap1\n      pop\n        /* \"#utility.yul\":12842:12941   */\n      swap2\n      swap1\n      pop\n      jump\t// out\n        /* \"#utility.yul\":12947:13049   */\n    tag_191:\n        /* \"#utility.yul\":12988:12994   */\n      0x00\n        /* \"#utility.yul\":13039:13041   */\n      0x1f\n        /* \"#utility.yul\":13035:13042   */\n      not\n        /* \"#utility.yul\":13030:13032   */\n      0x1f\n        /* \"#utility.yul\":13023:13028   */\n      dup4\n        /* \"#utility.yul\":13019:13033   */\n      add\n        /* \"#utility.yul\":13015:13043   */\n      and\n        /* \"#utility.yul\":13005:13043   */\n      swap1\n      pop\n        /* \"#utility.yul\":12947:13049   */\n      swap2\n      swap1\n      pop\n      jump\t// out\n        /* \"#utility.yul\":13055:13419   */\n    tag_192:\n        /* \"#utility.yul\":13143:13146   */\n      0x00\n        /* \"#utility.yul\":13171:13210   */\n      tag_315\n        /* \"#utility.yul\":13204:13209   */\n      dup3\n        /* \"#utility.yul\":13171:13210   */\n      tag_190\n      jump\t// in\n    tag_315:\n        /* \"#utility.yul\":13226:13297   */\n      tag_316\n        /* \"#utility.yul\":13290:13296   */\n      dup2\n        /* \"#utility.yul\":13285:13288   */\n      dup6\n        /* \"#utility.yul\":13226:13297   */\n      tag_168\n      jump\t// in\n    tag_316:\n        /* \"#utility.yul\":13219:13297   */\n      swap4\n      pop\n        /* \"#utility.yul\":13306:13358   */\n      tag_317\n        /* \"#utility.yul\":13351:13357   */\n      dup2\n        /* \"#utility.yul\":13346:13349   */\n      dup6\n        /* \"#utility.yul\":13339:13343   */\n      0x20\n        /* \"#utility.yul\":13332:13337   */\n      dup7\n        /* \"#utility.yul\":13328:13344   */\n      add\n        /* \"#utility.yul\":13306:13358   */\n      tag_188\n      jump\t// in\n    tag_317:\n        /* \"#utility.yul\":13383:13412   */\n      tag_318\n        /* \"#utility.yul\":13405:13411   */\n      dup2\n        /* \"#utility.yul\":13383:13412   */\n      tag_191\n      jump\t// in\n    tag_318:\n        /* \"#utility.yul\":13378:13381   */\n      dup5\n        /* \"#utility.yul\":13374:13413   */\n      add\n        /* \"#utility.yul\":13367:13413   */\n      swap2\n      pop\n        /* \"#utility.yul\":13147:13419   */\n      pop\n        /* \"#utility.yul\":13055:13419   */\n      swap3\n      swap2\n      pop\n      pop\n      jump\t// out\n        /* \"#utility.yul\":13425:13738   */\n    tag_151:\n        /* \"#utility.yul\":13538:13542   */\n      0x00\n        /* \"#utility.yul\":13576:13578   */\n      0x20\n        /* \"#utility.yul\":13565:13574   */\n      dup3\n        /* \"#utility.yul\":13561:13579   */\n      add\n        /* \"#utility.yul\":13553:13579   */\n      swap1\n      pop\n        /* \"#utility.yul\":13625:13634   */\n      dup2\n        /* \"#utility.yul\":13619:13623   */\n      dup2\n        /* \"#utility.yul\":13615:13635   */\n      sub\n        /* \"#utility.yul\":13611:13612   */\n      0x00\n        /* \"#utility.yul\":13600:13609   */\n      dup4\n        /* \"#utility.yul\":13596:13613   */\n      add\n        /* \"#utility.yul\":13589:13636   */\n      mstore\n        /* \"#utility.yul\":13653:13731   */\n      tag_320\n        /* \"#utility.yul\":13726:13730   */\n      dup2\n        /* \"#utility.yul\":13717:13723   */\n      dup5\n        /* \"#utility.yul\":13653:13731   */\n      tag_192\n      jump\t// in\n    tag_320:\n        /* \"#utility.yul\":13645:13731   */\n      swap1\n      pop\n        /* \"#utility.yul\":13425:13738   */\n      swap3\n      swap2\n      pop\n      pop\n      jump\t// out\n\n    auxdata: 0xa2646970667358221220c8161e6139f96bb9097f46fc165d808acc8cb49bd35ee0923db1060b9db53d2364736f6c634300080e0033\n}\n",
				"bytecode": {
					"linkReferences": {},
					"object": "60806040523480156200001157600080fd5b506040516200155c3803806200155c8339818101604052810190620000379190620002f9565b60016000819055506000831162000085576040517f08c379a00000000000000000000000000000000000000000000000000000000081526004016200007c90620003b6565b60405180910390fd5b600073ffffffffffffffffffffffffffffffffffffffff168273ffffffffffffffffffffffffffffffffffffffff1603620000f7576040517f08c379a0000000000000000000000000000000000000000000000000000000008152600401620000ee906200044e565b60405180910390fd5b600073ffffffffffffffffffffffffffffffffffffffff168173ffffffffffffffffffffffffffffffffffffffff160362000169576040517f08c379a00000000000000000000000000000000000000000000000000000000081526004016200016090620004e6565b60405180910390fd5b8260038190555081600260006101000a81548173ffffffffffffffffffffffffffffffffffffffff021916908373ffffffffffffffffffffffffffffffffffffffff16021790555080600160006101000a81548173ffffffffffffffffffffffffffffffffffffffff021916908373ffffffffffffffffffffffffffffffffffffffff16021790555050505062000508565b600080fd5b6000819050919050565b620002158162000200565b81146200022157600080fd5b50565b60008151905062000235816200020a565b92915050565b600073ffffffffffffffffffffffffffffffffffffffff82169050919050565b600062000268826200023b565b9050919050565b6200027a816200025b565b81146200028657600080fd5b50565b6000815190506200029a816200026f565b92915050565b6000620002ad826200023b565b9050919050565b6000620002c182620002a0565b9050919050565b620002d381620002b4565b8114620002df57600080fd5b50565b600081519050620002f381620002c8565b92915050565b600080600060608486031215620003155762000314620001fb565b5b6000620003258682870162000224565b9350506020620003388682870162000289565b92505060406200034b86828701620002e2565b9150509250925092565b600082825260208201905092915050565b7f43726f776473616c653a20726174652069732030000000000000000000000000600082015250565b60006200039e60148362000355565b9150620003ab8262000366565b602082019050919050565b60006020820190508181036000830152620003d1816200038f565b9050919050565b7f43726f776473616c653a2077616c6c657420697320746865207a65726f20616460008201527f6472657373000000000000000000000000000000000000000000000000000000602082015250565b60006200043660258362000355565b91506200044382620003d8565b604082019050919050565b60006020820190508181036000830152620004698162000427565b9050919050565b7f43726f776473616c653a20746f6b656e20697320746865207a65726f2061646460008201527f7265737300000000000000000000000000000000000000000000000000000000602082015250565b6000620004ce60248362000355565b9150620004db8262000470565b604082019050919050565b600060208201905081810360008301526200050181620004bf565b9050919050565b61104480620005186000396000f3fe60806040526004361061008a5760003560e01c806383bebced1161005957806383bebced1461015257806394a5aa8d1461017d578063ec8ac4d8146101a8578063ecd0c0c3146101c4578063fc0c546a146101ef576100a1565b80632c4e722e146100a65780634042b66f146100d1578063521eb273146100fc578063610757e414610127576100a1565b366100a15761009f61009a61021a565b610222565b005b600080fd5b3480156100b257600080fd5b506100bb610347565b6040516100c891906108f5565b60405180910390f35b3480156100dd57600080fd5b506100e6610351565b6040516100f391906108f5565b60405180910390f35b34801561010857600080fd5b5061011161035b565b60405161011e9190610951565b60405180910390f35b34801561013357600080fd5b5061013c610385565b6040516101499190610951565b60405180910390f35b34801561015e57600080fd5b506101676103ab565b60405161017491906108f5565b60405180910390f35b34801561018957600080fd5b506101926103b1565b60405161019f91906108f5565b60405180910390f35b6101c260048036038101906101bd91906109af565b610222565b005b3480156101d057600080fd5b506101d96103b7565b6040516101e69190610a3b565b60405180910390f35b3480156101fb57600080fd5b506102046103dd565b6040516102119190610a3b565b60405180910390f35b600033905090565b600260005403610267576040517f08c379a000000000000000000000000000000000000000000000000000000000815260040161025e90610ab3565b60405180910390fd5b6002600081905550600034905061027e8282610407565b6000610289826104bd565b90506102a0826004546104db90919063ffffffff16565b6004819055506102b083826104f1565b8273ffffffffffffffffffffffffffffffffffffffff166102cf61021a565b73ffffffffffffffffffffffffffffffffffffffff167f6faf93231a456e552dbc9961f58d9713ee4f2e69d15f1975b050ef0911053a7b8484604051610316929190610ad3565b60405180910390a361032883836104ff565b610330610503565b61033a838361056e565b5050600160008190555050565b6000600354905090565b6000600454905090565b6000600260009054906101000a900473ffffffffffffffffffffffffffffffffffffffff16905090565b600260009054906101000a900473ffffffffffffffffffffffffffffffffffffffff1681565b60035481565b60045481565b600160009054906101000a900473ffffffffffffffffffffffffffffffffffffffff1681565b6000600160009054906101000a900473ffffffffffffffffffffffffffffffffffffffff16905090565b600073ffffffffffffffffffffffffffffffffffffffff168273ffffffffffffffffffffffffffffffffffffffff1603610476576040517f08c379a000000000000000000000000000000000000000000000000000000000815260040161046d90610b6e565b60405180910390fd5b600081036104b9576040517f08c379a00000000000000000000000000000000000000000000000000000000081526004016104b090610bda565b60405180910390fd5b5050565b60006104d46003548361057290919063ffffffff16565b9050919050565b600081836104e99190610c29565b905092915050565b6104fb8282610588565b5050565b5050565b600260009054906101000a900473ffffffffffffffffffffffffffffffffffffffff1673ffffffffffffffffffffffffffffffffffffffff166108fc349081150290604051600060405180830381858888f1935050505015801561056b573d6000803e3d6000fd5b50565b5050565b600081836105809190610c7f565b905092915050565b6105d58282600160009054906101000a900473ffffffffffffffffffffffffffffffffffffffff1673ffffffffffffffffffffffffffffffffffffffff166105d99092919063ffffffff16565b5050565b61065a8363a9059cbb60e01b84846040516024016105f8929190610ce8565b604051602081830303815290604052907bffffffffffffffffffffffffffffffffffffffffffffffffffffffff19166020820180517bffffffffffffffffffffffffffffffffffffffffffffffffffffffff838183161783525050505061065f565b505050565b60006106c1826040518060400160405280602081526020017f5361666545524332303a206c6f772d6c6576656c2063616c6c206661696c65648152508573ffffffffffffffffffffffffffffffffffffffff166107269092919063ffffffff16565b905060008151111561072157808060200190518101906106e19190610d49565b610720576040517f08c379a000000000000000000000000000000000000000000000000000000000815260040161071790610de8565b60405180910390fd5b5b505050565b6060610735848460008561073e565b90509392505050565b606082471015610783576040517f08c379a000000000000000000000000000000000000000000000000000000000815260040161077a90610e7a565b60405180910390fd5b61078c85610852565b6107cb576040517f08c379a00000000000000000000000000000000000000000000000000000000081526004016107c290610ee6565b60405180910390fd5b6000808673ffffffffffffffffffffffffffffffffffffffff1685876040516107f49190610f80565b60006040518083038185875af1925050503d8060008114610831576040519150601f19603f3d011682016040523d82523d6000602084013e610836565b606091505b5091509150610846828286610875565b92505050949350505050565b6000808273ffffffffffffffffffffffffffffffffffffffff163b119050919050565b60608315610885578290506108d5565b6000835111156108985782518084602001fd5b816040517f08c379a00000000000000000000000000000000000000000000000000000000081526004016108cc9190610fec565b60405180910390fd5b9392505050565b6000819050919050565b6108ef816108dc565b82525050565b600060208201905061090a60008301846108e6565b92915050565b600073ffffffffffffffffffffffffffffffffffffffff82169050919050565b600061093b82610910565b9050919050565b61094b81610930565b82525050565b60006020820190506109666000830184610942565b92915050565b600080fd5b600061097c82610910565b9050919050565b61098c81610971565b811461099757600080fd5b50565b6000813590506109a981610983565b92915050565b6000602082840312156109c5576109c461096c565b5b60006109d38482850161099a565b91505092915050565b6000819050919050565b6000610a016109fc6109f784610910565b6109dc565b610910565b9050919050565b6000610a13826109e6565b9050919050565b6000610a2582610a08565b9050919050565b610a3581610a1a565b82525050565b6000602082019050610a506000830184610a2c565b92915050565b600082825260208201905092915050565b7f5265656e7472616e637947756172643a207265656e7472616e742063616c6c00600082015250565b6000610a9d601f83610a56565b9150610aa882610a67565b602082019050919050565b60006020820190508181036000830152610acc81610a90565b9050919050565b6000604082019050610ae860008301856108e6565b610af560208301846108e6565b9392505050565b7f43726f776473616c653a2062656e656669636961727920697320746865207a6560008201527f726f206164647265737300000000000000000000000000000000000000000000602082015250565b6000610b58602a83610a56565b9150610b6382610afc565b604082019050919050565b60006020820190508181036000830152610b8781610b4b565b9050919050565b7f43726f776473616c653a20776569416d6f756e74206973203000000000000000600082015250565b6000610bc4601983610a56565b9150610bcf82610b8e565b602082019050919050565b60006020820190508181036000830152610bf381610bb7565b9050919050565b7f4e487b7100000000000000000000000000000000000000000000000000000000600052601160045260246000fd5b6000610c34826108dc565b9150610c3f836108dc565b9250827fffffffffffffffffffffffffffffffffffffffffffffffffffffffffffffffff03821115610c7457610c73610bfa565b5b828201905092915050565b6000610c8a826108dc565b9150610c95836108dc565b9250817fffffffffffffffffffffffffffffffffffffffffffffffffffffffffffffffff0483118215151615610cce57610ccd610bfa565b5b828202905092915050565b610ce281610971565b82525050565b6000604082019050610cfd6000830185610cd9565b610d0a60208301846108e6565b9392505050565b60008115159050919050565b610d2681610d11565b8114610d3157600080fd5b50565b600081519050610d4381610d1d565b92915050565b600060208284031215610d5f57610d5e61096c565b5b6000610d6d84828501610d34565b91505092915050565b7f5361666545524332303a204552433230206f7065726174696f6e20646964206e60008201527f6f74207375636365656400000000000000000000000000000000000000000000602082015250565b6000610dd2602a83610a56565b9150610ddd82610d76565b604082019050919050565b60006020820190508181036000830152610e0181610dc5565b9050919050565b7f416464726573733a20696e73756666696369656e742062616c616e636520666f60008201527f722063616c6c0000000000000000000000000000000000000000000000000000602082015250565b6000610e64602683610a56565b9150610e6f82610e08565b604082019050919050565b60006020820190508181036000830152610e9381610e57565b9050919050565b7f416464726573733a2063616c6c20746f206e6f6e2d636f6e7472616374000000600082015250565b6000610ed0601d83610a56565b9150610edb82610e9a565b602082019050919050565b60006020820190508181036000830152610eff81610ec3565b9050919050565b600081519050919050565b600081905092915050565b60005b83811015610f3a578082015181840152602081019050610f1f565b83811115610f49576000848401525b50505050565b6000610f5a82610f06565b610f648185610f11565b9350610f74818560208601610f1c565b80840191505092915050565b6000610f8c8284610f4f565b915081905092915050565b600081519050919050565b6000601f19601f8301169050919050565b6000610fbe82610f97565b610fc88185610a56565b9350610fd8818560208601610f1c565b610fe181610fa2565b840191505092915050565b600060208201905081810360008301526110068184610fb3565b90509291505056fea2646970667358221220c8161e6139f96bb9097f46fc165d808acc8cb49bd35ee0923db1060b9db53d2364736f6c634300080e0033",
					"opcodes": "PUSH1 0x80 PUSH1 0x40 MSTORE CALLVALUE DUP1 ISZERO PUSH3 0x11 JUMPI PUSH1 0x0 DUP1 REVERT JUMPDEST POP PUSH1 0x40 MLOAD PUSH3 0x155C CODESIZE SUB DUP1 PUSH3 0x155C DUP4 CODECOPY DUP2 DUP2 ADD PUSH1 0x40 MSTORE DUP2 ADD SWAP1 PUSH3 0x37 SWAP2 SWAP1 PUSH3 0x2F9 JUMP JUMPDEST PUSH1 0x1 PUSH1 0x0 DUP2 SWAP1 SSTORE POP PUSH1 0x0 DUP4 GT PUSH3 0x85 JUMPI PUSH1 0x40 MLOAD PUSH32 0x8C379A000000000000000000000000000000000000000000000000000000000 DUP2 MSTORE PUSH1 0x4 ADD PUSH3 0x7C SWAP1 PUSH3 0x3B6 JUMP JUMPDEST PUSH1 0x40 MLOAD DUP1 SWAP2 SUB SWAP1 REVERT JUMPDEST PUSH1 0x0 PUSH20 0xFFFFFFFFFFFFFFFFFFFFFFFFFFFFFFFFFFFFFFFF AND DUP3 PUSH20 0xFFFFFFFFFFFFFFFFFFFFFFFFFFFFFFFFFFFFFFFF AND SUB PUSH3 0xF7 JUMPI PUSH1 0x40 MLOAD PUSH32 0x8C379A000000000000000000000000000000000000000000000000000000000 DUP2 MSTORE PUSH1 0x4 ADD PUSH3 0xEE SWAP1 PUSH3 0x44E JUMP JUMPDEST PUSH1 0x40 MLOAD DUP1 SWAP2 SUB SWAP1 REVERT JUMPDEST PUSH1 0x0 PUSH20 0xFFFFFFFFFFFFFFFFFFFFFFFFFFFFFFFFFFFFFFFF AND DUP2 PUSH20 0xFFFFFFFFFFFFFFFFFFFFFFFFFFFFFFFFFFFFFFFF AND SUB PUSH3 0x169 JUMPI PUSH1 0x40 MLOAD PUSH32 0x8C379A000000000000000000000000000000000000000000000000000000000 DUP2 MSTORE PUSH1 0x4 ADD PUSH3 0x160 SWAP1 PUSH3 0x4E6 JUMP JUMPDEST PUSH1 0x40 MLOAD DUP1 SWAP2 SUB SWAP1 REVERT JUMPDEST DUP3 PUSH1 0x3 DUP2 SWAP1 SSTORE POP DUP2 PUSH1 0x2 PUSH1 0x0 PUSH2 0x100 EXP DUP2 SLOAD DUP2 PUSH20 0xFFFFFFFFFFFFFFFFFFFFFFFFFFFFFFFFFFFFFFFF MUL NOT AND SWAP1 DUP4 PUSH20 0xFFFFFFFFFFFFFFFFFFFFFFFFFFFFFFFFFFFFFFFF AND MUL OR SWAP1 SSTORE POP DUP1 PUSH1 0x1 PUSH1 0x0 PUSH2 0x100 EXP DUP2 SLOAD DUP2 PUSH20 0xFFFFFFFFFFFFFFFFFFFFFFFFFFFFFFFFFFFFFFFF MUL NOT AND SWAP1 DUP4 PUSH20 0xFFFFFFFFFFFFFFFFFFFFFFFFFFFFFFFFFFFFFFFF AND MUL OR SWAP1 SSTORE POP POP POP POP PUSH3 0x508 JUMP JUMPDEST PUSH1 0x0 DUP1 REVERT JUMPDEST PUSH1 0x0 DUP2 SWAP1 POP SWAP2 SWAP1 POP JUMP JUMPDEST PUSH3 0x215 DUP2 PUSH3 0x200 JUMP JUMPDEST DUP2 EQ PUSH3 0x221 JUMPI PUSH1 0x0 DUP1 REVERT JUMPDEST POP JUMP JUMPDEST PUSH1 0x0 DUP2 MLOAD SWAP1 POP PUSH3 0x235 DUP2 PUSH3 0x20A JUMP JUMPDEST SWAP3 SWAP2 POP POP JUMP JUMPDEST PUSH1 0x0 PUSH20 0xFFFFFFFFFFFFFFFFFFFFFFFFFFFFFFFFFFFFFFFF DUP3 AND SWAP1 POP SWAP2 SWAP1 POP JUMP JUMPDEST PUSH1 0x0 PUSH3 0x268 DUP3 PUSH3 0x23B JUMP JUMPDEST SWAP1 POP SWAP2 SWAP1 POP JUMP JUMPDEST PUSH3 0x27A DUP2 PUSH3 0x25B JUMP JUMPDEST DUP2 EQ PUSH3 0x286 JUMPI PUSH1 0x0 DUP1 REVERT JUMPDEST POP JUMP JUMPDEST PUSH1 0x0 DUP2 MLOAD SWAP1 POP PUSH3 0x29A DUP2 PUSH3 0x26F JUMP JUMPDEST SWAP3 SWAP2 POP POP JUMP JUMPDEST PUSH1 0x0 PUSH3 0x2AD DUP3 PUSH3 0x23B JUMP JUMPDEST SWAP1 POP SWAP2 SWAP1 POP JUMP JUMPDEST PUSH1 0x0 PUSH3 0x2C1 DUP3 PUSH3 0x2A0 JUMP JUMPDEST SWAP1 POP SWAP2 SWAP1 POP JUMP JUMPDEST PUSH3 0x2D3 DUP2 PUSH3 0x2B4 JUMP JUMPDEST DUP2 EQ PUSH3 0x2DF JUMPI PUSH1 0x0 DUP1 REVERT JUMPDEST POP JUMP JUMPDEST PUSH1 0x0 DUP2 MLOAD SWAP1 POP PUSH3 0x2F3 DUP2 PUSH3 0x2C8 JUMP JUMPDEST SWAP3 SWAP2 POP POP JUMP JUMPDEST PUSH1 0x0 DUP1 PUSH1 0x0 PUSH1 0x60 DUP5 DUP7 SUB SLT ISZERO PUSH3 0x315 JUMPI PUSH3 0x314 PUSH3 0x1FB JUMP JUMPDEST JUMPDEST PUSH1 0x0 PUSH3 0x325 DUP7 DUP3 DUP8 ADD PUSH3 0x224 JUMP JUMPDEST SWAP4 POP POP PUSH1 0x20 PUSH3 0x338 DUP7 DUP3 DUP8 ADD PUSH3 0x289 JUMP JUMPDEST SWAP3 POP POP PUSH1 0x40 PUSH3 0x34B DUP7 DUP3 DUP8 ADD PUSH3 0x2E2 JUMP JUMPDEST SWAP2 POP POP SWAP3 POP SWAP3 POP SWAP3 JUMP JUMPDEST PUSH1 0x0 DUP3 DUP3 MSTORE PUSH1 0x20 DUP3 ADD SWAP1 POP SWAP3 SWAP2 POP POP JUMP JUMPDEST PUSH32 0x43726F776473616C653A20726174652069732030000000000000000000000000 PUSH1 0x0 DUP3 ADD MSTORE POP JUMP JUMPDEST PUSH1 0x0 PUSH3 0x39E PUSH1 0x14 DUP4 PUSH3 0x355 JUMP JUMPDEST SWAP2 POP PUSH3 0x3AB DUP3 PUSH3 0x366 JUMP JUMPDEST PUSH1 0x20 DUP3 ADD SWAP1 POP SWAP2 SWAP1 POP JUMP JUMPDEST PUSH1 0x0 PUSH1 0x20 DUP3 ADD SWAP1 POP DUP2 DUP2 SUB PUSH1 0x0 DUP4 ADD MSTORE PUSH3 0x3D1 DUP2 PUSH3 0x38F JUMP JUMPDEST SWAP1 POP SWAP2 SWAP1 POP JUMP JUMPDEST PUSH32 0x43726F776473616C653A2077616C6C657420697320746865207A65726F206164 PUSH1 0x0 DUP3 ADD MSTORE PUSH32 0x6472657373000000000000000000000000000000000000000000000000000000 PUSH1 0x20 DUP3 ADD MSTORE POP JUMP JUMPDEST PUSH1 0x0 PUSH3 0x436 PUSH1 0x25 DUP4 PUSH3 0x355 JUMP JUMPDEST SWAP2 POP PUSH3 0x443 DUP3 PUSH3 0x3D8 JUMP JUMPDEST PUSH1 0x40 DUP3 ADD SWAP1 POP SWAP2 SWAP1 POP JUMP JUMPDEST PUSH1 0x0 PUSH1 0x20 DUP3 ADD SWAP1 POP DUP2 DUP2 SUB PUSH1 0x0 DUP4 ADD MSTORE PUSH3 0x469 DUP2 PUSH3 0x427 JUMP JUMPDEST SWAP1 POP SWAP2 SWAP1 POP JUMP JUMPDEST PUSH32 0x43726F776473616C653A20746F6B656E20697320746865207A65726F20616464 PUSH1 0x0 DUP3 ADD MSTORE PUSH32 0x7265737300000000000000000000000000000000000000000000000000000000 PUSH1 0x20 DUP3 ADD MSTORE POP JUMP JUMPDEST PUSH1 0x0 PUSH3 0x4CE PUSH1 0x24 DUP4 PUSH3 0x355 JUMP JUMPDEST SWAP2 POP PUSH3 0x4DB DUP3 PUSH3 0x470 JUMP JUMPDEST PUSH1 0x40 DUP3 ADD SWAP1 POP SWAP2 SWAP1 POP JUMP JUMPDEST PUSH1 0x0 PUSH1 0x20 DUP3 ADD SWAP1 POP DUP2 DUP2 SUB PUSH1 0x0 DUP4 ADD MSTORE PUSH3 0x501 DUP2 PUSH3 0x4BF JUMP JUMPDEST SWAP1 POP SWAP2 SWAP1 POP JUMP JUMPDEST PUSH2 0x1044 DUP1 PUSH3 0x518 PUSH1 0x0 CODECOPY PUSH1 0x0 RETURN INVALID PUSH1 0x80 PUSH1 0x40 MSTORE PUSH1 0x4 CALLDATASIZE LT PUSH2 0x8A JUMPI PUSH1 0x0 CALLDATALOAD PUSH1 0xE0 SHR DUP1 PUSH4 0x83BEBCED GT PUSH2 0x59 JUMPI DUP1 PUSH4 0x83BEBCED EQ PUSH2 0x152 JUMPI DUP1 PUSH4 0x94A5AA8D EQ PUSH2 0x17D JUMPI DUP1 PUSH4 0xEC8AC4D8 EQ PUSH2 0x1A8 JUMPI DUP1 PUSH4 0xECD0C0C3 EQ PUSH2 0x1C4 JUMPI DUP1 PUSH4 0xFC0C546A EQ PUSH2 0x1EF JUMPI PUSH2 0xA1 JUMP JUMPDEST DUP1 PUSH4 0x2C4E722E EQ PUSH2 0xA6 JUMPI DUP1 PUSH4 0x4042B66F EQ PUSH2 0xD1 JUMPI DUP1 PUSH4 0x521EB273 EQ PUSH2 0xFC JUMPI DUP1 PUSH4 0x610757E4 EQ PUSH2 0x127 JUMPI PUSH2 0xA1 JUMP JUMPDEST CALLDATASIZE PUSH2 0xA1 JUMPI PUSH2 0x9F PUSH2 0x9A PUSH2 0x21A JUMP JUMPDEST PUSH2 0x222 JUMP JUMPDEST STOP JUMPDEST PUSH1 0x0 DUP1 REVERT JUMPDEST CALLVALUE DUP1 ISZERO PUSH2 0xB2 JUMPI PUSH1 0x0 DUP1 REVERT JUMPDEST POP PUSH2 0xBB PUSH2 0x347 JUMP JUMPDEST PUSH1 0x40 MLOAD PUSH2 0xC8 SWAP2 SWAP1 PUSH2 0x8F5 JUMP JUMPDEST PUSH1 0x40 MLOAD DUP1 SWAP2 SUB SWAP1 RETURN JUMPDEST CALLVALUE DUP1 ISZERO PUSH2 0xDD JUMPI PUSH1 0x0 DUP1 REVERT JUMPDEST POP PUSH2 0xE6 PUSH2 0x351 JUMP JUMPDEST PUSH1 0x40 MLOAD PUSH2 0xF3 SWAP2 SWAP1 PUSH2 0x8F5 JUMP JUMPDEST PUSH1 0x40 MLOAD DUP1 SWAP2 SUB SWAP1 RETURN JUMPDEST CALLVALUE DUP1 ISZERO PUSH2 0x108 JUMPI PUSH1 0x0 DUP1 REVERT JUMPDEST POP PUSH2 0x111 PUSH2 0x35B JUMP JUMPDEST PUSH1 0x40 MLOAD PUSH2 0x11E SWAP2 SWAP1 PUSH2 0x951 JUMP JUMPDEST PUSH1 0x40 MLOAD DUP1 SWAP2 SUB SWAP1 RETURN JUMPDEST CALLVALUE DUP1 ISZERO PUSH2 0x133 JUMPI PUSH1 0x0 DUP1 REVERT JUMPDEST POP PUSH2 0x13C PUSH2 0x385 JUMP JUMPDEST PUSH1 0x40 MLOAD PUSH2 0x149 SWAP2 SWAP1 PUSH2 0x951 JUMP JUMPDEST PUSH1 0x40 MLOAD DUP1 SWAP2 SUB SWAP1 RETURN JUMPDEST CALLVALUE DUP1 ISZERO PUSH2 0x15E JUMPI PUSH1 0x0 DUP1 REVERT JUMPDEST POP PUSH2 0x167 PUSH2 0x3AB JUMP JUMPDEST PUSH1 0x40 MLOAD PUSH2 0x174 SWAP2 SWAP1 PUSH2 0x8F5 JUMP JUMPDEST PUSH1 0x40 MLOAD DUP1 SWAP2 SUB SWAP1 RETURN JUMPDEST CALLVALUE DUP1 ISZERO PUSH2 0x189 JUMPI PUSH1 0x0 DUP1 REVERT JUMPDEST POP PUSH2 0x192 PUSH2 0x3B1 JUMP JUMPDEST PUSH1 0x40 MLOAD PUSH2 0x19F SWAP2 SWAP1 PUSH2 0x8F5 JUMP JUMPDEST PUSH1 0x40 MLOAD DUP1 SWAP2 SUB SWAP1 RETURN JUMPDEST PUSH2 0x1C2 PUSH1 0x4 DUP1 CALLDATASIZE SUB DUP2 ADD SWAP1 PUSH2 0x1BD SWAP2 SWAP1 PUSH2 0x9AF JUMP JUMPDEST PUSH2 0x222 JUMP JUMPDEST STOP JUMPDEST CALLVALUE DUP1 ISZERO PUSH2 0x1D0 JUMPI PUSH1 0x0 DUP1 REVERT JUMPDEST POP PUSH2 0x1D9 PUSH2 0x3B7 JUMP JUMPDEST PUSH1 0x40 MLOAD PUSH2 0x1E6 SWAP2 SWAP1 PUSH2 0xA3B JUMP JUMPDEST PUSH1 0x40 MLOAD DUP1 SWAP2 SUB SWAP1 RETURN JUMPDEST CALLVALUE DUP1 ISZERO PUSH2 0x1FB JUMPI PUSH1 0x0 DUP1 REVERT JUMPDEST POP PUSH2 0x204 PUSH2 0x3DD JUMP JUMPDEST PUSH1 0x40 MLOAD PUSH2 0x211 SWAP2 SWAP1 PUSH2 0xA3B JUMP JUMPDEST PUSH1 0x40 MLOAD DUP1 SWAP2 SUB SWAP1 RETURN JUMPDEST PUSH1 0x0 CALLER SWAP1 POP SWAP1 JUMP JUMPDEST PUSH1 0x2 PUSH1 0x0 SLOAD SUB PUSH2 0x267 JUMPI PUSH1 0x40 MLOAD PUSH32 0x8C379A000000000000000000000000000000000000000000000000000000000 DUP2 MSTORE PUSH1 0x4 ADD PUSH2 0x25E SWAP1 PUSH2 0xAB3 JUMP JUMPDEST PUSH1 0x40 MLOAD DUP1 SWAP2 SUB SWAP1 REVERT JUMPDEST PUSH1 0x2 PUSH1 0x0 DUP2 SWAP1 SSTORE POP PUSH1 0x0 CALLVALUE SWAP1 POP PUSH2 0x27E DUP3 DUP3 PUSH2 0x407 JUMP JUMPDEST PUSH1 0x0 PUSH2 0x289 DUP3 PUSH2 0x4BD JUMP JUMPDEST SWAP1 POP PUSH2 0x2A0 DUP3 PUSH1 0x4 SLOAD PUSH2 0x4DB SWAP1 SWAP2 SWAP1 PUSH4 0xFFFFFFFF AND JUMP JUMPDEST PUSH1 0x4 DUP2 SWAP1 SSTORE POP PUSH2 0x2B0 DUP4 DUP3 PUSH2 0x4F1 JUMP JUMPDEST DUP3 PUSH20 0xFFFFFFFFFFFFFFFFFFFFFFFFFFFFFFFFFFFFFFFF AND PUSH2 0x2CF PUSH2 0x21A JUMP JUMPDEST PUSH20 0xFFFFFFFFFFFFFFFFFFFFFFFFFFFFFFFFFFFFFFFF AND PUSH32 0x6FAF93231A456E552DBC9961F58D9713EE4F2E69D15F1975B050EF0911053A7B DUP5 DUP5 PUSH1 0x40 MLOAD PUSH2 0x316 SWAP3 SWAP2 SWAP1 PUSH2 0xAD3 JUMP JUMPDEST PUSH1 0x40 MLOAD DUP1 SWAP2 SUB SWAP1 LOG3 PUSH2 0x328 DUP4 DUP4 PUSH2 0x4FF JUMP JUMPDEST PUSH2 0x330 PUSH2 0x503 JUMP JUMPDEST PUSH2 0x33A DUP4 DUP4 PUSH2 0x56E JUMP JUMPDEST POP POP PUSH1 0x1 PUSH1 0x0 DUP2 SWAP1 SSTORE POP POP JUMP JUMPDEST PUSH1 0x0 PUSH1 0x3 SLOAD SWAP1 POP SWAP1 JUMP JUMPDEST PUSH1 0x0 PUSH1 0x4 SLOAD SWAP1 POP SWAP1 JUMP JUMPDEST PUSH1 0x0 PUSH1 0x2 PUSH1 0x0 SWAP1 SLOAD SWAP1 PUSH2 0x100 EXP SWAP1 DIV PUSH20 0xFFFFFFFFFFFFFFFFFFFFFFFFFFFFFFFFFFFFFFFF AND SWAP1 POP SWAP1 JUMP JUMPDEST PUSH1 0x2 PUSH1 0x0 SWAP1 SLOAD SWAP1 PUSH2 0x100 EXP SWAP1 DIV PUSH20 0xFFFFFFFFFFFFFFFFFFFFFFFFFFFFFFFFFFFFFFFF AND DUP2 JUMP JUMPDEST PUSH1 0x3 SLOAD DUP2 JUMP JUMPDEST PUSH1 0x4 SLOAD DUP2 JUMP JUMPDEST PUSH1 0x1 PUSH1 0x0 SWAP1 SLOAD SWAP1 PUSH2 0x100 EXP SWAP1 DIV PUSH20 0xFFFFFFFFFFFFFFFFFFFFFFFFFFFFFFFFFFFFFFFF AND DUP2 JUMP JUMPDEST PUSH1 0x0 PUSH1 0x1 PUSH1 0x0 SWAP1 SLOAD SWAP1 PUSH2 0x100 EXP SWAP1 DIV PUSH20 0xFFFFFFFFFFFFFFFFFFFFFFFFFFFFFFFFFFFFFFFF AND SWAP1 POP SWAP1 JUMP JUMPDEST PUSH1 0x0 PUSH20 0xFFFFFFFFFFFFFFFFFFFFFFFFFFFFFFFFFFFFFFFF AND DUP3 PUSH20 0xFFFFFFFFFFFFFFFFFFFFFFFFFFFFFFFFFFFFFFFF AND SUB PUSH2 0x476 JUMPI PUSH1 0x40 MLOAD PUSH32 0x8C379A000000000000000000000000000000000000000000000000000000000 DUP2 MSTORE PUSH1 0x4 ADD PUSH2 0x46D SWAP1 PUSH2 0xB6E JUMP JUMPDEST PUSH1 0x40 MLOAD DUP1 SWAP2 SUB SWAP1 REVERT JUMPDEST PUSH1 0x0 DUP2 SUB PUSH2 0x4B9 JUMPI PUSH1 0x40 MLOAD PUSH32 0x8C379A000000000000000000000000000000000000000000000000000000000 DUP2 MSTORE PUSH1 0x4 ADD PUSH2 0x4B0 SWAP1 PUSH2 0xBDA JUMP JUMPDEST PUSH1 0x40 MLOAD DUP1 SWAP2 SUB SWAP1 REVERT JUMPDEST POP POP JUMP JUMPDEST PUSH1 0x0 PUSH2 0x4D4 PUSH1 0x3 SLOAD DUP4 PUSH2 0x572 SWAP1 SWAP2 SWAP1 PUSH4 0xFFFFFFFF AND JUMP JUMPDEST SWAP1 POP SWAP2 SWAP1 POP JUMP JUMPDEST PUSH1 0x0 DUP2 DUP4 PUSH2 0x4E9 SWAP2 SWAP1 PUSH2 0xC29 JUMP JUMPDEST SWAP1 POP SWAP3 SWAP2 POP POP JUMP JUMPDEST PUSH2 0x4FB DUP3 DUP3 PUSH2 0x588 JUMP JUMPDEST POP POP JUMP JUMPDEST POP POP JUMP JUMPDEST PUSH1 0x2 PUSH1 0x0 SWAP1 SLOAD SWAP1 PUSH2 0x100 EXP SWAP1 DIV PUSH20 0xFFFFFFFFFFFFFFFFFFFFFFFFFFFFFFFFFFFFFFFF AND PUSH20 0xFFFFFFFFFFFFFFFFFFFFFFFFFFFFFFFFFFFFFFFF AND PUSH2 0x8FC CALLVALUE SWAP1 DUP2 ISZERO MUL SWAP1 PUSH1 0x40 MLOAD PUSH1 0x0 PUSH1 0x40 MLOAD DUP1 DUP4 SUB DUP2 DUP6 DUP9 DUP9 CALL SWAP4 POP POP POP POP ISZERO DUP1 ISZERO PUSH2 0x56B JUMPI RETURNDATASIZE PUSH1 0x0 DUP1 RETURNDATACOPY RETURNDATASIZE PUSH1 0x0 REVERT JUMPDEST POP JUMP JUMPDEST POP POP JUMP JUMPDEST PUSH1 0x0 DUP2 DUP4 PUSH2 0x580 SWAP2 SWAP1 PUSH2 0xC7F JUMP JUMPDEST SWAP1 POP SWAP3 SWAP2 POP POP JUMP JUMPDEST PUSH2 0x5D5 DUP3 DUP3 PUSH1 0x1 PUSH1 0x0 SWAP1 SLOAD SWAP1 PUSH2 0x100 EXP SWAP1 DIV PUSH20 0xFFFFFFFFFFFFFFFFFFFFFFFFFFFFFFFFFFFFFFFF AND PUSH20 0xFFFFFFFFFFFFFFFFFFFFFFFFFFFFFFFFFFFFFFFF AND PUSH2 0x5D9 SWAP1 SWAP3 SWAP2 SWAP1 PUSH4 0xFFFFFFFF AND JUMP JUMPDEST POP POP JUMP JUMPDEST PUSH2 0x65A DUP4 PUSH4 0xA9059CBB PUSH1 0xE0 SHL DUP5 DUP5 PUSH1 0x40 MLOAD PUSH1 0x24 ADD PUSH2 0x5F8 SWAP3 SWAP2 SWAP1 PUSH2 0xCE8 JUMP JUMPDEST PUSH1 0x40 MLOAD PUSH1 0x20 DUP2 DUP4 SUB SUB DUP2 MSTORE SWAP1 PUSH1 0x40 MSTORE SWAP1 PUSH28 0xFFFFFFFFFFFFFFFFFFFFFFFFFFFFFFFFFFFFFFFFFFFFFFFFFFFFFFFF NOT AND PUSH1 0x20 DUP3 ADD DUP1 MLOAD PUSH28 0xFFFFFFFFFFFFFFFFFFFFFFFFFFFFFFFFFFFFFFFFFFFFFFFFFFFFFFFF DUP4 DUP2 DUP4 AND OR DUP4 MSTORE POP POP POP POP PUSH2 0x65F JUMP JUMPDEST POP POP POP JUMP JUMPDEST PUSH1 0x0 PUSH2 0x6C1 DUP3 PUSH1 0x40 MLOAD DUP1 PUSH1 0x40 ADD PUSH1 0x40 MSTORE DUP1 PUSH1 0x20 DUP2 MSTORE PUSH1 0x20 ADD PUSH32 0x5361666545524332303A206C6F772D6C6576656C2063616C6C206661696C6564 DUP2 MSTORE POP DUP6 PUSH20 0xFFFFFFFFFFFFFFFFFFFFFFFFFFFFFFFFFFFFFFFF AND PUSH2 0x726 SWAP1 SWAP3 SWAP2 SWAP1 PUSH4 0xFFFFFFFF AND JUMP JUMPDEST SWAP1 POP PUSH1 0x0 DUP2 MLOAD GT ISZERO PUSH2 0x721 JUMPI DUP1 DUP1 PUSH1 0x20 ADD SWAP1 MLOAD DUP2 ADD SWAP1 PUSH2 0x6E1 SWAP2 SWAP1 PUSH2 0xD49 JUMP JUMPDEST PUSH2 0x720 JUMPI PUSH1 0x40 MLOAD PUSH32 0x8C379A000000000000000000000000000000000000000000000000000000000 DUP2 MSTORE PUSH1 0x4 ADD PUSH2 0x717 SWAP1 PUSH2 0xDE8 JUMP JUMPDEST PUSH1 0x40 MLOAD DUP1 SWAP2 SUB SWAP1 REVERT JUMPDEST JUMPDEST POP POP POP JUMP JUMPDEST PUSH1 0x60 PUSH2 0x735 DUP5 DUP5 PUSH1 0x0 DUP6 PUSH2 0x73E JUMP JUMPDEST SWAP1 POP SWAP4 SWAP3 POP POP POP JUMP JUMPDEST PUSH1 0x60 DUP3 SELFBALANCE LT ISZERO PUSH2 0x783 JUMPI PUSH1 0x40 MLOAD PUSH32 0x8C379A000000000000000000000000000000000000000000000000000000000 DUP2 MSTORE PUSH1 0x4 ADD PUSH2 0x77A SWAP1 PUSH2 0xE7A JUMP JUMPDEST PUSH1 0x40 MLOAD DUP1 SWAP2 SUB SWAP1 REVERT JUMPDEST PUSH2 0x78C DUP6 PUSH2 0x852 JUMP JUMPDEST PUSH2 0x7CB JUMPI PUSH1 0x40 MLOAD PUSH32 0x8C379A000000000000000000000000000000000000000000000000000000000 DUP2 MSTORE PUSH1 0x4 ADD PUSH2 0x7C2 SWAP1 PUSH2 0xEE6 JUMP JUMPDEST PUSH1 0x40 MLOAD DUP1 SWAP2 SUB SWAP1 REVERT JUMPDEST PUSH1 0x0 DUP1 DUP7 PUSH20 0xFFFFFFFFFFFFFFFFFFFFFFFFFFFFFFFFFFFFFFFF AND DUP6 DUP8 PUSH1 0x40 MLOAD PUSH2 0x7F4 SWAP2 SWAP1 PUSH2 0xF80 JUMP JUMPDEST PUSH1 0x0 PUSH1 0x40 MLOAD DUP1 DUP4 SUB DUP2 DUP6 DUP8 GAS CALL SWAP3 POP POP POP RETURNDATASIZE DUP1 PUSH1 0x0 DUP2 EQ PUSH2 0x831 JUMPI PUSH1 0x40 MLOAD SWAP2 POP PUSH1 0x1F NOT PUSH1 0x3F RETURNDATASIZE ADD AND DUP3 ADD PUSH1 0x40 MSTORE RETURNDATASIZE DUP3 MSTORE RETURNDATASIZE PUSH1 0x0 PUSH1 0x20 DUP5 ADD RETURNDATACOPY PUSH2 0x836 JUMP JUMPDEST PUSH1 0x60 SWAP2 POP JUMPDEST POP SWAP2 POP SWAP2 POP PUSH2 0x846 DUP3 DUP3 DUP7 PUSH2 0x875 JUMP JUMPDEST SWAP3 POP POP POP SWAP5 SWAP4 POP POP POP POP JUMP JUMPDEST PUSH1 0x0 DUP1 DUP3 PUSH20 0xFFFFFFFFFFFFFFFFFFFFFFFFFFFFFFFFFFFFFFFF AND EXTCODESIZE GT SWAP1 POP SWAP2 SWAP1 POP JUMP JUMPDEST PUSH1 0x60 DUP4 ISZERO PUSH2 0x885 JUMPI DUP3 SWAP1 POP PUSH2 0x8D5 JUMP JUMPDEST PUSH1 0x0 DUP4 MLOAD GT ISZERO PUSH2 0x898 JUMPI DUP3 MLOAD DUP1 DUP5 PUSH1 0x20 ADD REVERT JUMPDEST DUP2 PUSH1 0x40 MLOAD PUSH32 0x8C379A000000000000000000000000000000000000000000000000000000000 DUP2 MSTORE PUSH1 0x4 ADD PUSH2 0x8CC SWAP2 SWAP1 PUSH2 0xFEC JUMP JUMPDEST PUSH1 0x40 MLOAD DUP1 SWAP2 SUB SWAP1 REVERT JUMPDEST SWAP4 SWAP3 POP POP POP JUMP JUMPDEST PUSH1 0x0 DUP2 SWAP1 POP SWAP2 SWAP1 POP JUMP JUMPDEST PUSH2 0x8EF DUP2 PUSH2 0x8DC JUMP JUMPDEST DUP3 MSTORE POP POP JUMP JUMPDEST PUSH1 0x0 PUSH1 0x20 DUP3 ADD SWAP1 POP PUSH2 0x90A PUSH1 0x0 DUP4 ADD DUP5 PUSH2 0x8E6 JUMP JUMPDEST SWAP3 SWAP2 POP POP JUMP JUMPDEST PUSH1 0x0 PUSH20 0xFFFFFFFFFFFFFFFFFFFFFFFFFFFFFFFFFFFFFFFF DUP3 AND SWAP1 POP SWAP2 SWAP1 POP JUMP JUMPDEST PUSH1 0x0 PUSH2 0x93B DUP3 PUSH2 0x910 JUMP JUMPDEST SWAP1 POP SWAP2 SWAP1 POP JUMP JUMPDEST PUSH2 0x94B DUP2 PUSH2 0x930 JUMP JUMPDEST DUP3 MSTORE POP POP JUMP JUMPDEST PUSH1 0x0 PUSH1 0x20 DUP3 ADD SWAP1 POP PUSH2 0x966 PUSH1 0x0 DUP4 ADD DUP5 PUSH2 0x942 JUMP JUMPDEST SWAP3 SWAP2 POP POP JUMP JUMPDEST PUSH1 0x0 DUP1 REVERT JUMPDEST PUSH1 0x0 PUSH2 0x97C DUP3 PUSH2 0x910 JUMP JUMPDEST SWAP1 POP SWAP2 SWAP1 POP JUMP JUMPDEST PUSH2 0x98C DUP2 PUSH2 0x971 JUMP JUMPDEST DUP2 EQ PUSH2 0x997 JUMPI PUSH1 0x0 DUP1 REVERT JUMPDEST POP JUMP JUMPDEST PUSH1 0x0 DUP2 CALLDATALOAD SWAP1 POP PUSH2 0x9A9 DUP2 PUSH2 0x983 JUMP JUMPDEST SWAP3 SWAP2 POP POP JUMP JUMPDEST PUSH1 0x0 PUSH1 0x20 DUP3 DUP5 SUB SLT ISZERO PUSH2 0x9C5 JUMPI PUSH2 0x9C4 PUSH2 0x96C JUMP JUMPDEST JUMPDEST PUSH1 0x0 PUSH2 0x9D3 DUP5 DUP3 DUP6 ADD PUSH2 0x99A JUMP JUMPDEST SWAP2 POP POP SWAP3 SWAP2 POP POP JUMP JUMPDEST PUSH1 0x0 DUP2 SWAP1 POP SWAP2 SWAP1 POP JUMP JUMPDEST PUSH1 0x0 PUSH2 0xA01 PUSH2 0x9FC PUSH2 0x9F7 DUP5 PUSH2 0x910 JUMP JUMPDEST PUSH2 0x9DC JUMP JUMPDEST PUSH2 0x910 JUMP JUMPDEST SWAP1 POP SWAP2 SWAP1 POP JUMP JUMPDEST PUSH1 0x0 PUSH2 0xA13 DUP3 PUSH2 0x9E6 JUMP JUMPDEST SWAP1 POP SWAP2 SWAP1 POP JUMP JUMPDEST PUSH1 0x0 PUSH2 0xA25 DUP3 PUSH2 0xA08 JUMP JUMPDEST SWAP1 POP SWAP2 SWAP1 POP JUMP JUMPDEST PUSH2 0xA35 DUP2 PUSH2 0xA1A JUMP JUMPDEST DUP3 MSTORE POP POP JUMP JUMPDEST PUSH1 0x0 PUSH1 0x20 DUP3 ADD SWAP1 POP PUSH2 0xA50 PUSH1 0x0 DUP4 ADD DUP5 PUSH2 0xA2C JUMP JUMPDEST SWAP3 SWAP2 POP POP JUMP JUMPDEST PUSH1 0x0 DUP3 DUP3 MSTORE PUSH1 0x20 DUP3 ADD SWAP1 POP SWAP3 SWAP2 POP POP JUMP JUMPDEST PUSH32 0x5265656E7472616E637947756172643A207265656E7472616E742063616C6C00 PUSH1 0x0 DUP3 ADD MSTORE POP JUMP JUMPDEST PUSH1 0x0 PUSH2 0xA9D PUSH1 0x1F DUP4 PUSH2 0xA56 JUMP JUMPDEST SWAP2 POP PUSH2 0xAA8 DUP3 PUSH2 0xA67 JUMP JUMPDEST PUSH1 0x20 DUP3 ADD SWAP1 POP SWAP2 SWAP1 POP JUMP JUMPDEST PUSH1 0x0 PUSH1 0x20 DUP3 ADD SWAP1 POP DUP2 DUP2 SUB PUSH1 0x0 DUP4 ADD MSTORE PUSH2 0xACC DUP2 PUSH2 0xA90 JUMP JUMPDEST SWAP1 POP SWAP2 SWAP1 POP JUMP JUMPDEST PUSH1 0x0 PUSH1 0x40 DUP3 ADD SWAP1 POP PUSH2 0xAE8 PUSH1 0x0 DUP4 ADD DUP6 PUSH2 0x8E6 JUMP JUMPDEST PUSH2 0xAF5 PUSH1 0x20 DUP4 ADD DUP5 PUSH2 0x8E6 JUMP JUMPDEST SWAP4 SWAP3 POP POP POP JUMP JUMPDEST PUSH32 0x43726F776473616C653A2062656E656669636961727920697320746865207A65 PUSH1 0x0 DUP3 ADD MSTORE PUSH32 0x726F206164647265737300000000000000000000000000000000000000000000 PUSH1 0x20 DUP3 ADD MSTORE POP JUMP JUMPDEST PUSH1 0x0 PUSH2 0xB58 PUSH1 0x2A DUP4 PUSH2 0xA56 JUMP JUMPDEST SWAP2 POP PUSH2 0xB63 DUP3 PUSH2 0xAFC JUMP JUMPDEST PUSH1 0x40 DUP3 ADD SWAP1 POP SWAP2 SWAP1 POP JUMP JUMPDEST PUSH1 0x0 PUSH1 0x20 DUP3 ADD SWAP1 POP DUP2 DUP2 SUB PUSH1 0x0 DUP4 ADD MSTORE PUSH2 0xB87 DUP2 PUSH2 0xB4B JUMP JUMPDEST SWAP1 POP SWAP2 SWAP1 POP JUMP JUMPDEST PUSH32 0x43726F776473616C653A20776569416D6F756E74206973203000000000000000 PUSH1 0x0 DUP3 ADD MSTORE POP JUMP JUMPDEST PUSH1 0x0 PUSH2 0xBC4 PUSH1 0x19 DUP4 PUSH2 0xA56 JUMP JUMPDEST SWAP2 POP PUSH2 0xBCF DUP3 PUSH2 0xB8E JUMP JUMPDEST PUSH1 0x20 DUP3 ADD SWAP1 POP SWAP2 SWAP1 POP JUMP JUMPDEST PUSH1 0x0 PUSH1 0x20 DUP3 ADD SWAP1 POP DUP2 DUP2 SUB PUSH1 0x0 DUP4 ADD MSTORE PUSH2 0xBF3 DUP2 PUSH2 0xBB7 JUMP JUMPDEST SWAP1 POP SWAP2 SWAP1 POP JUMP JUMPDEST PUSH32 0x4E487B7100000000000000000000000000000000000000000000000000000000 PUSH1 0x0 MSTORE PUSH1 0x11 PUSH1 0x4 MSTORE PUSH1 0x24 PUSH1 0x0 REVERT JUMPDEST PUSH1 0x0 PUSH2 0xC34 DUP3 PUSH2 0x8DC JUMP JUMPDEST SWAP2 POP PUSH2 0xC3F DUP4 PUSH2 0x8DC JUMP JUMPDEST SWAP3 POP DUP3 PUSH32 0xFFFFFFFFFFFFFFFFFFFFFFFFFFFFFFFFFFFFFFFFFFFFFFFFFFFFFFFFFFFFFFFF SUB DUP3 GT ISZERO PUSH2 0xC74 JUMPI PUSH2 0xC73 PUSH2 0xBFA JUMP JUMPDEST JUMPDEST DUP3 DUP3 ADD SWAP1 POP SWAP3 SWAP2 POP POP JUMP JUMPDEST PUSH1 0x0 PUSH2 0xC8A DUP3 PUSH2 0x8DC JUMP JUMPDEST SWAP2 POP PUSH2 0xC95 DUP4 PUSH2 0x8DC JUMP JUMPDEST SWAP3 POP DUP2 PUSH32 0xFFFFFFFFFFFFFFFFFFFFFFFFFFFFFFFFFFFFFFFFFFFFFFFFFFFFFFFFFFFFFFFF DIV DUP4 GT DUP3 ISZERO ISZERO AND ISZERO PUSH2 0xCCE JUMPI PUSH2 0xCCD PUSH2 0xBFA JUMP JUMPDEST JUMPDEST DUP3 DUP3 MUL SWAP1 POP SWAP3 SWAP2 POP POP JUMP JUMPDEST PUSH2 0xCE2 DUP2 PUSH2 0x971 JUMP JUMPDEST DUP3 MSTORE POP POP JUMP JUMPDEST PUSH1 0x0 PUSH1 0x40 DUP3 ADD SWAP1 POP PUSH2 0xCFD PUSH1 0x0 DUP4 ADD DUP6 PUSH2 0xCD9 JUMP JUMPDEST PUSH2 0xD0A PUSH1 0x20 DUP4 ADD DUP5 PUSH2 0x8E6 JUMP JUMPDEST SWAP4 SWAP3 POP POP POP JUMP JUMPDEST PUSH1 0x0 DUP2 ISZERO ISZERO SWAP1 POP SWAP2 SWAP1 POP JUMP JUMPDEST PUSH2 0xD26 DUP2 PUSH2 0xD11 JUMP JUMPDEST DUP2 EQ PUSH2 0xD31 JUMPI PUSH1 0x0 DUP1 REVERT JUMPDEST POP JUMP JUMPDEST PUSH1 0x0 DUP2 MLOAD SWAP1 POP PUSH2 0xD43 DUP2 PUSH2 0xD1D JUMP JUMPDEST SWAP3 SWAP2 POP POP JUMP JUMPDEST PUSH1 0x0 PUSH1 0x20 DUP3 DUP5 SUB SLT ISZERO PUSH2 0xD5F JUMPI PUSH2 0xD5E PUSH2 0x96C JUMP JUMPDEST JUMPDEST PUSH1 0x0 PUSH2 0xD6D DUP5 DUP3 DUP6 ADD PUSH2 0xD34 JUMP JUMPDEST SWAP2 POP POP SWAP3 SWAP2 POP POP JUMP JUMPDEST PUSH32 0x5361666545524332303A204552433230206F7065726174696F6E20646964206E PUSH1 0x0 DUP3 ADD MSTORE PUSH32 0x6F74207375636365656400000000000000000000000000000000000000000000 PUSH1 0x20 DUP3 ADD MSTORE POP JUMP JUMPDEST PUSH1 0x0 PUSH2 0xDD2 PUSH1 0x2A DUP4 PUSH2 0xA56 JUMP JUMPDEST SWAP2 POP PUSH2 0xDDD DUP3 PUSH2 0xD76 JUMP JUMPDEST PUSH1 0x40 DUP3 ADD SWAP1 POP SWAP2 SWAP1 POP JUMP JUMPDEST PUSH1 0x0 PUSH1 0x20 DUP3 ADD SWAP1 POP DUP2 DUP2 SUB PUSH1 0x0 DUP4 ADD MSTORE PUSH2 0xE01 DUP2 PUSH2 0xDC5 JUMP JUMPDEST SWAP1 POP SWAP2 SWAP1 POP JUMP JUMPDEST PUSH32 0x416464726573733A20696E73756666696369656E742062616C616E636520666F PUSH1 0x0 DUP3 ADD MSTORE PUSH32 0x722063616C6C0000000000000000000000000000000000000000000000000000 PUSH1 0x20 DUP3 ADD MSTORE POP JUMP JUMPDEST PUSH1 0x0 PUSH2 0xE64 PUSH1 0x26 DUP4 PUSH2 0xA56 JUMP JUMPDEST SWAP2 POP PUSH2 0xE6F DUP3 PUSH2 0xE08 JUMP JUMPDEST PUSH1 0x40 DUP3 ADD SWAP1 POP SWAP2 SWAP1 POP JUMP JUMPDEST PUSH1 0x0 PUSH1 0x20 DUP3 ADD SWAP1 POP DUP2 DUP2 SUB PUSH1 0x0 DUP4 ADD MSTORE PUSH2 0xE93 DUP2 PUSH2 0xE57 JUMP JUMPDEST SWAP1 POP SWAP2 SWAP1 POP JUMP JUMPDEST PUSH32 0x416464726573733A2063616C6C20746F206E6F6E2D636F6E7472616374000000 PUSH1 0x0 DUP3 ADD MSTORE POP JUMP JUMPDEST PUSH1 0x0 PUSH2 0xED0 PUSH1 0x1D DUP4 PUSH2 0xA56 JUMP JUMPDEST SWAP2 POP PUSH2 0xEDB DUP3 PUSH2 0xE9A JUMP JUMPDEST PUSH1 0x20 DUP3 ADD SWAP1 POP SWAP2 SWAP1 POP JUMP JUMPDEST PUSH1 0x0 PUSH1 0x20 DUP3 ADD SWAP1 POP DUP2 DUP2 SUB PUSH1 0x0 DUP4 ADD MSTORE PUSH2 0xEFF DUP2 PUSH2 0xEC3 JUMP JUMPDEST SWAP1 POP SWAP2 SWAP1 POP JUMP JUMPDEST PUSH1 0x0 DUP2 MLOAD SWAP1 POP SWAP2 SWAP1 POP JUMP JUMPDEST PUSH1 0x0 DUP2 SWAP1 POP SWAP3 SWAP2 POP POP JUMP JUMPDEST PUSH1 0x0 JUMPDEST DUP4 DUP2 LT ISZERO PUSH2 0xF3A JUMPI DUP1 DUP3 ADD MLOAD DUP2 DUP5 ADD MSTORE PUSH1 0x20 DUP2 ADD SWAP1 POP PUSH2 0xF1F JUMP JUMPDEST DUP4 DUP2 GT ISZERO PUSH2 0xF49 JUMPI PUSH1 0x0 DUP5 DUP5 ADD MSTORE JUMPDEST POP POP POP POP JUMP JUMPDEST PUSH1 0x0 PUSH2 0xF5A DUP3 PUSH2 0xF06 JUMP JUMPDEST PUSH2 0xF64 DUP2 DUP6 PUSH2 0xF11 JUMP JUMPDEST SWAP4 POP PUSH2 0xF74 DUP2 DUP6 PUSH1 0x20 DUP7 ADD PUSH2 0xF1C JUMP JUMPDEST DUP1 DUP5 ADD SWAP2 POP POP SWAP3 SWAP2 POP POP JUMP JUMPDEST PUSH1 0x0 PUSH2 0xF8C DUP3 DUP5 PUSH2 0xF4F JUMP JUMPDEST SWAP2 POP DUP2 SWAP1 POP SWAP3 SWAP2 POP POP JUMP JUMPDEST PUSH1 0x0 DUP2 MLOAD SWAP1 POP SWAP2 SWAP1 POP JUMP JUMPDEST PUSH1 0x0 PUSH1 0x1F NOT PUSH1 0x1F DUP4 ADD AND SWAP1 POP SWAP2 SWAP1 POP JUMP JUMPDEST PUSH1 0x0 PUSH2 0xFBE DUP3 PUSH2 0xF97 JUMP JUMPDEST PUSH2 0xFC8 DUP2 DUP6 PUSH2 0xA56 JUMP JUMPDEST SWAP4 POP PUSH2 0xFD8 DUP2 DUP6 PUSH1 0x20 DUP7 ADD PUSH2 0xF1C JUMP JUMPDEST PUSH2 0xFE1 DUP2 PUSH2 0xFA2 JUMP JUMPDEST DUP5 ADD SWAP2 POP POP SWAP3 SWAP2 POP POP JUMP JUMPDEST PUSH1 0x0 PUSH1 0x20 DUP3 ADD SWAP1 POP DUP2 DUP2 SUB PUSH1 0x0 DUP4 ADD MSTORE PUSH2 0x1006 DUP2 DUP5 PUSH2 0xFB3 JUMP JUMPDEST SWAP1 POP SWAP3 SWAP2 POP POP JUMP INVALID LOG2 PUSH5 0x6970667358 0x22 SLT KECCAK256 0xC8 AND 0x1E PUSH2 0x39F9 PUSH12 0xB9097F46FC165D808ACC8CB4 SWAP12 0xD3 0x5E 0xE0 SWAP3 RETURNDATASIZE 0xB1 MOD SIGNEXTEND SWAP14 0xB5 RETURNDATASIZE 0x23 PUSH5 0x736F6C6343 STOP ADDMOD 0xE STOP CALLER "
				},
				"gasEstimates": {
					"creation": {
						"codeDepositCost": "832800",
						"executionCost": "infinite",
						"totalCost": "infinite"
					},
					"external": {
						"_rate()": "2429",
						"_token()": "infinite",
						"_wallet()": "2581",
						"_weiRaised()": "2451",
						"buyTokens(address)": "infinite",
						"rate()": "2438",
						"token()": "infinite",
						"wallet()": "2567",
						"weiRaised()": "2460"
					},
					"internal": {
						"_deliverTokens(address,uint256)": "infinite",
						"_forwardFunds()": "infinite",
						"_getTokenAmount(uint256)": "infinite",
						"_postValidatePurchase(address,uint256)": "13",
						"_preValidatePurchase(address,uint256)": "infinite",
						"_processPurchase(address,uint256)": "infinite",
						"_updatePurchasingState(address,uint256)": "13"
					}
				},
				"methodIdentifiers": {
					"_rate()": "83bebced",
					"_token()": "ecd0c0c3",
					"_wallet()": "610757e4",
					"_weiRaised()": "94a5aa8d",
					"buyTokens(address)": "ec8ac4d8",
					"rate()": "2c4e722e",
					"token()": "fc0c546a",
					"wallet()": "521eb273",
					"weiRaised()": "4042b66f"
				}
			},
			"storageLayout": {
				"storage": [
					{
						"astId": 10,
						"contract": "contracts/crowdsale-contracts/Crowdsale.sol:Crowdsale",
						"label": "_status",
						"offset": 0,
						"slot": "0",
						"type": "t_uint256"
					},
					{
						"astId": 992,
						"contract": "contracts/crowdsale-contracts/Crowdsale.sol:Crowdsale",
						"label": "_token",
						"offset": 0,
						"slot": "1",
						"type": "t_contract(IERC20)117"
					},
					{
						"astId": 994,
						"contract": "contracts/crowdsale-contracts/Crowdsale.sol:Crowdsale",
						"label": "_wallet",
						"offset": 0,
						"slot": "2",
						"type": "t_address_payable"
					},
					{
						"astId": 996,
						"contract": "contracts/crowdsale-contracts/Crowdsale.sol:Crowdsale",
						"label": "_rate",
						"offset": 0,
						"slot": "3",
						"type": "t_uint256"
					},
					{
						"astId": 998,
						"contract": "contracts/crowdsale-contracts/Crowdsale.sol:Crowdsale",
						"label": "_weiRaised",
						"offset": 0,
						"slot": "4",
						"type": "t_uint256"
					}
				],
				"types": {
					"t_address_payable": {
						"encoding": "inplace",
						"label": "address payable",
						"numberOfBytes": "20"
					},
					"t_contract(IERC20)117": {
						"encoding": "inplace",
						"label": "contract IERC20",
						"numberOfBytes": "20"
					},
					"t_uint256": {
						"encoding": "inplace",
						"label": "uint256",
						"numberOfBytes": "32"
					}
				}
			},
			"userdoc": {
				"events": {
					"TokensPurchased(address,address,uint256,uint256)": {
						"notice": "Event for token purchase logging"
					}
				},
				"kind": "user",
				"methods": {},
				"version": 1
			}
		}
	}
}