{
  "contractName": "MyCrowdsale",
  "abi": [
    {
      "inputs": [
        {
          "internalType": "uint256",
          "name": "rate_",
          "type": "uint256"
        },
        {
          "internalType": "address payable",
          "name": "wallet_",
          "type": "address"
        },
        {
          "internalType": "contract IERC20",
          "name": "token_",
          "type": "address"
        },
        {
          "internalType": "uint256",
          "name": "cap_",
          "type": "uint256"
        },
        {
          "internalType": "uint256",
          "name": "openingTime_",
          "type": "uint256"
        },
        {
          "internalType": "uint256",
          "name": "closingTime_",
          "type": "uint256"
        }
      ],
      "stateMutability": "nonpayable",
      "type": "constructor"
    },
    {
      "anonymous": false,
      "inputs": [
        {
          "indexed": false,
          "internalType": "address",
          "name": "account",
          "type": "address"
        }
      ],
      "name": "Paused",
      "type": "event"
    },
    {
      "anonymous": false,
      "inputs": [
        {
          "indexed": true,
          "internalType": "bytes32",
          "name": "role",
          "type": "bytes32"
        },
        {
          "indexed": true,
          "internalType": "bytes32",
          "name": "previousAdminRole",
          "type": "bytes32"
        },
        {
          "indexed": true,
          "internalType": "bytes32",
          "name": "newAdminRole",
          "type": "bytes32"
        }
      ],
      "name": "RoleAdminChanged",
      "type": "event"
    },
    {
      "anonymous": false,
      "inputs": [
        {
          "indexed": true,
          "internalType": "bytes32",
          "name": "role",
          "type": "bytes32"
        },
        {
          "indexed": true,
          "internalType": "address",
          "name": "account",
          "type": "address"
        },
        {
          "indexed": true,
          "internalType": "address",
          "name": "sender",
          "type": "address"
        }
      ],
      "name": "RoleGranted",
      "type": "event"
    },
    {
      "anonymous": false,
      "inputs": [
        {
          "indexed": true,
          "internalType": "bytes32",
          "name": "role",
          "type": "bytes32"
        },
        {
          "indexed": true,
          "internalType": "address",
          "name": "account",
          "type": "address"
        },
        {
          "indexed": true,
          "internalType": "address",
          "name": "sender",
          "type": "address"
        }
      ],
      "name": "RoleRevoked",
      "type": "event"
    },
    {
      "anonymous": false,
      "inputs": [
        {
          "indexed": false,
          "internalType": "uint256",
          "name": "prevClosingTime",
          "type": "uint256"
        },
        {
          "indexed": false,
          "internalType": "uint256",
          "name": "newClosingTime",
          "type": "uint256"
        }
      ],
      "name": "TimedCrowdsaleExtended",
      "type": "event"
    },
    {
      "anonymous": false,
      "inputs": [
        {
          "indexed": true,
          "internalType": "address",
          "name": "purchaser",
          "type": "address"
        },
        {
          "indexed": true,
          "internalType": "address",
          "name": "beneficiary",
          "type": "address"
        },
        {
          "indexed": false,
          "internalType": "uint256",
          "name": "value",
          "type": "uint256"
        },
        {
          "indexed": false,
          "internalType": "uint256",
          "name": "amount",
          "type": "uint256"
        }
      ],
      "name": "TokensPurchased",
      "type": "event"
    },
    {
      "anonymous": false,
      "inputs": [
        {
          "indexed": false,
          "internalType": "address",
          "name": "account",
          "type": "address"
        }
      ],
      "name": "Unpaused",
      "type": "event"
    },
    {
      "inputs": [],
      "name": "DEFAULT_ADMIN_ROLE",
      "outputs": [
        {
          "internalType": "bytes32",
          "name": "",
          "type": "bytes32"
        }
      ],
      "stateMutability": "view",
      "type": "function"
    },
    {
      "inputs": [],
      "name": "PAUSER_ROLE",
      "outputs": [
        {
          "internalType": "bytes32",
          "name": "",
          "type": "bytes32"
        }
      ],
      "stateMutability": "view",
      "type": "function"
    },
    {
      "inputs": [],
      "name": "_rate",
      "outputs": [
        {
          "internalType": "uint256",
          "name": "",
          "type": "uint256"
        }
      ],
      "stateMutability": "view",
      "type": "function"
    },
    {
      "inputs": [],
      "name": "_token",
      "outputs": [
        {
          "internalType": "contract IERC20",
          "name": "",
          "type": "address"
        }
      ],
      "stateMutability": "view",
      "type": "function"
    },
    {
      "inputs": [],
      "name": "_wallet",
      "outputs": [
        {
          "internalType": "address payable",
          "name": "",
          "type": "address"
        }
      ],
      "stateMutability": "view",
      "type": "function"
    },
    {
      "inputs": [],
      "name": "_weiRaised",
      "outputs": [
        {
          "internalType": "uint256",
          "name": "",
          "type": "uint256"
        }
      ],
      "stateMutability": "view",
      "type": "function"
    },
    {
      "inputs": [
        {
          "internalType": "address",
          "name": "beneficiary",
          "type": "address"
        }
      ],
      "name": "buyTokens",
      "outputs": [],
      "stateMutability": "payable",
      "type": "function"
    },
    {
      "inputs": [],
      "name": "cap",
      "outputs": [
        {
          "internalType": "uint256",
          "name": "",
          "type": "uint256"
        }
      ],
      "stateMutability": "view",
      "type": "function"
    },
    {
      "inputs": [],
      "name": "capReached",
      "outputs": [
        {
          "internalType": "bool",
          "name": "",
          "type": "bool"
        }
      ],
      "stateMutability": "view",
      "type": "function"
    },
    {
      "inputs": [],
      "name": "closingTime",
      "outputs": [
        {
          "internalType": "uint256",
          "name": "",
          "type": "uint256"
        }
      ],
      "stateMutability": "view",
      "type": "function"
    },
    {
      "inputs": [
        {
          "internalType": "bytes32",
          "name": "role",
          "type": "bytes32"
        }
      ],
      "name": "getRoleAdmin",
      "outputs": [
        {
          "internalType": "bytes32",
          "name": "",
          "type": "bytes32"
        }
      ],
      "stateMutability": "view",
      "type": "function"
    },
    {
      "inputs": [
        {
          "internalType": "bytes32",
          "name": "role",
          "type": "bytes32"
        },
        {
          "internalType": "uint256",
          "name": "index",
          "type": "uint256"
        }
      ],
      "name": "getRoleMember",
      "outputs": [
        {
          "internalType": "address",
          "name": "",
          "type": "address"
        }
      ],
      "stateMutability": "view",
      "type": "function"
    },
    {
      "inputs": [
        {
          "internalType": "bytes32",
          "name": "role",
          "type": "bytes32"
        }
      ],
      "name": "getRoleMemberCount",
      "outputs": [
        {
          "internalType": "uint256",
          "name": "",
          "type": "uint256"
        }
      ],
      "stateMutability": "view",
      "type": "function"
    },
    {
      "inputs": [
        {
          "internalType": "bytes32",
          "name": "role",
          "type": "bytes32"
        },
        {
          "internalType": "address",
          "name": "account",
          "type": "address"
        }
      ],
      "name": "grantRole",
      "outputs": [],
      "stateMutability": "nonpayable",
      "type": "function"
    },
    {
      "inputs": [],
      "name": "hasClosed",
      "outputs": [
        {
          "internalType": "bool",
          "name": "",
          "type": "bool"
        }
      ],
      "stateMutability": "view",
      "type": "function"
    },
    {
      "inputs": [
        {
          "internalType": "bytes32",
          "name": "role",
          "type": "bytes32"
        },
        {
          "internalType": "address",
          "name": "account",
          "type": "address"
        }
      ],
      "name": "hasRole",
      "outputs": [
        {
          "internalType": "bool",
          "name": "",
          "type": "bool"
        }
      ],
      "stateMutability": "view",
      "type": "function"
    },
    {
      "inputs": [],
      "name": "isOpen",
      "outputs": [
        {
          "internalType": "bool",
          "name": "",
          "type": "bool"
        }
      ],
      "stateMutability": "view",
      "type": "function"
    },
    {
      "inputs": [],
      "name": "openingTime",
      "outputs": [
        {
          "internalType": "uint256",
          "name": "",
          "type": "uint256"
        }
      ],
      "stateMutability": "view",
      "type": "function"
    },
    {
      "inputs": [],
      "name": "paused",
      "outputs": [
        {
          "internalType": "bool",
          "name": "",
          "type": "bool"
        }
      ],
      "stateMutability": "view",
      "type": "function"
    },
    {
      "inputs": [
        {
          "internalType": "bytes32",
          "name": "role",
          "type": "bytes32"
        },
        {
          "internalType": "address",
          "name": "account",
          "type": "address"
        }
      ],
      "name": "renounceRole",
      "outputs": [],
      "stateMutability": "nonpayable",
      "type": "function"
    },
    {
      "inputs": [
        {
          "internalType": "bytes32",
          "name": "role",
          "type": "bytes32"
        },
        {
          "internalType": "address",
          "name": "account",
          "type": "address"
        }
      ],
      "name": "revokeRole",
      "outputs": [],
      "stateMutability": "nonpayable",
      "type": "function"
    },
    {
      "inputs": [
        {
          "internalType": "bytes4",
          "name": "interfaceId",
          "type": "bytes4"
        }
      ],
      "name": "supportsInterface",
      "outputs": [
        {
          "internalType": "bool",
          "name": "",
          "type": "bool"
        }
      ],
      "stateMutability": "view",
      "type": "function"
    },
    {
      "stateMutability": "payable",
      "type": "receive"
    },
    {
      "inputs": [],
      "name": "pause",
      "outputs": [],
      "stateMutability": "nonpayable",
      "type": "function"
    },
    {
      "inputs": [],
      "name": "unpause",
      "outputs": [],
      "stateMutability": "nonpayable",
      "type": "function"
    }
  ],
  "bytecode": "0x60806040523480156200001157600080fd5b5060405162002f6838038062002f688339818101604052810190620000379190620006da565b85858560016002819055506000831162000088576040517f08c379a00000000000000000000000000000000000000000000000000000000081526004016200007f90620007d7565b60405180910390fd5b600073ffffffffffffffffffffffffffffffffffffffff168273ffffffffffffffffffffffffffffffffffffffff1603620000fa576040517f08c379a0000000000000000000000000000000000000000000000000000000008152600401620000f1906200086f565b60405180910390fd5b600073ffffffffffffffffffffffffffffffffffffffff168173ffffffffffffffffffffffffffffffffffffffff16036200016c576040517f08c379a0000000000000000000000000000000000000000000000000000000008152600401620001639062000907565b60405180910390fd5b8260058190555081600460006101000a81548173ffffffffffffffffffffffffffffffffffffffff021916908373ffffffffffffffffffffffffffffffffffffffff16021790555080600360006101000a81548173ffffffffffffffffffffffffffffffffffffffff021916908373ffffffffffffffffffffffffffffffffffffffff1602179055505050506000600860006101000a81548160ff0219169083151502179055506000831162000259576040517f08c379a0000000000000000000000000000000000000000000000000000000008152600401620002509062000979565b60405180910390fd5b8260078190555042821015620002a6576040517f08c379a00000000000000000000000000000000000000000000000000000000081526004016200029d9062000a11565b60405180910390fd5b818111620002eb576040517f08c379a0000000000000000000000000000000000000000000000000000000008152600401620002e29062000aa9565b60405180910390fd5b8160098190555080600a819055506200033a7f65d7a28e3265b37a6474929f336521b332c1681b933f6cb9f3376673440d862a6200032e6200034660201b60201c565b6200034e60201b60201c565b50505050505062000acb565b600033905090565b6200036082826200036460201b60201c565b5050565b6200037b8282620003ac60201b62000aac1760201c565b620003a781600160008581526020019081526020016000206200049d60201b62000b8c1790919060201c565b505050565b620003be8282620004d560201b60201c565b6200049957600160008084815260200190815260200160002060000160008373ffffffffffffffffffffffffffffffffffffffff1673ffffffffffffffffffffffffffffffffffffffff16815260200190815260200160002060006101000a81548160ff0219169083151502179055506200043e6200034660201b60201c565b73ffffffffffffffffffffffffffffffffffffffff168173ffffffffffffffffffffffffffffffffffffffff16837f2f8788117e7eff1d82e926ec794901d17c78024a50270940304540a733656f0d60405160405180910390a45b5050565b6000620004cd836000018373ffffffffffffffffffffffffffffffffffffffff1660001b6200053f60201b60201c565b905092915050565b600080600084815260200190815260200160002060000160008373ffffffffffffffffffffffffffffffffffffffff1673ffffffffffffffffffffffffffffffffffffffff16815260200190815260200160002060009054906101000a900460ff16905092915050565b6000620005538383620005b960201b60201c565b620005ae578260000182908060018154018082558091505060019003906000526020600020016000909190919091505582600001805490508360010160008481526020019081526020016000208190555060019050620005b3565b600090505b92915050565b600080836001016000848152602001908152602001600020541415905092915050565b600080fd5b6000819050919050565b620005f681620005e1565b81146200060257600080fd5b50565b6000815190506200061681620005eb565b92915050565b600073ffffffffffffffffffffffffffffffffffffffff82169050919050565b600062000649826200061c565b9050919050565b6200065b816200063c565b81146200066757600080fd5b50565b6000815190506200067b8162000650565b92915050565b60006200068e826200061c565b9050919050565b6000620006a28262000681565b9050919050565b620006b48162000695565b8114620006c057600080fd5b50565b600081519050620006d481620006a9565b92915050565b60008060008060008060c08789031215620006fa57620006f9620005dc565b5b60006200070a89828a0162000605565b96505060206200071d89828a016200066a565b95505060406200073089828a01620006c3565b94505060606200074389828a0162000605565b93505060806200075689828a0162000605565b92505060a06200076989828a0162000605565b9150509295509295509295565b600082825260208201905092915050565b7f43726f776473616c653a20726174652069732030000000000000000000000000600082015250565b6000620007bf60148362000776565b9150620007cc8262000787565b602082019050919050565b60006020820190508181036000830152620007f281620007b0565b9050919050565b7f43726f776473616c653a2077616c6c657420697320746865207a65726f20616460008201527f6472657373000000000000000000000000000000000000000000000000000000602082015250565b60006200085760258362000776565b91506200086482620007f9565b604082019050919050565b600060208201905081810360008301526200088a8162000848565b9050919050565b7f43726f776473616c653a20746f6b656e20697320746865207a65726f2061646460008201527f7265737300000000000000000000000000000000000000000000000000000000602082015250565b6000620008ef60248362000776565b9150620008fc8262000891565b604082019050919050565b600060208201905081810360008301526200092281620008e0565b9050919050565b7f43617070656443726f776473616c653a20636170206973203000000000000000600082015250565b60006200096160198362000776565b91506200096e8262000929565b602082019050919050565b60006020820190508181036000830152620009948162000952565b9050919050565b7f54696d656443726f776473616c653a206f70656e696e672074696d652069732060008201527f6265666f72652063757272656e742074696d6500000000000000000000000000602082015250565b6000620009f960338362000776565b915062000a06826200099b565b604082019050919050565b6000602082019050818103600083015262000a2c81620009ea565b9050919050565b7f54696d656443726f776473616c653a206f70656e696e672074696d652069732060008201527f6e6f74206265666f726520636c6f73696e672074696d65000000000000000000602082015250565b600062000a9160378362000776565b915062000a9e8262000a33565b604082019050919050565b6000602082019050818103600083015262000ac48162000a82565b9050919050565b61248d8062000adb6000396000f3fe60806040526004361061014f5760003560e01c806383bebced116100b6578063b7a8807c1161006f578063b7a8807c1461048d578063ca15c873146104b8578063d547741f146104f5578063e63ab1e91461051e578063ec8ac4d814610549578063ecd0c0c31461056557610166565b806383bebced1461037b5780638456cb59146103a65780639010d07c146103bd57806391d14854146103fa57806394a5aa8d14610437578063a217fddf1461046257610166565b80633f4ba83a116101085780633f4ba83a1461028d57806347535d7b146102a45780634b6753bc146102cf5780634f935945146102fa5780635c975abb14610325578063610757e41461035057610166565b806301ffc9a71461016b5780631515bc2b146101a8578063248a9ca3146101d35780632f2ff15d14610210578063355274ea1461023957806336568abe1461026457610166565b366101665761016461015f610590565b610598565b005b600080fd5b34801561017757600080fd5b50610192600480360381019061018d91906117fc565b6106bb565b60405161019f9190611844565b60405180910390f35b3480156101b457600080fd5b506101bd610735565b6040516101ca9190611844565b60405180910390f35b3480156101df57600080fd5b506101fa60048036038101906101f59190611895565b610741565b60405161020791906118d1565b60405180910390f35b34801561021c57600080fd5b506102376004803603810190610232919061194a565b610760565b005b34801561024557600080fd5b5061024e610781565b60405161025b91906119a3565b60405180910390f35b34801561027057600080fd5b5061028b6004803603810190610286919061194a565b610787565b005b34801561029957600080fd5b506102a261080a565b005b3480156102b057600080fd5b506102b9610884565b6040516102c69190611844565b60405180910390f35b3480156102db57600080fd5b506102e461089f565b6040516102f191906119a3565b60405180910390f35b34801561030657600080fd5b5061030f6108a5565b60405161031c9190611844565b60405180910390f35b34801561033157600080fd5b5061033a6108b4565b6040516103479190611844565b60405180910390f35b34801561035c57600080fd5b506103656108cb565b60405161037291906119df565b60405180910390f35b34801561038757600080fd5b506103906108f1565b60405161039d91906119a3565b60405180910390f35b3480156103b257600080fd5b506103bb6108f7565b005b3480156103c957600080fd5b506103e460048036038101906103df9190611a26565b610971565b6040516103f19190611a75565b60405180910390f35b34801561040657600080fd5b50610421600480360381019061041c919061194a565b6109a0565b60405161042e9190611844565b60405180910390f35b34801561044357600080fd5b5061044c610a0a565b60405161045991906119a3565b60405180910390f35b34801561046e57600080fd5b50610477610a10565b60405161048491906118d1565b60405180910390f35b34801561049957600080fd5b506104a2610a17565b6040516104af91906119a3565b60405180910390f35b3480156104c457600080fd5b506104df60048036038101906104da9190611895565b610a1d565b6040516104ec91906119a3565b60405180910390f35b34801561050157600080fd5b5061051c6004803603810190610517919061194a565b610a41565b005b34801561052a57600080fd5b50610533610a62565b60405161054091906118d1565b60405180910390f35b610563600480360381019061055e9190611a90565b610598565b005b34801561057157600080fd5b5061057a610a86565b6040516105879190611b1c565b60405180910390f35b600033905090565b60028054036105dc576040517f08c379a00000000000000000000000000000000000000000000000000000000081526004016105d390611b94565b60405180910390fd5b6002808190555060003490506105f28282610bbc565b60006105fd82610bca565b905061061482600654610be890919063ffffffff16565b6006819055506106248382610bfe565b8273ffffffffffffffffffffffffffffffffffffffff16610643610590565b73ffffffffffffffffffffffffffffffffffffffff167f6faf93231a456e552dbc9961f58d9713ee4f2e69d15f1975b050ef0911053a7b848460405161068a929190611bb4565b60405180910390a361069c8383610c0c565b6106a4610c10565b6106ae8383610c7b565b5050600160028190555050565b60007f5a05180f000000000000000000000000000000000000000000000000000000007bffffffffffffffffffffffffffffffffffffffffffffffffffffffff1916827bffffffffffffffffffffffffffffffffffffffffffffffffffffffff1916148061072e575061072d82610c7f565b5b9050919050565b6000600a544211905090565b6000806000838152602001908152602001600020600101549050919050565b61076982610741565b61077281610cf9565b61077c8383610d0d565b505050565b60075481565b61078f610590565b73ffffffffffffffffffffffffffffffffffffffff168173ffffffffffffffffffffffffffffffffffffffff16146107fc576040517f08c379a00000000000000000000000000000000000000000000000000000000081526004016107f390611c4f565b60405180910390fd5b6108068282610d41565b5050565b61083b7f65d7a28e3265b37a6474929f336521b332c1681b933f6cb9f3376673440d862a610836610590565b6109a0565b61087a576040517f08c379a000000000000000000000000000000000000000000000000000000000815260040161087190611ce1565b60405180910390fd5b610882610d75565b565b6000600954421015801561089a5750600a544211155b905090565b600a5481565b60006007546006541015905090565b6000600860009054906101000a900460ff16905090565b600460009054906101000a900473ffffffffffffffffffffffffffffffffffffffff1681565b60055481565b6109287f65d7a28e3265b37a6474929f336521b332c1681b933f6cb9f3376673440d862a610923610590565b6109a0565b610967576040517f08c379a000000000000000000000000000000000000000000000000000000000815260040161095e90611d73565b60405180910390fd5b61096f610e17565b565b60006109988260016000868152602001908152602001600020610eba90919063ffffffff16565b905092915050565b600080600084815260200190815260200160002060000160008373ffffffffffffffffffffffffffffffffffffffff1673ffffffffffffffffffffffffffffffffffffffff16815260200190815260200160002060009054906101000a900460ff16905092915050565b60065481565b6000801b81565b60095481565b6000610a3a60016000848152602001908152602001600020610ed4565b9050919050565b610a4a82610741565b610a5381610cf9565b610a5d8383610d41565b505050565b7f65d7a28e3265b37a6474929f336521b332c1681b933f6cb9f3376673440d862a81565b600360009054906101000a900473ffffffffffffffffffffffffffffffffffffffff1681565b610ab682826109a0565b610b8857600160008084815260200190815260200160002060000160008373ffffffffffffffffffffffffffffffffffffffff1673ffffffffffffffffffffffffffffffffffffffff16815260200190815260200160002060006101000a81548160ff021916908315150217905550610b2d610590565b73ffffffffffffffffffffffffffffffffffffffff168173ffffffffffffffffffffffffffffffffffffffff16837f2f8788117e7eff1d82e926ec794901d17c78024a50270940304540a733656f0d60405160405180910390a45b5050565b6000610bb4836000018373ffffffffffffffffffffffffffffffffffffffff1660001b610ee9565b905092915050565b610bc68282610f59565b5050565b6000610be160055483610fae90919063ffffffff16565b9050919050565b60008183610bf69190611dc2565b905092915050565b610c088282610fc4565b5050565b5050565b600460009054906101000a900473ffffffffffffffffffffffffffffffffffffffff1673ffffffffffffffffffffffffffffffffffffffff166108fc349081150290604051600060405180830381858888f19350505050158015610c78573d6000803e3d6000fd5b50565b5050565b60007f7965db0b000000000000000000000000000000000000000000000000000000007bffffffffffffffffffffffffffffffffffffffffffffffffffffffff1916827bffffffffffffffffffffffffffffffffffffffffffffffffffffffff19161480610cf25750610cf182610fd2565b5b9050919050565b610d0a81610d05610590565b61103c565b50565b610d178282610aac565b610d3c8160016000858152602001908152602001600020610b8c90919063ffffffff16565b505050565b610d4b82826110d9565b610d7081600160008581526020019081526020016000206111ba90919063ffffffff16565b505050565b610d7d6108b4565b610dbc576040517f08c379a0000000000000000000000000000000000000000000000000000000008152600401610db390611e64565b60405180910390fd5b6000600860006101000a81548160ff0219169083151502179055507f5db9ee0a495bf2e6ff9c91a7834c1ba4fdd244a5e8aa4e537bd38aeae4b073aa610e00610590565b604051610e0d9190611a75565b60405180910390a1565b610e1f6108b4565b15610e5f576040517f08c379a0000000000000000000000000000000000000000000000000000000008152600401610e5690611ed0565b60405180910390fd5b6001600860006101000a81548160ff0219169083151502179055507f62e78cea01bee320cd4e420270b5ea74000d11b0c9f74754ebdbfc544b05a258610ea3610590565b604051610eb09190611a75565b60405180910390a1565b6000610ec983600001836111ea565b60001c905092915050565b6000610ee282600001611215565b9050919050565b6000610ef58383611226565b610f4e578260000182908060018154018082558091505060019003906000526020600020016000909190919091505582600001805490508360010160008481526020019081526020016000208190555060019050610f53565b600090505b92915050565b610f61610884565b610fa0576040517f08c379a0000000000000000000000000000000000000000000000000000000008152600401610f9790611f3c565b60405180910390fd5b610faa8282611249565b5050565b60008183610fbc9190611f5c565b905092915050565b610fce828261129f565b5050565b60007f01ffc9a7000000000000000000000000000000000000000000000000000000007bffffffffffffffffffffffffffffffffffffffffffffffffffffffff1916827bffffffffffffffffffffffffffffffffffffffffffffffffffffffff1916149050919050565b61104682826109a0565b6110d55761106b8173ffffffffffffffffffffffffffffffffffffffff166014611332565b6110798360001c6020611332565b60405160200161108a9291906120c8565b6040516020818303038152906040526040517f08c379a00000000000000000000000000000000000000000000000000000000081526004016110cc919061214c565b60405180910390fd5b5050565b6110e382826109a0565b156111b657600080600084815260200190815260200160002060000160008373ffffffffffffffffffffffffffffffffffffffff1673ffffffffffffffffffffffffffffffffffffffff16815260200190815260200160002060006101000a81548160ff02191690831515021790555061115b610590565b73ffffffffffffffffffffffffffffffffffffffff168173ffffffffffffffffffffffffffffffffffffffff16837ff6391f5c32d9c69d2a47ea670b442974b53935d1edc7fd64eb21e047a839171b60405160405180910390a45b5050565b60006111e2836000018373ffffffffffffffffffffffffffffffffffffffff1660001b61156e565b905092915050565b60008260000182815481106112025761120161216e565b5b9060005260206000200154905092915050565b600081600001805490509050919050565b600080836001016000848152602001908152602001600020541415905092915050565b6112516108b4565b15611291576040517f08c379a000000000000000000000000000000000000000000000000000000000815260040161128890611ed0565b60405180910390fd5b61129b8282611682565b5050565b600360009054906101000a900473ffffffffffffffffffffffffffffffffffffffff1673ffffffffffffffffffffffffffffffffffffffff166340c10f1983836040518363ffffffff1660e01b81526004016112fc92919061219d565b600060405180830381600087803b15801561131657600080fd5b505af115801561132a573d6000803e3d6000fd5b505050505050565b6060600060028360026113459190611f5c565b61134f9190611dc2565b67ffffffffffffffff811115611368576113676121c6565b5b6040519080825280601f01601f19166020018201604052801561139a5781602001600182028036833780820191505090505b5090507f3000000000000000000000000000000000000000000000000000000000000000816000815181106113d2576113d161216e565b5b60200101907effffffffffffffffffffffffffffffffffffffffffffffffffffffffffffff1916908160001a9053507f7800000000000000000000000000000000000000000000000000000000000000816001815181106114365761143561216e565b5b60200101907effffffffffffffffffffffffffffffffffffffffffffffffffffffffffffff1916908160001a905350600060018460026114769190611f5c565b6114809190611dc2565b90505b6001811115611520577f3031323334353637383961626364656600000000000000000000000000000000600f8616601081106114c2576114c161216e565b5b1a60f81b8282815181106114d9576114d861216e565b5b60200101907effffffffffffffffffffffffffffffffffffffffffffffffffffffffffffff1916908160001a905350600485901c945080611519906121f5565b9050611483565b5060008414611564576040517f08c379a000000000000000000000000000000000000000000000000000000000815260040161155b9061226a565b60405180910390fd5b8091505092915050565b600080836001016000848152602001908152602001600020549050600081146116765760006001826115a0919061228a565b90506000600186600001805490506115b8919061228a565b90508181146116275760008660000182815481106115d9576115d861216e565b5b90600052602060002001549050808760000184815481106115fd576115fc61216e565b5b90600052602060002001819055508387600101600083815260200190815260200160002081905550505b8560000180548061163b5761163a6122be565b5b60019003818190600052602060002001600090559055856001016000868152602001908152602001600020600090556001935050505061167c565b60009150505b92915050565b61168c82826116e9565b6007546116a482600654610be890919063ffffffff16565b11156116e5576040517f08c379a00000000000000000000000000000000000000000000000000000000081526004016116dc90612339565b60405180910390fd5b5050565b600073ffffffffffffffffffffffffffffffffffffffff168273ffffffffffffffffffffffffffffffffffffffff1603611758576040517f08c379a000000000000000000000000000000000000000000000000000000000815260040161174f906123cb565b60405180910390fd5b6000810361179b576040517f08c379a000000000000000000000000000000000000000000000000000000000815260040161179290612437565b60405180910390fd5b5050565b600080fd5b60007fffffffff0000000000000000000000000000000000000000000000000000000082169050919050565b6117d9816117a4565b81146117e457600080fd5b50565b6000813590506117f6816117d0565b92915050565b6000602082840312156118125761181161179f565b5b6000611820848285016117e7565b91505092915050565b60008115159050919050565b61183e81611829565b82525050565b60006020820190506118596000830184611835565b92915050565b6000819050919050565b6118728161185f565b811461187d57600080fd5b50565b60008135905061188f81611869565b92915050565b6000602082840312156118ab576118aa61179f565b5b60006118b984828501611880565b91505092915050565b6118cb8161185f565b82525050565b60006020820190506118e660008301846118c2565b92915050565b600073ffffffffffffffffffffffffffffffffffffffff82169050919050565b6000611917826118ec565b9050919050565b6119278161190c565b811461193257600080fd5b50565b6000813590506119448161191e565b92915050565b600080604083850312156119615761196061179f565b5b600061196f85828601611880565b925050602061198085828601611935565b9150509250929050565b6000819050919050565b61199d8161198a565b82525050565b60006020820190506119b86000830184611994565b92915050565b60006119c9826118ec565b9050919050565b6119d9816119be565b82525050565b60006020820190506119f460008301846119d0565b92915050565b611a038161198a565b8114611a0e57600080fd5b50565b600081359050611a20816119fa565b92915050565b60008060408385031215611a3d57611a3c61179f565b5b6000611a4b85828601611880565b9250506020611a5c85828601611a11565b9150509250929050565b611a6f8161190c565b82525050565b6000602082019050611a8a6000830184611a66565b92915050565b600060208284031215611aa657611aa561179f565b5b6000611ab484828501611935565b91505092915050565b6000819050919050565b6000611ae2611add611ad8846118ec565b611abd565b6118ec565b9050919050565b6000611af482611ac7565b9050919050565b6000611b0682611ae9565b9050919050565b611b1681611afb565b82525050565b6000602082019050611b316000830184611b0d565b92915050565b600082825260208201905092915050565b7f5265656e7472616e637947756172643a207265656e7472616e742063616c6c00600082015250565b6000611b7e601f83611b37565b9150611b8982611b48565b602082019050919050565b60006020820190508181036000830152611bad81611b71565b9050919050565b6000604082019050611bc96000830185611994565b611bd66020830184611994565b9392505050565b7f416363657373436f6e74726f6c3a2063616e206f6e6c792072656e6f756e636560008201527f20726f6c657320666f722073656c660000000000000000000000000000000000602082015250565b6000611c39602f83611b37565b9150611c4482611bdd565b604082019050919050565b60006020820190508181036000830152611c6881611c2c565b9050919050565b7f45524332305072657365744d696e7465725061757365723a206d75737420686160008201527f76652070617573657220726f6c6520746f20756e706175736500000000000000602082015250565b6000611ccb603983611b37565b9150611cd682611c6f565b604082019050919050565b60006020820190508181036000830152611cfa81611cbe565b9050919050565b7f45524332305072657365744d696e7465725061757365723a206d75737420686160008201527f76652070617573657220726f6c6520746f207061757365000000000000000000602082015250565b6000611d5d603783611b37565b9150611d6882611d01565b604082019050919050565b60006020820190508181036000830152611d8c81611d50565b9050919050565b7f4e487b7100000000000000000000000000000000000000000000000000000000600052601160045260246000fd5b6000611dcd8261198a565b9150611dd88361198a565b9250827fffffffffffffffffffffffffffffffffffffffffffffffffffffffffffffffff03821115611e0d57611e0c611d93565b5b828201905092915050565b7f5061757361626c653a206e6f7420706175736564000000000000000000000000600082015250565b6000611e4e601483611b37565b9150611e5982611e18565b602082019050919050565b60006020820190508181036000830152611e7d81611e41565b9050919050565b7f5061757361626c653a2070617573656400000000000000000000000000000000600082015250565b6000611eba601083611b37565b9150611ec582611e84565b602082019050919050565b60006020820190508181036000830152611ee981611ead565b9050919050565b7f54696d656443726f776473616c653a206e6f74206f70656e0000000000000000600082015250565b6000611f26601883611b37565b9150611f3182611ef0565b602082019050919050565b60006020820190508181036000830152611f5581611f19565b9050919050565b6000611f678261198a565b9150611f728361198a565b9250817fffffffffffffffffffffffffffffffffffffffffffffffffffffffffffffffff0483118215151615611fab57611faa611d93565b5b828202905092915050565b600081905092915050565b7f416363657373436f6e74726f6c3a206163636f756e7420000000000000000000600082015250565b6000611ff7601783611fb6565b915061200282611fc1565b601782019050919050565b600081519050919050565b60005b8381101561203657808201518184015260208101905061201b565b83811115612045576000848401525b50505050565b60006120568261200d565b6120608185611fb6565b9350612070818560208601612018565b80840191505092915050565b7f206973206d697373696e6720726f6c6520000000000000000000000000000000600082015250565b60006120b2601183611fb6565b91506120bd8261207c565b601182019050919050565b60006120d382611fea565b91506120df828561204b565b91506120ea826120a5565b91506120f6828461204b565b91508190509392505050565b6000601f19601f8301169050919050565b600061211e8261200d565b6121288185611b37565b9350612138818560208601612018565b61214181612102565b840191505092915050565b600060208201905081810360008301526121668184612113565b905092915050565b7f4e487b7100000000000000000000000000000000000000000000000000000000600052603260045260246000fd5b60006040820190506121b26000830185611a66565b6121bf6020830184611994565b9392505050565b7f4e487b7100000000000000000000000000000000000000000000000000000000600052604160045260246000fd5b60006122008261198a565b91506000820361221357612212611d93565b5b600182039050919050565b7f537472696e67733a20686578206c656e67746820696e73756666696369656e74600082015250565b6000612254602083611b37565b915061225f8261221e565b602082019050919050565b6000602082019050818103600083015261228381612247565b9050919050565b60006122958261198a565b91506122a08361198a565b9250828210156122b3576122b2611d93565b5b828203905092915050565b7f4e487b7100000000000000000000000000000000000000000000000000000000600052603160045260246000fd5b7f43617070656443726f776473616c653a20636170206578636565646564000000600082015250565b6000612323601d83611b37565b915061232e826122ed565b602082019050919050565b6000602082019050818103600083015261235281612316565b9050919050565b7f43726f776473616c653a2062656e656669636961727920697320746865207a6560008201527f726f206164647265737300000000000000000000000000000000000000000000602082015250565b60006123b5602a83611b37565b91506123c082612359565b604082019050919050565b600060208201905081810360008301526123e4816123a8565b9050919050565b7f43726f776473616c653a20776569416d6f756e74206973203000000000000000600082015250565b6000612421601983611b37565b915061242c826123eb565b602082019050919050565b6000602082019050818103600083015261245081612414565b905091905056fea26469706673582212200989eba5f0b075afc623b946a56298b72ba88c8ef16fd94c1ff805668bc0e7b764736f6c634300080e0033",
  "immutableReferences": {},
  "source": "// SPDX-License-Identifier: MIT\r\npragma solidity ^0.8.0;\r\n\r\nimport \"@openzeppelin/contracts/access/Ownable.sol\";\r\nimport \"./MyToken.sol\";\r\nimport \"./crowdsale-contracts/validation/CappedCrowdsale.sol\";\r\nimport \"./crowdsale-contracts/validation/PausableCrowdsale.sol\";\r\nimport \"./crowdsale-contracts/validation/TimedCrowdsale.sol\";\r\nimport \"./crowdsale-contracts/emission/MintedCrowdsale.sol\";\r\n\r\ncontract MyCrowdsale is Context, AccessControlEnumerable, CappedCrowdsale, PausableCrowdsale, TimedCrowdsale, MintedCrowdsale  {\r\n\r\n    bytes32 public constant PAUSER_ROLE = keccak256(\"PAUSER_ROLE\");\r\n\r\n\r\n    constructor (uint256 rate_, address payable wallet_, IERC20 token_, uint256 cap_, uint256 openingTime_, uint256 closingTime_) \r\n    Crowdsale(rate_, wallet_, token_)\r\n    {    \r\n        // TimedCrowdsale\r\n        require(cap_ > 0, \"CappedCrowdsale: cap is 0\");\r\n        cap = cap_;\r\n\r\n        // CappedCrowdsale\r\n        require(openingTime_ >= block.timestamp, \"TimedCrowdsale: opening time is before current time\");\r\n        require(closingTime_ > openingTime_, \"TimedCrowdsale: opening time is not before closing time\");\r\n        openingTime = openingTime_;\r\n        closingTime = closingTime_;\r\n\r\n        // PausableCrowdsale\r\n        _setupRole(PAUSER_ROLE, _msgSender());\r\n\r\n    }\r\n\r\n    /**\r\n     * @dev Pauses crowdsale transfers.\r\n     *\r\n     * See {CrowdsalePausable} and {Pausable-_pause}.\r\n     *\r\n     * Requirements:\r\n     *\r\n     * - the caller must have the `PAUSER_ROLE`.\r\n     */\r\n    function pause() public virtual {\r\n        require(hasRole(PAUSER_ROLE, _msgSender()), \"ERC20PresetMinterPauser: must have pauser role to pause\");\r\n        _pause();\r\n    }\r\n\r\n    /**\r\n     * @dev Unpauses crowdsale transfers.\r\n     *\r\n     * See {CrowdsalePausable} and {Pausable-_unpause}.\r\n     *\r\n     * Requirements:\r\n     *\r\n     * - the caller must have the `PAUSER_ROLE`.\r\n     */\r\n    function unpause() public virtual {\r\n        require(hasRole(PAUSER_ROLE, _msgSender()), \"ERC20PresetMinterPauser: must have pauser role to unpause\");\r\n        _unpause();\r\n    }\r\n\r\n    function _preValidatePurchase(address beneficiary, uint256 weiAmount) \r\n    internal override(CappedCrowdsale, PausableCrowdsale, TimedCrowdsale, Crowdsale) view {\r\n        super._preValidatePurchase(beneficiary, weiAmount);\r\n    }\r\n\r\n    function _deliverTokens(address beneficiary, uint256 tokenAmount)\r\n    internal override(MintedCrowdsale, Crowdsale) {\r\n        MintedCrowdsale._deliverTokens(beneficiary, tokenAmount);\r\n    }\r\n}\r\n\r\n//1, 0x78731D3Ca6b7E34aC0F824c42a7cC18A495cabaB, 0xd8b934580fcE35a11B58C6D73aDeE468a2833fa8, 8, 1652942283, 1652942933\r\n\r\n// 0x9f2df0fed2c77648de5860a4cc508cd0818c85b8b8a1ab4ceeef8d981c8956a6, 0xd7B63981A38ACEB507354DF5b51945bacbe28414",
  "sourcePath": "D:\\Files\\Blockchain\\Summer-Projects\\01.Crowdsale\\Crowdsale-App\\contracts\\MyCrowdsale.sol",
  "compiler": {
    "name": "solc",
    "version": "0.8.14+commit.80d49f37.Emscripten.clang"
  },
  "schemaVersion": "3.4.3",
  "updatedAt": "2022-05-25T03:51:37.865Z",
  "devdoc": {
    "kind": "dev",
    "methods": {
      "buyTokens(address)": {
        "details": "low level token purchase ***DO NOT OVERRIDE*** This function has a non-reentrancy guard, so it shouldn't be called by another `nonReentrant` function.",
        "params": {
          "beneficiary": "Recipient of the token purchase"
        }
      },
      "capReached()": {
        "details": "Checks whether the cap has been reached.",
        "returns": {
          "_0": "Whether the cap was reached"
        }
      },
      "getRoleAdmin(bytes32)": {
        "details": "Returns the admin role that controls `role`. See {grantRole} and {revokeRole}. To change a role's admin, use {_setRoleAdmin}."
      },
      "getRoleMember(bytes32,uint256)": {
        "details": "Returns one of the accounts that have `role`. `index` must be a value between 0 and {getRoleMemberCount}, non-inclusive. Role bearers are not sorted in any particular way, and their ordering may change at any point. WARNING: When using {getRoleMember} and {getRoleMemberCount}, make sure you perform all queries on the same block. See the following https://forum.openzeppelin.com/t/iterating-over-elements-on-enumerableset-in-openzeppelin-contracts/2296[forum post] for more information."
      },
      "getRoleMemberCount(bytes32)": {
        "details": "Returns the number of accounts that have `role`. Can be used together with {getRoleMember} to enumerate all bearers of a role."
      },
      "grantRole(bytes32,address)": {
        "details": "Grants `role` to `account`. If `account` had not been already granted `role`, emits a {RoleGranted} event. Requirements: - the caller must have ``role``'s admin role."
      },
      "hasClosed()": {
        "details": "Checks whether the period in which the crowdsale is open has already elapsed.",
        "returns": {
          "_0": "Whether crowdsale period has elapsed"
        }
      },
      "hasRole(bytes32,address)": {
        "details": "Returns `true` if `account` has been granted `role`."
      },
      "isOpen()": {
        "returns": {
          "_0": "true if the crowdsale is open, false otherwise."
        }
      },
      "pause()": {
        "details": "Pauses crowdsale transfers. See {CrowdsalePausable} and {Pausable-_pause}. Requirements: - the caller must have the `PAUSER_ROLE`."
      },
      "paused()": {
        "details": "Returns true if the contract is paused, and false otherwise."
      },
      "renounceRole(bytes32,address)": {
        "details": "Revokes `role` from the calling account. Roles are often managed via {grantRole} and {revokeRole}: this function's purpose is to provide a mechanism for accounts to lose their privileges if they are compromised (such as when a trusted device is misplaced). If the calling account had been revoked `role`, emits a {RoleRevoked} event. Requirements: - the caller must be `account`."
      },
      "revokeRole(bytes32,address)": {
        "details": "Revokes `role` from `account`. If `account` had been granted `role`, emits a {RoleRevoked} event. Requirements: - the caller must have ``role``'s admin role."
      },
      "supportsInterface(bytes4)": {
        "details": "See {IERC165-supportsInterface}."
      },
      "unpause()": {
        "details": "Unpauses crowdsale transfers. See {CrowdsalePausable} and {Pausable-_unpause}. Requirements: - the caller must have the `PAUSER_ROLE`."
      }
    },
    "version": 1
  },
  "userdoc": {
    "events": {
      "TimedCrowdsaleExtended(uint256,uint256)": {
        "notice": "Event for crowdsale extending"
      },
      "TokensPurchased(address,address,uint256,uint256)": {
        "notice": "Event for token purchase logging"
      }
    },
    "kind": "user",
    "methods": {},
    "version": 1
  }
}