{
  "contractName": "TimeContract",
  "abi": [
    {
      "inputs": [
        {
          "internalType": "uint256",
          "name": "newStartTime",
          "type": "uint256"
        }
      ],
      "stateMutability": "nonpayable",
      "type": "constructor"
    },
    {
      "inputs": [],
      "name": "isNowAfter",
      "outputs": [
        {
          "internalType": "bool",
          "name": "",
          "type": "bool"
        }
      ],
      "stateMutability": "view",
      "type": "function"
    }
  ],
  "bytecode": "0x608060405234801561001057600080fd5b506040516101703803806101708339818101604052810190610032919061007a565b80600081905550506100a7565b600080fd5b6000819050919050565b61005781610044565b811461006257600080fd5b50565b6000815190506100748161004e565b92915050565b6000602082840312156100905761008f61003f565b5b600061009e84828501610065565b91505092915050565b60bb806100b56000396000f3fe6080604052348015600f57600080fd5b506004361060285760003560e01c8063c1b2dc5714602d575b600080fd5b60336047565b604051603e9190606c565b60405180910390f35b60008054421015905090565b60008115159050919050565b6066816053565b82525050565b6000602082019050607f6000830184605f565b9291505056fea264697066735822122016eaa6403665d8f578bcee43a612764ddb71095d045ceeee9ea5bdf518ad7de164736f6c634300080e0033",
  "immutableReferences": {},
  "source": "// SPDX-License-Identifier: MIT\r\npragma solidity ^0.8.0;\r\n\r\ncontract TimeContract {\r\n  uint256 private startTime;\r\n\r\n  constructor(uint256 newStartTime) {\r\n    startTime = newStartTime;\r\n  }\r\n\r\n  /**\r\n  * isNowAfter will return true if now is after the given start time\r\n  */\r\n  function isNowAfter() external view returns (bool){\r\n      return (block.timestamp >= startTime);\r\n  }\r\n}",
  "sourcePath": "D:\\Files\\Blockchain\\Summer-Projects\\01.Crowdsale\\Crowdsale-App\\contracts\\TimeContract.sol",
  "compiler": {
    "name": "solc",
    "version": "0.8.14+commit.80d49f37.Emscripten.clang"
  },
  "schemaVersion": "3.4.3",
  "updatedAt": "2022-05-25T03:51:37.937Z",
  "devdoc": {
    "kind": "dev",
    "methods": {},
    "version": 1
  },
  "userdoc": {
    "kind": "user",
    "methods": {
      "isNowAfter()": {
        "notice": "isNowAfter will return true if now is after the given start time"
      }
    },
    "version": 1
  }
}