{
  "contractName": "Time",
  "abi": [
    {
      "inputs": [],
      "name": "getTimeStamp",
      "outputs": [
        {
          "internalType": "uint256",
          "name": "",
          "type": "uint256"
        }
      ],
      "stateMutability": "view",
      "type": "function",
      "constant": true
    }
  ],
  "bytecode": "0x608060405234801561001057600080fd5b5060b58061001f6000396000f3fe6080604052348015600f57600080fd5b506004361060285760003560e01c8063da235b2214602d575b600080fd5b60336047565b604051603e91906066565b60405180910390f35b600042905090565b6000819050919050565b606081604f565b82525050565b6000602082019050607960008301846059565b9291505056fea264697066735822122064f7038da9a39ad8de815d84cc9497841caa8c2c3012b334676b79d7d94dc3ee64736f6c634300080e0033",
  "immutableReferences": {},
  "source": "// SPDX-License-Identifier: MIT\r\npragma solidity ^0.8.0;pragma solidity ^0.8;\r\n\r\ncontract Time {\r\n    function getTimeStamp() public view returns(uint) {\r\n        return block.timestamp;\r\n    }\r\n}",
  "sourcePath": "D:\\Files\\Blockchain\\Summer-Projects\\01.Crowdsale\\Crowdsale-App\\contracts\\Time.sol",
  "compiler": {
    "name": "solc",
    "version": "0.8.14+commit.80d49f37.Emscripten.clang"
  },
  "schemaVersion": "3.4.3",
  "updatedAt": "2022-05-24T05:05:24.081Z",
  "networkType": "ethereum",
  "devdoc": {
    "kind": "dev",
    "methods": {},
    "version": 1
  },
  "userdoc": {
    "kind": "user",
    "methods": {},
    "version": 1
  }
}